{
	"ZUNIEGA - ETH+AVAX MOD 4/DegenToken.sol": {
		"DegenToken": {
			"abi": [
				{
					"inputs": [],
					"stateMutability": "nonpayable",
					"type": "constructor"
				},
				{
					"anonymous": false,
					"inputs": [
						{
							"indexed": true,
							"internalType": "address",
							"name": "owner",
							"type": "address"
						},
						{
							"indexed": true,
							"internalType": "address",
							"name": "spender",
							"type": "address"
						},
						{
							"indexed": false,
							"internalType": "uint256",
							"name": "value",
							"type": "uint256"
						}
					],
					"name": "Approval",
					"type": "event"
				},
				{
					"anonymous": false,
					"inputs": [
						{
							"indexed": true,
							"internalType": "address",
							"name": "user",
							"type": "address"
						},
						{
							"indexed": false,
							"internalType": "enum DegenToken.Item",
							"name": "item",
							"type": "uint8"
						},
						{
							"indexed": false,
							"internalType": "uint256",
							"name": "price",
							"type": "uint256"
						}
					],
					"name": "ItemRedeemed",
					"type": "event"
				},
				{
					"anonymous": false,
					"inputs": [
						{
							"indexed": true,
							"internalType": "address",
							"name": "previousOwner",
							"type": "address"
						},
						{
							"indexed": true,
							"internalType": "address",
							"name": "newOwner",
							"type": "address"
						}
					],
					"name": "OwnershipTransferred",
					"type": "event"
				},
				{
					"anonymous": false,
					"inputs": [
						{
							"indexed": true,
							"internalType": "address",
							"name": "from",
							"type": "address"
						},
						{
							"indexed": true,
							"internalType": "address",
							"name": "to",
							"type": "address"
						},
						{
							"indexed": false,
							"internalType": "uint256",
							"name": "value",
							"type": "uint256"
						}
					],
					"name": "Transfer",
					"type": "event"
				},
				{
					"inputs": [
						{
							"internalType": "address",
							"name": "owner",
							"type": "address"
						},
						{
							"internalType": "address",
							"name": "spender",
							"type": "address"
						}
					],
					"name": "allowance",
					"outputs": [
						{
							"internalType": "uint256",
							"name": "",
							"type": "uint256"
						}
					],
					"stateMutability": "view",
					"type": "function"
				},
				{
					"inputs": [
						{
							"internalType": "address",
							"name": "spender",
							"type": "address"
						},
						{
							"internalType": "uint256",
							"name": "amount",
							"type": "uint256"
						}
					],
					"name": "approve",
					"outputs": [
						{
							"internalType": "bool",
							"name": "",
							"type": "bool"
						}
					],
					"stateMutability": "nonpayable",
					"type": "function"
				},
				{
					"inputs": [
						{
							"internalType": "address",
							"name": "account",
							"type": "address"
						}
					],
					"name": "balanceOf",
					"outputs": [
						{
							"internalType": "uint256",
							"name": "",
							"type": "uint256"
						}
					],
					"stateMutability": "view",
					"type": "function"
				},
				{
					"inputs": [
						{
							"internalType": "uint256",
							"name": "amount",
							"type": "uint256"
						}
					],
					"name": "burn",
					"outputs": [],
					"stateMutability": "nonpayable",
					"type": "function"
				},
				{
					"inputs": [
						{
							"internalType": "address",
							"name": "account",
							"type": "address"
						},
						{
							"internalType": "uint256",
							"name": "amount",
							"type": "uint256"
						}
					],
					"name": "burnFrom",
					"outputs": [],
					"stateMutability": "nonpayable",
					"type": "function"
				},
				{
					"inputs": [
						{
							"internalType": "uint256",
							"name": "_value",
							"type": "uint256"
						}
					],
					"name": "burnTokens",
					"outputs": [],
					"stateMutability": "nonpayable",
					"type": "function"
				},
				{
					"inputs": [],
					"name": "decimals",
					"outputs": [
						{
							"internalType": "uint8",
							"name": "",
							"type": "uint8"
						}
					],
					"stateMutability": "pure",
					"type": "function"
				},
				{
					"inputs": [
						{
							"internalType": "address",
							"name": "spender",
							"type": "address"
						},
						{
							"internalType": "uint256",
							"name": "subtractedValue",
							"type": "uint256"
						}
					],
					"name": "decreaseAllowance",
					"outputs": [
						{
							"internalType": "bool",
							"name": "",
							"type": "bool"
						}
					],
					"stateMutability": "nonpayable",
					"type": "function"
				},
				{
					"inputs": [],
					"name": "getBalance",
					"outputs": [
						{
							"internalType": "uint256",
							"name": "",
							"type": "uint256"
						}
					],
					"stateMutability": "view",
					"type": "function"
				},
				{
					"inputs": [
						{
							"internalType": "address",
							"name": "account",
							"type": "address"
						}
					],
					"name": "getRedeemedItem",
					"outputs": [
						{
							"internalType": "enum DegenToken.Item",
							"name": "",
							"type": "uint8"
						}
					],
					"stateMutability": "view",
					"type": "function"
				},
				{
					"inputs": [
						{
							"internalType": "address",
							"name": "spender",
							"type": "address"
						},
						{
							"internalType": "uint256",
							"name": "addedValue",
							"type": "uint256"
						}
					],
					"name": "increaseAllowance",
					"outputs": [
						{
							"internalType": "bool",
							"name": "",
							"type": "bool"
						}
					],
					"stateMutability": "nonpayable",
					"type": "function"
				},
				{
					"inputs": [
						{
							"internalType": "enum DegenToken.Item",
							"name": "",
							"type": "uint8"
						}
					],
					"name": "itemPrices",
					"outputs": [
						{
							"internalType": "uint256",
							"name": "",
							"type": "uint256"
						}
					],
					"stateMutability": "view",
					"type": "function"
				},
				{
					"inputs": [
						{
							"internalType": "address",
							"name": "to",
							"type": "address"
						},
						{
							"internalType": "uint256",
							"name": "amount",
							"type": "uint256"
						}
					],
					"name": "mint",
					"outputs": [],
					"stateMutability": "nonpayable",
					"type": "function"
				},
				{
					"inputs": [],
					"name": "name",
					"outputs": [
						{
							"internalType": "string",
							"name": "",
							"type": "string"
						}
					],
					"stateMutability": "view",
					"type": "function"
				},
				{
					"inputs": [],
					"name": "owner",
					"outputs": [
						{
							"internalType": "address",
							"name": "",
							"type": "address"
						}
					],
					"stateMutability": "view",
					"type": "function"
				},
				{
					"inputs": [
						{
							"internalType": "enum DegenToken.Item",
							"name": "item",
							"type": "uint8"
						}
					],
					"name": "redeem",
					"outputs": [],
					"stateMutability": "nonpayable",
					"type": "function"
				},
				{
					"inputs": [
						{
							"internalType": "uint256",
							"name": "_value",
							"type": "uint256"
						}
					],
					"name": "redeemTokens",
					"outputs": [],
					"stateMutability": "nonpayable",
					"type": "function"
				},
				{
					"inputs": [
						{
							"internalType": "address",
							"name": "",
							"type": "address"
						}
					],
					"name": "redeemedItems",
					"outputs": [
						{
							"internalType": "enum DegenToken.Item",
							"name": "",
							"type": "uint8"
						}
					],
					"stateMutability": "view",
					"type": "function"
				},
				{
					"inputs": [],
					"name": "renounceOwnership",
					"outputs": [],
					"stateMutability": "nonpayable",
					"type": "function"
				},
				{
					"inputs": [],
					"name": "symbol",
					"outputs": [
						{
							"internalType": "string",
							"name": "",
							"type": "string"
						}
					],
					"stateMutability": "view",
					"type": "function"
				},
				{
					"inputs": [],
					"name": "totalSupply",
					"outputs": [
						{
							"internalType": "uint256",
							"name": "",
							"type": "uint256"
						}
					],
					"stateMutability": "view",
					"type": "function"
				},
				{
					"inputs": [
						{
							"internalType": "address",
							"name": "to",
							"type": "address"
						},
						{
							"internalType": "uint256",
							"name": "amount",
							"type": "uint256"
						}
					],
					"name": "transfer",
					"outputs": [
						{
							"internalType": "bool",
							"name": "",
							"type": "bool"
						}
					],
					"stateMutability": "nonpayable",
					"type": "function"
				},
				{
					"inputs": [
						{
							"internalType": "address",
							"name": "from",
							"type": "address"
						},
						{
							"internalType": "address",
							"name": "to",
							"type": "address"
						},
						{
							"internalType": "uint256",
							"name": "amount",
							"type": "uint256"
						}
					],
					"name": "transferFrom",
					"outputs": [
						{
							"internalType": "bool",
							"name": "",
							"type": "bool"
						}
					],
					"stateMutability": "nonpayable",
					"type": "function"
				},
				{
					"inputs": [
						{
							"internalType": "address",
							"name": "newOwner",
							"type": "address"
						}
					],
					"name": "transferOwnership",
					"outputs": [],
					"stateMutability": "nonpayable",
					"type": "function"
				},
				{
					"inputs": [
						{
							"internalType": "address",
							"name": "_receiver",
							"type": "address"
						},
						{
							"internalType": "uint256",
							"name": "_value",
							"type": "uint256"
						}
					],
					"name": "transferTokens",
					"outputs": [],
					"stateMutability": "nonpayable",
					"type": "function"
				}
			],
			"devdoc": {
				"events": {
					"Approval(address,address,uint256)": {
						"details": "Emitted when the allowance of a `spender` for an `owner` is set by a call to {approve}. `value` is the new allowance."
					},
					"Transfer(address,address,uint256)": {
						"details": "Emitted when `value` tokens are moved from one account (`from`) to another (`to`). Note that `value` may be zero."
					}
				},
				"kind": "dev",
				"methods": {
					"allowance(address,address)": {
						"details": "See {IERC20-allowance}."
					},
					"approve(address,uint256)": {
						"details": "See {IERC20-approve}. NOTE: If `amount` is the maximum `uint256`, the allowance is not updated on `transferFrom`. This is semantically equivalent to an infinite approval. Requirements: - `spender` cannot be the zero address."
					},
					"balanceOf(address)": {
						"details": "See {IERC20-balanceOf}."
					},
					"burn(uint256)": {
						"details": "Destroys `amount` tokens from the caller. See {ERC20-_burn}."
					},
					"burnFrom(address,uint256)": {
						"details": "Destroys `amount` tokens from `account`, deducting from the caller's allowance. See {ERC20-_burn} and {ERC20-allowance}. Requirements: - the caller must have allowance for ``accounts``'s tokens of at least `amount`."
					},
					"decimals()": {
						"details": "Returns the number of decimals used to get its user representation. For example, if `decimals` equals `2`, a balance of `505` tokens should be displayed to a user as `5.05` (`505 / 10 ** 2`). Tokens usually opt for a value of 18, imitating the relationship between Ether and Wei. This is the default value returned by this function, unless it's overridden. NOTE: This information is only used for _display_ purposes: it in no way affects any of the arithmetic of the contract, including {IERC20-balanceOf} and {IERC20-transfer}."
					},
					"decreaseAllowance(address,uint256)": {
						"details": "Atomically decreases the allowance granted to `spender` by the caller. This is an alternative to {approve} that can be used as a mitigation for problems described in {IERC20-approve}. Emits an {Approval} event indicating the updated allowance. Requirements: - `spender` cannot be the zero address. - `spender` must have allowance for the caller of at least `subtractedValue`."
					},
					"increaseAllowance(address,uint256)": {
						"details": "Atomically increases the allowance granted to `spender` by the caller. This is an alternative to {approve} that can be used as a mitigation for problems described in {IERC20-approve}. Emits an {Approval} event indicating the updated allowance. Requirements: - `spender` cannot be the zero address."
					},
					"name()": {
						"details": "Returns the name of the token."
					},
					"owner()": {
						"details": "Returns the address of the current owner."
					},
					"renounceOwnership()": {
						"details": "Leaves the contract without owner. It will not be possible to call `onlyOwner` functions. Can only be called by the current owner. NOTE: Renouncing ownership will leave the contract without an owner, thereby disabling any functionality that is only available to the owner."
					},
					"symbol()": {
						"details": "Returns the symbol of the token, usually a shorter version of the name."
					},
					"totalSupply()": {
						"details": "See {IERC20-totalSupply}."
					},
					"transfer(address,uint256)": {
						"details": "See {IERC20-transfer}. Requirements: - `to` cannot be the zero address. - the caller must have a balance of at least `amount`."
					},
					"transferFrom(address,address,uint256)": {
						"details": "See {IERC20-transferFrom}. Emits an {Approval} event indicating the updated allowance. This is not required by the EIP. See the note at the beginning of {ERC20}. NOTE: Does not update the allowance if the current allowance is the maximum `uint256`. Requirements: - `from` and `to` cannot be the zero address. - `from` must have a balance of at least `amount`. - the caller must have allowance for ``from``'s tokens of at least `amount`."
					},
					"transferOwnership(address)": {
						"details": "Transfers ownership of the contract to a new account (`newOwner`). Can only be called by the current owner."
					}
				},
				"version": 1
			},
			"evm": {
				"assembly": "    /* \"ZUNIEGA - ETH+AVAX MOD 4/DegenToken.sol\":268:2632  contract DegenToken is ERC20, Ownable, ERC20Burnable {... */\n  mstore(0x40, 0x80)\n    /* \"ZUNIEGA - ETH+AVAX MOD 4/DegenToken.sol\":692:1165  constructor() ERC20(\"Degen\", \"DGN\") {... */\n  callvalue\n  dup1\n  iszero\n  tag_1\n  jumpi\n  0x00\n  dup1\n  revert\ntag_1:\n  pop\n    /* \"@openzeppelin/contracts@4.9.0/token/ERC20/ERC20.sol\":1980:2093  constructor(string memory name_, string memory symbol_) {... */\n  mload(0x40)\n  dup1\n  0x40\n  add\n  0x40\n  mstore\n  dup1\n  0x05\n  dup2\n  mstore\n  0x20\n  add\n  0x446567656e000000000000000000000000000000000000000000000000000000\n  dup2\n  mstore\n  pop\n  mload(0x40)\n  dup1\n  0x40\n  add\n  0x40\n  mstore\n  dup1\n  0x03\n  dup2\n  mstore\n  0x20\n  add\n  0x44474e0000000000000000000000000000000000000000000000000000000000\n  dup2\n  mstore\n  pop\n    /* \"@openzeppelin/contracts@4.9.0/token/ERC20/ERC20.sol\":2054:2059  name_ */\n  dup2\n    /* \"@openzeppelin/contracts@4.9.0/token/ERC20/ERC20.sol\":2046:2051  _name */\n  0x03\n    /* \"@openzeppelin/contracts@4.9.0/token/ERC20/ERC20.sol\":2046:2059  _name = name_ */\n  swap1\n  dup2\n  tag_6\n  swap2\n  swap1\n  tag_7\n  jump\t// in\ntag_6:\n  pop\n    /* \"@openzeppelin/contracts@4.9.0/token/ERC20/ERC20.sol\":2079:2086  symbol_ */\n  dup1\n    /* \"@openzeppelin/contracts@4.9.0/token/ERC20/ERC20.sol\":2069:2076  _symbol */\n  0x04\n    /* \"@openzeppelin/contracts@4.9.0/token/ERC20/ERC20.sol\":2069:2086  _symbol = symbol_ */\n  swap1\n  dup2\n  tag_8\n  swap2\n  swap1\n  tag_7\n  jump\t// in\ntag_8:\n  pop\n    /* \"@openzeppelin/contracts@4.9.0/token/ERC20/ERC20.sol\":1980:2093  constructor(string memory name_, string memory symbol_) {... */\n  pop\n  pop\n    /* \"@openzeppelin/contracts@4.9.0/access/Ownable.sol\":936:968  _transferOwnership(_msgSender()) */\n  tag_10\n    /* \"@openzeppelin/contracts@4.9.0/access/Ownable.sol\":955:967  _msgSender() */\n  tag_11\n    /* \"@openzeppelin/contracts@4.9.0/access/Ownable.sol\":955:965  _msgSender */\n  shl(0x20, tag_12)\n    /* \"@openzeppelin/contracts@4.9.0/access/Ownable.sol\":955:967  _msgSender() */\n  0x20\n  shr\n  jump\t// in\ntag_11:\n    /* \"@openzeppelin/contracts@4.9.0/access/Ownable.sol\":936:954  _transferOwnership */\n  shl(0x20, tag_13)\n    /* \"@openzeppelin/contracts@4.9.0/access/Ownable.sol\":936:968  _transferOwnership(_msgSender()) */\n  0x20\n  shr\n  jump\t// in\ntag_10:\n    /* \"ZUNIEGA - ETH+AVAX MOD 4/DegenToken.sol\":739:765  _mint(msg.sender, 1000000) */\n  tag_15\n    /* \"ZUNIEGA - ETH+AVAX MOD 4/DegenToken.sol\":745:755  msg.sender */\n  caller\n    /* \"ZUNIEGA - ETH+AVAX MOD 4/DegenToken.sol\":757:764  1000000 */\n  0x0f4240\n    /* \"ZUNIEGA - ETH+AVAX MOD 4/DegenToken.sol\":739:744  _mint */\n  shl(0x20, tag_16)\n    /* \"ZUNIEGA - ETH+AVAX MOD 4/DegenToken.sol\":739:765  _mint(msg.sender, 1000000) */\n  0x20\n  shr\n  jump\t// in\ntag_15:\n    /* \"ZUNIEGA - ETH+AVAX MOD 4/DegenToken.sol\":803:806  100 */\n  0x64\n    /* \"ZUNIEGA - ETH+AVAX MOD 4/DegenToken.sol\":778:788  itemPrices */\n  0x06\n    /* \"ZUNIEGA - ETH+AVAX MOD 4/DegenToken.sol\":778:800  itemPrices[Item.Knife] */\n  0x00\n    /* \"ZUNIEGA - ETH+AVAX MOD 4/DegenToken.sol\":789:799  Item.Knife */\n  dup1\n    /* \"ZUNIEGA - ETH+AVAX MOD 4/DegenToken.sol\":778:800  itemPrices[Item.Knife] */\n  0x09\n  dup2\n  gt\n  iszero\n  tag_17\n  jumpi\n  tag_18\n  tag_19\n  jump\t// in\ntag_18:\ntag_17:\n  0x09\n  dup2\n  gt\n  iszero\n  tag_20\n  jumpi\n  tag_21\n  tag_19\n  jump\t// in\ntag_21:\ntag_20:\n  dup2\n  mstore\n  0x20\n  add\n  swap1\n  dup2\n  mstore\n  0x20\n  add\n  0x00\n  keccak256\n    /* \"ZUNIEGA - ETH+AVAX MOD 4/DegenToken.sol\":778:806  itemPrices[Item.Knife] = 100 */\n  dup2\n  swap1\n  sstore\n  pop\n    /* \"ZUNIEGA - ETH+AVAX MOD 4/DegenToken.sol\":842:845  200 */\n  0xc8\n    /* \"ZUNIEGA - ETH+AVAX MOD 4/DegenToken.sol\":817:827  itemPrices */\n  0x06\n    /* \"ZUNIEGA - ETH+AVAX MOD 4/DegenToken.sol\":817:839  itemPrices[Item.Glove] */\n  0x00\n    /* \"ZUNIEGA - ETH+AVAX MOD 4/DegenToken.sol\":828:838  Item.Glove */\n  0x01\n    /* \"ZUNIEGA - ETH+AVAX MOD 4/DegenToken.sol\":817:839  itemPrices[Item.Glove] */\n  0x09\n  dup2\n  gt\n  iszero\n  tag_22\n  jumpi\n  tag_23\n  tag_19\n  jump\t// in\ntag_23:\ntag_22:\n  0x09\n  dup2\n  gt\n  iszero\n  tag_24\n  jumpi\n  tag_25\n  tag_19\n  jump\t// in\ntag_25:\ntag_24:\n  dup2\n  mstore\n  0x20\n  add\n  swap1\n  dup2\n  mstore\n  0x20\n  add\n  0x00\n  keccak256\n    /* \"ZUNIEGA - ETH+AVAX MOD 4/DegenToken.sol\":817:845  itemPrices[Item.Glove] = 200 */\n  dup2\n  swap1\n  sstore\n  pop\n    /* \"ZUNIEGA - ETH+AVAX MOD 4/DegenToken.sol\":882:885  150 */\n  0x96\n    /* \"ZUNIEGA - ETH+AVAX MOD 4/DegenToken.sol\":856:866  itemPrices */\n  0x06\n    /* \"ZUNIEGA - ETH+AVAX MOD 4/DegenToken.sol\":856:879  itemPrices[Item.Helmet] */\n  0x00\n    /* \"ZUNIEGA - ETH+AVAX MOD 4/DegenToken.sol\":867:878  Item.Helmet */\n  0x02\n    /* \"ZUNIEGA - ETH+AVAX MOD 4/DegenToken.sol\":856:879  itemPrices[Item.Helmet] */\n  0x09\n  dup2\n  gt\n  iszero\n  tag_26\n  jumpi\n  tag_27\n  tag_19\n  jump\t// in\ntag_27:\ntag_26:\n  0x09\n  dup2\n  gt\n  iszero\n  tag_28\n  jumpi\n  tag_29\n  tag_19\n  jump\t// in\ntag_29:\ntag_28:\n  dup2\n  mstore\n  0x20\n  add\n  swap1\n  dup2\n  mstore\n  0x20\n  add\n  0x00\n  keccak256\n    /* \"ZUNIEGA - ETH+AVAX MOD 4/DegenToken.sol\":856:885  itemPrices[Item.Helmet] = 150 */\n  dup2\n  swap1\n  sstore\n  pop\n    /* \"ZUNIEGA - ETH+AVAX MOD 4/DegenToken.sol\":922:925  180 */\n  0xb4\n    /* \"ZUNIEGA - ETH+AVAX MOD 4/DegenToken.sol\":896:906  itemPrices */\n  0x06\n    /* \"ZUNIEGA - ETH+AVAX MOD 4/DegenToken.sol\":896:919  itemPrices[Item.Shield] */\n  0x00\n    /* \"ZUNIEGA - ETH+AVAX MOD 4/DegenToken.sol\":907:918  Item.Shield */\n  0x03\n    /* \"ZUNIEGA - ETH+AVAX MOD 4/DegenToken.sol\":896:919  itemPrices[Item.Shield] */\n  0x09\n  dup2\n  gt\n  iszero\n  tag_30\n  jumpi\n  tag_31\n  tag_19\n  jump\t// in\ntag_31:\ntag_30:\n  0x09\n  dup2\n  gt\n  iszero\n  tag_32\n  jumpi\n  tag_33\n  tag_19\n  jump\t// in\ntag_33:\ntag_32:\n  dup2\n  mstore\n  0x20\n  add\n  swap1\n  dup2\n  mstore\n  0x20\n  add\n  0x00\n  keccak256\n    /* \"ZUNIEGA - ETH+AVAX MOD 4/DegenToken.sol\":896:925  itemPrices[Item.Shield] = 180 */\n  dup2\n  swap1\n  sstore\n  pop\n    /* \"ZUNIEGA - ETH+AVAX MOD 4/DegenToken.sol\":961:964  130 */\n  0x82\n    /* \"ZUNIEGA - ETH+AVAX MOD 4/DegenToken.sol\":936:946  itemPrices */\n  0x06\n    /* \"ZUNIEGA - ETH+AVAX MOD 4/DegenToken.sol\":936:958  itemPrices[Item.Armor] */\n  0x00\n    /* \"ZUNIEGA - ETH+AVAX MOD 4/DegenToken.sol\":947:957  Item.Armor */\n  0x04\n    /* \"ZUNIEGA - ETH+AVAX MOD 4/DegenToken.sol\":936:958  itemPrices[Item.Armor] */\n  0x09\n  dup2\n  gt\n  iszero\n  tag_34\n  jumpi\n  tag_35\n  tag_19\n  jump\t// in\ntag_35:\ntag_34:\n  0x09\n  dup2\n  gt\n  iszero\n  tag_36\n  jumpi\n  tag_37\n  tag_19\n  jump\t// in\ntag_37:\ntag_36:\n  dup2\n  mstore\n  0x20\n  add\n  swap1\n  dup2\n  mstore\n  0x20\n  add\n  0x00\n  keccak256\n    /* \"ZUNIEGA - ETH+AVAX MOD 4/DegenToken.sol\":936:964  itemPrices[Item.Armor] = 130 */\n  dup2\n  swap1\n  sstore\n  pop\n    /* \"ZUNIEGA - ETH+AVAX MOD 4/DegenToken.sol\":1000:1003  210 */\n  0xd2\n    /* \"ZUNIEGA - ETH+AVAX MOD 4/DegenToken.sol\":975:985  itemPrices */\n  0x06\n    /* \"ZUNIEGA - ETH+AVAX MOD 4/DegenToken.sol\":975:997  itemPrices[Item.Boots] */\n  0x00\n    /* \"ZUNIEGA - ETH+AVAX MOD 4/DegenToken.sol\":986:996  Item.Boots */\n  0x05\n    /* \"ZUNIEGA - ETH+AVAX MOD 4/DegenToken.sol\":975:997  itemPrices[Item.Boots] */\n  0x09\n  dup2\n  gt\n  iszero\n  tag_38\n  jumpi\n  tag_39\n  tag_19\n  jump\t// in\ntag_39:\ntag_38:\n  0x09\n  dup2\n  gt\n  iszero\n  tag_40\n  jumpi\n  tag_41\n  tag_19\n  jump\t// in\ntag_41:\ntag_40:\n  dup2\n  mstore\n  0x20\n  add\n  swap1\n  dup2\n  mstore\n  0x20\n  add\n  0x00\n  keccak256\n    /* \"ZUNIEGA - ETH+AVAX MOD 4/DegenToken.sol\":975:1003  itemPrices[Item.Boots] = 210 */\n  dup2\n  swap1\n  sstore\n  pop\n    /* \"ZUNIEGA - ETH+AVAX MOD 4/DegenToken.sol\":1038:1041  170 */\n  0xaa\n    /* \"ZUNIEGA - ETH+AVAX MOD 4/DegenToken.sol\":1014:1024  itemPrices */\n  0x06\n    /* \"ZUNIEGA - ETH+AVAX MOD 4/DegenToken.sol\":1014:1035  itemPrices[Item.Belt] */\n  0x00\n    /* \"ZUNIEGA - ETH+AVAX MOD 4/DegenToken.sol\":1025:1034  Item.Belt */\n  0x06\n    /* \"ZUNIEGA - ETH+AVAX MOD 4/DegenToken.sol\":1014:1035  itemPrices[Item.Belt] */\n  0x09\n  dup2\n  gt\n  iszero\n  tag_42\n  jumpi\n  tag_43\n  tag_19\n  jump\t// in\ntag_43:\ntag_42:\n  0x09\n  dup2\n  gt\n  iszero\n  tag_44\n  jumpi\n  tag_45\n  tag_19\n  jump\t// in\ntag_45:\ntag_44:\n  dup2\n  mstore\n  0x20\n  add\n  swap1\n  dup2\n  mstore\n  0x20\n  add\n  0x00\n  keccak256\n    /* \"ZUNIEGA - ETH+AVAX MOD 4/DegenToken.sol\":1014:1041  itemPrices[Item.Belt] = 170 */\n  dup2\n  swap1\n  sstore\n  pop\n    /* \"ZUNIEGA - ETH+AVAX MOD 4/DegenToken.sol\":1076:1079  160 */\n  0xa0\n    /* \"ZUNIEGA - ETH+AVAX MOD 4/DegenToken.sol\":1052:1062  itemPrices */\n  0x06\n    /* \"ZUNIEGA - ETH+AVAX MOD 4/DegenToken.sol\":1052:1073  itemPrices[Item.Ring] */\n  0x00\n    /* \"ZUNIEGA - ETH+AVAX MOD 4/DegenToken.sol\":1063:1072  Item.Ring */\n  0x07\n    /* \"ZUNIEGA - ETH+AVAX MOD 4/DegenToken.sol\":1052:1073  itemPrices[Item.Ring] */\n  0x09\n  dup2\n  gt\n  iszero\n  tag_46\n  jumpi\n  tag_47\n  tag_19\n  jump\t// in\ntag_47:\ntag_46:\n  0x09\n  dup2\n  gt\n  iszero\n  tag_48\n  jumpi\n  tag_49\n  tag_19\n  jump\t// in\ntag_49:\ntag_48:\n  dup2\n  mstore\n  0x20\n  add\n  swap1\n  dup2\n  mstore\n  0x20\n  add\n  0x00\n  keccak256\n    /* \"ZUNIEGA - ETH+AVAX MOD 4/DegenToken.sol\":1052:1079  itemPrices[Item.Ring] = 160 */\n  dup2\n  swap1\n  sstore\n  pop\n    /* \"ZUNIEGA - ETH+AVAX MOD 4/DegenToken.sol\":1116:1118  90 */\n  0x5a\n    /* \"ZUNIEGA - ETH+AVAX MOD 4/DegenToken.sol\":1090:1100  itemPrices */\n  0x06\n    /* \"ZUNIEGA - ETH+AVAX MOD 4/DegenToken.sol\":1090:1113  itemPrices[Item.Amulet] */\n  0x00\n    /* \"ZUNIEGA - ETH+AVAX MOD 4/DegenToken.sol\":1101:1112  Item.Amulet */\n  0x08\n    /* \"ZUNIEGA - ETH+AVAX MOD 4/DegenToken.sol\":1090:1113  itemPrices[Item.Amulet] */\n  0x09\n  dup2\n  gt\n  iszero\n  tag_50\n  jumpi\n  tag_51\n  tag_19\n  jump\t// in\ntag_51:\ntag_50:\n  0x09\n  dup2\n  gt\n  iszero\n  tag_52\n  jumpi\n  tag_53\n  tag_19\n  jump\t// in\ntag_53:\ntag_52:\n  dup2\n  mstore\n  0x20\n  add\n  swap1\n  dup2\n  mstore\n  0x20\n  add\n  0x00\n  keccak256\n    /* \"ZUNIEGA - ETH+AVAX MOD 4/DegenToken.sol\":1090:1118  itemPrices[Item.Amulet] = 90 */\n  dup2\n  swap1\n  sstore\n  pop\n    /* \"ZUNIEGA - ETH+AVAX MOD 4/DegenToken.sol\":1154:1157  220 */\n  0xdc\n    /* \"ZUNIEGA - ETH+AVAX MOD 4/DegenToken.sol\":1129:1139  itemPrices */\n  0x06\n    /* \"ZUNIEGA - ETH+AVAX MOD 4/DegenToken.sol\":1129:1151  itemPrices[Item.Cloak] */\n  0x00\n    /* \"ZUNIEGA - ETH+AVAX MOD 4/DegenToken.sol\":1140:1150  Item.Cloak */\n  0x09\n    /* \"ZUNIEGA - ETH+AVAX MOD 4/DegenToken.sol\":1129:1151  itemPrices[Item.Cloak] */\n  dup1\n  dup2\n  gt\n  iszero\n  tag_54\n  jumpi\n  tag_55\n  tag_19\n  jump\t// in\ntag_55:\ntag_54:\n  0x09\n  dup2\n  gt\n  iszero\n  tag_56\n  jumpi\n  tag_57\n  tag_19\n  jump\t// in\ntag_57:\ntag_56:\n  dup2\n  mstore\n  0x20\n  add\n  swap1\n  dup2\n  mstore\n  0x20\n  add\n  0x00\n  keccak256\n    /* \"ZUNIEGA - ETH+AVAX MOD 4/DegenToken.sol\":1129:1157  itemPrices[Item.Cloak] = 220 */\n  dup2\n  swap1\n  sstore\n  pop\n    /* \"ZUNIEGA - ETH+AVAX MOD 4/DegenToken.sol\":268:2632  contract DegenToken is ERC20, Ownable, ERC20Burnable {... */\n  jump(tag_58)\n    /* \"@openzeppelin/contracts@4.9.0/utils/Context.sol\":640:736  function _msgSender() internal view virtual returns (address) {... */\ntag_12:\n    /* \"@openzeppelin/contracts@4.9.0/utils/Context.sol\":693:700  address */\n  0x00\n    /* \"@openzeppelin/contracts@4.9.0/utils/Context.sol\":719:729  msg.sender */\n  caller\n    /* \"@openzeppelin/contracts@4.9.0/utils/Context.sol\":712:729  return msg.sender */\n  swap1\n  pop\n    /* \"@openzeppelin/contracts@4.9.0/utils/Context.sol\":640:736  function _msgSender() internal view virtual returns (address) {... */\n  swap1\n  jump\t// out\n    /* \"@openzeppelin/contracts@4.9.0/access/Ownable.sol\":2426:2613  function _transferOwnership(address newOwner) internal virtual {... */\ntag_13:\n    /* \"@openzeppelin/contracts@4.9.0/access/Ownable.sol\":2499:2515  address oldOwner */\n  0x00\n    /* \"@openzeppelin/contracts@4.9.0/access/Ownable.sol\":2518:2524  _owner */\n  0x05\n  0x00\n  swap1\n  sload\n  swap1\n  0x0100\n  exp\n  swap1\n  div\n  0xffffffffffffffffffffffffffffffffffffffff\n  and\n    /* \"@openzeppelin/contracts@4.9.0/access/Ownable.sol\":2499:2524  address oldOwner = _owner */\n  swap1\n  pop\n    /* \"@openzeppelin/contracts@4.9.0/access/Ownable.sol\":2543:2551  newOwner */\n  dup2\n    /* \"@openzeppelin/contracts@4.9.0/access/Ownable.sol\":2534:2540  _owner */\n  0x05\n  0x00\n    /* \"@openzeppelin/contracts@4.9.0/access/Ownable.sol\":2534:2551  _owner = newOwner */\n  0x0100\n  exp\n  dup2\n  sload\n  dup2\n  0xffffffffffffffffffffffffffffffffffffffff\n  mul\n  not\n  and\n  swap1\n  dup4\n  0xffffffffffffffffffffffffffffffffffffffff\n  and\n  mul\n  or\n  swap1\n  sstore\n  pop\n    /* \"@openzeppelin/contracts@4.9.0/access/Ownable.sol\":2597:2605  newOwner */\n  dup2\n    /* \"@openzeppelin/contracts@4.9.0/access/Ownable.sol\":2566:2606  OwnershipTransferred(oldOwner, newOwner) */\n  0xffffffffffffffffffffffffffffffffffffffff\n  and\n    /* \"@openzeppelin/contracts@4.9.0/access/Ownable.sol\":2587:2595  oldOwner */\n  dup2\n    /* \"@openzeppelin/contracts@4.9.0/access/Ownable.sol\":2566:2606  OwnershipTransferred(oldOwner, newOwner) */\n  0xffffffffffffffffffffffffffffffffffffffff\n  and\n  0x8be0079c531659141344cd1fd0a4f28419497f9722a3daafe3b4186f6b6457e0\n  mload(0x40)\n  mload(0x40)\n  dup1\n  swap2\n  sub\n  swap1\n  log3\n    /* \"@openzeppelin/contracts@4.9.0/access/Ownable.sol\":2489:2613  {... */\n  pop\n    /* \"@openzeppelin/contracts@4.9.0/access/Ownable.sol\":2426:2613  function _transferOwnership(address newOwner) internal virtual {... */\n  pop\n  jump\t// out\n    /* \"@openzeppelin/contracts@4.9.0/token/ERC20/ERC20.sol\":8520:9055  function _mint(address account, uint256 amount) internal virtual {... */\ntag_16:\n    /* \"@openzeppelin/contracts@4.9.0/token/ERC20/ERC20.sol\":8622:8623  0 */\n  0x00\n    /* \"@openzeppelin/contracts@4.9.0/token/ERC20/ERC20.sol\":8603:8624  account != address(0) */\n  0xffffffffffffffffffffffffffffffffffffffff\n  and\n    /* \"@openzeppelin/contracts@4.9.0/token/ERC20/ERC20.sol\":8603:8610  account */\n  dup3\n    /* \"@openzeppelin/contracts@4.9.0/token/ERC20/ERC20.sol\":8603:8624  account != address(0) */\n  0xffffffffffffffffffffffffffffffffffffffff\n  and\n  sub\n    /* \"@openzeppelin/contracts@4.9.0/token/ERC20/ERC20.sol\":8595:8660  require(account != address(0), \"ERC20: mint to the zero address\") */\n  tag_62\n  jumpi\n  mload(0x40)\n  0x08c379a000000000000000000000000000000000000000000000000000000000\n  dup2\n  mstore\n  0x04\n  add\n  tag_63\n  swap1\n  tag_64\n  jump\t// in\ntag_63:\n  mload(0x40)\n  dup1\n  swap2\n  sub\n  swap1\n  revert\ntag_62:\n    /* \"@openzeppelin/contracts@4.9.0/token/ERC20/ERC20.sol\":8671:8720  _beforeTokenTransfer(address(0), account, amount) */\n  tag_65\n    /* \"@openzeppelin/contracts@4.9.0/token/ERC20/ERC20.sol\":8700:8701  0 */\n  0x00\n    /* \"@openzeppelin/contracts@4.9.0/token/ERC20/ERC20.sol\":8704:8711  account */\n  dup4\n    /* \"@openzeppelin/contracts@4.9.0/token/ERC20/ERC20.sol\":8713:8719  amount */\n  dup4\n    /* \"@openzeppelin/contracts@4.9.0/token/ERC20/ERC20.sol\":8671:8691  _beforeTokenTransfer */\n  shl(0x20, tag_66)\n    /* \"@openzeppelin/contracts@4.9.0/token/ERC20/ERC20.sol\":8671:8720  _beforeTokenTransfer(address(0), account, amount) */\n  0x20\n  shr\n  jump\t// in\ntag_65:\n    /* \"@openzeppelin/contracts@4.9.0/token/ERC20/ERC20.sol\":8747:8753  amount */\n  dup1\n    /* \"@openzeppelin/contracts@4.9.0/token/ERC20/ERC20.sol\":8731:8743  _totalSupply */\n  0x02\n  0x00\n    /* \"@openzeppelin/contracts@4.9.0/token/ERC20/ERC20.sol\":8731:8753  _totalSupply += amount */\n  dup3\n  dup3\n  sload\n  tag_67\n  swap2\n  swap1\n  tag_68\n  jump\t// in\ntag_67:\n  swap3\n  pop\n  pop\n  dup2\n  swap1\n  sstore\n  pop\n    /* \"@openzeppelin/contracts@4.9.0/token/ERC20/ERC20.sol\":8921:8927  amount */\n  dup1\n    /* \"@openzeppelin/contracts@4.9.0/token/ERC20/ERC20.sol\":8899:8908  _balances */\n  0x00\n    /* \"@openzeppelin/contracts@4.9.0/token/ERC20/ERC20.sol\":8899:8917  _balances[account] */\n  dup1\n    /* \"@openzeppelin/contracts@4.9.0/token/ERC20/ERC20.sol\":8909:8916  account */\n  dup5\n    /* \"@openzeppelin/contracts@4.9.0/token/ERC20/ERC20.sol\":8899:8917  _balances[account] */\n  0xffffffffffffffffffffffffffffffffffffffff\n  and\n  0xffffffffffffffffffffffffffffffffffffffff\n  and\n  dup2\n  mstore\n  0x20\n  add\n  swap1\n  dup2\n  mstore\n  0x20\n  add\n  0x00\n  keccak256\n  0x00\n    /* \"@openzeppelin/contracts@4.9.0/token/ERC20/ERC20.sol\":8899:8927  _balances[account] += amount */\n  dup3\n  dup3\n  sload\n  add\n  swap3\n  pop\n  pop\n  dup2\n  swap1\n  sstore\n  pop\n    /* \"@openzeppelin/contracts@4.9.0/token/ERC20/ERC20.sol\":8973:8980  account */\n  dup2\n    /* \"@openzeppelin/contracts@4.9.0/token/ERC20/ERC20.sol\":8952:8989  Transfer(address(0), account, amount) */\n  0xffffffffffffffffffffffffffffffffffffffff\n  and\n    /* \"@openzeppelin/contracts@4.9.0/token/ERC20/ERC20.sol\":8969:8970  0 */\n  0x00\n    /* \"@openzeppelin/contracts@4.9.0/token/ERC20/ERC20.sol\":8952:8989  Transfer(address(0), account, amount) */\n  0xffffffffffffffffffffffffffffffffffffffff\n  and\n  0xddf252ad1be2c89b69c2b068fc378daa952ba7f163c4a11628f55a4df523b3ef\n    /* \"@openzeppelin/contracts@4.9.0/token/ERC20/ERC20.sol\":8982:8988  amount */\n  dup4\n    /* \"@openzeppelin/contracts@4.9.0/token/ERC20/ERC20.sol\":8952:8989  Transfer(address(0), account, amount) */\n  mload(0x40)\n  tag_69\n  swap2\n  swap1\n  tag_70\n  jump\t// in\ntag_69:\n  mload(0x40)\n  dup1\n  swap2\n  sub\n  swap1\n  log3\n    /* \"@openzeppelin/contracts@4.9.0/token/ERC20/ERC20.sol\":9000:9048  _afterTokenTransfer(address(0), account, amount) */\n  tag_71\n    /* \"@openzeppelin/contracts@4.9.0/token/ERC20/ERC20.sol\":9028:9029  0 */\n  0x00\n    /* \"@openzeppelin/contracts@4.9.0/token/ERC20/ERC20.sol\":9032:9039  account */\n  dup4\n    /* \"@openzeppelin/contracts@4.9.0/token/ERC20/ERC20.sol\":9041:9047  amount */\n  dup4\n    /* \"@openzeppelin/contracts@4.9.0/token/ERC20/ERC20.sol\":9000:9019  _afterTokenTransfer */\n  shl(0x20, tag_72)\n    /* \"@openzeppelin/contracts@4.9.0/token/ERC20/ERC20.sol\":9000:9048  _afterTokenTransfer(address(0), account, amount) */\n  0x20\n  shr\n  jump\t// in\ntag_71:\n    /* \"@openzeppelin/contracts@4.9.0/token/ERC20/ERC20.sol\":8520:9055  function _mint(address account, uint256 amount) internal virtual {... */\n  pop\n  pop\n  jump\t// out\n    /* \"@openzeppelin/contracts@4.9.0/token/ERC20/ERC20.sol\":12073:12164  function _beforeTokenTransfer(address from, address to, uint256 amount) internal virtual {} */\ntag_66:\n  pop\n  pop\n  pop\n  jump\t// out\n    /* \"@openzeppelin/contracts@4.9.0/token/ERC20/ERC20.sol\":12752:12842  function _afterTokenTransfer(address from, address to, uint256 amount) internal virtual {} */\ntag_72:\n  pop\n  pop\n  pop\n  jump\t// out\n    /* \"#utility.yul\":7:106   */\ntag_75:\n    /* \"#utility.yul\":59:65   */\n  0x00\n    /* \"#utility.yul\":93:98   */\n  dup2\n    /* \"#utility.yul\":87:99   */\n  mload\n    /* \"#utility.yul\":77:99   */\n  swap1\n  pop\n    /* \"#utility.yul\":7:106   */\n  swap2\n  swap1\n  pop\n  jump\t// out\n    /* \"#utility.yul\":112:292   */\ntag_76:\n    /* \"#utility.yul\":160:237   */\n  0x4e487b7100000000000000000000000000000000000000000000000000000000\n    /* \"#utility.yul\":157:158   */\n  0x00\n    /* \"#utility.yul\":150:238   */\n  mstore\n    /* \"#utility.yul\":257:261   */\n  0x41\n    /* \"#utility.yul\":254:255   */\n  0x04\n    /* \"#utility.yul\":247:262   */\n  mstore\n    /* \"#utility.yul\":281:285   */\n  0x24\n    /* \"#utility.yul\":278:279   */\n  0x00\n    /* \"#utility.yul\":271:286   */\n  revert\n    /* \"#utility.yul\":298:478   */\ntag_77:\n    /* \"#utility.yul\":346:423   */\n  0x4e487b7100000000000000000000000000000000000000000000000000000000\n    /* \"#utility.yul\":343:344   */\n  0x00\n    /* \"#utility.yul\":336:424   */\n  mstore\n    /* \"#utility.yul\":443:447   */\n  0x22\n    /* \"#utility.yul\":440:441   */\n  0x04\n    /* \"#utility.yul\":433:448   */\n  mstore\n    /* \"#utility.yul\":467:471   */\n  0x24\n    /* \"#utility.yul\":464:465   */\n  0x00\n    /* \"#utility.yul\":457:472   */\n  revert\n    /* \"#utility.yul\":484:804   */\ntag_78:\n    /* \"#utility.yul\":528:534   */\n  0x00\n    /* \"#utility.yul\":565:566   */\n  0x02\n    /* \"#utility.yul\":559:563   */\n  dup3\n    /* \"#utility.yul\":555:567   */\n  div\n    /* \"#utility.yul\":545:567   */\n  swap1\n  pop\n    /* \"#utility.yul\":612:613   */\n  0x01\n    /* \"#utility.yul\":606:610   */\n  dup3\n    /* \"#utility.yul\":602:614   */\n  and\n    /* \"#utility.yul\":633:651   */\n  dup1\n    /* \"#utility.yul\":623:704   */\n  tag_105\n  jumpi\n    /* \"#utility.yul\":689:693   */\n  0x7f\n    /* \"#utility.yul\":681:687   */\n  dup3\n    /* \"#utility.yul\":677:694   */\n  and\n    /* \"#utility.yul\":667:694   */\n  swap2\n  pop\n    /* \"#utility.yul\":623:704   */\ntag_105:\n    /* \"#utility.yul\":751:753   */\n  0x20\n    /* \"#utility.yul\":743:749   */\n  dup3\n    /* \"#utility.yul\":740:754   */\n  lt\n    /* \"#utility.yul\":720:738   */\n  dup2\n    /* \"#utility.yul\":717:755   */\n  sub\n    /* \"#utility.yul\":714:798   */\n  tag_106\n  jumpi\n    /* \"#utility.yul\":770:788   */\n  tag_107\n  tag_77\n  jump\t// in\ntag_107:\n    /* \"#utility.yul\":714:798   */\ntag_106:\n    /* \"#utility.yul\":535:804   */\n  pop\n    /* \"#utility.yul\":484:804   */\n  swap2\n  swap1\n  pop\n  jump\t// out\n    /* \"#utility.yul\":810:951   */\ntag_79:\n    /* \"#utility.yul\":859:863   */\n  0x00\n    /* \"#utility.yul\":882:885   */\n  dup2\n    /* \"#utility.yul\":874:885   */\n  swap1\n  pop\n    /* \"#utility.yul\":905:908   */\n  dup2\n    /* \"#utility.yul\":902:903   */\n  0x00\n    /* \"#utility.yul\":895:909   */\n  mstore\n    /* \"#utility.yul\":939:943   */\n  0x20\n    /* \"#utility.yul\":936:937   */\n  0x00\n    /* \"#utility.yul\":926:944   */\n  keccak256\n    /* \"#utility.yul\":918:944   */\n  swap1\n  pop\n    /* \"#utility.yul\":810:951   */\n  swap2\n  swap1\n  pop\n  jump\t// out\n    /* \"#utility.yul\":957:1050   */\ntag_80:\n    /* \"#utility.yul\":994:1000   */\n  0x00\n    /* \"#utility.yul\":1041:1043   */\n  0x20\n    /* \"#utility.yul\":1036:1038   */\n  0x1f\n    /* \"#utility.yul\":1029:1034   */\n  dup4\n    /* \"#utility.yul\":1025:1039   */\n  add\n    /* \"#utility.yul\":1021:1044   */\n  div\n    /* \"#utility.yul\":1011:1044   */\n  swap1\n  pop\n    /* \"#utility.yul\":957:1050   */\n  swap2\n  swap1\n  pop\n  jump\t// out\n    /* \"#utility.yul\":1056:1163   */\ntag_81:\n    /* \"#utility.yul\":1100:1108   */\n  0x00\n    /* \"#utility.yul\":1150:1155   */\n  dup3\n    /* \"#utility.yul\":1144:1148   */\n  dup3\n    /* \"#utility.yul\":1140:1156   */\n  shl\n    /* \"#utility.yul\":1119:1156   */\n  swap1\n  pop\n    /* \"#utility.yul\":1056:1163   */\n  swap3\n  swap2\n  pop\n  pop\n  jump\t// out\n    /* \"#utility.yul\":1169:1562   */\ntag_82:\n    /* \"#utility.yul\":1238:1244   */\n  0x00\n    /* \"#utility.yul\":1288:1289   */\n  0x08\n    /* \"#utility.yul\":1276:1286   */\n  dup4\n    /* \"#utility.yul\":1272:1290   */\n  mul\n    /* \"#utility.yul\":1311:1408   */\n  tag_112\n    /* \"#utility.yul\":1341:1407   */\n  0xffffffffffffffffffffffffffffffffffffffffffffffffffffffffffffffff\n    /* \"#utility.yul\":1330:1339   */\n  dup3\n    /* \"#utility.yul\":1311:1408   */\n  tag_81\n  jump\t// in\ntag_112:\n    /* \"#utility.yul\":1429:1468   */\n  tag_113\n    /* \"#utility.yul\":1459:1467   */\n  dup7\n    /* \"#utility.yul\":1448:1457   */\n  dup4\n    /* \"#utility.yul\":1429:1468   */\n  tag_81\n  jump\t// in\ntag_113:\n    /* \"#utility.yul\":1417:1468   */\n  swap6\n  pop\n    /* \"#utility.yul\":1501:1505   */\n  dup1\n    /* \"#utility.yul\":1497:1506   */\n  not\n    /* \"#utility.yul\":1490:1495   */\n  dup5\n    /* \"#utility.yul\":1486:1507   */\n  and\n    /* \"#utility.yul\":1477:1507   */\n  swap4\n  pop\n    /* \"#utility.yul\":1550:1554   */\n  dup1\n    /* \"#utility.yul\":1540:1548   */\n  dup7\n    /* \"#utility.yul\":1536:1555   */\n  and\n    /* \"#utility.yul\":1529:1534   */\n  dup5\n    /* \"#utility.yul\":1526:1556   */\n  or\n    /* \"#utility.yul\":1516:1556   */\n  swap3\n  pop\n    /* \"#utility.yul\":1245:1562   */\n  pop\n  pop\n    /* \"#utility.yul\":1169:1562   */\n  swap4\n  swap3\n  pop\n  pop\n  pop\n  jump\t// out\n    /* \"#utility.yul\":1568:1645   */\ntag_83:\n    /* \"#utility.yul\":1605:1612   */\n  0x00\n    /* \"#utility.yul\":1634:1639   */\n  dup2\n    /* \"#utility.yul\":1623:1639   */\n  swap1\n  pop\n    /* \"#utility.yul\":1568:1645   */\n  swap2\n  swap1\n  pop\n  jump\t// out\n    /* \"#utility.yul\":1651:1711   */\ntag_84:\n    /* \"#utility.yul\":1679:1682   */\n  0x00\n    /* \"#utility.yul\":1700:1705   */\n  dup2\n    /* \"#utility.yul\":1693:1705   */\n  swap1\n  pop\n    /* \"#utility.yul\":1651:1711   */\n  swap2\n  swap1\n  pop\n  jump\t// out\n    /* \"#utility.yul\":1717:1859   */\ntag_85:\n    /* \"#utility.yul\":1767:1776   */\n  0x00\n    /* \"#utility.yul\":1800:1853   */\n  tag_117\n    /* \"#utility.yul\":1818:1852   */\n  tag_118\n    /* \"#utility.yul\":1827:1851   */\n  tag_119\n    /* \"#utility.yul\":1845:1850   */\n  dup5\n    /* \"#utility.yul\":1827:1851   */\n  tag_83\n  jump\t// in\ntag_119:\n    /* \"#utility.yul\":1818:1852   */\n  tag_84\n  jump\t// in\ntag_118:\n    /* \"#utility.yul\":1800:1853   */\n  tag_83\n  jump\t// in\ntag_117:\n    /* \"#utility.yul\":1787:1853   */\n  swap1\n  pop\n    /* \"#utility.yul\":1717:1859   */\n  swap2\n  swap1\n  pop\n  jump\t// out\n    /* \"#utility.yul\":1865:1940   */\ntag_86:\n    /* \"#utility.yul\":1908:1911   */\n  0x00\n    /* \"#utility.yul\":1929:1934   */\n  dup2\n    /* \"#utility.yul\":1922:1934   */\n  swap1\n  pop\n    /* \"#utility.yul\":1865:1940   */\n  swap2\n  swap1\n  pop\n  jump\t// out\n    /* \"#utility.yul\":1946:2215   */\ntag_87:\n    /* \"#utility.yul\":2056:2095   */\n  tag_122\n    /* \"#utility.yul\":2087:2094   */\n  dup4\n    /* \"#utility.yul\":2056:2095   */\n  tag_85\n  jump\t// in\ntag_122:\n    /* \"#utility.yul\":2117:2208   */\n  tag_123\n    /* \"#utility.yul\":2166:2207   */\n  tag_124\n    /* \"#utility.yul\":2190:2206   */\n  dup3\n    /* \"#utility.yul\":2166:2207   */\n  tag_86\n  jump\t// in\ntag_124:\n    /* \"#utility.yul\":2158:2164   */\n  dup5\n    /* \"#utility.yul\":2151:2155   */\n  dup5\n    /* \"#utility.yul\":2145:2156   */\n  sload\n    /* \"#utility.yul\":2117:2208   */\n  tag_82\n  jump\t// in\ntag_123:\n    /* \"#utility.yul\":2111:2115   */\n  dup3\n    /* \"#utility.yul\":2104:2209   */\n  sstore\n    /* \"#utility.yul\":2022:2215   */\n  pop\n    /* \"#utility.yul\":1946:2215   */\n  pop\n  pop\n  pop\n  jump\t// out\n    /* \"#utility.yul\":2221:2294   */\ntag_88:\n    /* \"#utility.yul\":2266:2269   */\n  0x00\n    /* \"#utility.yul\":2221:2294   */\n  swap1\n  jump\t// out\n    /* \"#utility.yul\":2300:2489   */\ntag_89:\n    /* \"#utility.yul\":2377:2409   */\n  tag_127\n  tag_88\n  jump\t// in\ntag_127:\n    /* \"#utility.yul\":2418:2483   */\n  tag_128\n    /* \"#utility.yul\":2476:2482   */\n  dup2\n    /* \"#utility.yul\":2468:2474   */\n  dup5\n    /* \"#utility.yul\":2462:2466   */\n  dup5\n    /* \"#utility.yul\":2418:2483   */\n  tag_87\n  jump\t// in\ntag_128:\n    /* \"#utility.yul\":2353:2489   */\n  pop\n    /* \"#utility.yul\":2300:2489   */\n  pop\n  pop\n  jump\t// out\n    /* \"#utility.yul\":2495:2681   */\ntag_90:\n    /* \"#utility.yul\":2555:2675   */\ntag_130:\n    /* \"#utility.yul\":2572:2575   */\n  dup2\n    /* \"#utility.yul\":2565:2570   */\n  dup2\n    /* \"#utility.yul\":2562:2576   */\n  lt\n    /* \"#utility.yul\":2555:2675   */\n  iszero\n  tag_132\n  jumpi\n    /* \"#utility.yul\":2626:2665   */\n  tag_133\n    /* \"#utility.yul\":2663:2664   */\n  0x00\n    /* \"#utility.yul\":2656:2661   */\n  dup3\n    /* \"#utility.yul\":2626:2665   */\n  tag_89\n  jump\t// in\ntag_133:\n    /* \"#utility.yul\":2599:2600   */\n  0x01\n    /* \"#utility.yul\":2592:2597   */\n  dup2\n    /* \"#utility.yul\":2588:2601   */\n  add\n    /* \"#utility.yul\":2579:2601   */\n  swap1\n  pop\n    /* \"#utility.yul\":2555:2675   */\n  jump(tag_130)\ntag_132:\n    /* \"#utility.yul\":2495:2681   */\n  pop\n  pop\n  jump\t// out\n    /* \"#utility.yul\":2687:3230   */\ntag_91:\n    /* \"#utility.yul\":2788:2790   */\n  0x1f\n    /* \"#utility.yul\":2783:2786   */\n  dup3\n    /* \"#utility.yul\":2780:2791   */\n  gt\n    /* \"#utility.yul\":2777:3223   */\n  iszero\n  tag_135\n  jumpi\n    /* \"#utility.yul\":2822:2860   */\n  tag_136\n    /* \"#utility.yul\":2854:2859   */\n  dup2\n    /* \"#utility.yul\":2822:2860   */\n  tag_79\n  jump\t// in\ntag_136:\n    /* \"#utility.yul\":2906:2935   */\n  tag_137\n    /* \"#utility.yul\":2924:2934   */\n  dup5\n    /* \"#utility.yul\":2906:2935   */\n  tag_80\n  jump\t// in\ntag_137:\n    /* \"#utility.yul\":2896:2904   */\n  dup2\n    /* \"#utility.yul\":2892:2936   */\n  add\n    /* \"#utility.yul\":3089:3091   */\n  0x20\n    /* \"#utility.yul\":3077:3087   */\n  dup6\n    /* \"#utility.yul\":3074:3092   */\n  lt\n    /* \"#utility.yul\":3071:3120   */\n  iszero\n  tag_138\n  jumpi\n    /* \"#utility.yul\":3110:3118   */\n  dup2\n    /* \"#utility.yul\":3095:3118   */\n  swap1\n  pop\n    /* \"#utility.yul\":3071:3120   */\ntag_138:\n    /* \"#utility.yul\":3133:3213   */\n  tag_139\n    /* \"#utility.yul\":3189:3211   */\n  tag_140\n    /* \"#utility.yul\":3207:3210   */\n  dup6\n    /* \"#utility.yul\":3189:3211   */\n  tag_80\n  jump\t// in\ntag_140:\n    /* \"#utility.yul\":3179:3187   */\n  dup4\n    /* \"#utility.yul\":3175:3212   */\n  add\n    /* \"#utility.yul\":3162:3173   */\n  dup3\n    /* \"#utility.yul\":3133:3213   */\n  tag_90\n  jump\t// in\ntag_139:\n    /* \"#utility.yul\":2792:3223   */\n  pop\n  pop\n    /* \"#utility.yul\":2777:3223   */\ntag_135:\n    /* \"#utility.yul\":2687:3230   */\n  pop\n  pop\n  pop\n  jump\t// out\n    /* \"#utility.yul\":3236:3353   */\ntag_92:\n    /* \"#utility.yul\":3290:3298   */\n  0x00\n    /* \"#utility.yul\":3340:3345   */\n  dup3\n    /* \"#utility.yul\":3334:3338   */\n  dup3\n    /* \"#utility.yul\":3330:3346   */\n  shr\n    /* \"#utility.yul\":3309:3346   */\n  swap1\n  pop\n    /* \"#utility.yul\":3236:3353   */\n  swap3\n  swap2\n  pop\n  pop\n  jump\t// out\n    /* \"#utility.yul\":3359:3528   */\ntag_93:\n    /* \"#utility.yul\":3403:3409   */\n  0x00\n    /* \"#utility.yul\":3436:3487   */\n  tag_143\n    /* \"#utility.yul\":3484:3485   */\n  0x00\n    /* \"#utility.yul\":3480:3486   */\n  not\n    /* \"#utility.yul\":3472:3477   */\n  dup5\n    /* \"#utility.yul\":3469:3470   */\n  0x08\n    /* \"#utility.yul\":3465:3478   */\n  mul\n    /* \"#utility.yul\":3436:3487   */\n  tag_92\n  jump\t// in\ntag_143:\n    /* \"#utility.yul\":3432:3488   */\n  not\n    /* \"#utility.yul\":3517:3521   */\n  dup1\n    /* \"#utility.yul\":3511:3515   */\n  dup4\n    /* \"#utility.yul\":3507:3522   */\n  and\n    /* \"#utility.yul\":3497:3522   */\n  swap2\n  pop\n    /* \"#utility.yul\":3410:3528   */\n  pop\n    /* \"#utility.yul\":3359:3528   */\n  swap3\n  swap2\n  pop\n  pop\n  jump\t// out\n    /* \"#utility.yul\":3533:3828   */\ntag_94:\n    /* \"#utility.yul\":3609:3613   */\n  0x00\n    /* \"#utility.yul\":3755:3784   */\n  tag_145\n    /* \"#utility.yul\":3780:3783   */\n  dup4\n    /* \"#utility.yul\":3774:3778   */\n  dup4\n    /* \"#utility.yul\":3755:3784   */\n  tag_93\n  jump\t// in\ntag_145:\n    /* \"#utility.yul\":3747:3784   */\n  swap2\n  pop\n    /* \"#utility.yul\":3817:3820   */\n  dup3\n    /* \"#utility.yul\":3814:3815   */\n  0x02\n    /* \"#utility.yul\":3810:3821   */\n  mul\n    /* \"#utility.yul\":3804:3808   */\n  dup3\n    /* \"#utility.yul\":3801:3822   */\n  or\n    /* \"#utility.yul\":3793:3822   */\n  swap1\n  pop\n    /* \"#utility.yul\":3533:3828   */\n  swap3\n  swap2\n  pop\n  pop\n  jump\t// out\n    /* \"#utility.yul\":3833:5228   */\ntag_7:\n    /* \"#utility.yul\":3950:3987   */\n  tag_147\n    /* \"#utility.yul\":3983:3986   */\n  dup3\n    /* \"#utility.yul\":3950:3987   */\n  tag_75\n  jump\t// in\ntag_147:\n    /* \"#utility.yul\":4052:4070   */\n  0xffffffffffffffff\n    /* \"#utility.yul\":4044:4050   */\n  dup2\n    /* \"#utility.yul\":4041:4071   */\n  gt\n    /* \"#utility.yul\":4038:4094   */\n  iszero\n  tag_148\n  jumpi\n    /* \"#utility.yul\":4074:4092   */\n  tag_149\n  tag_76\n  jump\t// in\ntag_149:\n    /* \"#utility.yul\":4038:4094   */\ntag_148:\n    /* \"#utility.yul\":4118:4156   */\n  tag_150\n    /* \"#utility.yul\":4150:4154   */\n  dup3\n    /* \"#utility.yul\":4144:4155   */\n  sload\n    /* \"#utility.yul\":4118:4156   */\n  tag_78\n  jump\t// in\ntag_150:\n    /* \"#utility.yul\":4203:4270   */\n  tag_151\n    /* \"#utility.yul\":4263:4269   */\n  dup3\n    /* \"#utility.yul\":4255:4261   */\n  dup3\n    /* \"#utility.yul\":4249:4253   */\n  dup6\n    /* \"#utility.yul\":4203:4270   */\n  tag_91\n  jump\t// in\ntag_151:\n    /* \"#utility.yul\":4297:4298   */\n  0x00\n    /* \"#utility.yul\":4321:4325   */\n  0x20\n    /* \"#utility.yul\":4308:4325   */\n  swap1\n  pop\n    /* \"#utility.yul\":4353:4355   */\n  0x1f\n    /* \"#utility.yul\":4345:4351   */\n  dup4\n    /* \"#utility.yul\":4342:4356   */\n  gt\n    /* \"#utility.yul\":4370:4371   */\n  0x01\n    /* \"#utility.yul\":4365:4983   */\n  dup2\n  eq\n  tag_153\n  jumpi\n    /* \"#utility.yul\":5027:5028   */\n  0x00\n    /* \"#utility.yul\":5044:5050   */\n  dup5\n    /* \"#utility.yul\":5041:5118   */\n  iszero\n  tag_154\n  jumpi\n    /* \"#utility.yul\":5093:5102   */\n  dup3\n    /* \"#utility.yul\":5088:5091   */\n  dup8\n    /* \"#utility.yul\":5084:5103   */\n  add\n    /* \"#utility.yul\":5078:5104   */\n  mload\n    /* \"#utility.yul\":5069:5104   */\n  swap1\n  pop\n    /* \"#utility.yul\":5041:5118   */\ntag_154:\n    /* \"#utility.yul\":5144:5211   */\n  tag_155\n    /* \"#utility.yul\":5204:5210   */\n  dup6\n    /* \"#utility.yul\":5197:5202   */\n  dup3\n    /* \"#utility.yul\":5144:5211   */\n  tag_94\n  jump\t// in\ntag_155:\n    /* \"#utility.yul\":5138:5142   */\n  dup7\n    /* \"#utility.yul\":5131:5212   */\n  sstore\n    /* \"#utility.yul\":5000:5222   */\n  pop\n    /* \"#utility.yul\":4335:5222   */\n  jump(tag_152)\n    /* \"#utility.yul\":4365:4983   */\ntag_153:\n    /* \"#utility.yul\":4417:4421   */\n  0x1f\n    /* \"#utility.yul\":4413:4422   */\n  not\n    /* \"#utility.yul\":4405:4411   */\n  dup5\n    /* \"#utility.yul\":4401:4423   */\n  and\n    /* \"#utility.yul\":4451:4488   */\n  tag_156\n    /* \"#utility.yul\":4483:4487   */\n  dup7\n    /* \"#utility.yul\":4451:4488   */\n  tag_79\n  jump\t// in\ntag_156:\n    /* \"#utility.yul\":4510:4511   */\n  0x00\n    /* \"#utility.yul\":4524:4732   */\ntag_157:\n    /* \"#utility.yul\":4538:4545   */\n  dup3\n    /* \"#utility.yul\":4535:4536   */\n  dup2\n    /* \"#utility.yul\":4532:4546   */\n  lt\n    /* \"#utility.yul\":4524:4732   */\n  iszero\n  tag_159\n  jumpi\n    /* \"#utility.yul\":4617:4626   */\n  dup5\n    /* \"#utility.yul\":4612:4615   */\n  dup10\n    /* \"#utility.yul\":4608:4627   */\n  add\n    /* \"#utility.yul\":4602:4628   */\n  mload\n    /* \"#utility.yul\":4594:4600   */\n  dup3\n    /* \"#utility.yul\":4587:4629   */\n  sstore\n    /* \"#utility.yul\":4668:4669   */\n  0x01\n    /* \"#utility.yul\":4660:4666   */\n  dup3\n    /* \"#utility.yul\":4656:4670   */\n  add\n    /* \"#utility.yul\":4646:4670   */\n  swap2\n  pop\n    /* \"#utility.yul\":4715:4717   */\n  0x20\n    /* \"#utility.yul\":4704:4713   */\n  dup6\n    /* \"#utility.yul\":4700:4718   */\n  add\n    /* \"#utility.yul\":4687:4718   */\n  swap5\n  pop\n    /* \"#utility.yul\":4561:4565   */\n  0x20\n    /* \"#utility.yul\":4558:4559   */\n  dup2\n    /* \"#utility.yul\":4554:4566   */\n  add\n    /* \"#utility.yul\":4549:4566   */\n  swap1\n  pop\n    /* \"#utility.yul\":4524:4732   */\n  jump(tag_157)\ntag_159:\n    /* \"#utility.yul\":4760:4766   */\n  dup7\n    /* \"#utility.yul\":4751:4758   */\n  dup4\n    /* \"#utility.yul\":4748:4767   */\n  lt\n    /* \"#utility.yul\":4745:4924   */\n  iszero\n  tag_160\n  jumpi\n    /* \"#utility.yul\":4818:4827   */\n  dup5\n    /* \"#utility.yul\":4813:4816   */\n  dup10\n    /* \"#utility.yul\":4809:4828   */\n  add\n    /* \"#utility.yul\":4803:4829   */\n  mload\n    /* \"#utility.yul\":4861:4909   */\n  tag_161\n    /* \"#utility.yul\":4903:4907   */\n  0x1f\n    /* \"#utility.yul\":4895:4901   */\n  dup10\n    /* \"#utility.yul\":4891:4908   */\n  and\n    /* \"#utility.yul\":4880:4889   */\n  dup3\n    /* \"#utility.yul\":4861:4909   */\n  tag_93\n  jump\t// in\ntag_161:\n    /* \"#utility.yul\":4853:4859   */\n  dup4\n    /* \"#utility.yul\":4846:4910   */\n  sstore\n    /* \"#utility.yul\":4768:4924   */\n  pop\n    /* \"#utility.yul\":4745:4924   */\ntag_160:\n    /* \"#utility.yul\":4970:4971   */\n  0x01\n    /* \"#utility.yul\":4966:4967   */\n  0x02\n    /* \"#utility.yul\":4958:4964   */\n  dup9\n    /* \"#utility.yul\":4954:4968   */\n  mul\n    /* \"#utility.yul\":4950:4972   */\n  add\n    /* \"#utility.yul\":4944:4948   */\n  dup9\n    /* \"#utility.yul\":4937:4973   */\n  sstore\n    /* \"#utility.yul\":4372:4983   */\n  pop\n  pop\n  pop\n    /* \"#utility.yul\":4335:5222   */\ntag_152:\n  pop\n    /* \"#utility.yul\":3925:5228   */\n  pop\n  pop\n  pop\n    /* \"#utility.yul\":3833:5228   */\n  pop\n  pop\n  jump\t// out\n    /* \"#utility.yul\":5234:5414   */\ntag_19:\n    /* \"#utility.yul\":5282:5359   */\n  0x4e487b7100000000000000000000000000000000000000000000000000000000\n    /* \"#utility.yul\":5279:5280   */\n  0x00\n    /* \"#utility.yul\":5272:5360   */\n  mstore\n    /* \"#utility.yul\":5379:5383   */\n  0x21\n    /* \"#utility.yul\":5376:5377   */\n  0x04\n    /* \"#utility.yul\":5369:5384   */\n  mstore\n    /* \"#utility.yul\":5403:5407   */\n  0x24\n    /* \"#utility.yul\":5400:5401   */\n  0x00\n    /* \"#utility.yul\":5393:5408   */\n  revert\n    /* \"#utility.yul\":5420:5589   */\ntag_95:\n    /* \"#utility.yul\":5504:5515   */\n  0x00\n    /* \"#utility.yul\":5538:5544   */\n  dup3\n    /* \"#utility.yul\":5533:5536   */\n  dup3\n    /* \"#utility.yul\":5526:5545   */\n  mstore\n    /* \"#utility.yul\":5578:5582   */\n  0x20\n    /* \"#utility.yul\":5573:5576   */\n  dup3\n    /* \"#utility.yul\":5569:5583   */\n  add\n    /* \"#utility.yul\":5554:5583   */\n  swap1\n  pop\n    /* \"#utility.yul\":5420:5589   */\n  swap3\n  swap2\n  pop\n  pop\n  jump\t// out\n    /* \"#utility.yul\":5595:5776   */\ntag_96:\n    /* \"#utility.yul\":5735:5768   */\n  0x45524332303a206d696e7420746f20746865207a65726f206164647265737300\n    /* \"#utility.yul\":5731:5732   */\n  0x00\n    /* \"#utility.yul\":5723:5729   */\n  dup3\n    /* \"#utility.yul\":5719:5733   */\n  add\n    /* \"#utility.yul\":5712:5769   */\n  mstore\n    /* \"#utility.yul\":5595:5776   */\n  pop\n  jump\t// out\n    /* \"#utility.yul\":5782:6148   */\ntag_97:\n    /* \"#utility.yul\":5924:5927   */\n  0x00\n    /* \"#utility.yul\":5945:6012   */\n  tag_166\n    /* \"#utility.yul\":6009:6011   */\n  0x1f\n    /* \"#utility.yul\":6004:6007   */\n  dup4\n    /* \"#utility.yul\":5945:6012   */\n  tag_95\n  jump\t// in\ntag_166:\n    /* \"#utility.yul\":5938:6012   */\n  swap2\n  pop\n    /* \"#utility.yul\":6021:6114   */\n  tag_167\n    /* \"#utility.yul\":6110:6113   */\n  dup3\n    /* \"#utility.yul\":6021:6114   */\n  tag_96\n  jump\t// in\ntag_167:\n    /* \"#utility.yul\":6139:6141   */\n  0x20\n    /* \"#utility.yul\":6134:6137   */\n  dup3\n    /* \"#utility.yul\":6130:6142   */\n  add\n    /* \"#utility.yul\":6123:6142   */\n  swap1\n  pop\n    /* \"#utility.yul\":5782:6148   */\n  swap2\n  swap1\n  pop\n  jump\t// out\n    /* \"#utility.yul\":6154:6573   */\ntag_64:\n    /* \"#utility.yul\":6320:6324   */\n  0x00\n    /* \"#utility.yul\":6358:6360   */\n  0x20\n    /* \"#utility.yul\":6347:6356   */\n  dup3\n    /* \"#utility.yul\":6343:6361   */\n  add\n    /* \"#utility.yul\":6335:6361   */\n  swap1\n  pop\n    /* \"#utility.yul\":6407:6416   */\n  dup2\n    /* \"#utility.yul\":6401:6405   */\n  dup2\n    /* \"#utility.yul\":6397:6417   */\n  sub\n    /* \"#utility.yul\":6393:6394   */\n  0x00\n    /* \"#utility.yul\":6382:6391   */\n  dup4\n    /* \"#utility.yul\":6378:6395   */\n  add\n    /* \"#utility.yul\":6371:6418   */\n  mstore\n    /* \"#utility.yul\":6435:6566   */\n  tag_169\n    /* \"#utility.yul\":6561:6565   */\n  dup2\n    /* \"#utility.yul\":6435:6566   */\n  tag_97\n  jump\t// in\ntag_169:\n    /* \"#utility.yul\":6427:6566   */\n  swap1\n  pop\n    /* \"#utility.yul\":6154:6573   */\n  swap2\n  swap1\n  pop\n  jump\t// out\n    /* \"#utility.yul\":6579:6759   */\ntag_98:\n    /* \"#utility.yul\":6627:6704   */\n  0x4e487b7100000000000000000000000000000000000000000000000000000000\n    /* \"#utility.yul\":6624:6625   */\n  0x00\n    /* \"#utility.yul\":6617:6705   */\n  mstore\n    /* \"#utility.yul\":6724:6728   */\n  0x11\n    /* \"#utility.yul\":6721:6722   */\n  0x04\n    /* \"#utility.yul\":6714:6729   */\n  mstore\n    /* \"#utility.yul\":6748:6752   */\n  0x24\n    /* \"#utility.yul\":6745:6746   */\n  0x00\n    /* \"#utility.yul\":6738:6753   */\n  revert\n    /* \"#utility.yul\":6765:6956   */\ntag_68:\n    /* \"#utility.yul\":6805:6808   */\n  0x00\n    /* \"#utility.yul\":6824:6844   */\n  tag_172\n    /* \"#utility.yul\":6842:6843   */\n  dup3\n    /* \"#utility.yul\":6824:6844   */\n  tag_83\n  jump\t// in\ntag_172:\n    /* \"#utility.yul\":6819:6844   */\n  swap2\n  pop\n    /* \"#utility.yul\":6858:6878   */\n  tag_173\n    /* \"#utility.yul\":6876:6877   */\n  dup4\n    /* \"#utility.yul\":6858:6878   */\n  tag_83\n  jump\t// in\ntag_173:\n    /* \"#utility.yul\":6853:6878   */\n  swap3\n  pop\n    /* \"#utility.yul\":6901:6902   */\n  dup3\n    /* \"#utility.yul\":6898:6899   */\n  dup3\n    /* \"#utility.yul\":6894:6903   */\n  add\n    /* \"#utility.yul\":6887:6903   */\n  swap1\n  pop\n    /* \"#utility.yul\":6922:6925   */\n  dup1\n    /* \"#utility.yul\":6919:6920   */\n  dup3\n    /* \"#utility.yul\":6916:6926   */\n  gt\n    /* \"#utility.yul\":6913:6949   */\n  iszero\n  tag_174\n  jumpi\n    /* \"#utility.yul\":6929:6947   */\n  tag_175\n  tag_98\n  jump\t// in\ntag_175:\n    /* \"#utility.yul\":6913:6949   */\ntag_174:\n    /* \"#utility.yul\":6765:6956   */\n  swap3\n  swap2\n  pop\n  pop\n  jump\t// out\n    /* \"#utility.yul\":6962:7080   */\ntag_99:\n    /* \"#utility.yul\":7049:7073   */\n  tag_177\n    /* \"#utility.yul\":7067:7072   */\n  dup2\n    /* \"#utility.yul\":7049:7073   */\n  tag_83\n  jump\t// in\ntag_177:\n    /* \"#utility.yul\":7044:7047   */\n  dup3\n    /* \"#utility.yul\":7037:7074   */\n  mstore\n    /* \"#utility.yul\":6962:7080   */\n  pop\n  pop\n  jump\t// out\n    /* \"#utility.yul\":7086:7308   */\ntag_70:\n    /* \"#utility.yul\":7179:7183   */\n  0x00\n    /* \"#utility.yul\":7217:7219   */\n  0x20\n    /* \"#utility.yul\":7206:7215   */\n  dup3\n    /* \"#utility.yul\":7202:7220   */\n  add\n    /* \"#utility.yul\":7194:7220   */\n  swap1\n  pop\n    /* \"#utility.yul\":7230:7301   */\n  tag_179\n    /* \"#utility.yul\":7298:7299   */\n  0x00\n    /* \"#utility.yul\":7287:7296   */\n  dup4\n    /* \"#utility.yul\":7283:7300   */\n  add\n    /* \"#utility.yul\":7274:7280   */\n  dup5\n    /* \"#utility.yul\":7230:7301   */\n  tag_99\n  jump\t// in\ntag_179:\n    /* \"#utility.yul\":7086:7308   */\n  swap3\n  swap2\n  pop\n  pop\n  jump\t// out\n    /* \"ZUNIEGA - ETH+AVAX MOD 4/DegenToken.sol\":268:2632  contract DegenToken is ERC20, Ownable, ERC20Burnable {... */\ntag_58:\n  dataSize(sub_0)\n  dup1\n  dataOffset(sub_0)\n  0x00\n  codecopy\n  0x00\n  return\nstop\n\nsub_0: assembly {\n        /* \"ZUNIEGA - ETH+AVAX MOD 4/DegenToken.sol\":268:2632  contract DegenToken is ERC20, Ownable, ERC20Burnable {... */\n      mstore(0x40, 0x80)\n      callvalue\n      dup1\n      iszero\n      tag_1\n      jumpi\n      0x00\n      dup1\n      revert\n    tag_1:\n      pop\n      jumpi(tag_2, lt(calldatasize, 0x04))\n      shr(0xe0, calldataload(0x00))\n      dup1\n      0x54ef0753\n      gt\n      tag_28\n      jumpi\n      dup1\n      0x95d89b41\n      gt\n      tag_29\n      jumpi\n      dup1\n      0xa9059cbb\n      gt\n      tag_30\n      jumpi\n      dup1\n      0xa9059cbb\n      eq\n      tag_24\n      jumpi\n      dup1\n      0xbec3fa17\n      eq\n      tag_25\n      jumpi\n      dup1\n      0xdd62ed3e\n      eq\n      tag_26\n      jumpi\n      dup1\n      0xf2fde38b\n      eq\n      tag_27\n      jumpi\n      jump(tag_2)\n    tag_30:\n      dup1\n      0x95d89b41\n      eq\n      tag_21\n      jumpi\n      dup1\n      0xa457c2d7\n      eq\n      tag_22\n      jumpi\n      dup1\n      0xa6e158f8\n      eq\n      tag_23\n      jumpi\n      jump(tag_2)\n    tag_29:\n      dup1\n      0x54ef0753\n      eq\n      tag_15\n      jumpi\n      dup1\n      0x6d1b229d\n      eq\n      tag_16\n      jumpi\n      dup1\n      0x70a08231\n      eq\n      tag_17\n      jumpi\n      dup1\n      0x715018a6\n      eq\n      tag_18\n      jumpi\n      dup1\n      0x79cc6790\n      eq\n      tag_19\n      jumpi\n      dup1\n      0x8da5cb5b\n      eq\n      tag_20\n      jumpi\n      jump(tag_2)\n    tag_28:\n      dup1\n      0x313ce567\n      gt\n      tag_31\n      jumpi\n      dup1\n      0x313ce567\n      eq\n      tag_9\n      jumpi\n      dup1\n      0x32271faf\n      eq\n      tag_10\n      jumpi\n      dup1\n      0x39509351\n      eq\n      tag_11\n      jumpi\n      dup1\n      0x3e8d40f9\n      eq\n      tag_12\n      jumpi\n      dup1\n      0x40c10f19\n      eq\n      tag_13\n      jumpi\n      dup1\n      0x42966c68\n      eq\n      tag_14\n      jumpi\n      jump(tag_2)\n    tag_31:\n      dup1\n      0x06fdde03\n      eq\n      tag_3\n      jumpi\n      dup1\n      0x095ea7b3\n      eq\n      tag_4\n      jumpi\n      dup1\n      0x12065fe0\n      eq\n      tag_5\n      jumpi\n      dup1\n      0x18160ddd\n      eq\n      tag_6\n      jumpi\n      dup1\n      0x23b872dd\n      eq\n      tag_7\n      jumpi\n      dup1\n      0x2d80d256\n      eq\n      tag_8\n      jumpi\n    tag_2:\n      0x00\n      dup1\n      revert\n        /* \"@openzeppelin/contracts@4.9.0/token/ERC20/ERC20.sol\":2158:2256  function name() public view virtual override returns (string memory) {... */\n    tag_3:\n      tag_32\n      tag_33\n      jump\t// in\n    tag_32:\n      mload(0x40)\n      tag_34\n      swap2\n      swap1\n      tag_35\n      jump\t// in\n    tag_34:\n      mload(0x40)\n      dup1\n      swap2\n      sub\n      swap1\n      return\n        /* \"@openzeppelin/contracts@4.9.0/token/ERC20/ERC20.sol\":4444:4641  function approve(address spender, uint256 amount) public virtual override returns (bool) {... */\n    tag_4:\n      tag_36\n      0x04\n      dup1\n      calldatasize\n      sub\n      dup2\n      add\n      swap1\n      tag_37\n      swap2\n      swap1\n      tag_38\n      jump\t// in\n    tag_37:\n      tag_39\n      jump\t// in\n    tag_36:\n      mload(0x40)\n      tag_40\n      swap2\n      swap1\n      tag_41\n      jump\t// in\n    tag_40:\n      mload(0x40)\n      dup1\n      swap2\n      sub\n      swap1\n      return\n        /* \"ZUNIEGA - ETH+AVAX MOD 4/DegenToken.sol\":1368:1474  function getBalance() external view returns (uint256) {... */\n    tag_5:\n      tag_42\n      tag_43\n      jump\t// in\n    tag_42:\n      mload(0x40)\n      tag_44\n      swap2\n      swap1\n      tag_45\n      jump\t// in\n    tag_44:\n      mload(0x40)\n      dup1\n      swap2\n      sub\n      swap1\n      return\n        /* \"@openzeppelin/contracts@4.9.0/token/ERC20/ERC20.sol\":3255:3361  function totalSupply() public view virtual override returns (uint256) {... */\n    tag_6:\n      tag_46\n      tag_47\n      jump\t// in\n    tag_46:\n      mload(0x40)\n      tag_48\n      swap2\n      swap1\n      tag_45\n      jump\t// in\n    tag_48:\n      mload(0x40)\n      dup1\n      swap2\n      sub\n      swap1\n      return\n        /* \"@openzeppelin/contracts@4.9.0/token/ERC20/ERC20.sol\":5203:5459  function transferFrom(address from, address to, uint256 amount) public virtual override returns (bool) {... */\n    tag_7:\n      tag_49\n      0x04\n      dup1\n      calldatasize\n      sub\n      dup2\n      add\n      swap1\n      tag_50\n      swap2\n      swap1\n      tag_51\n      jump\t// in\n    tag_50:\n      tag_52\n      jump\t// in\n    tag_49:\n      mload(0x40)\n      tag_53\n      swap2\n      swap1\n      tag_41\n      jump\t// in\n    tag_53:\n      mload(0x40)\n      dup1\n      swap2\n      sub\n      swap1\n      return\n        /* \"ZUNIEGA - ETH+AVAX MOD 4/DegenToken.sol\":2510:2629  function getRedeemedItem(address account) external view returns (Item) {... */\n    tag_8:\n      tag_54\n      0x04\n      dup1\n      calldatasize\n      sub\n      dup2\n      add\n      swap1\n      tag_55\n      swap2\n      swap1\n      tag_56\n      jump\t// in\n    tag_55:\n      tag_57\n      jump\t// in\n    tag_54:\n      mload(0x40)\n      tag_58\n      swap2\n      swap1\n      tag_59\n      jump\t// in\n    tag_58:\n      mload(0x40)\n      dup1\n      swap2\n      sub\n      swap1\n      return\n        /* \"ZUNIEGA - ETH+AVAX MOD 4/DegenToken.sol\":1276:1360  function decimals() override public pure returns (uint8) {... */\n    tag_9:\n      tag_60\n      tag_61\n      jump\t// in\n    tag_60:\n      mload(0x40)\n      tag_62\n      swap2\n      swap1\n      tag_63\n      jump\t// in\n    tag_62:\n      mload(0x40)\n      dup1\n      swap2\n      sub\n      swap1\n      return\n        /* \"ZUNIEGA - ETH+AVAX MOD 4/DegenToken.sol\":2112:2502  function redeem(Item item) external {... */\n    tag_10:\n      tag_64\n      0x04\n      dup1\n      calldatasize\n      sub\n      dup2\n      add\n      swap1\n      tag_65\n      swap2\n      swap1\n      tag_66\n      jump\t// in\n    tag_65:\n      tag_67\n      jump\t// in\n    tag_64:\n      stop\n        /* \"@openzeppelin/contracts@4.9.0/token/ERC20/ERC20.sol\":5854:6088  function increaseAllowance(address spender, uint256 addedValue) public virtual returns (bool) {... */\n    tag_11:\n      tag_68\n      0x04\n      dup1\n      calldatasize\n      sub\n      dup2\n      add\n      swap1\n      tag_69\n      swap2\n      swap1\n      tag_38\n      jump\t// in\n    tag_69:\n      tag_70\n      jump\t// in\n    tag_68:\n      mload(0x40)\n      tag_71\n      swap2\n      swap1\n      tag_41\n      jump\t// in\n    tag_71:\n      mload(0x40)\n      dup1\n      swap2\n      sub\n      swap1\n      return\n        /* \"ZUNIEGA - ETH+AVAX MOD 4/DegenToken.sol\":563:608  mapping(address => Item) public redeemedItems */\n    tag_12:\n      tag_72\n      0x04\n      dup1\n      calldatasize\n      sub\n      dup2\n      add\n      swap1\n      tag_73\n      swap2\n      swap1\n      tag_56\n      jump\t// in\n    tag_73:\n      tag_74\n      jump\t// in\n    tag_72:\n      mload(0x40)\n      tag_75\n      swap2\n      swap1\n      tag_59\n      jump\t// in\n    tag_75:\n      mload(0x40)\n      dup1\n      swap2\n      sub\n      swap1\n      return\n        /* \"ZUNIEGA - ETH+AVAX MOD 4/DegenToken.sol\":1173:1268  function mint(address to, uint256 amount) public onlyOwner {... */\n    tag_13:\n      tag_76\n      0x04\n      dup1\n      calldatasize\n      sub\n      dup2\n      add\n      swap1\n      tag_77\n      swap2\n      swap1\n      tag_38\n      jump\t// in\n    tag_77:\n      tag_78\n      jump\t// in\n    tag_76:\n      stop\n        /* \"@openzeppelin/contracts@4.9.0/token/ERC20/extensions/ERC20Burnable.sol\":578:667  function burn(uint256 amount) public virtual {... */\n    tag_14:\n      tag_79\n      0x04\n      dup1\n      calldatasize\n      sub\n      dup2\n      add\n      swap1\n      tag_80\n      swap2\n      swap1\n      tag_81\n      jump\t// in\n    tag_80:\n      tag_82\n      jump\t// in\n    tag_79:\n      stop\n        /* \"ZUNIEGA - ETH+AVAX MOD 4/DegenToken.sol\":514:556  mapping(Item => uint256) public itemPrices */\n    tag_15:\n      tag_83\n      0x04\n      dup1\n      calldatasize\n      sub\n      dup2\n      add\n      swap1\n      tag_84\n      swap2\n      swap1\n      tag_66\n      jump\t// in\n    tag_84:\n      tag_85\n      jump\t// in\n    tag_83:\n      mload(0x40)\n      tag_86\n      swap2\n      swap1\n      tag_45\n      jump\t// in\n    tag_86:\n      mload(0x40)\n      dup1\n      swap2\n      sub\n      swap1\n      return\n        /* \"ZUNIEGA - ETH+AVAX MOD 4/DegenToken.sol\":1731:1930  function burnTokens(uint256 _value) external {... */\n    tag_16:\n      tag_87\n      0x04\n      dup1\n      calldatasize\n      sub\n      dup2\n      add\n      swap1\n      tag_88\n      swap2\n      swap1\n      tag_81\n      jump\t// in\n    tag_88:\n      tag_89\n      jump\t// in\n    tag_87:\n      stop\n        /* \"@openzeppelin/contracts@4.9.0/token/ERC20/ERC20.sol\":3419:3544  function balanceOf(address account) public view virtual override returns (uint256) {... */\n    tag_17:\n      tag_90\n      0x04\n      dup1\n      calldatasize\n      sub\n      dup2\n      add\n      swap1\n      tag_91\n      swap2\n      swap1\n      tag_56\n      jump\t// in\n    tag_91:\n      tag_92\n      jump\t// in\n    tag_90:\n      mload(0x40)\n      tag_93\n      swap2\n      swap1\n      tag_45\n      jump\t// in\n    tag_93:\n      mload(0x40)\n      dup1\n      swap2\n      sub\n      swap1\n      return\n        /* \"@openzeppelin/contracts@4.9.0/access/Ownable.sol\":1824:1925  function renounceOwnership() public virtual onlyOwner {... */\n    tag_18:\n      tag_94\n      tag_95\n      jump\t// in\n    tag_94:\n      stop\n        /* \"@openzeppelin/contracts@4.9.0/token/ERC20/extensions/ERC20Burnable.sol\":973:1134  function burnFrom(address account, uint256 amount) public virtual {... */\n    tag_19:\n      tag_96\n      0x04\n      dup1\n      calldatasize\n      sub\n      dup2\n      add\n      swap1\n      tag_97\n      swap2\n      swap1\n      tag_38\n      jump\t// in\n    tag_97:\n      tag_98\n      jump\t// in\n    tag_96:\n      stop\n        /* \"@openzeppelin/contracts@4.9.0/access/Ownable.sol\":1201:1286  function owner() public view virtual returns (address) {... */\n    tag_20:\n      tag_99\n      tag_100\n      jump\t// in\n    tag_99:\n      mload(0x40)\n      tag_101\n      swap2\n      swap1\n      tag_102\n      jump\t// in\n    tag_101:\n      mload(0x40)\n      dup1\n      swap2\n      sub\n      swap1\n      return\n        /* \"@openzeppelin/contracts@4.9.0/token/ERC20/ERC20.sol\":2369:2471  function symbol() public view virtual override returns (string memory) {... */\n    tag_21:\n      tag_103\n      tag_104\n      jump\t// in\n    tag_103:\n      mload(0x40)\n      tag_105\n      swap2\n      swap1\n      tag_35\n      jump\t// in\n    tag_105:\n      mload(0x40)\n      dup1\n      swap2\n      sub\n      swap1\n      return\n        /* \"@openzeppelin/contracts@4.9.0/token/ERC20/ERC20.sol\":6575:7002  function decreaseAllowance(address spender, uint256 subtractedValue) public virtual returns (bool) {... */\n    tag_22:\n      tag_106\n      0x04\n      dup1\n      calldatasize\n      sub\n      dup2\n      add\n      swap1\n      tag_107\n      swap2\n      swap1\n      tag_38\n      jump\t// in\n    tag_107:\n      tag_108\n      jump\t// in\n    tag_106:\n      mload(0x40)\n      tag_109\n      swap2\n      swap1\n      tag_41\n      jump\t// in\n    tag_109:\n      mload(0x40)\n      dup1\n      swap2\n      sub\n      swap1\n      return\n        /* \"ZUNIEGA - ETH+AVAX MOD 4/DegenToken.sol\":1938:2104  function redeemTokens(uint256 _value) external {... */\n    tag_23:\n      tag_110\n      0x04\n      dup1\n      calldatasize\n      sub\n      dup2\n      add\n      swap1\n      tag_111\n      swap2\n      swap1\n      tag_81\n      jump\t// in\n    tag_111:\n      tag_112\n      jump\t// in\n    tag_110:\n      stop\n        /* \"@openzeppelin/contracts@4.9.0/token/ERC20/ERC20.sol\":3740:3929  function transfer(address to, uint256 amount) public virtual override returns (bool) {... */\n    tag_24:\n      tag_113\n      0x04\n      dup1\n      calldatasize\n      sub\n      dup2\n      add\n      swap1\n      tag_114\n      swap2\n      swap1\n      tag_38\n      jump\t// in\n    tag_114:\n      tag_115\n      jump\t// in\n    tag_113:\n      mload(0x40)\n      tag_116\n      swap2\n      swap1\n      tag_41\n      jump\t// in\n    tag_116:\n      mload(0x40)\n      dup1\n      swap2\n      sub\n      swap1\n      return\n        /* \"ZUNIEGA - ETH+AVAX MOD 4/DegenToken.sol\":1482:1723  function transferTokens(address _receiver, uint256 _value) external {... */\n    tag_25:\n      tag_117\n      0x04\n      dup1\n      calldatasize\n      sub\n      dup2\n      add\n      swap1\n      tag_118\n      swap2\n      swap1\n      tag_38\n      jump\t// in\n    tag_118:\n      tag_119\n      jump\t// in\n    tag_117:\n      stop\n        /* \"@openzeppelin/contracts@4.9.0/token/ERC20/ERC20.sol\":3987:4136  function allowance(address owner, address spender) public view virtual override returns (uint256) {... */\n    tag_26:\n      tag_120\n      0x04\n      dup1\n      calldatasize\n      sub\n      dup2\n      add\n      swap1\n      tag_121\n      swap2\n      swap1\n      tag_122\n      jump\t// in\n    tag_121:\n      tag_123\n      jump\t// in\n    tag_120:\n      mload(0x40)\n      tag_124\n      swap2\n      swap1\n      tag_45\n      jump\t// in\n    tag_124:\n      mload(0x40)\n      dup1\n      swap2\n      sub\n      swap1\n      return\n        /* \"@openzeppelin/contracts@4.9.0/access/Ownable.sol\":2074:2272  function transferOwnership(address newOwner) public virtual onlyOwner {... */\n    tag_27:\n      tag_125\n      0x04\n      dup1\n      calldatasize\n      sub\n      dup2\n      add\n      swap1\n      tag_126\n      swap2\n      swap1\n      tag_56\n      jump\t// in\n    tag_126:\n      tag_127\n      jump\t// in\n    tag_125:\n      stop\n        /* \"@openzeppelin/contracts@4.9.0/token/ERC20/ERC20.sol\":2158:2256  function name() public view virtual override returns (string memory) {... */\n    tag_33:\n        /* \"@openzeppelin/contracts@4.9.0/token/ERC20/ERC20.sol\":2212:2225  string memory */\n      0x60\n        /* \"@openzeppelin/contracts@4.9.0/token/ERC20/ERC20.sol\":2244:2249  _name */\n      0x03\n        /* \"@openzeppelin/contracts@4.9.0/token/ERC20/ERC20.sol\":2237:2249  return _name */\n      dup1\n      sload\n      tag_129\n      swap1\n      tag_130\n      jump\t// in\n    tag_129:\n      dup1\n      0x1f\n      add\n      0x20\n      dup1\n      swap2\n      div\n      mul\n      0x20\n      add\n      mload(0x40)\n      swap1\n      dup2\n      add\n      0x40\n      mstore\n      dup1\n      swap3\n      swap2\n      swap1\n      dup2\n      dup2\n      mstore\n      0x20\n      add\n      dup3\n      dup1\n      sload\n      tag_131\n      swap1\n      tag_130\n      jump\t// in\n    tag_131:\n      dup1\n      iszero\n      tag_132\n      jumpi\n      dup1\n      0x1f\n      lt\n      tag_133\n      jumpi\n      0x0100\n      dup1\n      dup4\n      sload\n      div\n      mul\n      dup4\n      mstore\n      swap2\n      0x20\n      add\n      swap2\n      jump(tag_132)\n    tag_133:\n      dup3\n      add\n      swap2\n      swap1\n      0x00\n      mstore\n      keccak256(0x00, 0x20)\n      swap1\n    tag_134:\n      dup2\n      sload\n      dup2\n      mstore\n      swap1\n      0x01\n      add\n      swap1\n      0x20\n      add\n      dup1\n      dup4\n      gt\n      tag_134\n      jumpi\n      dup3\n      swap1\n      sub\n      0x1f\n      and\n      dup3\n      add\n      swap2\n    tag_132:\n      pop\n      pop\n      pop\n      pop\n      pop\n      swap1\n      pop\n        /* \"@openzeppelin/contracts@4.9.0/token/ERC20/ERC20.sol\":2158:2256  function name() public view virtual override returns (string memory) {... */\n      swap1\n      jump\t// out\n        /* \"@openzeppelin/contracts@4.9.0/token/ERC20/ERC20.sol\":4444:4641  function approve(address spender, uint256 amount) public virtual override returns (bool) {... */\n    tag_39:\n        /* \"@openzeppelin/contracts@4.9.0/token/ERC20/ERC20.sol\":4527:4531  bool */\n      0x00\n        /* \"@openzeppelin/contracts@4.9.0/token/ERC20/ERC20.sol\":4543:4556  address owner */\n      dup1\n        /* \"@openzeppelin/contracts@4.9.0/token/ERC20/ERC20.sol\":4559:4571  _msgSender() */\n      tag_136\n        /* \"@openzeppelin/contracts@4.9.0/token/ERC20/ERC20.sol\":4559:4569  _msgSender */\n      tag_137\n        /* \"@openzeppelin/contracts@4.9.0/token/ERC20/ERC20.sol\":4559:4571  _msgSender() */\n      jump\t// in\n    tag_136:\n        /* \"@openzeppelin/contracts@4.9.0/token/ERC20/ERC20.sol\":4543:4571  address owner = _msgSender() */\n      swap1\n      pop\n        /* \"@openzeppelin/contracts@4.9.0/token/ERC20/ERC20.sol\":4581:4613  _approve(owner, spender, amount) */\n      tag_138\n        /* \"@openzeppelin/contracts@4.9.0/token/ERC20/ERC20.sol\":4590:4595  owner */\n      dup2\n        /* \"@openzeppelin/contracts@4.9.0/token/ERC20/ERC20.sol\":4597:4604  spender */\n      dup6\n        /* \"@openzeppelin/contracts@4.9.0/token/ERC20/ERC20.sol\":4606:4612  amount */\n      dup6\n        /* \"@openzeppelin/contracts@4.9.0/token/ERC20/ERC20.sol\":4581:4589  _approve */\n      tag_139\n        /* \"@openzeppelin/contracts@4.9.0/token/ERC20/ERC20.sol\":4581:4613  _approve(owner, spender, amount) */\n      jump\t// in\n    tag_138:\n        /* \"@openzeppelin/contracts@4.9.0/token/ERC20/ERC20.sol\":4630:4634  true */\n      0x01\n        /* \"@openzeppelin/contracts@4.9.0/token/ERC20/ERC20.sol\":4623:4634  return true */\n      swap2\n      pop\n      pop\n        /* \"@openzeppelin/contracts@4.9.0/token/ERC20/ERC20.sol\":4444:4641  function approve(address spender, uint256 amount) public virtual override returns (bool) {... */\n      swap3\n      swap2\n      pop\n      pop\n      jump\t// out\n        /* \"ZUNIEGA - ETH+AVAX MOD 4/DegenToken.sol\":1368:1474  function getBalance() external view returns (uint256) {... */\n    tag_43:\n        /* \"ZUNIEGA - ETH+AVAX MOD 4/DegenToken.sol\":1413:1420  uint256 */\n      0x00\n        /* \"ZUNIEGA - ETH+AVAX MOD 4/DegenToken.sol\":1440:1444  this */\n      address\n        /* \"ZUNIEGA - ETH+AVAX MOD 4/DegenToken.sol\":1440:1454  this.balanceOf */\n      0xffffffffffffffffffffffffffffffffffffffff\n      and\n      0x70a08231\n        /* \"ZUNIEGA - ETH+AVAX MOD 4/DegenToken.sol\":1455:1465  msg.sender */\n      caller\n        /* \"ZUNIEGA - ETH+AVAX MOD 4/DegenToken.sol\":1440:1466  this.balanceOf(msg.sender) */\n      mload(0x40)\n      dup3\n      0xffffffff\n      and\n      0xe0\n      shl\n      dup2\n      mstore\n      0x04\n      add\n      tag_141\n      swap2\n      swap1\n      tag_102\n      jump\t// in\n    tag_141:\n      0x20\n      mload(0x40)\n      dup1\n      dup4\n      sub\n      dup2\n      dup7\n      gas\n      staticcall\n      iszero\n      dup1\n      iszero\n      tag_143\n      jumpi\n      returndatasize\n      0x00\n      dup1\n      returndatacopy\n      revert(0x00, returndatasize)\n    tag_143:\n      pop\n      pop\n      pop\n      pop\n      mload(0x40)\n      returndatasize\n      not(0x1f)\n      0x1f\n      dup3\n      add\n      and\n      dup3\n      add\n      dup1\n      0x40\n      mstore\n      pop\n      dup2\n      add\n      swap1\n      tag_144\n      swap2\n      swap1\n      tag_145\n      jump\t// in\n    tag_144:\n        /* \"ZUNIEGA - ETH+AVAX MOD 4/DegenToken.sol\":1433:1466  return this.balanceOf(msg.sender) */\n      swap1\n      pop\n        /* \"ZUNIEGA - ETH+AVAX MOD 4/DegenToken.sol\":1368:1474  function getBalance() external view returns (uint256) {... */\n      swap1\n      jump\t// out\n        /* \"@openzeppelin/contracts@4.9.0/token/ERC20/ERC20.sol\":3255:3361  function totalSupply() public view virtual override returns (uint256) {... */\n    tag_47:\n        /* \"@openzeppelin/contracts@4.9.0/token/ERC20/ERC20.sol\":3316:3323  uint256 */\n      0x00\n        /* \"@openzeppelin/contracts@4.9.0/token/ERC20/ERC20.sol\":3342:3354  _totalSupply */\n      sload(0x02)\n        /* \"@openzeppelin/contracts@4.9.0/token/ERC20/ERC20.sol\":3335:3354  return _totalSupply */\n      swap1\n      pop\n        /* \"@openzeppelin/contracts@4.9.0/token/ERC20/ERC20.sol\":3255:3361  function totalSupply() public view virtual override returns (uint256) {... */\n      swap1\n      jump\t// out\n        /* \"@openzeppelin/contracts@4.9.0/token/ERC20/ERC20.sol\":5203:5459  function transferFrom(address from, address to, uint256 amount) public virtual override returns (bool) {... */\n    tag_52:\n        /* \"@openzeppelin/contracts@4.9.0/token/ERC20/ERC20.sol\":5300:5304  bool */\n      0x00\n        /* \"@openzeppelin/contracts@4.9.0/token/ERC20/ERC20.sol\":5316:5331  address spender */\n      dup1\n        /* \"@openzeppelin/contracts@4.9.0/token/ERC20/ERC20.sol\":5334:5346  _msgSender() */\n      tag_148\n        /* \"@openzeppelin/contracts@4.9.0/token/ERC20/ERC20.sol\":5334:5344  _msgSender */\n      tag_137\n        /* \"@openzeppelin/contracts@4.9.0/token/ERC20/ERC20.sol\":5334:5346  _msgSender() */\n      jump\t// in\n    tag_148:\n        /* \"@openzeppelin/contracts@4.9.0/token/ERC20/ERC20.sol\":5316:5346  address spender = _msgSender() */\n      swap1\n      pop\n        /* \"@openzeppelin/contracts@4.9.0/token/ERC20/ERC20.sol\":5356:5394  _spendAllowance(from, spender, amount) */\n      tag_149\n        /* \"@openzeppelin/contracts@4.9.0/token/ERC20/ERC20.sol\":5372:5376  from */\n      dup6\n        /* \"@openzeppelin/contracts@4.9.0/token/ERC20/ERC20.sol\":5378:5385  spender */\n      dup3\n        /* \"@openzeppelin/contracts@4.9.0/token/ERC20/ERC20.sol\":5387:5393  amount */\n      dup6\n        /* \"@openzeppelin/contracts@4.9.0/token/ERC20/ERC20.sol\":5356:5371  _spendAllowance */\n      tag_150\n        /* \"@openzeppelin/contracts@4.9.0/token/ERC20/ERC20.sol\":5356:5394  _spendAllowance(from, spender, amount) */\n      jump\t// in\n    tag_149:\n        /* \"@openzeppelin/contracts@4.9.0/token/ERC20/ERC20.sol\":5404:5431  _transfer(from, to, amount) */\n      tag_151\n        /* \"@openzeppelin/contracts@4.9.0/token/ERC20/ERC20.sol\":5414:5418  from */\n      dup6\n        /* \"@openzeppelin/contracts@4.9.0/token/ERC20/ERC20.sol\":5420:5422  to */\n      dup6\n        /* \"@openzeppelin/contracts@4.9.0/token/ERC20/ERC20.sol\":5424:5430  amount */\n      dup6\n        /* \"@openzeppelin/contracts@4.9.0/token/ERC20/ERC20.sol\":5404:5413  _transfer */\n      tag_152\n        /* \"@openzeppelin/contracts@4.9.0/token/ERC20/ERC20.sol\":5404:5431  _transfer(from, to, amount) */\n      jump\t// in\n    tag_151:\n        /* \"@openzeppelin/contracts@4.9.0/token/ERC20/ERC20.sol\":5448:5452  true */\n      0x01\n        /* \"@openzeppelin/contracts@4.9.0/token/ERC20/ERC20.sol\":5441:5452  return true */\n      swap2\n      pop\n      pop\n        /* \"@openzeppelin/contracts@4.9.0/token/ERC20/ERC20.sol\":5203:5459  function transferFrom(address from, address to, uint256 amount) public virtual override returns (bool) {... */\n      swap4\n      swap3\n      pop\n      pop\n      pop\n      jump\t// out\n        /* \"ZUNIEGA - ETH+AVAX MOD 4/DegenToken.sol\":2510:2629  function getRedeemedItem(address account) external view returns (Item) {... */\n    tag_57:\n        /* \"ZUNIEGA - ETH+AVAX MOD 4/DegenToken.sol\":2575:2579  Item */\n      0x00\n        /* \"ZUNIEGA - ETH+AVAX MOD 4/DegenToken.sol\":2599:2612  redeemedItems */\n      0x07\n        /* \"ZUNIEGA - ETH+AVAX MOD 4/DegenToken.sol\":2599:2621  redeemedItems[account] */\n      0x00\n        /* \"ZUNIEGA - ETH+AVAX MOD 4/DegenToken.sol\":2613:2620  account */\n      dup4\n        /* \"ZUNIEGA - ETH+AVAX MOD 4/DegenToken.sol\":2599:2621  redeemedItems[account] */\n      0xffffffffffffffffffffffffffffffffffffffff\n      and\n      0xffffffffffffffffffffffffffffffffffffffff\n      and\n      dup2\n      mstore\n      0x20\n      add\n      swap1\n      dup2\n      mstore\n      0x20\n      add\n      0x00\n      keccak256\n      0x00\n      swap1\n      sload\n      swap1\n      0x0100\n      exp\n      swap1\n      div\n      0xff\n      and\n        /* \"ZUNIEGA - ETH+AVAX MOD 4/DegenToken.sol\":2592:2621  return redeemedItems[account] */\n      swap1\n      pop\n        /* \"ZUNIEGA - ETH+AVAX MOD 4/DegenToken.sol\":2510:2629  function getRedeemedItem(address account) external view returns (Item) {... */\n      swap2\n      swap1\n      pop\n      jump\t// out\n        /* \"ZUNIEGA - ETH+AVAX MOD 4/DegenToken.sol\":1276:1360  function decimals() override public pure returns (uint8) {... */\n    tag_61:\n        /* \"ZUNIEGA - ETH+AVAX MOD 4/DegenToken.sol\":1326:1331  uint8 */\n      0x00\n        /* \"ZUNIEGA - ETH+AVAX MOD 4/DegenToken.sol\":1276:1360  function decimals() override public pure returns (uint8) {... */\n      swap1\n      jump\t// out\n        /* \"ZUNIEGA - ETH+AVAX MOD 4/DegenToken.sol\":2112:2502  function redeem(Item item) external {... */\n    tag_67:\n        /* \"ZUNIEGA - ETH+AVAX MOD 4/DegenToken.sol\":2159:2176  uint256 itemPrice */\n      0x00\n        /* \"ZUNIEGA - ETH+AVAX MOD 4/DegenToken.sol\":2179:2189  itemPrices */\n      0x06\n        /* \"ZUNIEGA - ETH+AVAX MOD 4/DegenToken.sol\":2179:2195  itemPrices[item] */\n      0x00\n        /* \"ZUNIEGA - ETH+AVAX MOD 4/DegenToken.sol\":2190:2194  item */\n      dup4\n        /* \"ZUNIEGA - ETH+AVAX MOD 4/DegenToken.sol\":2179:2195  itemPrices[item] */\n      0x09\n      dup2\n      gt\n      iszero\n      tag_156\n      jumpi\n      tag_157\n      tag_158\n      jump\t// in\n    tag_157:\n    tag_156:\n      0x09\n      dup2\n      gt\n      iszero\n      tag_159\n      jumpi\n      tag_160\n      tag_158\n      jump\t// in\n    tag_160:\n    tag_159:\n      dup2\n      mstore\n      0x20\n      add\n      swap1\n      dup2\n      mstore\n      0x20\n      add\n      0x00\n      keccak256\n      sload\n        /* \"ZUNIEGA - ETH+AVAX MOD 4/DegenToken.sol\":2159:2195  uint256 itemPrice = itemPrices[item] */\n      swap1\n      pop\n        /* \"ZUNIEGA - ETH+AVAX MOD 4/DegenToken.sol\":2226:2227  0 */\n      0x00\n        /* \"ZUNIEGA - ETH+AVAX MOD 4/DegenToken.sol\":2214:2223  itemPrice */\n      dup2\n        /* \"ZUNIEGA - ETH+AVAX MOD 4/DegenToken.sol\":2214:2227  itemPrice > 0 */\n      gt\n        /* \"ZUNIEGA - ETH+AVAX MOD 4/DegenToken.sol\":2206:2251  require(itemPrice > 0, \"Item does not exist\") */\n      tag_161\n      jumpi\n      mload(0x40)\n      0x08c379a000000000000000000000000000000000000000000000000000000000\n      dup2\n      mstore\n      0x04\n      add\n      tag_162\n      swap1\n      tag_163\n      jump\t// in\n    tag_162:\n      mload(0x40)\n      dup1\n      swap2\n      sub\n      swap1\n      revert\n    tag_161:\n        /* \"ZUNIEGA - ETH+AVAX MOD 4/DegenToken.sol\":2295:2304  itemPrice */\n      dup1\n        /* \"ZUNIEGA - ETH+AVAX MOD 4/DegenToken.sol\":2270:2291  balanceOf(msg.sender) */\n      tag_164\n        /* \"ZUNIEGA - ETH+AVAX MOD 4/DegenToken.sol\":2280:2290  msg.sender */\n      caller\n        /* \"ZUNIEGA - ETH+AVAX MOD 4/DegenToken.sol\":2270:2279  balanceOf */\n      tag_92\n        /* \"ZUNIEGA - ETH+AVAX MOD 4/DegenToken.sol\":2270:2291  balanceOf(msg.sender) */\n      jump\t// in\n    tag_164:\n        /* \"ZUNIEGA - ETH+AVAX MOD 4/DegenToken.sol\":2270:2304  balanceOf(msg.sender) >= itemPrice */\n      lt\n      iszero\n        /* \"ZUNIEGA - ETH+AVAX MOD 4/DegenToken.sol\":2262:2349  require(balanceOf(msg.sender) >= itemPrice, \"Insufficient balance to redeem this item\") */\n      tag_165\n      jumpi\n      mload(0x40)\n      0x08c379a000000000000000000000000000000000000000000000000000000000\n      dup2\n      mstore\n      0x04\n      add\n      tag_166\n      swap1\n      tag_167\n      jump\t// in\n    tag_166:\n      mload(0x40)\n      dup1\n      swap2\n      sub\n      swap1\n      revert\n    tag_165:\n        /* \"ZUNIEGA - ETH+AVAX MOD 4/DegenToken.sol\":2362:2390  _burn(msg.sender, itemPrice) */\n      tag_168\n        /* \"ZUNIEGA - ETH+AVAX MOD 4/DegenToken.sol\":2368:2378  msg.sender */\n      caller\n        /* \"ZUNIEGA - ETH+AVAX MOD 4/DegenToken.sol\":2380:2389  itemPrice */\n      dup3\n        /* \"ZUNIEGA - ETH+AVAX MOD 4/DegenToken.sol\":2362:2367  _burn */\n      tag_169\n        /* \"ZUNIEGA - ETH+AVAX MOD 4/DegenToken.sol\":2362:2390  _burn(msg.sender, itemPrice) */\n      jump\t// in\n    tag_168:\n        /* \"ZUNIEGA - ETH+AVAX MOD 4/DegenToken.sol\":2431:2435  item */\n      dup2\n        /* \"ZUNIEGA - ETH+AVAX MOD 4/DegenToken.sol\":2403:2416  redeemedItems */\n      0x07\n        /* \"ZUNIEGA - ETH+AVAX MOD 4/DegenToken.sol\":2403:2428  redeemedItems[msg.sender] */\n      0x00\n        /* \"ZUNIEGA - ETH+AVAX MOD 4/DegenToken.sol\":2417:2427  msg.sender */\n      caller\n        /* \"ZUNIEGA - ETH+AVAX MOD 4/DegenToken.sol\":2403:2428  redeemedItems[msg.sender] */\n      0xffffffffffffffffffffffffffffffffffffffff\n      and\n      0xffffffffffffffffffffffffffffffffffffffff\n      and\n      dup2\n      mstore\n      0x20\n      add\n      swap1\n      dup2\n      mstore\n      0x20\n      add\n      0x00\n      keccak256\n      0x00\n        /* \"ZUNIEGA - ETH+AVAX MOD 4/DegenToken.sol\":2403:2435  redeemedItems[msg.sender] = item */\n      0x0100\n      exp\n      dup2\n      sload\n      dup2\n      0xff\n      mul\n      not\n      and\n      swap1\n      dup4\n      0x09\n      dup2\n      gt\n      iszero\n      tag_170\n      jumpi\n      tag_171\n      tag_158\n      jump\t// in\n    tag_171:\n    tag_170:\n      mul\n      or\n      swap1\n      sstore\n      pop\n        /* \"ZUNIEGA - ETH+AVAX MOD 4/DegenToken.sol\":2466:2476  msg.sender */\n      caller\n        /* \"ZUNIEGA - ETH+AVAX MOD 4/DegenToken.sol\":2453:2494  ItemRedeemed(msg.sender, item, itemPrice) */\n      0xffffffffffffffffffffffffffffffffffffffff\n      and\n      0x99ef01c28d0d4019f42daadbeadc50847417cd453d622e1918f62830fab3a8c2\n        /* \"ZUNIEGA - ETH+AVAX MOD 4/DegenToken.sol\":2478:2482  item */\n      dup4\n        /* \"ZUNIEGA - ETH+AVAX MOD 4/DegenToken.sol\":2484:2493  itemPrice */\n      dup4\n        /* \"ZUNIEGA - ETH+AVAX MOD 4/DegenToken.sol\":2453:2494  ItemRedeemed(msg.sender, item, itemPrice) */\n      mload(0x40)\n      tag_172\n      swap3\n      swap2\n      swap1\n      tag_173\n      jump\t// in\n    tag_172:\n      mload(0x40)\n      dup1\n      swap2\n      sub\n      swap1\n      log2\n        /* \"ZUNIEGA - ETH+AVAX MOD 4/DegenToken.sol\":2148:2502  {... */\n      pop\n        /* \"ZUNIEGA - ETH+AVAX MOD 4/DegenToken.sol\":2112:2502  function redeem(Item item) external {... */\n      pop\n      jump\t// out\n        /* \"@openzeppelin/contracts@4.9.0/token/ERC20/ERC20.sol\":5854:6088  function increaseAllowance(address spender, uint256 addedValue) public virtual returns (bool) {... */\n    tag_70:\n        /* \"@openzeppelin/contracts@4.9.0/token/ERC20/ERC20.sol\":5942:5946  bool */\n      0x00\n        /* \"@openzeppelin/contracts@4.9.0/token/ERC20/ERC20.sol\":5958:5971  address owner */\n      dup1\n        /* \"@openzeppelin/contracts@4.9.0/token/ERC20/ERC20.sol\":5974:5986  _msgSender() */\n      tag_175\n        /* \"@openzeppelin/contracts@4.9.0/token/ERC20/ERC20.sol\":5974:5984  _msgSender */\n      tag_137\n        /* \"@openzeppelin/contracts@4.9.0/token/ERC20/ERC20.sol\":5974:5986  _msgSender() */\n      jump\t// in\n    tag_175:\n        /* \"@openzeppelin/contracts@4.9.0/token/ERC20/ERC20.sol\":5958:5986  address owner = _msgSender() */\n      swap1\n      pop\n        /* \"@openzeppelin/contracts@4.9.0/token/ERC20/ERC20.sol\":5996:6060  _approve(owner, spender, allowance(owner, spender) + addedValue) */\n      tag_176\n        /* \"@openzeppelin/contracts@4.9.0/token/ERC20/ERC20.sol\":6005:6010  owner */\n      dup2\n        /* \"@openzeppelin/contracts@4.9.0/token/ERC20/ERC20.sol\":6012:6019  spender */\n      dup6\n        /* \"@openzeppelin/contracts@4.9.0/token/ERC20/ERC20.sol\":6049:6059  addedValue */\n      dup6\n        /* \"@openzeppelin/contracts@4.9.0/token/ERC20/ERC20.sol\":6021:6046  allowance(owner, spender) */\n      tag_177\n        /* \"@openzeppelin/contracts@4.9.0/token/ERC20/ERC20.sol\":6031:6036  owner */\n      dup6\n        /* \"@openzeppelin/contracts@4.9.0/token/ERC20/ERC20.sol\":6038:6045  spender */\n      dup10\n        /* \"@openzeppelin/contracts@4.9.0/token/ERC20/ERC20.sol\":6021:6030  allowance */\n      tag_123\n        /* \"@openzeppelin/contracts@4.9.0/token/ERC20/ERC20.sol\":6021:6046  allowance(owner, spender) */\n      jump\t// in\n    tag_177:\n        /* \"@openzeppelin/contracts@4.9.0/token/ERC20/ERC20.sol\":6021:6059  allowance(owner, spender) + addedValue */\n      tag_178\n      swap2\n      swap1\n      tag_179\n      jump\t// in\n    tag_178:\n        /* \"@openzeppelin/contracts@4.9.0/token/ERC20/ERC20.sol\":5996:6004  _approve */\n      tag_139\n        /* \"@openzeppelin/contracts@4.9.0/token/ERC20/ERC20.sol\":5996:6060  _approve(owner, spender, allowance(owner, spender) + addedValue) */\n      jump\t// in\n    tag_176:\n        /* \"@openzeppelin/contracts@4.9.0/token/ERC20/ERC20.sol\":6077:6081  true */\n      0x01\n        /* \"@openzeppelin/contracts@4.9.0/token/ERC20/ERC20.sol\":6070:6081  return true */\n      swap2\n      pop\n      pop\n        /* \"@openzeppelin/contracts@4.9.0/token/ERC20/ERC20.sol\":5854:6088  function increaseAllowance(address spender, uint256 addedValue) public virtual returns (bool) {... */\n      swap3\n      swap2\n      pop\n      pop\n      jump\t// out\n        /* \"ZUNIEGA - ETH+AVAX MOD 4/DegenToken.sol\":563:608  mapping(address => Item) public redeemedItems */\n    tag_74:\n      mstore(0x20, 0x07)\n      dup1\n      0x00\n      mstore\n      keccak256(0x00, 0x40)\n      0x00\n      swap2\n      pop\n      sload\n      swap1\n      0x0100\n      exp\n      swap1\n      div\n      0xff\n      and\n      dup2\n      jump\t// out\n        /* \"ZUNIEGA - ETH+AVAX MOD 4/DegenToken.sol\":1173:1268  function mint(address to, uint256 amount) public onlyOwner {... */\n    tag_78:\n        /* \"@openzeppelin/contracts@4.9.0/access/Ownable.sol\":1094:1107  _checkOwner() */\n      tag_181\n        /* \"@openzeppelin/contracts@4.9.0/access/Ownable.sol\":1094:1105  _checkOwner */\n      tag_182\n        /* \"@openzeppelin/contracts@4.9.0/access/Ownable.sol\":1094:1107  _checkOwner() */\n      jump\t// in\n    tag_181:\n        /* \"ZUNIEGA - ETH+AVAX MOD 4/DegenToken.sol\":1243:1260  _mint(to, amount) */\n      tag_184\n        /* \"ZUNIEGA - ETH+AVAX MOD 4/DegenToken.sol\":1249:1251  to */\n      dup3\n        /* \"ZUNIEGA - ETH+AVAX MOD 4/DegenToken.sol\":1253:1259  amount */\n      dup3\n        /* \"ZUNIEGA - ETH+AVAX MOD 4/DegenToken.sol\":1243:1248  _mint */\n      tag_185\n        /* \"ZUNIEGA - ETH+AVAX MOD 4/DegenToken.sol\":1243:1260  _mint(to, amount) */\n      jump\t// in\n    tag_184:\n        /* \"ZUNIEGA - ETH+AVAX MOD 4/DegenToken.sol\":1173:1268  function mint(address to, uint256 amount) public onlyOwner {... */\n      pop\n      pop\n      jump\t// out\n        /* \"@openzeppelin/contracts@4.9.0/token/ERC20/extensions/ERC20Burnable.sol\":578:667  function burn(uint256 amount) public virtual {... */\n    tag_82:\n        /* \"@openzeppelin/contracts@4.9.0/token/ERC20/extensions/ERC20Burnable.sol\":633:660  _burn(_msgSender(), amount) */\n      tag_187\n        /* \"@openzeppelin/contracts@4.9.0/token/ERC20/extensions/ERC20Burnable.sol\":639:651  _msgSender() */\n      tag_188\n        /* \"@openzeppelin/contracts@4.9.0/token/ERC20/extensions/ERC20Burnable.sol\":639:649  _msgSender */\n      tag_137\n        /* \"@openzeppelin/contracts@4.9.0/token/ERC20/extensions/ERC20Burnable.sol\":639:651  _msgSender() */\n      jump\t// in\n    tag_188:\n        /* \"@openzeppelin/contracts@4.9.0/token/ERC20/extensions/ERC20Burnable.sol\":653:659  amount */\n      dup3\n        /* \"@openzeppelin/contracts@4.9.0/token/ERC20/extensions/ERC20Burnable.sol\":633:638  _burn */\n      tag_169\n        /* \"@openzeppelin/contracts@4.9.0/token/ERC20/extensions/ERC20Burnable.sol\":633:660  _burn(_msgSender(), amount) */\n      jump\t// in\n    tag_187:\n        /* \"@openzeppelin/contracts@4.9.0/token/ERC20/extensions/ERC20Burnable.sol\":578:667  function burn(uint256 amount) public virtual {... */\n      pop\n      jump\t// out\n        /* \"ZUNIEGA - ETH+AVAX MOD 4/DegenToken.sol\":514:556  mapping(Item => uint256) public itemPrices */\n    tag_85:\n      mstore(0x20, 0x06)\n      dup1\n      0x00\n      mstore\n      keccak256(0x00, 0x40)\n      0x00\n      swap2\n      pop\n      swap1\n      pop\n      sload\n      dup2\n      jump\t// out\n        /* \"ZUNIEGA - ETH+AVAX MOD 4/DegenToken.sol\":1731:1930  function burnTokens(uint256 _value) external {... */\n    tag_89:\n        /* \"ZUNIEGA - ETH+AVAX MOD 4/DegenToken.sol\":1820:1826  _value */\n      dup1\n        /* \"ZUNIEGA - ETH+AVAX MOD 4/DegenToken.sol\":1795:1816  balanceOf(msg.sender) */\n      tag_190\n        /* \"ZUNIEGA - ETH+AVAX MOD 4/DegenToken.sol\":1805:1815  msg.sender */\n      caller\n        /* \"ZUNIEGA - ETH+AVAX MOD 4/DegenToken.sol\":1795:1804  balanceOf */\n      tag_92\n        /* \"ZUNIEGA - ETH+AVAX MOD 4/DegenToken.sol\":1795:1816  balanceOf(msg.sender) */\n      jump\t// in\n    tag_190:\n        /* \"ZUNIEGA - ETH+AVAX MOD 4/DegenToken.sol\":1795:1826  balanceOf(msg.sender) >= _value */\n      lt\n      iszero\n        /* \"ZUNIEGA - ETH+AVAX MOD 4/DegenToken.sol\":1787:1886  require(balanceOf(msg.sender) >= _value, \"Insufficient Degen Tokens to burn. Check balance first.\") */\n      tag_191\n      jumpi\n      mload(0x40)\n      0x08c379a000000000000000000000000000000000000000000000000000000000\n      dup2\n      mstore\n      0x04\n      add\n      tag_192\n      swap1\n      tag_193\n      jump\t// in\n    tag_192:\n      mload(0x40)\n      dup1\n      swap2\n      sub\n      swap1\n      revert\n    tag_191:\n        /* \"ZUNIEGA - ETH+AVAX MOD 4/DegenToken.sol\":1897:1922  _burn(msg.sender, _value) */\n      tag_194\n        /* \"ZUNIEGA - ETH+AVAX MOD 4/DegenToken.sol\":1903:1913  msg.sender */\n      caller\n        /* \"ZUNIEGA - ETH+AVAX MOD 4/DegenToken.sol\":1915:1921  _value */\n      dup3\n        /* \"ZUNIEGA - ETH+AVAX MOD 4/DegenToken.sol\":1897:1902  _burn */\n      tag_169\n        /* \"ZUNIEGA - ETH+AVAX MOD 4/DegenToken.sol\":1897:1922  _burn(msg.sender, _value) */\n      jump\t// in\n    tag_194:\n        /* \"ZUNIEGA - ETH+AVAX MOD 4/DegenToken.sol\":1731:1930  function burnTokens(uint256 _value) external {... */\n      pop\n      jump\t// out\n        /* \"@openzeppelin/contracts@4.9.0/token/ERC20/ERC20.sol\":3419:3544  function balanceOf(address account) public view virtual override returns (uint256) {... */\n    tag_92:\n        /* \"@openzeppelin/contracts@4.9.0/token/ERC20/ERC20.sol\":3493:3500  uint256 */\n      0x00\n        /* \"@openzeppelin/contracts@4.9.0/token/ERC20/ERC20.sol\":3519:3528  _balances */\n      dup1\n        /* \"@openzeppelin/contracts@4.9.0/token/ERC20/ERC20.sol\":3519:3537  _balances[account] */\n      0x00\n        /* \"@openzeppelin/contracts@4.9.0/token/ERC20/ERC20.sol\":3529:3536  account */\n      dup4\n        /* \"@openzeppelin/contracts@4.9.0/token/ERC20/ERC20.sol\":3519:3537  _balances[account] */\n      0xffffffffffffffffffffffffffffffffffffffff\n      and\n      0xffffffffffffffffffffffffffffffffffffffff\n      and\n      dup2\n      mstore\n      0x20\n      add\n      swap1\n      dup2\n      mstore\n      0x20\n      add\n      0x00\n      keccak256\n      sload\n        /* \"@openzeppelin/contracts@4.9.0/token/ERC20/ERC20.sol\":3512:3537  return _balances[account] */\n      swap1\n      pop\n        /* \"@openzeppelin/contracts@4.9.0/token/ERC20/ERC20.sol\":3419:3544  function balanceOf(address account) public view virtual override returns (uint256) {... */\n      swap2\n      swap1\n      pop\n      jump\t// out\n        /* \"@openzeppelin/contracts@4.9.0/access/Ownable.sol\":1824:1925  function renounceOwnership() public virtual onlyOwner {... */\n    tag_95:\n        /* \"@openzeppelin/contracts@4.9.0/access/Ownable.sol\":1094:1107  _checkOwner() */\n      tag_197\n        /* \"@openzeppelin/contracts@4.9.0/access/Ownable.sol\":1094:1105  _checkOwner */\n      tag_182\n        /* \"@openzeppelin/contracts@4.9.0/access/Ownable.sol\":1094:1107  _checkOwner() */\n      jump\t// in\n    tag_197:\n        /* \"@openzeppelin/contracts@4.9.0/access/Ownable.sol\":1888:1918  _transferOwnership(address(0)) */\n      tag_199\n        /* \"@openzeppelin/contracts@4.9.0/access/Ownable.sol\":1915:1916  0 */\n      0x00\n        /* \"@openzeppelin/contracts@4.9.0/access/Ownable.sol\":1888:1906  _transferOwnership */\n      tag_200\n        /* \"@openzeppelin/contracts@4.9.0/access/Ownable.sol\":1888:1918  _transferOwnership(address(0)) */\n      jump\t// in\n    tag_199:\n        /* \"@openzeppelin/contracts@4.9.0/access/Ownable.sol\":1824:1925  function renounceOwnership() public virtual onlyOwner {... */\n      jump\t// out\n        /* \"@openzeppelin/contracts@4.9.0/token/ERC20/extensions/ERC20Burnable.sol\":973:1134  function burnFrom(address account, uint256 amount) public virtual {... */\n    tag_98:\n        /* \"@openzeppelin/contracts@4.9.0/token/ERC20/extensions/ERC20Burnable.sol\":1049:1095  _spendAllowance(account, _msgSender(), amount) */\n      tag_202\n        /* \"@openzeppelin/contracts@4.9.0/token/ERC20/extensions/ERC20Burnable.sol\":1065:1072  account */\n      dup3\n        /* \"@openzeppelin/contracts@4.9.0/token/ERC20/extensions/ERC20Burnable.sol\":1074:1086  _msgSender() */\n      tag_203\n        /* \"@openzeppelin/contracts@4.9.0/token/ERC20/extensions/ERC20Burnable.sol\":1074:1084  _msgSender */\n      tag_137\n        /* \"@openzeppelin/contracts@4.9.0/token/ERC20/extensions/ERC20Burnable.sol\":1074:1086  _msgSender() */\n      jump\t// in\n    tag_203:\n        /* \"@openzeppelin/contracts@4.9.0/token/ERC20/extensions/ERC20Burnable.sol\":1088:1094  amount */\n      dup4\n        /* \"@openzeppelin/contracts@4.9.0/token/ERC20/extensions/ERC20Burnable.sol\":1049:1064  _spendAllowance */\n      tag_150\n        /* \"@openzeppelin/contracts@4.9.0/token/ERC20/extensions/ERC20Burnable.sol\":1049:1095  _spendAllowance(account, _msgSender(), amount) */\n      jump\t// in\n    tag_202:\n        /* \"@openzeppelin/contracts@4.9.0/token/ERC20/extensions/ERC20Burnable.sol\":1105:1127  _burn(account, amount) */\n      tag_204\n        /* \"@openzeppelin/contracts@4.9.0/token/ERC20/extensions/ERC20Burnable.sol\":1111:1118  account */\n      dup3\n        /* \"@openzeppelin/contracts@4.9.0/token/ERC20/extensions/ERC20Burnable.sol\":1120:1126  amount */\n      dup3\n        /* \"@openzeppelin/contracts@4.9.0/token/ERC20/extensions/ERC20Burnable.sol\":1105:1110  _burn */\n      tag_169\n        /* \"@openzeppelin/contracts@4.9.0/token/ERC20/extensions/ERC20Burnable.sol\":1105:1127  _burn(account, amount) */\n      jump\t// in\n    tag_204:\n        /* \"@openzeppelin/contracts@4.9.0/token/ERC20/extensions/ERC20Burnable.sol\":973:1134  function burnFrom(address account, uint256 amount) public virtual {... */\n      pop\n      pop\n      jump\t// out\n        /* \"@openzeppelin/contracts@4.9.0/access/Ownable.sol\":1201:1286  function owner() public view virtual returns (address) {... */\n    tag_100:\n        /* \"@openzeppelin/contracts@4.9.0/access/Ownable.sol\":1247:1254  address */\n      0x00\n        /* \"@openzeppelin/contracts@4.9.0/access/Ownable.sol\":1273:1279  _owner */\n      0x05\n      0x00\n      swap1\n      sload\n      swap1\n      0x0100\n      exp\n      swap1\n      div\n      0xffffffffffffffffffffffffffffffffffffffff\n      and\n        /* \"@openzeppelin/contracts@4.9.0/access/Ownable.sol\":1266:1279  return _owner */\n      swap1\n      pop\n        /* \"@openzeppelin/contracts@4.9.0/access/Ownable.sol\":1201:1286  function owner() public view virtual returns (address) {... */\n      swap1\n      jump\t// out\n        /* \"@openzeppelin/contracts@4.9.0/token/ERC20/ERC20.sol\":2369:2471  function symbol() public view virtual override returns (string memory) {... */\n    tag_104:\n        /* \"@openzeppelin/contracts@4.9.0/token/ERC20/ERC20.sol\":2425:2438  string memory */\n      0x60\n        /* \"@openzeppelin/contracts@4.9.0/token/ERC20/ERC20.sol\":2457:2464  _symbol */\n      0x04\n        /* \"@openzeppelin/contracts@4.9.0/token/ERC20/ERC20.sol\":2450:2464  return _symbol */\n      dup1\n      sload\n      tag_207\n      swap1\n      tag_130\n      jump\t// in\n    tag_207:\n      dup1\n      0x1f\n      add\n      0x20\n      dup1\n      swap2\n      div\n      mul\n      0x20\n      add\n      mload(0x40)\n      swap1\n      dup2\n      add\n      0x40\n      mstore\n      dup1\n      swap3\n      swap2\n      swap1\n      dup2\n      dup2\n      mstore\n      0x20\n      add\n      dup3\n      dup1\n      sload\n      tag_208\n      swap1\n      tag_130\n      jump\t// in\n    tag_208:\n      dup1\n      iszero\n      tag_209\n      jumpi\n      dup1\n      0x1f\n      lt\n      tag_210\n      jumpi\n      0x0100\n      dup1\n      dup4\n      sload\n      div\n      mul\n      dup4\n      mstore\n      swap2\n      0x20\n      add\n      swap2\n      jump(tag_209)\n    tag_210:\n      dup3\n      add\n      swap2\n      swap1\n      0x00\n      mstore\n      keccak256(0x00, 0x20)\n      swap1\n    tag_211:\n      dup2\n      sload\n      dup2\n      mstore\n      swap1\n      0x01\n      add\n      swap1\n      0x20\n      add\n      dup1\n      dup4\n      gt\n      tag_211\n      jumpi\n      dup3\n      swap1\n      sub\n      0x1f\n      and\n      dup3\n      add\n      swap2\n    tag_209:\n      pop\n      pop\n      pop\n      pop\n      pop\n      swap1\n      pop\n        /* \"@openzeppelin/contracts@4.9.0/token/ERC20/ERC20.sol\":2369:2471  function symbol() public view virtual override returns (string memory) {... */\n      swap1\n      jump\t// out\n        /* \"@openzeppelin/contracts@4.9.0/token/ERC20/ERC20.sol\":6575:7002  function decreaseAllowance(address spender, uint256 subtractedValue) public virtual returns (bool) {... */\n    tag_108:\n        /* \"@openzeppelin/contracts@4.9.0/token/ERC20/ERC20.sol\":6668:6672  bool */\n      0x00\n        /* \"@openzeppelin/contracts@4.9.0/token/ERC20/ERC20.sol\":6684:6697  address owner */\n      dup1\n        /* \"@openzeppelin/contracts@4.9.0/token/ERC20/ERC20.sol\":6700:6712  _msgSender() */\n      tag_213\n        /* \"@openzeppelin/contracts@4.9.0/token/ERC20/ERC20.sol\":6700:6710  _msgSender */\n      tag_137\n        /* \"@openzeppelin/contracts@4.9.0/token/ERC20/ERC20.sol\":6700:6712  _msgSender() */\n      jump\t// in\n    tag_213:\n        /* \"@openzeppelin/contracts@4.9.0/token/ERC20/ERC20.sol\":6684:6712  address owner = _msgSender() */\n      swap1\n      pop\n        /* \"@openzeppelin/contracts@4.9.0/token/ERC20/ERC20.sol\":6722:6746  uint256 currentAllowance */\n      0x00\n        /* \"@openzeppelin/contracts@4.9.0/token/ERC20/ERC20.sol\":6749:6774  allowance(owner, spender) */\n      tag_214\n        /* \"@openzeppelin/contracts@4.9.0/token/ERC20/ERC20.sol\":6759:6764  owner */\n      dup3\n        /* \"@openzeppelin/contracts@4.9.0/token/ERC20/ERC20.sol\":6766:6773  spender */\n      dup7\n        /* \"@openzeppelin/contracts@4.9.0/token/ERC20/ERC20.sol\":6749:6758  allowance */\n      tag_123\n        /* \"@openzeppelin/contracts@4.9.0/token/ERC20/ERC20.sol\":6749:6774  allowance(owner, spender) */\n      jump\t// in\n    tag_214:\n        /* \"@openzeppelin/contracts@4.9.0/token/ERC20/ERC20.sol\":6722:6774  uint256 currentAllowance = allowance(owner, spender) */\n      swap1\n      pop\n        /* \"@openzeppelin/contracts@4.9.0/token/ERC20/ERC20.sol\":6812:6827  subtractedValue */\n      dup4\n        /* \"@openzeppelin/contracts@4.9.0/token/ERC20/ERC20.sol\":6792:6808  currentAllowance */\n      dup2\n        /* \"@openzeppelin/contracts@4.9.0/token/ERC20/ERC20.sol\":6792:6827  currentAllowance >= subtractedValue */\n      lt\n      iszero\n        /* \"@openzeppelin/contracts@4.9.0/token/ERC20/ERC20.sol\":6784:6869  require(currentAllowance >= subtractedValue, \"ERC20: decreased allowance below zero\") */\n      tag_215\n      jumpi\n      mload(0x40)\n      0x08c379a000000000000000000000000000000000000000000000000000000000\n      dup2\n      mstore\n      0x04\n      add\n      tag_216\n      swap1\n      tag_217\n      jump\t// in\n    tag_216:\n      mload(0x40)\n      dup1\n      swap2\n      sub\n      swap1\n      revert\n    tag_215:\n        /* \"@openzeppelin/contracts@4.9.0/token/ERC20/ERC20.sol\":6903:6963  _approve(owner, spender, currentAllowance - subtractedValue) */\n      tag_218\n        /* \"@openzeppelin/contracts@4.9.0/token/ERC20/ERC20.sol\":6912:6917  owner */\n      dup3\n        /* \"@openzeppelin/contracts@4.9.0/token/ERC20/ERC20.sol\":6919:6926  spender */\n      dup7\n        /* \"@openzeppelin/contracts@4.9.0/token/ERC20/ERC20.sol\":6947:6962  subtractedValue */\n      dup7\n        /* \"@openzeppelin/contracts@4.9.0/token/ERC20/ERC20.sol\":6928:6944  currentAllowance */\n      dup5\n        /* \"@openzeppelin/contracts@4.9.0/token/ERC20/ERC20.sol\":6928:6962  currentAllowance - subtractedValue */\n      sub\n        /* \"@openzeppelin/contracts@4.9.0/token/ERC20/ERC20.sol\":6903:6911  _approve */\n      tag_139\n        /* \"@openzeppelin/contracts@4.9.0/token/ERC20/ERC20.sol\":6903:6963  _approve(owner, spender, currentAllowance - subtractedValue) */\n      jump\t// in\n    tag_218:\n        /* \"@openzeppelin/contracts@4.9.0/token/ERC20/ERC20.sol\":6991:6995  true */\n      0x01\n        /* \"@openzeppelin/contracts@4.9.0/token/ERC20/ERC20.sol\":6984:6995  return true */\n      swap3\n      pop\n      pop\n      pop\n        /* \"@openzeppelin/contracts@4.9.0/token/ERC20/ERC20.sol\":6575:7002  function decreaseAllowance(address spender, uint256 subtractedValue) public virtual returns (bool) {... */\n      swap3\n      swap2\n      pop\n      pop\n      jump\t// out\n        /* \"ZUNIEGA - ETH+AVAX MOD 4/DegenToken.sol\":1938:2104  function redeemTokens(uint256 _value) external {... */\n    tag_112:\n        /* \"ZUNIEGA - ETH+AVAX MOD 4/DegenToken.sol\":2029:2035  _value */\n      dup1\n        /* \"ZUNIEGA - ETH+AVAX MOD 4/DegenToken.sol\":2004:2025  balanceOf(msg.sender) */\n      tag_220\n        /* \"ZUNIEGA - ETH+AVAX MOD 4/DegenToken.sol\":2014:2024  msg.sender */\n      caller\n        /* \"ZUNIEGA - ETH+AVAX MOD 4/DegenToken.sol\":2004:2013  balanceOf */\n      tag_92\n        /* \"ZUNIEGA - ETH+AVAX MOD 4/DegenToken.sol\":2004:2025  balanceOf(msg.sender) */\n      jump\t// in\n    tag_220:\n        /* \"ZUNIEGA - ETH+AVAX MOD 4/DegenToken.sol\":2004:2035  balanceOf(msg.sender) >= _value */\n      lt\n      iszero\n        /* \"ZUNIEGA - ETH+AVAX MOD 4/DegenToken.sol\":1996:2060  require(balanceOf(msg.sender) >= _value, \"No tokens to redeem.\") */\n      tag_221\n      jumpi\n      mload(0x40)\n      0x08c379a000000000000000000000000000000000000000000000000000000000\n      dup2\n      mstore\n      0x04\n      add\n      tag_222\n      swap1\n      tag_223\n      jump\t// in\n    tag_222:\n      mload(0x40)\n      dup1\n      swap2\n      sub\n      swap1\n      revert\n    tag_221:\n        /* \"ZUNIEGA - ETH+AVAX MOD 4/DegenToken.sol\":2071:2096  _burn(msg.sender, _value) */\n      tag_224\n        /* \"ZUNIEGA - ETH+AVAX MOD 4/DegenToken.sol\":2077:2087  msg.sender */\n      caller\n        /* \"ZUNIEGA - ETH+AVAX MOD 4/DegenToken.sol\":2089:2095  _value */\n      dup3\n        /* \"ZUNIEGA - ETH+AVAX MOD 4/DegenToken.sol\":2071:2076  _burn */\n      tag_169\n        /* \"ZUNIEGA - ETH+AVAX MOD 4/DegenToken.sol\":2071:2096  _burn(msg.sender, _value) */\n      jump\t// in\n    tag_224:\n        /* \"ZUNIEGA - ETH+AVAX MOD 4/DegenToken.sol\":1938:2104  function redeemTokens(uint256 _value) external {... */\n      pop\n      jump\t// out\n        /* \"@openzeppelin/contracts@4.9.0/token/ERC20/ERC20.sol\":3740:3929  function transfer(address to, uint256 amount) public virtual override returns (bool) {... */\n    tag_115:\n        /* \"@openzeppelin/contracts@4.9.0/token/ERC20/ERC20.sol\":3819:3823  bool */\n      0x00\n        /* \"@openzeppelin/contracts@4.9.0/token/ERC20/ERC20.sol\":3835:3848  address owner */\n      dup1\n        /* \"@openzeppelin/contracts@4.9.0/token/ERC20/ERC20.sol\":3851:3863  _msgSender() */\n      tag_226\n        /* \"@openzeppelin/contracts@4.9.0/token/ERC20/ERC20.sol\":3851:3861  _msgSender */\n      tag_137\n        /* \"@openzeppelin/contracts@4.9.0/token/ERC20/ERC20.sol\":3851:3863  _msgSender() */\n      jump\t// in\n    tag_226:\n        /* \"@openzeppelin/contracts@4.9.0/token/ERC20/ERC20.sol\":3835:3863  address owner = _msgSender() */\n      swap1\n      pop\n        /* \"@openzeppelin/contracts@4.9.0/token/ERC20/ERC20.sol\":3873:3901  _transfer(owner, to, amount) */\n      tag_227\n        /* \"@openzeppelin/contracts@4.9.0/token/ERC20/ERC20.sol\":3883:3888  owner */\n      dup2\n        /* \"@openzeppelin/contracts@4.9.0/token/ERC20/ERC20.sol\":3890:3892  to */\n      dup6\n        /* \"@openzeppelin/contracts@4.9.0/token/ERC20/ERC20.sol\":3894:3900  amount */\n      dup6\n        /* \"@openzeppelin/contracts@4.9.0/token/ERC20/ERC20.sol\":3873:3882  _transfer */\n      tag_152\n        /* \"@openzeppelin/contracts@4.9.0/token/ERC20/ERC20.sol\":3873:3901  _transfer(owner, to, amount) */\n      jump\t// in\n    tag_227:\n        /* \"@openzeppelin/contracts@4.9.0/token/ERC20/ERC20.sol\":3918:3922  true */\n      0x01\n        /* \"@openzeppelin/contracts@4.9.0/token/ERC20/ERC20.sol\":3911:3922  return true */\n      swap2\n      pop\n      pop\n        /* \"@openzeppelin/contracts@4.9.0/token/ERC20/ERC20.sol\":3740:3929  function transfer(address to, uint256 amount) public virtual override returns (bool) {... */\n      swap3\n      swap2\n      pop\n      pop\n      jump\t// out\n        /* \"ZUNIEGA - ETH+AVAX MOD 4/DegenToken.sol\":1482:1723  function transferTokens(address _receiver, uint256 _value) external {... */\n    tag_119:\n        /* \"ZUNIEGA - ETH+AVAX MOD 4/DegenToken.sol\":1594:1600  _value */\n      dup1\n        /* \"ZUNIEGA - ETH+AVAX MOD 4/DegenToken.sol\":1569:1590  balanceOf(msg.sender) */\n      tag_229\n        /* \"ZUNIEGA - ETH+AVAX MOD 4/DegenToken.sol\":1579:1589  msg.sender */\n      caller\n        /* \"ZUNIEGA - ETH+AVAX MOD 4/DegenToken.sol\":1569:1578  balanceOf */\n      tag_92\n        /* \"ZUNIEGA - ETH+AVAX MOD 4/DegenToken.sol\":1569:1590  balanceOf(msg.sender) */\n      jump\t// in\n    tag_229:\n        /* \"ZUNIEGA - ETH+AVAX MOD 4/DegenToken.sol\":1569:1600  balanceOf(msg.sender) >= _value */\n      lt\n      iszero\n        /* \"ZUNIEGA - ETH+AVAX MOD 4/DegenToken.sol\":1561:1664  require(balanceOf(msg.sender) >= _value, \"Insufficient Degen Tokens to transfer. Check balance first.\") */\n      tag_230\n      jumpi\n      mload(0x40)\n      0x08c379a000000000000000000000000000000000000000000000000000000000\n      dup2\n      mstore\n      0x04\n      add\n      tag_231\n      swap1\n      tag_232\n      jump\t// in\n    tag_231:\n      mload(0x40)\n      dup1\n      swap2\n      sub\n      swap1\n      revert\n    tag_230:\n        /* \"ZUNIEGA - ETH+AVAX MOD 4/DegenToken.sol\":1675:1715  _transfer(msg.sender, _receiver, _value) */\n      tag_233\n        /* \"ZUNIEGA - ETH+AVAX MOD 4/DegenToken.sol\":1685:1695  msg.sender */\n      caller\n        /* \"ZUNIEGA - ETH+AVAX MOD 4/DegenToken.sol\":1697:1706  _receiver */\n      dup4\n        /* \"ZUNIEGA - ETH+AVAX MOD 4/DegenToken.sol\":1708:1714  _value */\n      dup4\n        /* \"ZUNIEGA - ETH+AVAX MOD 4/DegenToken.sol\":1675:1684  _transfer */\n      tag_152\n        /* \"ZUNIEGA - ETH+AVAX MOD 4/DegenToken.sol\":1675:1715  _transfer(msg.sender, _receiver, _value) */\n      jump\t// in\n    tag_233:\n        /* \"ZUNIEGA - ETH+AVAX MOD 4/DegenToken.sol\":1482:1723  function transferTokens(address _receiver, uint256 _value) external {... */\n      pop\n      pop\n      jump\t// out\n        /* \"@openzeppelin/contracts@4.9.0/token/ERC20/ERC20.sol\":3987:4136  function allowance(address owner, address spender) public view virtual override returns (uint256) {... */\n    tag_123:\n        /* \"@openzeppelin/contracts@4.9.0/token/ERC20/ERC20.sol\":4076:4083  uint256 */\n      0x00\n        /* \"@openzeppelin/contracts@4.9.0/token/ERC20/ERC20.sol\":4102:4113  _allowances */\n      0x01\n        /* \"@openzeppelin/contracts@4.9.0/token/ERC20/ERC20.sol\":4102:4120  _allowances[owner] */\n      0x00\n        /* \"@openzeppelin/contracts@4.9.0/token/ERC20/ERC20.sol\":4114:4119  owner */\n      dup5\n        /* \"@openzeppelin/contracts@4.9.0/token/ERC20/ERC20.sol\":4102:4120  _allowances[owner] */\n      0xffffffffffffffffffffffffffffffffffffffff\n      and\n      0xffffffffffffffffffffffffffffffffffffffff\n      and\n      dup2\n      mstore\n      0x20\n      add\n      swap1\n      dup2\n      mstore\n      0x20\n      add\n      0x00\n      keccak256\n        /* \"@openzeppelin/contracts@4.9.0/token/ERC20/ERC20.sol\":4102:4129  _allowances[owner][spender] */\n      0x00\n        /* \"@openzeppelin/contracts@4.9.0/token/ERC20/ERC20.sol\":4121:4128  spender */\n      dup4\n        /* \"@openzeppelin/contracts@4.9.0/token/ERC20/ERC20.sol\":4102:4129  _allowances[owner][spender] */\n      0xffffffffffffffffffffffffffffffffffffffff\n      and\n      0xffffffffffffffffffffffffffffffffffffffff\n      and\n      dup2\n      mstore\n      0x20\n      add\n      swap1\n      dup2\n      mstore\n      0x20\n      add\n      0x00\n      keccak256\n      sload\n        /* \"@openzeppelin/contracts@4.9.0/token/ERC20/ERC20.sol\":4095:4129  return _allowances[owner][spender] */\n      swap1\n      pop\n        /* \"@openzeppelin/contracts@4.9.0/token/ERC20/ERC20.sol\":3987:4136  function allowance(address owner, address spender) public view virtual override returns (uint256) {... */\n      swap3\n      swap2\n      pop\n      pop\n      jump\t// out\n        /* \"@openzeppelin/contracts@4.9.0/access/Ownable.sol\":2074:2272  function transferOwnership(address newOwner) public virtual onlyOwner {... */\n    tag_127:\n        /* \"@openzeppelin/contracts@4.9.0/access/Ownable.sol\":1094:1107  _checkOwner() */\n      tag_236\n        /* \"@openzeppelin/contracts@4.9.0/access/Ownable.sol\":1094:1105  _checkOwner */\n      tag_182\n        /* \"@openzeppelin/contracts@4.9.0/access/Ownable.sol\":1094:1107  _checkOwner() */\n      jump\t// in\n    tag_236:\n        /* \"@openzeppelin/contracts@4.9.0/access/Ownable.sol\":2182:2183  0 */\n      0x00\n        /* \"@openzeppelin/contracts@4.9.0/access/Ownable.sol\":2162:2184  newOwner != address(0) */\n      0xffffffffffffffffffffffffffffffffffffffff\n      and\n        /* \"@openzeppelin/contracts@4.9.0/access/Ownable.sol\":2162:2170  newOwner */\n      dup2\n        /* \"@openzeppelin/contracts@4.9.0/access/Ownable.sol\":2162:2184  newOwner != address(0) */\n      0xffffffffffffffffffffffffffffffffffffffff\n      and\n      sub\n        /* \"@openzeppelin/contracts@4.9.0/access/Ownable.sol\":2154:2227  require(newOwner != address(0), \"Ownable: new owner is the zero address\") */\n      tag_238\n      jumpi\n      mload(0x40)\n      0x08c379a000000000000000000000000000000000000000000000000000000000\n      dup2\n      mstore\n      0x04\n      add\n      tag_239\n      swap1\n      tag_240\n      jump\t// in\n    tag_239:\n      mload(0x40)\n      dup1\n      swap2\n      sub\n      swap1\n      revert\n    tag_238:\n        /* \"@openzeppelin/contracts@4.9.0/access/Ownable.sol\":2237:2265  _transferOwnership(newOwner) */\n      tag_241\n        /* \"@openzeppelin/contracts@4.9.0/access/Ownable.sol\":2256:2264  newOwner */\n      dup2\n        /* \"@openzeppelin/contracts@4.9.0/access/Ownable.sol\":2237:2255  _transferOwnership */\n      tag_200\n        /* \"@openzeppelin/contracts@4.9.0/access/Ownable.sol\":2237:2265  _transferOwnership(newOwner) */\n      jump\t// in\n    tag_241:\n        /* \"@openzeppelin/contracts@4.9.0/access/Ownable.sol\":2074:2272  function transferOwnership(address newOwner) public virtual onlyOwner {... */\n      pop\n      jump\t// out\n        /* \"@openzeppelin/contracts@4.9.0/utils/Context.sol\":640:736  function _msgSender() internal view virtual returns (address) {... */\n    tag_137:\n        /* \"@openzeppelin/contracts@4.9.0/utils/Context.sol\":693:700  address */\n      0x00\n        /* \"@openzeppelin/contracts@4.9.0/utils/Context.sol\":719:729  msg.sender */\n      caller\n        /* \"@openzeppelin/contracts@4.9.0/utils/Context.sol\":712:729  return msg.sender */\n      swap1\n      pop\n        /* \"@openzeppelin/contracts@4.9.0/utils/Context.sol\":640:736  function _msgSender() internal view virtual returns (address) {... */\n      swap1\n      jump\t// out\n        /* \"@openzeppelin/contracts@4.9.0/token/ERC20/ERC20.sol\":10457:10797  function _approve(address owner, address spender, uint256 amount) internal virtual {... */\n    tag_139:\n        /* \"@openzeppelin/contracts@4.9.0/token/ERC20/ERC20.sol\":10575:10576  0 */\n      0x00\n        /* \"@openzeppelin/contracts@4.9.0/token/ERC20/ERC20.sol\":10558:10577  owner != address(0) */\n      0xffffffffffffffffffffffffffffffffffffffff\n      and\n        /* \"@openzeppelin/contracts@4.9.0/token/ERC20/ERC20.sol\":10558:10563  owner */\n      dup4\n        /* \"@openzeppelin/contracts@4.9.0/token/ERC20/ERC20.sol\":10558:10577  owner != address(0) */\n      0xffffffffffffffffffffffffffffffffffffffff\n      and\n      sub\n        /* \"@openzeppelin/contracts@4.9.0/token/ERC20/ERC20.sol\":10550:10618  require(owner != address(0), \"ERC20: approve from the zero address\") */\n      tag_244\n      jumpi\n      mload(0x40)\n      0x08c379a000000000000000000000000000000000000000000000000000000000\n      dup2\n      mstore\n      0x04\n      add\n      tag_245\n      swap1\n      tag_246\n      jump\t// in\n    tag_245:\n      mload(0x40)\n      dup1\n      swap2\n      sub\n      swap1\n      revert\n    tag_244:\n        /* \"@openzeppelin/contracts@4.9.0/token/ERC20/ERC20.sol\":10655:10656  0 */\n      0x00\n        /* \"@openzeppelin/contracts@4.9.0/token/ERC20/ERC20.sol\":10636:10657  spender != address(0) */\n      0xffffffffffffffffffffffffffffffffffffffff\n      and\n        /* \"@openzeppelin/contracts@4.9.0/token/ERC20/ERC20.sol\":10636:10643  spender */\n      dup3\n        /* \"@openzeppelin/contracts@4.9.0/token/ERC20/ERC20.sol\":10636:10657  spender != address(0) */\n      0xffffffffffffffffffffffffffffffffffffffff\n      and\n      sub\n        /* \"@openzeppelin/contracts@4.9.0/token/ERC20/ERC20.sol\":10628:10696  require(spender != address(0), \"ERC20: approve to the zero address\") */\n      tag_247\n      jumpi\n      mload(0x40)\n      0x08c379a000000000000000000000000000000000000000000000000000000000\n      dup2\n      mstore\n      0x04\n      add\n      tag_248\n      swap1\n      tag_249\n      jump\t// in\n    tag_248:\n      mload(0x40)\n      dup1\n      swap2\n      sub\n      swap1\n      revert\n    tag_247:\n        /* \"@openzeppelin/contracts@4.9.0/token/ERC20/ERC20.sol\":10737:10743  amount */\n      dup1\n        /* \"@openzeppelin/contracts@4.9.0/token/ERC20/ERC20.sol\":10707:10718  _allowances */\n      0x01\n        /* \"@openzeppelin/contracts@4.9.0/token/ERC20/ERC20.sol\":10707:10725  _allowances[owner] */\n      0x00\n        /* \"@openzeppelin/contracts@4.9.0/token/ERC20/ERC20.sol\":10719:10724  owner */\n      dup6\n        /* \"@openzeppelin/contracts@4.9.0/token/ERC20/ERC20.sol\":10707:10725  _allowances[owner] */\n      0xffffffffffffffffffffffffffffffffffffffff\n      and\n      0xffffffffffffffffffffffffffffffffffffffff\n      and\n      dup2\n      mstore\n      0x20\n      add\n      swap1\n      dup2\n      mstore\n      0x20\n      add\n      0x00\n      keccak256\n        /* \"@openzeppelin/contracts@4.9.0/token/ERC20/ERC20.sol\":10707:10734  _allowances[owner][spender] */\n      0x00\n        /* \"@openzeppelin/contracts@4.9.0/token/ERC20/ERC20.sol\":10726:10733  spender */\n      dup5\n        /* \"@openzeppelin/contracts@4.9.0/token/ERC20/ERC20.sol\":10707:10734  _allowances[owner][spender] */\n      0xffffffffffffffffffffffffffffffffffffffff\n      and\n      0xffffffffffffffffffffffffffffffffffffffff\n      and\n      dup2\n      mstore\n      0x20\n      add\n      swap1\n      dup2\n      mstore\n      0x20\n      add\n      0x00\n      keccak256\n        /* \"@openzeppelin/contracts@4.9.0/token/ERC20/ERC20.sol\":10707:10743  _allowances[owner][spender] = amount */\n      dup2\n      swap1\n      sstore\n      pop\n        /* \"@openzeppelin/contracts@4.9.0/token/ERC20/ERC20.sol\":10774:10781  spender */\n      dup2\n        /* \"@openzeppelin/contracts@4.9.0/token/ERC20/ERC20.sol\":10758:10790  Approval(owner, spender, amount) */\n      0xffffffffffffffffffffffffffffffffffffffff\n      and\n        /* \"@openzeppelin/contracts@4.9.0/token/ERC20/ERC20.sol\":10767:10772  owner */\n      dup4\n        /* \"@openzeppelin/contracts@4.9.0/token/ERC20/ERC20.sol\":10758:10790  Approval(owner, spender, amount) */\n      0xffffffffffffffffffffffffffffffffffffffff\n      and\n      0x8c5be1e5ebec7d5bd14f71427d1e84f3dd0314c0f7b2291e5b200ac8c7c3b925\n        /* \"@openzeppelin/contracts@4.9.0/token/ERC20/ERC20.sol\":10783:10789  amount */\n      dup4\n        /* \"@openzeppelin/contracts@4.9.0/token/ERC20/ERC20.sol\":10758:10790  Approval(owner, spender, amount) */\n      mload(0x40)\n      tag_250\n      swap2\n      swap1\n      tag_45\n      jump\t// in\n    tag_250:\n      mload(0x40)\n      dup1\n      swap2\n      sub\n      swap1\n      log3\n        /* \"@openzeppelin/contracts@4.9.0/token/ERC20/ERC20.sol\":10457:10797  function _approve(address owner, address spender, uint256 amount) internal virtual {... */\n      pop\n      pop\n      pop\n      jump\t// out\n        /* \"@openzeppelin/contracts@4.9.0/token/ERC20/ERC20.sol\":11078:11489  function _spendAllowance(address owner, address spender, uint256 amount) internal virtual {... */\n    tag_150:\n        /* \"@openzeppelin/contracts@4.9.0/token/ERC20/ERC20.sol\":11178:11202  uint256 currentAllowance */\n      0x00\n        /* \"@openzeppelin/contracts@4.9.0/token/ERC20/ERC20.sol\":11205:11230  allowance(owner, spender) */\n      tag_252\n        /* \"@openzeppelin/contracts@4.9.0/token/ERC20/ERC20.sol\":11215:11220  owner */\n      dup5\n        /* \"@openzeppelin/contracts@4.9.0/token/ERC20/ERC20.sol\":11222:11229  spender */\n      dup5\n        /* \"@openzeppelin/contracts@4.9.0/token/ERC20/ERC20.sol\":11205:11214  allowance */\n      tag_123\n        /* \"@openzeppelin/contracts@4.9.0/token/ERC20/ERC20.sol\":11205:11230  allowance(owner, spender) */\n      jump\t// in\n    tag_252:\n        /* \"@openzeppelin/contracts@4.9.0/token/ERC20/ERC20.sol\":11178:11230  uint256 currentAllowance = allowance(owner, spender) */\n      swap1\n      pop\n        /* \"@openzeppelin/contracts@4.9.0/token/ERC20/ERC20.sol\":11264:11281  type(uint256).max */\n      0xffffffffffffffffffffffffffffffffffffffffffffffffffffffffffffffff\n        /* \"@openzeppelin/contracts@4.9.0/token/ERC20/ERC20.sol\":11244:11260  currentAllowance */\n      dup2\n        /* \"@openzeppelin/contracts@4.9.0/token/ERC20/ERC20.sol\":11244:11281  currentAllowance != type(uint256).max */\n      eq\n        /* \"@openzeppelin/contracts@4.9.0/token/ERC20/ERC20.sol\":11240:11483  if (currentAllowance != type(uint256).max) {... */\n      tag_253\n      jumpi\n        /* \"@openzeppelin/contracts@4.9.0/token/ERC20/ERC20.sol\":11325:11331  amount */\n      dup2\n        /* \"@openzeppelin/contracts@4.9.0/token/ERC20/ERC20.sol\":11305:11321  currentAllowance */\n      dup2\n        /* \"@openzeppelin/contracts@4.9.0/token/ERC20/ERC20.sol\":11305:11331  currentAllowance >= amount */\n      lt\n      iszero\n        /* \"@openzeppelin/contracts@4.9.0/token/ERC20/ERC20.sol\":11297:11365  require(currentAllowance >= amount, \"ERC20: insufficient allowance\") */\n      tag_254\n      jumpi\n      mload(0x40)\n      0x08c379a000000000000000000000000000000000000000000000000000000000\n      dup2\n      mstore\n      0x04\n      add\n      tag_255\n      swap1\n      tag_256\n      jump\t// in\n    tag_255:\n      mload(0x40)\n      dup1\n      swap2\n      sub\n      swap1\n      revert\n    tag_254:\n        /* \"@openzeppelin/contracts@4.9.0/token/ERC20/ERC20.sol\":11407:11458  _approve(owner, spender, currentAllowance - amount) */\n      tag_257\n        /* \"@openzeppelin/contracts@4.9.0/token/ERC20/ERC20.sol\":11416:11421  owner */\n      dup5\n        /* \"@openzeppelin/contracts@4.9.0/token/ERC20/ERC20.sol\":11423:11430  spender */\n      dup5\n        /* \"@openzeppelin/contracts@4.9.0/token/ERC20/ERC20.sol\":11451:11457  amount */\n      dup5\n        /* \"@openzeppelin/contracts@4.9.0/token/ERC20/ERC20.sol\":11432:11448  currentAllowance */\n      dup5\n        /* \"@openzeppelin/contracts@4.9.0/token/ERC20/ERC20.sol\":11432:11457  currentAllowance - amount */\n      sub\n        /* \"@openzeppelin/contracts@4.9.0/token/ERC20/ERC20.sol\":11407:11415  _approve */\n      tag_139\n        /* \"@openzeppelin/contracts@4.9.0/token/ERC20/ERC20.sol\":11407:11458  _approve(owner, spender, currentAllowance - amount) */\n      jump\t// in\n    tag_257:\n        /* \"@openzeppelin/contracts@4.9.0/token/ERC20/ERC20.sol\":11240:11483  if (currentAllowance != type(uint256).max) {... */\n    tag_253:\n        /* \"@openzeppelin/contracts@4.9.0/token/ERC20/ERC20.sol\":11168:11489  {... */\n      pop\n        /* \"@openzeppelin/contracts@4.9.0/token/ERC20/ERC20.sol\":11078:11489  function _spendAllowance(address owner, address spender, uint256 amount) internal virtual {... */\n      pop\n      pop\n      pop\n      jump\t// out\n        /* \"@openzeppelin/contracts@4.9.0/token/ERC20/ERC20.sol\":7456:8244  function _transfer(address from, address to, uint256 amount) internal virtual {... */\n    tag_152:\n        /* \"@openzeppelin/contracts@4.9.0/token/ERC20/ERC20.sol\":7568:7569  0 */\n      0x00\n        /* \"@openzeppelin/contracts@4.9.0/token/ERC20/ERC20.sol\":7552:7570  from != address(0) */\n      0xffffffffffffffffffffffffffffffffffffffff\n      and\n        /* \"@openzeppelin/contracts@4.9.0/token/ERC20/ERC20.sol\":7552:7556  from */\n      dup4\n        /* \"@openzeppelin/contracts@4.9.0/token/ERC20/ERC20.sol\":7552:7570  from != address(0) */\n      0xffffffffffffffffffffffffffffffffffffffff\n      and\n      sub\n        /* \"@openzeppelin/contracts@4.9.0/token/ERC20/ERC20.sol\":7544:7612  require(from != address(0), \"ERC20: transfer from the zero address\") */\n      tag_259\n      jumpi\n      mload(0x40)\n      0x08c379a000000000000000000000000000000000000000000000000000000000\n      dup2\n      mstore\n      0x04\n      add\n      tag_260\n      swap1\n      tag_261\n      jump\t// in\n    tag_260:\n      mload(0x40)\n      dup1\n      swap2\n      sub\n      swap1\n      revert\n    tag_259:\n        /* \"@openzeppelin/contracts@4.9.0/token/ERC20/ERC20.sol\":7644:7645  0 */\n      0x00\n        /* \"@openzeppelin/contracts@4.9.0/token/ERC20/ERC20.sol\":7630:7646  to != address(0) */\n      0xffffffffffffffffffffffffffffffffffffffff\n      and\n        /* \"@openzeppelin/contracts@4.9.0/token/ERC20/ERC20.sol\":7630:7632  to */\n      dup3\n        /* \"@openzeppelin/contracts@4.9.0/token/ERC20/ERC20.sol\":7630:7646  to != address(0) */\n      0xffffffffffffffffffffffffffffffffffffffff\n      and\n      sub\n        /* \"@openzeppelin/contracts@4.9.0/token/ERC20/ERC20.sol\":7622:7686  require(to != address(0), \"ERC20: transfer to the zero address\") */\n      tag_262\n      jumpi\n      mload(0x40)\n      0x08c379a000000000000000000000000000000000000000000000000000000000\n      dup2\n      mstore\n      0x04\n      add\n      tag_263\n      swap1\n      tag_264\n      jump\t// in\n    tag_263:\n      mload(0x40)\n      dup1\n      swap2\n      sub\n      swap1\n      revert\n    tag_262:\n        /* \"@openzeppelin/contracts@4.9.0/token/ERC20/ERC20.sol\":7697:7735  _beforeTokenTransfer(from, to, amount) */\n      tag_265\n        /* \"@openzeppelin/contracts@4.9.0/token/ERC20/ERC20.sol\":7718:7722  from */\n      dup4\n        /* \"@openzeppelin/contracts@4.9.0/token/ERC20/ERC20.sol\":7724:7726  to */\n      dup4\n        /* \"@openzeppelin/contracts@4.9.0/token/ERC20/ERC20.sol\":7728:7734  amount */\n      dup4\n        /* \"@openzeppelin/contracts@4.9.0/token/ERC20/ERC20.sol\":7697:7717  _beforeTokenTransfer */\n      tag_266\n        /* \"@openzeppelin/contracts@4.9.0/token/ERC20/ERC20.sol\":7697:7735  _beforeTokenTransfer(from, to, amount) */\n      jump\t// in\n    tag_265:\n        /* \"@openzeppelin/contracts@4.9.0/token/ERC20/ERC20.sol\":7746:7765  uint256 fromBalance */\n      0x00\n        /* \"@openzeppelin/contracts@4.9.0/token/ERC20/ERC20.sol\":7768:7777  _balances */\n      dup1\n        /* \"@openzeppelin/contracts@4.9.0/token/ERC20/ERC20.sol\":7768:7783  _balances[from] */\n      0x00\n        /* \"@openzeppelin/contracts@4.9.0/token/ERC20/ERC20.sol\":7778:7782  from */\n      dup6\n        /* \"@openzeppelin/contracts@4.9.0/token/ERC20/ERC20.sol\":7768:7783  _balances[from] */\n      0xffffffffffffffffffffffffffffffffffffffff\n      and\n      0xffffffffffffffffffffffffffffffffffffffff\n      and\n      dup2\n      mstore\n      0x20\n      add\n      swap1\n      dup2\n      mstore\n      0x20\n      add\n      0x00\n      keccak256\n      sload\n        /* \"@openzeppelin/contracts@4.9.0/token/ERC20/ERC20.sol\":7746:7783  uint256 fromBalance = _balances[from] */\n      swap1\n      pop\n        /* \"@openzeppelin/contracts@4.9.0/token/ERC20/ERC20.sol\":7816:7822  amount */\n      dup2\n        /* \"@openzeppelin/contracts@4.9.0/token/ERC20/ERC20.sol\":7801:7812  fromBalance */\n      dup2\n        /* \"@openzeppelin/contracts@4.9.0/token/ERC20/ERC20.sol\":7801:7822  fromBalance >= amount */\n      lt\n      iszero\n        /* \"@openzeppelin/contracts@4.9.0/token/ERC20/ERC20.sol\":7793:7865  require(fromBalance >= amount, \"ERC20: transfer amount exceeds balance\") */\n      tag_267\n      jumpi\n      mload(0x40)\n      0x08c379a000000000000000000000000000000000000000000000000000000000\n      dup2\n      mstore\n      0x04\n      add\n      tag_268\n      swap1\n      tag_269\n      jump\t// in\n    tag_268:\n      mload(0x40)\n      dup1\n      swap2\n      sub\n      swap1\n      revert\n    tag_267:\n        /* \"@openzeppelin/contracts@4.9.0/token/ERC20/ERC20.sol\":7931:7937  amount */\n      dup2\n        /* \"@openzeppelin/contracts@4.9.0/token/ERC20/ERC20.sol\":7917:7928  fromBalance */\n      dup2\n        /* \"@openzeppelin/contracts@4.9.0/token/ERC20/ERC20.sol\":7917:7937  fromBalance - amount */\n      sub\n        /* \"@openzeppelin/contracts@4.9.0/token/ERC20/ERC20.sol\":7899:7908  _balances */\n      0x00\n        /* \"@openzeppelin/contracts@4.9.0/token/ERC20/ERC20.sol\":7899:7914  _balances[from] */\n      dup1\n        /* \"@openzeppelin/contracts@4.9.0/token/ERC20/ERC20.sol\":7909:7913  from */\n      dup7\n        /* \"@openzeppelin/contracts@4.9.0/token/ERC20/ERC20.sol\":7899:7914  _balances[from] */\n      0xffffffffffffffffffffffffffffffffffffffff\n      and\n      0xffffffffffffffffffffffffffffffffffffffff\n      and\n      dup2\n      mstore\n      0x20\n      add\n      swap1\n      dup2\n      mstore\n      0x20\n      add\n      0x00\n      keccak256\n        /* \"@openzeppelin/contracts@4.9.0/token/ERC20/ERC20.sol\":7899:7937  _balances[from] = fromBalance - amount */\n      dup2\n      swap1\n      sstore\n      pop\n        /* \"@openzeppelin/contracts@4.9.0/token/ERC20/ERC20.sol\":8131:8137  amount */\n      dup2\n        /* \"@openzeppelin/contracts@4.9.0/token/ERC20/ERC20.sol\":8114:8123  _balances */\n      0x00\n        /* \"@openzeppelin/contracts@4.9.0/token/ERC20/ERC20.sol\":8114:8127  _balances[to] */\n      dup1\n        /* \"@openzeppelin/contracts@4.9.0/token/ERC20/ERC20.sol\":8124:8126  to */\n      dup6\n        /* \"@openzeppelin/contracts@4.9.0/token/ERC20/ERC20.sol\":8114:8127  _balances[to] */\n      0xffffffffffffffffffffffffffffffffffffffff\n      and\n      0xffffffffffffffffffffffffffffffffffffffff\n      and\n      dup2\n      mstore\n      0x20\n      add\n      swap1\n      dup2\n      mstore\n      0x20\n      add\n      0x00\n      keccak256\n      0x00\n        /* \"@openzeppelin/contracts@4.9.0/token/ERC20/ERC20.sol\":8114:8137  _balances[to] += amount */\n      dup3\n      dup3\n      sload\n      add\n      swap3\n      pop\n      pop\n      dup2\n      swap1\n      sstore\n      pop\n        /* \"@openzeppelin/contracts@4.9.0/token/ERC20/ERC20.sol\":8178:8180  to */\n      dup3\n        /* \"@openzeppelin/contracts@4.9.0/token/ERC20/ERC20.sol\":8163:8189  Transfer(from, to, amount) */\n      0xffffffffffffffffffffffffffffffffffffffff\n      and\n        /* \"@openzeppelin/contracts@4.9.0/token/ERC20/ERC20.sol\":8172:8176  from */\n      dup5\n        /* \"@openzeppelin/contracts@4.9.0/token/ERC20/ERC20.sol\":8163:8189  Transfer(from, to, amount) */\n      0xffffffffffffffffffffffffffffffffffffffff\n      and\n      0xddf252ad1be2c89b69c2b068fc378daa952ba7f163c4a11628f55a4df523b3ef\n        /* \"@openzeppelin/contracts@4.9.0/token/ERC20/ERC20.sol\":8182:8188  amount */\n      dup5\n        /* \"@openzeppelin/contracts@4.9.0/token/ERC20/ERC20.sol\":8163:8189  Transfer(from, to, amount) */\n      mload(0x40)\n      tag_270\n      swap2\n      swap1\n      tag_45\n      jump\t// in\n    tag_270:\n      mload(0x40)\n      dup1\n      swap2\n      sub\n      swap1\n      log3\n        /* \"@openzeppelin/contracts@4.9.0/token/ERC20/ERC20.sol\":8200:8237  _afterTokenTransfer(from, to, amount) */\n      tag_271\n        /* \"@openzeppelin/contracts@4.9.0/token/ERC20/ERC20.sol\":8220:8224  from */\n      dup5\n        /* \"@openzeppelin/contracts@4.9.0/token/ERC20/ERC20.sol\":8226:8228  to */\n      dup5\n        /* \"@openzeppelin/contracts@4.9.0/token/ERC20/ERC20.sol\":8230:8236  amount */\n      dup5\n        /* \"@openzeppelin/contracts@4.9.0/token/ERC20/ERC20.sol\":8200:8219  _afterTokenTransfer */\n      tag_272\n        /* \"@openzeppelin/contracts@4.9.0/token/ERC20/ERC20.sol\":8200:8237  _afterTokenTransfer(from, to, amount) */\n      jump\t// in\n    tag_271:\n        /* \"@openzeppelin/contracts@4.9.0/token/ERC20/ERC20.sol\":7534:8244  {... */\n      pop\n        /* \"@openzeppelin/contracts@4.9.0/token/ERC20/ERC20.sol\":7456:8244  function _transfer(address from, address to, uint256 amount) internal virtual {... */\n      pop\n      pop\n      pop\n      jump\t// out\n        /* \"@openzeppelin/contracts@4.9.0/token/ERC20/ERC20.sol\":9375:10034  function _burn(address account, uint256 amount) internal virtual {... */\n    tag_169:\n        /* \"@openzeppelin/contracts@4.9.0/token/ERC20/ERC20.sol\":9477:9478  0 */\n      0x00\n        /* \"@openzeppelin/contracts@4.9.0/token/ERC20/ERC20.sol\":9458:9479  account != address(0) */\n      0xffffffffffffffffffffffffffffffffffffffff\n      and\n        /* \"@openzeppelin/contracts@4.9.0/token/ERC20/ERC20.sol\":9458:9465  account */\n      dup3\n        /* \"@openzeppelin/contracts@4.9.0/token/ERC20/ERC20.sol\":9458:9479  account != address(0) */\n      0xffffffffffffffffffffffffffffffffffffffff\n      and\n      sub\n        /* \"@openzeppelin/contracts@4.9.0/token/ERC20/ERC20.sol\":9450:9517  require(account != address(0), \"ERC20: burn from the zero address\") */\n      tag_274\n      jumpi\n      mload(0x40)\n      0x08c379a000000000000000000000000000000000000000000000000000000000\n      dup2\n      mstore\n      0x04\n      add\n      tag_275\n      swap1\n      tag_276\n      jump\t// in\n    tag_275:\n      mload(0x40)\n      dup1\n      swap2\n      sub\n      swap1\n      revert\n    tag_274:\n        /* \"@openzeppelin/contracts@4.9.0/token/ERC20/ERC20.sol\":9528:9577  _beforeTokenTransfer(account, address(0), amount) */\n      tag_277\n        /* \"@openzeppelin/contracts@4.9.0/token/ERC20/ERC20.sol\":9549:9556  account */\n      dup3\n        /* \"@openzeppelin/contracts@4.9.0/token/ERC20/ERC20.sol\":9566:9567  0 */\n      0x00\n        /* \"@openzeppelin/contracts@4.9.0/token/ERC20/ERC20.sol\":9570:9576  amount */\n      dup4\n        /* \"@openzeppelin/contracts@4.9.0/token/ERC20/ERC20.sol\":9528:9548  _beforeTokenTransfer */\n      tag_266\n        /* \"@openzeppelin/contracts@4.9.0/token/ERC20/ERC20.sol\":9528:9577  _beforeTokenTransfer(account, address(0), amount) */\n      jump\t// in\n    tag_277:\n        /* \"@openzeppelin/contracts@4.9.0/token/ERC20/ERC20.sol\":9588:9610  uint256 accountBalance */\n      0x00\n        /* \"@openzeppelin/contracts@4.9.0/token/ERC20/ERC20.sol\":9613:9622  _balances */\n      dup1\n        /* \"@openzeppelin/contracts@4.9.0/token/ERC20/ERC20.sol\":9613:9631  _balances[account] */\n      0x00\n        /* \"@openzeppelin/contracts@4.9.0/token/ERC20/ERC20.sol\":9623:9630  account */\n      dup5\n        /* \"@openzeppelin/contracts@4.9.0/token/ERC20/ERC20.sol\":9613:9631  _balances[account] */\n      0xffffffffffffffffffffffffffffffffffffffff\n      and\n      0xffffffffffffffffffffffffffffffffffffffff\n      and\n      dup2\n      mstore\n      0x20\n      add\n      swap1\n      dup2\n      mstore\n      0x20\n      add\n      0x00\n      keccak256\n      sload\n        /* \"@openzeppelin/contracts@4.9.0/token/ERC20/ERC20.sol\":9588:9631  uint256 accountBalance = _balances[account] */\n      swap1\n      pop\n        /* \"@openzeppelin/contracts@4.9.0/token/ERC20/ERC20.sol\":9667:9673  amount */\n      dup2\n        /* \"@openzeppelin/contracts@4.9.0/token/ERC20/ERC20.sol\":9649:9663  accountBalance */\n      dup2\n        /* \"@openzeppelin/contracts@4.9.0/token/ERC20/ERC20.sol\":9649:9673  accountBalance >= amount */\n      lt\n      iszero\n        /* \"@openzeppelin/contracts@4.9.0/token/ERC20/ERC20.sol\":9641:9712  require(accountBalance >= amount, \"ERC20: burn amount exceeds balance\") */\n      tag_278\n      jumpi\n      mload(0x40)\n      0x08c379a000000000000000000000000000000000000000000000000000000000\n      dup2\n      mstore\n      0x04\n      add\n      tag_279\n      swap1\n      tag_280\n      jump\t// in\n    tag_279:\n      mload(0x40)\n      dup1\n      swap2\n      sub\n      swap1\n      revert\n    tag_278:\n        /* \"@openzeppelin/contracts@4.9.0/token/ERC20/ERC20.sol\":9784:9790  amount */\n      dup2\n        /* \"@openzeppelin/contracts@4.9.0/token/ERC20/ERC20.sol\":9767:9781  accountBalance */\n      dup2\n        /* \"@openzeppelin/contracts@4.9.0/token/ERC20/ERC20.sol\":9767:9790  accountBalance - amount */\n      sub\n        /* \"@openzeppelin/contracts@4.9.0/token/ERC20/ERC20.sol\":9746:9755  _balances */\n      0x00\n        /* \"@openzeppelin/contracts@4.9.0/token/ERC20/ERC20.sol\":9746:9764  _balances[account] */\n      dup1\n        /* \"@openzeppelin/contracts@4.9.0/token/ERC20/ERC20.sol\":9756:9763  account */\n      dup6\n        /* \"@openzeppelin/contracts@4.9.0/token/ERC20/ERC20.sol\":9746:9764  _balances[account] */\n      0xffffffffffffffffffffffffffffffffffffffff\n      and\n      0xffffffffffffffffffffffffffffffffffffffff\n      and\n      dup2\n      mstore\n      0x20\n      add\n      swap1\n      dup2\n      mstore\n      0x20\n      add\n      0x00\n      keccak256\n        /* \"@openzeppelin/contracts@4.9.0/token/ERC20/ERC20.sol\":9746:9790  _balances[account] = accountBalance - amount */\n      dup2\n      swap1\n      sstore\n      pop\n        /* \"@openzeppelin/contracts@4.9.0/token/ERC20/ERC20.sol\":9899:9905  amount */\n      dup2\n        /* \"@openzeppelin/contracts@4.9.0/token/ERC20/ERC20.sol\":9883:9895  _totalSupply */\n      0x02\n      0x00\n        /* \"@openzeppelin/contracts@4.9.0/token/ERC20/ERC20.sol\":9883:9905  _totalSupply -= amount */\n      dup3\n      dup3\n      sload\n      sub\n      swap3\n      pop\n      pop\n      dup2\n      swap1\n      sstore\n      pop\n        /* \"@openzeppelin/contracts@4.9.0/token/ERC20/ERC20.sol\":9957:9958  0 */\n      0x00\n        /* \"@openzeppelin/contracts@4.9.0/token/ERC20/ERC20.sol\":9931:9968  Transfer(account, address(0), amount) */\n      0xffffffffffffffffffffffffffffffffffffffff\n      and\n        /* \"@openzeppelin/contracts@4.9.0/token/ERC20/ERC20.sol\":9940:9947  account */\n      dup4\n        /* \"@openzeppelin/contracts@4.9.0/token/ERC20/ERC20.sol\":9931:9968  Transfer(account, address(0), amount) */\n      0xffffffffffffffffffffffffffffffffffffffff\n      and\n      0xddf252ad1be2c89b69c2b068fc378daa952ba7f163c4a11628f55a4df523b3ef\n        /* \"@openzeppelin/contracts@4.9.0/token/ERC20/ERC20.sol\":9961:9967  amount */\n      dup5\n        /* \"@openzeppelin/contracts@4.9.0/token/ERC20/ERC20.sol\":9931:9968  Transfer(account, address(0), amount) */\n      mload(0x40)\n      tag_281\n      swap2\n      swap1\n      tag_45\n      jump\t// in\n    tag_281:\n      mload(0x40)\n      dup1\n      swap2\n      sub\n      swap1\n      log3\n        /* \"@openzeppelin/contracts@4.9.0/token/ERC20/ERC20.sol\":9979:10027  _afterTokenTransfer(account, address(0), amount) */\n      tag_282\n        /* \"@openzeppelin/contracts@4.9.0/token/ERC20/ERC20.sol\":9999:10006  account */\n      dup4\n        /* \"@openzeppelin/contracts@4.9.0/token/ERC20/ERC20.sol\":10016:10017  0 */\n      0x00\n        /* \"@openzeppelin/contracts@4.9.0/token/ERC20/ERC20.sol\":10020:10026  amount */\n      dup5\n        /* \"@openzeppelin/contracts@4.9.0/token/ERC20/ERC20.sol\":9979:9998  _afterTokenTransfer */\n      tag_272\n        /* \"@openzeppelin/contracts@4.9.0/token/ERC20/ERC20.sol\":9979:10027  _afterTokenTransfer(account, address(0), amount) */\n      jump\t// in\n    tag_282:\n        /* \"@openzeppelin/contracts@4.9.0/token/ERC20/ERC20.sol\":9440:10034  {... */\n      pop\n        /* \"@openzeppelin/contracts@4.9.0/token/ERC20/ERC20.sol\":9375:10034  function _burn(address account, uint256 amount) internal virtual {... */\n      pop\n      pop\n      jump\t// out\n        /* \"@openzeppelin/contracts@4.9.0/access/Ownable.sol\":1359:1489  function _checkOwner() internal view virtual {... */\n    tag_182:\n        /* \"@openzeppelin/contracts@4.9.0/access/Ownable.sol\":1433:1445  _msgSender() */\n      tag_284\n        /* \"@openzeppelin/contracts@4.9.0/access/Ownable.sol\":1433:1443  _msgSender */\n      tag_137\n        /* \"@openzeppelin/contracts@4.9.0/access/Ownable.sol\":1433:1445  _msgSender() */\n      jump\t// in\n    tag_284:\n        /* \"@openzeppelin/contracts@4.9.0/access/Ownable.sol\":1422:1445  owner() == _msgSender() */\n      0xffffffffffffffffffffffffffffffffffffffff\n      and\n        /* \"@openzeppelin/contracts@4.9.0/access/Ownable.sol\":1422:1429  owner() */\n      tag_285\n        /* \"@openzeppelin/contracts@4.9.0/access/Ownable.sol\":1422:1427  owner */\n      tag_100\n        /* \"@openzeppelin/contracts@4.9.0/access/Ownable.sol\":1422:1429  owner() */\n      jump\t// in\n    tag_285:\n        /* \"@openzeppelin/contracts@4.9.0/access/Ownable.sol\":1422:1445  owner() == _msgSender() */\n      0xffffffffffffffffffffffffffffffffffffffff\n      and\n      eq\n        /* \"@openzeppelin/contracts@4.9.0/access/Ownable.sol\":1414:1482  require(owner() == _msgSender(), \"Ownable: caller is not the owner\") */\n      tag_286\n      jumpi\n      mload(0x40)\n      0x08c379a000000000000000000000000000000000000000000000000000000000\n      dup2\n      mstore\n      0x04\n      add\n      tag_287\n      swap1\n      tag_288\n      jump\t// in\n    tag_287:\n      mload(0x40)\n      dup1\n      swap2\n      sub\n      swap1\n      revert\n    tag_286:\n        /* \"@openzeppelin/contracts@4.9.0/access/Ownable.sol\":1359:1489  function _checkOwner() internal view virtual {... */\n      jump\t// out\n        /* \"@openzeppelin/contracts@4.9.0/token/ERC20/ERC20.sol\":8520:9055  function _mint(address account, uint256 amount) internal virtual {... */\n    tag_185:\n        /* \"@openzeppelin/contracts@4.9.0/token/ERC20/ERC20.sol\":8622:8623  0 */\n      0x00\n        /* \"@openzeppelin/contracts@4.9.0/token/ERC20/ERC20.sol\":8603:8624  account != address(0) */\n      0xffffffffffffffffffffffffffffffffffffffff\n      and\n        /* \"@openzeppelin/contracts@4.9.0/token/ERC20/ERC20.sol\":8603:8610  account */\n      dup3\n        /* \"@openzeppelin/contracts@4.9.0/token/ERC20/ERC20.sol\":8603:8624  account != address(0) */\n      0xffffffffffffffffffffffffffffffffffffffff\n      and\n      sub\n        /* \"@openzeppelin/contracts@4.9.0/token/ERC20/ERC20.sol\":8595:8660  require(account != address(0), \"ERC20: mint to the zero address\") */\n      tag_290\n      jumpi\n      mload(0x40)\n      0x08c379a000000000000000000000000000000000000000000000000000000000\n      dup2\n      mstore\n      0x04\n      add\n      tag_291\n      swap1\n      tag_292\n      jump\t// in\n    tag_291:\n      mload(0x40)\n      dup1\n      swap2\n      sub\n      swap1\n      revert\n    tag_290:\n        /* \"@openzeppelin/contracts@4.9.0/token/ERC20/ERC20.sol\":8671:8720  _beforeTokenTransfer(address(0), account, amount) */\n      tag_293\n        /* \"@openzeppelin/contracts@4.9.0/token/ERC20/ERC20.sol\":8700:8701  0 */\n      0x00\n        /* \"@openzeppelin/contracts@4.9.0/token/ERC20/ERC20.sol\":8704:8711  account */\n      dup4\n        /* \"@openzeppelin/contracts@4.9.0/token/ERC20/ERC20.sol\":8713:8719  amount */\n      dup4\n        /* \"@openzeppelin/contracts@4.9.0/token/ERC20/ERC20.sol\":8671:8691  _beforeTokenTransfer */\n      tag_266\n        /* \"@openzeppelin/contracts@4.9.0/token/ERC20/ERC20.sol\":8671:8720  _beforeTokenTransfer(address(0), account, amount) */\n      jump\t// in\n    tag_293:\n        /* \"@openzeppelin/contracts@4.9.0/token/ERC20/ERC20.sol\":8747:8753  amount */\n      dup1\n        /* \"@openzeppelin/contracts@4.9.0/token/ERC20/ERC20.sol\":8731:8743  _totalSupply */\n      0x02\n      0x00\n        /* \"@openzeppelin/contracts@4.9.0/token/ERC20/ERC20.sol\":8731:8753  _totalSupply += amount */\n      dup3\n      dup3\n      sload\n      tag_294\n      swap2\n      swap1\n      tag_179\n      jump\t// in\n    tag_294:\n      swap3\n      pop\n      pop\n      dup2\n      swap1\n      sstore\n      pop\n        /* \"@openzeppelin/contracts@4.9.0/token/ERC20/ERC20.sol\":8921:8927  amount */\n      dup1\n        /* \"@openzeppelin/contracts@4.9.0/token/ERC20/ERC20.sol\":8899:8908  _balances */\n      0x00\n        /* \"@openzeppelin/contracts@4.9.0/token/ERC20/ERC20.sol\":8899:8917  _balances[account] */\n      dup1\n        /* \"@openzeppelin/contracts@4.9.0/token/ERC20/ERC20.sol\":8909:8916  account */\n      dup5\n        /* \"@openzeppelin/contracts@4.9.0/token/ERC20/ERC20.sol\":8899:8917  _balances[account] */\n      0xffffffffffffffffffffffffffffffffffffffff\n      and\n      0xffffffffffffffffffffffffffffffffffffffff\n      and\n      dup2\n      mstore\n      0x20\n      add\n      swap1\n      dup2\n      mstore\n      0x20\n      add\n      0x00\n      keccak256\n      0x00\n        /* \"@openzeppelin/contracts@4.9.0/token/ERC20/ERC20.sol\":8899:8927  _balances[account] += amount */\n      dup3\n      dup3\n      sload\n      add\n      swap3\n      pop\n      pop\n      dup2\n      swap1\n      sstore\n      pop\n        /* \"@openzeppelin/contracts@4.9.0/token/ERC20/ERC20.sol\":8973:8980  account */\n      dup2\n        /* \"@openzeppelin/contracts@4.9.0/token/ERC20/ERC20.sol\":8952:8989  Transfer(address(0), account, amount) */\n      0xffffffffffffffffffffffffffffffffffffffff\n      and\n        /* \"@openzeppelin/contracts@4.9.0/token/ERC20/ERC20.sol\":8969:8970  0 */\n      0x00\n        /* \"@openzeppelin/contracts@4.9.0/token/ERC20/ERC20.sol\":8952:8989  Transfer(address(0), account, amount) */\n      0xffffffffffffffffffffffffffffffffffffffff\n      and\n      0xddf252ad1be2c89b69c2b068fc378daa952ba7f163c4a11628f55a4df523b3ef\n        /* \"@openzeppelin/contracts@4.9.0/token/ERC20/ERC20.sol\":8982:8988  amount */\n      dup4\n        /* \"@openzeppelin/contracts@4.9.0/token/ERC20/ERC20.sol\":8952:8989  Transfer(address(0), account, amount) */\n      mload(0x40)\n      tag_295\n      swap2\n      swap1\n      tag_45\n      jump\t// in\n    tag_295:\n      mload(0x40)\n      dup1\n      swap2\n      sub\n      swap1\n      log3\n        /* \"@openzeppelin/contracts@4.9.0/token/ERC20/ERC20.sol\":9000:9048  _afterTokenTransfer(address(0), account, amount) */\n      tag_296\n        /* \"@openzeppelin/contracts@4.9.0/token/ERC20/ERC20.sol\":9028:9029  0 */\n      0x00\n        /* \"@openzeppelin/contracts@4.9.0/token/ERC20/ERC20.sol\":9032:9039  account */\n      dup4\n        /* \"@openzeppelin/contracts@4.9.0/token/ERC20/ERC20.sol\":9041:9047  amount */\n      dup4\n        /* \"@openzeppelin/contracts@4.9.0/token/ERC20/ERC20.sol\":9000:9019  _afterTokenTransfer */\n      tag_272\n        /* \"@openzeppelin/contracts@4.9.0/token/ERC20/ERC20.sol\":9000:9048  _afterTokenTransfer(address(0), account, amount) */\n      jump\t// in\n    tag_296:\n        /* \"@openzeppelin/contracts@4.9.0/token/ERC20/ERC20.sol\":8520:9055  function _mint(address account, uint256 amount) internal virtual {... */\n      pop\n      pop\n      jump\t// out\n        /* \"@openzeppelin/contracts@4.9.0/access/Ownable.sol\":2426:2613  function _transferOwnership(address newOwner) internal virtual {... */\n    tag_200:\n        /* \"@openzeppelin/contracts@4.9.0/access/Ownable.sol\":2499:2515  address oldOwner */\n      0x00\n        /* \"@openzeppelin/contracts@4.9.0/access/Ownable.sol\":2518:2524  _owner */\n      0x05\n      0x00\n      swap1\n      sload\n      swap1\n      0x0100\n      exp\n      swap1\n      div\n      0xffffffffffffffffffffffffffffffffffffffff\n      and\n        /* \"@openzeppelin/contracts@4.9.0/access/Ownable.sol\":2499:2524  address oldOwner = _owner */\n      swap1\n      pop\n        /* \"@openzeppelin/contracts@4.9.0/access/Ownable.sol\":2543:2551  newOwner */\n      dup2\n        /* \"@openzeppelin/contracts@4.9.0/access/Ownable.sol\":2534:2540  _owner */\n      0x05\n      0x00\n        /* \"@openzeppelin/contracts@4.9.0/access/Ownable.sol\":2534:2551  _owner = newOwner */\n      0x0100\n      exp\n      dup2\n      sload\n      dup2\n      0xffffffffffffffffffffffffffffffffffffffff\n      mul\n      not\n      and\n      swap1\n      dup4\n      0xffffffffffffffffffffffffffffffffffffffff\n      and\n      mul\n      or\n      swap1\n      sstore\n      pop\n        /* \"@openzeppelin/contracts@4.9.0/access/Ownable.sol\":2597:2605  newOwner */\n      dup2\n        /* \"@openzeppelin/contracts@4.9.0/access/Ownable.sol\":2566:2606  OwnershipTransferred(oldOwner, newOwner) */\n      0xffffffffffffffffffffffffffffffffffffffff\n      and\n        /* \"@openzeppelin/contracts@4.9.0/access/Ownable.sol\":2587:2595  oldOwner */\n      dup2\n        /* \"@openzeppelin/contracts@4.9.0/access/Ownable.sol\":2566:2606  OwnershipTransferred(oldOwner, newOwner) */\n      0xffffffffffffffffffffffffffffffffffffffff\n      and\n      0x8be0079c531659141344cd1fd0a4f28419497f9722a3daafe3b4186f6b6457e0\n      mload(0x40)\n      mload(0x40)\n      dup1\n      swap2\n      sub\n      swap1\n      log3\n        /* \"@openzeppelin/contracts@4.9.0/access/Ownable.sol\":2489:2613  {... */\n      pop\n        /* \"@openzeppelin/contracts@4.9.0/access/Ownable.sol\":2426:2613  function _transferOwnership(address newOwner) internal virtual {... */\n      pop\n      jump\t// out\n        /* \"@openzeppelin/contracts@4.9.0/token/ERC20/ERC20.sol\":12073:12164  function _beforeTokenTransfer(address from, address to, uint256 amount) internal virtual {} */\n    tag_266:\n      pop\n      pop\n      pop\n      jump\t// out\n        /* \"@openzeppelin/contracts@4.9.0/token/ERC20/ERC20.sol\":12752:12842  function _afterTokenTransfer(address from, address to, uint256 amount) internal virtual {} */\n    tag_272:\n      pop\n      pop\n      pop\n      jump\t// out\n        /* \"#utility.yul\":7:106   */\n    tag_300:\n        /* \"#utility.yul\":59:65   */\n      0x00\n        /* \"#utility.yul\":93:98   */\n      dup2\n        /* \"#utility.yul\":87:99   */\n      mload\n        /* \"#utility.yul\":77:99   */\n      swap1\n      pop\n        /* \"#utility.yul\":7:106   */\n      swap2\n      swap1\n      pop\n      jump\t// out\n        /* \"#utility.yul\":112:281   */\n    tag_301:\n        /* \"#utility.yul\":196:207   */\n      0x00\n        /* \"#utility.yul\":230:236   */\n      dup3\n        /* \"#utility.yul\":225:228   */\n      dup3\n        /* \"#utility.yul\":218:237   */\n      mstore\n        /* \"#utility.yul\":270:274   */\n      0x20\n        /* \"#utility.yul\":265:268   */\n      dup3\n        /* \"#utility.yul\":261:275   */\n      add\n        /* \"#utility.yul\":246:275   */\n      swap1\n      pop\n        /* \"#utility.yul\":112:281   */\n      swap3\n      swap2\n      pop\n      pop\n      jump\t// out\n        /* \"#utility.yul\":287:426   */\n    tag_302:\n        /* \"#utility.yul\":376:382   */\n      dup3\n        /* \"#utility.yul\":371:374   */\n      dup2\n        /* \"#utility.yul\":366:369   */\n      dup4\n        /* \"#utility.yul\":360:383   */\n      mcopy\n        /* \"#utility.yul\":417:418   */\n      0x00\n        /* \"#utility.yul\":408:414   */\n      dup4\n        /* \"#utility.yul\":403:406   */\n      dup4\n        /* \"#utility.yul\":399:415   */\n      add\n        /* \"#utility.yul\":392:419   */\n      mstore\n        /* \"#utility.yul\":287:426   */\n      pop\n      pop\n      pop\n      jump\t// out\n        /* \"#utility.yul\":432:534   */\n    tag_303:\n        /* \"#utility.yul\":473:479   */\n      0x00\n        /* \"#utility.yul\":524:526   */\n      0x1f\n        /* \"#utility.yul\":520:527   */\n      not\n        /* \"#utility.yul\":515:517   */\n      0x1f\n        /* \"#utility.yul\":508:513   */\n      dup4\n        /* \"#utility.yul\":504:518   */\n      add\n        /* \"#utility.yul\":500:528   */\n      and\n        /* \"#utility.yul\":490:528   */\n      swap1\n      pop\n        /* \"#utility.yul\":432:534   */\n      swap2\n      swap1\n      pop\n      jump\t// out\n        /* \"#utility.yul\":540:917   */\n    tag_304:\n        /* \"#utility.yul\":628:631   */\n      0x00\n        /* \"#utility.yul\":656:695   */\n      tag_370\n        /* \"#utility.yul\":689:694   */\n      dup3\n        /* \"#utility.yul\":656:695   */\n      tag_300\n      jump\t// in\n    tag_370:\n        /* \"#utility.yul\":711:782   */\n      tag_371\n        /* \"#utility.yul\":775:781   */\n      dup2\n        /* \"#utility.yul\":770:773   */\n      dup6\n        /* \"#utility.yul\":711:782   */\n      tag_301\n      jump\t// in\n    tag_371:\n        /* \"#utility.yul\":704:782   */\n      swap4\n      pop\n        /* \"#utility.yul\":791:856   */\n      tag_372\n        /* \"#utility.yul\":849:855   */\n      dup2\n        /* \"#utility.yul\":844:847   */\n      dup6\n        /* \"#utility.yul\":837:841   */\n      0x20\n        /* \"#utility.yul\":830:835   */\n      dup7\n        /* \"#utility.yul\":826:842   */\n      add\n        /* \"#utility.yul\":791:856   */\n      tag_302\n      jump\t// in\n    tag_372:\n        /* \"#utility.yul\":881:910   */\n      tag_373\n        /* \"#utility.yul\":903:909   */\n      dup2\n        /* \"#utility.yul\":881:910   */\n      tag_303\n      jump\t// in\n    tag_373:\n        /* \"#utility.yul\":876:879   */\n      dup5\n        /* \"#utility.yul\":872:911   */\n      add\n        /* \"#utility.yul\":865:911   */\n      swap2\n      pop\n        /* \"#utility.yul\":632:917   */\n      pop\n        /* \"#utility.yul\":540:917   */\n      swap3\n      swap2\n      pop\n      pop\n      jump\t// out\n        /* \"#utility.yul\":923:1236   */\n    tag_35:\n        /* \"#utility.yul\":1036:1040   */\n      0x00\n        /* \"#utility.yul\":1074:1076   */\n      0x20\n        /* \"#utility.yul\":1063:1072   */\n      dup3\n        /* \"#utility.yul\":1059:1077   */\n      add\n        /* \"#utility.yul\":1051:1077   */\n      swap1\n      pop\n        /* \"#utility.yul\":1123:1132   */\n      dup2\n        /* \"#utility.yul\":1117:1121   */\n      dup2\n        /* \"#utility.yul\":1113:1133   */\n      sub\n        /* \"#utility.yul\":1109:1110   */\n      0x00\n        /* \"#utility.yul\":1098:1107   */\n      dup4\n        /* \"#utility.yul\":1094:1111   */\n      add\n        /* \"#utility.yul\":1087:1134   */\n      mstore\n        /* \"#utility.yul\":1151:1229   */\n      tag_375\n        /* \"#utility.yul\":1224:1228   */\n      dup2\n        /* \"#utility.yul\":1215:1221   */\n      dup5\n        /* \"#utility.yul\":1151:1229   */\n      tag_304\n      jump\t// in\n    tag_375:\n        /* \"#utility.yul\":1143:1229   */\n      swap1\n      pop\n        /* \"#utility.yul\":923:1236   */\n      swap3\n      swap2\n      pop\n      pop\n      jump\t// out\n        /* \"#utility.yul\":1323:1440   */\n    tag_306:\n        /* \"#utility.yul\":1432:1433   */\n      0x00\n        /* \"#utility.yul\":1429:1430   */\n      dup1\n        /* \"#utility.yul\":1422:1434   */\n      revert\n        /* \"#utility.yul\":1569:1695   */\n    tag_308:\n        /* \"#utility.yul\":1606:1613   */\n      0x00\n        /* \"#utility.yul\":1646:1688   */\n      0xffffffffffffffffffffffffffffffffffffffff\n        /* \"#utility.yul\":1639:1644   */\n      dup3\n        /* \"#utility.yul\":1635:1689   */\n      and\n        /* \"#utility.yul\":1624:1689   */\n      swap1\n      pop\n        /* \"#utility.yul\":1569:1695   */\n      swap2\n      swap1\n      pop\n      jump\t// out\n        /* \"#utility.yul\":1701:1797   */\n    tag_309:\n        /* \"#utility.yul\":1738:1745   */\n      0x00\n        /* \"#utility.yul\":1767:1791   */\n      tag_381\n        /* \"#utility.yul\":1785:1790   */\n      dup3\n        /* \"#utility.yul\":1767:1791   */\n      tag_308\n      jump\t// in\n    tag_381:\n        /* \"#utility.yul\":1756:1791   */\n      swap1\n      pop\n        /* \"#utility.yul\":1701:1797   */\n      swap2\n      swap1\n      pop\n      jump\t// out\n        /* \"#utility.yul\":1803:1925   */\n    tag_310:\n        /* \"#utility.yul\":1876:1900   */\n      tag_383\n        /* \"#utility.yul\":1894:1899   */\n      dup2\n        /* \"#utility.yul\":1876:1900   */\n      tag_309\n      jump\t// in\n    tag_383:\n        /* \"#utility.yul\":1869:1874   */\n      dup2\n        /* \"#utility.yul\":1866:1901   */\n      eq\n        /* \"#utility.yul\":1856:1919   */\n      tag_384\n      jumpi\n        /* \"#utility.yul\":1915:1916   */\n      0x00\n        /* \"#utility.yul\":1912:1913   */\n      dup1\n        /* \"#utility.yul\":1905:1917   */\n      revert\n        /* \"#utility.yul\":1856:1919   */\n    tag_384:\n        /* \"#utility.yul\":1803:1925   */\n      pop\n      jump\t// out\n        /* \"#utility.yul\":1931:2070   */\n    tag_311:\n        /* \"#utility.yul\":1977:1982   */\n      0x00\n        /* \"#utility.yul\":2015:2021   */\n      dup2\n        /* \"#utility.yul\":2002:2022   */\n      calldataload\n        /* \"#utility.yul\":1993:2022   */\n      swap1\n      pop\n        /* \"#utility.yul\":2031:2064   */\n      tag_386\n        /* \"#utility.yul\":2058:2063   */\n      dup2\n        /* \"#utility.yul\":2031:2064   */\n      tag_310\n      jump\t// in\n    tag_386:\n        /* \"#utility.yul\":1931:2070   */\n      swap3\n      swap2\n      pop\n      pop\n      jump\t// out\n        /* \"#utility.yul\":2076:2153   */\n    tag_312:\n        /* \"#utility.yul\":2113:2120   */\n      0x00\n        /* \"#utility.yul\":2142:2147   */\n      dup2\n        /* \"#utility.yul\":2131:2147   */\n      swap1\n      pop\n        /* \"#utility.yul\":2076:2153   */\n      swap2\n      swap1\n      pop\n      jump\t// out\n        /* \"#utility.yul\":2159:2281   */\n    tag_313:\n        /* \"#utility.yul\":2232:2256   */\n      tag_389\n        /* \"#utility.yul\":2250:2255   */\n      dup2\n        /* \"#utility.yul\":2232:2256   */\n      tag_312\n      jump\t// in\n    tag_389:\n        /* \"#utility.yul\":2225:2230   */\n      dup2\n        /* \"#utility.yul\":2222:2257   */\n      eq\n        /* \"#utility.yul\":2212:2275   */\n      tag_390\n      jumpi\n        /* \"#utility.yul\":2271:2272   */\n      0x00\n        /* \"#utility.yul\":2268:2269   */\n      dup1\n        /* \"#utility.yul\":2261:2273   */\n      revert\n        /* \"#utility.yul\":2212:2275   */\n    tag_390:\n        /* \"#utility.yul\":2159:2281   */\n      pop\n      jump\t// out\n        /* \"#utility.yul\":2287:2426   */\n    tag_314:\n        /* \"#utility.yul\":2333:2338   */\n      0x00\n        /* \"#utility.yul\":2371:2377   */\n      dup2\n        /* \"#utility.yul\":2358:2378   */\n      calldataload\n        /* \"#utility.yul\":2349:2378   */\n      swap1\n      pop\n        /* \"#utility.yul\":2387:2420   */\n      tag_392\n        /* \"#utility.yul\":2414:2419   */\n      dup2\n        /* \"#utility.yul\":2387:2420   */\n      tag_313\n      jump\t// in\n    tag_392:\n        /* \"#utility.yul\":2287:2426   */\n      swap3\n      swap2\n      pop\n      pop\n      jump\t// out\n        /* \"#utility.yul\":2432:2906   */\n    tag_38:\n        /* \"#utility.yul\":2500:2506   */\n      0x00\n        /* \"#utility.yul\":2508:2514   */\n      dup1\n        /* \"#utility.yul\":2557:2559   */\n      0x40\n        /* \"#utility.yul\":2545:2554   */\n      dup4\n        /* \"#utility.yul\":2536:2543   */\n      dup6\n        /* \"#utility.yul\":2532:2555   */\n      sub\n        /* \"#utility.yul\":2528:2560   */\n      slt\n        /* \"#utility.yul\":2525:2644   */\n      iszero\n      tag_394\n      jumpi\n        /* \"#utility.yul\":2563:2642   */\n      tag_395\n      tag_306\n      jump\t// in\n    tag_395:\n        /* \"#utility.yul\":2525:2644   */\n    tag_394:\n        /* \"#utility.yul\":2683:2684   */\n      0x00\n        /* \"#utility.yul\":2708:2761   */\n      tag_396\n        /* \"#utility.yul\":2753:2760   */\n      dup6\n        /* \"#utility.yul\":2744:2750   */\n      dup3\n        /* \"#utility.yul\":2733:2742   */\n      dup7\n        /* \"#utility.yul\":2729:2751   */\n      add\n        /* \"#utility.yul\":2708:2761   */\n      tag_311\n      jump\t// in\n    tag_396:\n        /* \"#utility.yul\":2698:2761   */\n      swap3\n      pop\n        /* \"#utility.yul\":2654:2771   */\n      pop\n        /* \"#utility.yul\":2810:2812   */\n      0x20\n        /* \"#utility.yul\":2836:2889   */\n      tag_397\n        /* \"#utility.yul\":2881:2888   */\n      dup6\n        /* \"#utility.yul\":2872:2878   */\n      dup3\n        /* \"#utility.yul\":2861:2870   */\n      dup7\n        /* \"#utility.yul\":2857:2879   */\n      add\n        /* \"#utility.yul\":2836:2889   */\n      tag_314\n      jump\t// in\n    tag_397:\n        /* \"#utility.yul\":2826:2889   */\n      swap2\n      pop\n        /* \"#utility.yul\":2781:2899   */\n      pop\n        /* \"#utility.yul\":2432:2906   */\n      swap3\n      pop\n      swap3\n      swap1\n      pop\n      jump\t// out\n        /* \"#utility.yul\":2912:3002   */\n    tag_315:\n        /* \"#utility.yul\":2946:2953   */\n      0x00\n        /* \"#utility.yul\":2989:2994   */\n      dup2\n        /* \"#utility.yul\":2982:2995   */\n      iszero\n        /* \"#utility.yul\":2975:2996   */\n      iszero\n        /* \"#utility.yul\":2964:2996   */\n      swap1\n      pop\n        /* \"#utility.yul\":2912:3002   */\n      swap2\n      swap1\n      pop\n      jump\t// out\n        /* \"#utility.yul\":3008:3117   */\n    tag_316:\n        /* \"#utility.yul\":3089:3110   */\n      tag_400\n        /* \"#utility.yul\":3104:3109   */\n      dup2\n        /* \"#utility.yul\":3089:3110   */\n      tag_315\n      jump\t// in\n    tag_400:\n        /* \"#utility.yul\":3084:3087   */\n      dup3\n        /* \"#utility.yul\":3077:3111   */\n      mstore\n        /* \"#utility.yul\":3008:3117   */\n      pop\n      pop\n      jump\t// out\n        /* \"#utility.yul\":3123:3333   */\n    tag_41:\n        /* \"#utility.yul\":3210:3214   */\n      0x00\n        /* \"#utility.yul\":3248:3250   */\n      0x20\n        /* \"#utility.yul\":3237:3246   */\n      dup3\n        /* \"#utility.yul\":3233:3251   */\n      add\n        /* \"#utility.yul\":3225:3251   */\n      swap1\n      pop\n        /* \"#utility.yul\":3261:3326   */\n      tag_402\n        /* \"#utility.yul\":3323:3324   */\n      0x00\n        /* \"#utility.yul\":3312:3321   */\n      dup4\n        /* \"#utility.yul\":3308:3325   */\n      add\n        /* \"#utility.yul\":3299:3305   */\n      dup5\n        /* \"#utility.yul\":3261:3326   */\n      tag_316\n      jump\t// in\n    tag_402:\n        /* \"#utility.yul\":3123:3333   */\n      swap3\n      swap2\n      pop\n      pop\n      jump\t// out\n        /* \"#utility.yul\":3339:3457   */\n    tag_317:\n        /* \"#utility.yul\":3426:3450   */\n      tag_404\n        /* \"#utility.yul\":3444:3449   */\n      dup2\n        /* \"#utility.yul\":3426:3450   */\n      tag_312\n      jump\t// in\n    tag_404:\n        /* \"#utility.yul\":3421:3424   */\n      dup3\n        /* \"#utility.yul\":3414:3451   */\n      mstore\n        /* \"#utility.yul\":3339:3457   */\n      pop\n      pop\n      jump\t// out\n        /* \"#utility.yul\":3463:3685   */\n    tag_45:\n        /* \"#utility.yul\":3556:3560   */\n      0x00\n        /* \"#utility.yul\":3594:3596   */\n      0x20\n        /* \"#utility.yul\":3583:3592   */\n      dup3\n        /* \"#utility.yul\":3579:3597   */\n      add\n        /* \"#utility.yul\":3571:3597   */\n      swap1\n      pop\n        /* \"#utility.yul\":3607:3678   */\n      tag_406\n        /* \"#utility.yul\":3675:3676   */\n      0x00\n        /* \"#utility.yul\":3664:3673   */\n      dup4\n        /* \"#utility.yul\":3660:3677   */\n      add\n        /* \"#utility.yul\":3651:3657   */\n      dup5\n        /* \"#utility.yul\":3607:3678   */\n      tag_317\n      jump\t// in\n    tag_406:\n        /* \"#utility.yul\":3463:3685   */\n      swap3\n      swap2\n      pop\n      pop\n      jump\t// out\n        /* \"#utility.yul\":3691:4310   */\n    tag_51:\n        /* \"#utility.yul\":3768:3774   */\n      0x00\n        /* \"#utility.yul\":3776:3782   */\n      dup1\n        /* \"#utility.yul\":3784:3790   */\n      0x00\n        /* \"#utility.yul\":3833:3835   */\n      0x60\n        /* \"#utility.yul\":3821:3830   */\n      dup5\n        /* \"#utility.yul\":3812:3819   */\n      dup7\n        /* \"#utility.yul\":3808:3831   */\n      sub\n        /* \"#utility.yul\":3804:3836   */\n      slt\n        /* \"#utility.yul\":3801:3920   */\n      iszero\n      tag_408\n      jumpi\n        /* \"#utility.yul\":3839:3918   */\n      tag_409\n      tag_306\n      jump\t// in\n    tag_409:\n        /* \"#utility.yul\":3801:3920   */\n    tag_408:\n        /* \"#utility.yul\":3959:3960   */\n      0x00\n        /* \"#utility.yul\":3984:4037   */\n      tag_410\n        /* \"#utility.yul\":4029:4036   */\n      dup7\n        /* \"#utility.yul\":4020:4026   */\n      dup3\n        /* \"#utility.yul\":4009:4018   */\n      dup8\n        /* \"#utility.yul\":4005:4027   */\n      add\n        /* \"#utility.yul\":3984:4037   */\n      tag_311\n      jump\t// in\n    tag_410:\n        /* \"#utility.yul\":3974:4037   */\n      swap4\n      pop\n        /* \"#utility.yul\":3930:4047   */\n      pop\n        /* \"#utility.yul\":4086:4088   */\n      0x20\n        /* \"#utility.yul\":4112:4165   */\n      tag_411\n        /* \"#utility.yul\":4157:4164   */\n      dup7\n        /* \"#utility.yul\":4148:4154   */\n      dup3\n        /* \"#utility.yul\":4137:4146   */\n      dup8\n        /* \"#utility.yul\":4133:4155   */\n      add\n        /* \"#utility.yul\":4112:4165   */\n      tag_311\n      jump\t// in\n    tag_411:\n        /* \"#utility.yul\":4102:4165   */\n      swap3\n      pop\n        /* \"#utility.yul\":4057:4175   */\n      pop\n        /* \"#utility.yul\":4214:4216   */\n      0x40\n        /* \"#utility.yul\":4240:4293   */\n      tag_412\n        /* \"#utility.yul\":4285:4292   */\n      dup7\n        /* \"#utility.yul\":4276:4282   */\n      dup3\n        /* \"#utility.yul\":4265:4274   */\n      dup8\n        /* \"#utility.yul\":4261:4283   */\n      add\n        /* \"#utility.yul\":4240:4293   */\n      tag_314\n      jump\t// in\n    tag_412:\n        /* \"#utility.yul\":4230:4293   */\n      swap2\n      pop\n        /* \"#utility.yul\":4185:4303   */\n      pop\n        /* \"#utility.yul\":3691:4310   */\n      swap3\n      pop\n      swap3\n      pop\n      swap3\n      jump\t// out\n        /* \"#utility.yul\":4316:4645   */\n    tag_56:\n        /* \"#utility.yul\":4375:4381   */\n      0x00\n        /* \"#utility.yul\":4424:4426   */\n      0x20\n        /* \"#utility.yul\":4412:4421   */\n      dup3\n        /* \"#utility.yul\":4403:4410   */\n      dup5\n        /* \"#utility.yul\":4399:4422   */\n      sub\n        /* \"#utility.yul\":4395:4427   */\n      slt\n        /* \"#utility.yul\":4392:4511   */\n      iszero\n      tag_414\n      jumpi\n        /* \"#utility.yul\":4430:4509   */\n      tag_415\n      tag_306\n      jump\t// in\n    tag_415:\n        /* \"#utility.yul\":4392:4511   */\n    tag_414:\n        /* \"#utility.yul\":4550:4551   */\n      0x00\n        /* \"#utility.yul\":4575:4628   */\n      tag_416\n        /* \"#utility.yul\":4620:4627   */\n      dup5\n        /* \"#utility.yul\":4611:4617   */\n      dup3\n        /* \"#utility.yul\":4600:4609   */\n      dup6\n        /* \"#utility.yul\":4596:4618   */\n      add\n        /* \"#utility.yul\":4575:4628   */\n      tag_311\n      jump\t// in\n    tag_416:\n        /* \"#utility.yul\":4565:4628   */\n      swap2\n      pop\n        /* \"#utility.yul\":4521:4638   */\n      pop\n        /* \"#utility.yul\":4316:4645   */\n      swap3\n      swap2\n      pop\n      pop\n      jump\t// out\n        /* \"#utility.yul\":4651:4831   */\n    tag_158:\n        /* \"#utility.yul\":4699:4776   */\n      0x4e487b7100000000000000000000000000000000000000000000000000000000\n        /* \"#utility.yul\":4696:4697   */\n      0x00\n        /* \"#utility.yul\":4689:4777   */\n      mstore\n        /* \"#utility.yul\":4796:4800   */\n      0x21\n        /* \"#utility.yul\":4793:4794   */\n      0x04\n        /* \"#utility.yul\":4786:4801   */\n      mstore\n        /* \"#utility.yul\":4820:4824   */\n      0x24\n        /* \"#utility.yul\":4817:4818   */\n      0x00\n        /* \"#utility.yul\":4810:4825   */\n      revert\n        /* \"#utility.yul\":4837:4951   */\n    tag_318:\n        /* \"#utility.yul\":4918:4920   */\n      0x0a\n        /* \"#utility.yul\":4911:4916   */\n      dup2\n        /* \"#utility.yul\":4908:4921   */\n      lt\n        /* \"#utility.yul\":4898:4945   */\n      tag_419\n      jumpi\n        /* \"#utility.yul\":4925:4943   */\n      tag_420\n      tag_158\n      jump\t// in\n    tag_420:\n        /* \"#utility.yul\":4898:4945   */\n    tag_419:\n        /* \"#utility.yul\":4837:4951   */\n      pop\n      jump\t// out\n        /* \"#utility.yul\":4957:5084   */\n    tag_319:\n        /* \"#utility.yul\":5002:5009   */\n      0x00\n        /* \"#utility.yul\":5031:5036   */\n      dup2\n        /* \"#utility.yul\":5020:5036   */\n      swap1\n      pop\n        /* \"#utility.yul\":5037:5078   */\n      tag_422\n        /* \"#utility.yul\":5072:5077   */\n      dup3\n        /* \"#utility.yul\":5037:5078   */\n      tag_318\n      jump\t// in\n    tag_422:\n        /* \"#utility.yul\":4957:5084   */\n      swap2\n      swap1\n      pop\n      jump\t// out\n        /* \"#utility.yul\":5090:5217   */\n    tag_320:\n        /* \"#utility.yul\":5146:5155   */\n      0x00\n        /* \"#utility.yul\":5179:5211   */\n      tag_424\n        /* \"#utility.yul\":5205:5210   */\n      dup3\n        /* \"#utility.yul\":5179:5211   */\n      tag_319\n      jump\t// in\n    tag_424:\n        /* \"#utility.yul\":5166:5211   */\n      swap1\n      pop\n        /* \"#utility.yul\":5090:5217   */\n      swap2\n      swap1\n      pop\n      jump\t// out\n        /* \"#utility.yul\":5223:5366   */\n    tag_321:\n        /* \"#utility.yul\":5316:5359   */\n      tag_426\n        /* \"#utility.yul\":5353:5358   */\n      dup2\n        /* \"#utility.yul\":5316:5359   */\n      tag_320\n      jump\t// in\n    tag_426:\n        /* \"#utility.yul\":5311:5314   */\n      dup3\n        /* \"#utility.yul\":5304:5360   */\n      mstore\n        /* \"#utility.yul\":5223:5366   */\n      pop\n      pop\n      jump\t// out\n        /* \"#utility.yul\":5372:5606   */\n    tag_59:\n        /* \"#utility.yul\":5471:5475   */\n      0x00\n        /* \"#utility.yul\":5509:5511   */\n      0x20\n        /* \"#utility.yul\":5498:5507   */\n      dup3\n        /* \"#utility.yul\":5494:5512   */\n      add\n        /* \"#utility.yul\":5486:5512   */\n      swap1\n      pop\n        /* \"#utility.yul\":5522:5599   */\n      tag_428\n        /* \"#utility.yul\":5596:5597   */\n      0x00\n        /* \"#utility.yul\":5585:5594   */\n      dup4\n        /* \"#utility.yul\":5581:5598   */\n      add\n        /* \"#utility.yul\":5572:5578   */\n      dup5\n        /* \"#utility.yul\":5522:5599   */\n      tag_321\n      jump\t// in\n    tag_428:\n        /* \"#utility.yul\":5372:5606   */\n      swap3\n      swap2\n      pop\n      pop\n      jump\t// out\n        /* \"#utility.yul\":5612:5698   */\n    tag_322:\n        /* \"#utility.yul\":5647:5654   */\n      0x00\n        /* \"#utility.yul\":5687:5691   */\n      0xff\n        /* \"#utility.yul\":5680:5685   */\n      dup3\n        /* \"#utility.yul\":5676:5692   */\n      and\n        /* \"#utility.yul\":5665:5692   */\n      swap1\n      pop\n        /* \"#utility.yul\":5612:5698   */\n      swap2\n      swap1\n      pop\n      jump\t// out\n        /* \"#utility.yul\":5704:5816   */\n    tag_323:\n        /* \"#utility.yul\":5787:5809   */\n      tag_431\n        /* \"#utility.yul\":5803:5808   */\n      dup2\n        /* \"#utility.yul\":5787:5809   */\n      tag_322\n      jump\t// in\n    tag_431:\n        /* \"#utility.yul\":5782:5785   */\n      dup3\n        /* \"#utility.yul\":5775:5810   */\n      mstore\n        /* \"#utility.yul\":5704:5816   */\n      pop\n      pop\n      jump\t// out\n        /* \"#utility.yul\":5822:6036   */\n    tag_63:\n        /* \"#utility.yul\":5911:5915   */\n      0x00\n        /* \"#utility.yul\":5949:5951   */\n      0x20\n        /* \"#utility.yul\":5938:5947   */\n      dup3\n        /* \"#utility.yul\":5934:5952   */\n      add\n        /* \"#utility.yul\":5926:5952   */\n      swap1\n      pop\n        /* \"#utility.yul\":5962:6029   */\n      tag_433\n        /* \"#utility.yul\":6026:6027   */\n      0x00\n        /* \"#utility.yul\":6015:6024   */\n      dup4\n        /* \"#utility.yul\":6011:6028   */\n      add\n        /* \"#utility.yul\":6002:6008   */\n      dup5\n        /* \"#utility.yul\":5962:6029   */\n      tag_323\n      jump\t// in\n    tag_433:\n        /* \"#utility.yul\":5822:6036   */\n      swap3\n      swap2\n      pop\n      pop\n      jump\t// out\n        /* \"#utility.yul\":6042:6150   */\n    tag_324:\n        /* \"#utility.yul\":6123:6125   */\n      0x0a\n        /* \"#utility.yul\":6116:6121   */\n      dup2\n        /* \"#utility.yul\":6113:6126   */\n      lt\n        /* \"#utility.yul\":6103:6144   */\n      tag_435\n      jumpi\n        /* \"#utility.yul\":6140:6141   */\n      0x00\n        /* \"#utility.yul\":6137:6138   */\n      dup1\n        /* \"#utility.yul\":6130:6142   */\n      revert\n        /* \"#utility.yul\":6103:6144   */\n    tag_435:\n        /* \"#utility.yul\":6042:6150   */\n      pop\n      jump\t// out\n        /* \"#utility.yul\":6156:6311   */\n    tag_325:\n        /* \"#utility.yul\":6210:6215   */\n      0x00\n        /* \"#utility.yul\":6248:6254   */\n      dup2\n        /* \"#utility.yul\":6235:6255   */\n      calldataload\n        /* \"#utility.yul\":6226:6255   */\n      swap1\n      pop\n        /* \"#utility.yul\":6264:6305   */\n      tag_437\n        /* \"#utility.yul\":6299:6304   */\n      dup2\n        /* \"#utility.yul\":6264:6305   */\n      tag_324\n      jump\t// in\n    tag_437:\n        /* \"#utility.yul\":6156:6311   */\n      swap3\n      swap2\n      pop\n      pop\n      jump\t// out\n        /* \"#utility.yul\":6317:6662   */\n    tag_66:\n        /* \"#utility.yul\":6384:6390   */\n      0x00\n        /* \"#utility.yul\":6433:6435   */\n      0x20\n        /* \"#utility.yul\":6421:6430   */\n      dup3\n        /* \"#utility.yul\":6412:6419   */\n      dup5\n        /* \"#utility.yul\":6408:6431   */\n      sub\n        /* \"#utility.yul\":6404:6436   */\n      slt\n        /* \"#utility.yul\":6401:6520   */\n      iszero\n      tag_439\n      jumpi\n        /* \"#utility.yul\":6439:6518   */\n      tag_440\n      tag_306\n      jump\t// in\n    tag_440:\n        /* \"#utility.yul\":6401:6520   */\n    tag_439:\n        /* \"#utility.yul\":6559:6560   */\n      0x00\n        /* \"#utility.yul\":6584:6645   */\n      tag_441\n        /* \"#utility.yul\":6637:6644   */\n      dup5\n        /* \"#utility.yul\":6628:6634   */\n      dup3\n        /* \"#utility.yul\":6617:6626   */\n      dup6\n        /* \"#utility.yul\":6613:6635   */\n      add\n        /* \"#utility.yul\":6584:6645   */\n      tag_325\n      jump\t// in\n    tag_441:\n        /* \"#utility.yul\":6574:6645   */\n      swap2\n      pop\n        /* \"#utility.yul\":6530:6655   */\n      pop\n        /* \"#utility.yul\":6317:6662   */\n      swap3\n      swap2\n      pop\n      pop\n      jump\t// out\n        /* \"#utility.yul\":6668:6997   */\n    tag_81:\n        /* \"#utility.yul\":6727:6733   */\n      0x00\n        /* \"#utility.yul\":6776:6778   */\n      0x20\n        /* \"#utility.yul\":6764:6773   */\n      dup3\n        /* \"#utility.yul\":6755:6762   */\n      dup5\n        /* \"#utility.yul\":6751:6774   */\n      sub\n        /* \"#utility.yul\":6747:6779   */\n      slt\n        /* \"#utility.yul\":6744:6863   */\n      iszero\n      tag_443\n      jumpi\n        /* \"#utility.yul\":6782:6861   */\n      tag_444\n      tag_306\n      jump\t// in\n    tag_444:\n        /* \"#utility.yul\":6744:6863   */\n    tag_443:\n        /* \"#utility.yul\":6902:6903   */\n      0x00\n        /* \"#utility.yul\":6927:6980   */\n      tag_445\n        /* \"#utility.yul\":6972:6979   */\n      dup5\n        /* \"#utility.yul\":6963:6969   */\n      dup3\n        /* \"#utility.yul\":6952:6961   */\n      dup6\n        /* \"#utility.yul\":6948:6970   */\n      add\n        /* \"#utility.yul\":6927:6980   */\n      tag_314\n      jump\t// in\n    tag_445:\n        /* \"#utility.yul\":6917:6980   */\n      swap2\n      pop\n        /* \"#utility.yul\":6873:6990   */\n      pop\n        /* \"#utility.yul\":6668:6997   */\n      swap3\n      swap2\n      pop\n      pop\n      jump\t// out\n        /* \"#utility.yul\":7003:7121   */\n    tag_326:\n        /* \"#utility.yul\":7090:7114   */\n      tag_447\n        /* \"#utility.yul\":7108:7113   */\n      dup2\n        /* \"#utility.yul\":7090:7114   */\n      tag_309\n      jump\t// in\n    tag_447:\n        /* \"#utility.yul\":7085:7088   */\n      dup3\n        /* \"#utility.yul\":7078:7115   */\n      mstore\n        /* \"#utility.yul\":7003:7121   */\n      pop\n      pop\n      jump\t// out\n        /* \"#utility.yul\":7127:7349   */\n    tag_102:\n        /* \"#utility.yul\":7220:7224   */\n      0x00\n        /* \"#utility.yul\":7258:7260   */\n      0x20\n        /* \"#utility.yul\":7247:7256   */\n      dup3\n        /* \"#utility.yul\":7243:7261   */\n      add\n        /* \"#utility.yul\":7235:7261   */\n      swap1\n      pop\n        /* \"#utility.yul\":7271:7342   */\n      tag_449\n        /* \"#utility.yul\":7339:7340   */\n      0x00\n        /* \"#utility.yul\":7328:7337   */\n      dup4\n        /* \"#utility.yul\":7324:7341   */\n      add\n        /* \"#utility.yul\":7315:7321   */\n      dup5\n        /* \"#utility.yul\":7271:7342   */\n      tag_326\n      jump\t// in\n    tag_449:\n        /* \"#utility.yul\":7127:7349   */\n      swap3\n      swap2\n      pop\n      pop\n      jump\t// out\n        /* \"#utility.yul\":7355:7829   */\n    tag_122:\n        /* \"#utility.yul\":7423:7429   */\n      0x00\n        /* \"#utility.yul\":7431:7437   */\n      dup1\n        /* \"#utility.yul\":7480:7482   */\n      0x40\n        /* \"#utility.yul\":7468:7477   */\n      dup4\n        /* \"#utility.yul\":7459:7466   */\n      dup6\n        /* \"#utility.yul\":7455:7478   */\n      sub\n        /* \"#utility.yul\":7451:7483   */\n      slt\n        /* \"#utility.yul\":7448:7567   */\n      iszero\n      tag_451\n      jumpi\n        /* \"#utility.yul\":7486:7565   */\n      tag_452\n      tag_306\n      jump\t// in\n    tag_452:\n        /* \"#utility.yul\":7448:7567   */\n    tag_451:\n        /* \"#utility.yul\":7606:7607   */\n      0x00\n        /* \"#utility.yul\":7631:7684   */\n      tag_453\n        /* \"#utility.yul\":7676:7683   */\n      dup6\n        /* \"#utility.yul\":7667:7673   */\n      dup3\n        /* \"#utility.yul\":7656:7665   */\n      dup7\n        /* \"#utility.yul\":7652:7674   */\n      add\n        /* \"#utility.yul\":7631:7684   */\n      tag_311\n      jump\t// in\n    tag_453:\n        /* \"#utility.yul\":7621:7684   */\n      swap3\n      pop\n        /* \"#utility.yul\":7577:7694   */\n      pop\n        /* \"#utility.yul\":7733:7735   */\n      0x20\n        /* \"#utility.yul\":7759:7812   */\n      tag_454\n        /* \"#utility.yul\":7804:7811   */\n      dup6\n        /* \"#utility.yul\":7795:7801   */\n      dup3\n        /* \"#utility.yul\":7784:7793   */\n      dup7\n        /* \"#utility.yul\":7780:7802   */\n      add\n        /* \"#utility.yul\":7759:7812   */\n      tag_311\n      jump\t// in\n    tag_454:\n        /* \"#utility.yul\":7749:7812   */\n      swap2\n      pop\n        /* \"#utility.yul\":7704:7822   */\n      pop\n        /* \"#utility.yul\":7355:7829   */\n      swap3\n      pop\n      swap3\n      swap1\n      pop\n      jump\t// out\n        /* \"#utility.yul\":7835:8015   */\n    tag_327:\n        /* \"#utility.yul\":7883:7960   */\n      0x4e487b7100000000000000000000000000000000000000000000000000000000\n        /* \"#utility.yul\":7880:7881   */\n      0x00\n        /* \"#utility.yul\":7873:7961   */\n      mstore\n        /* \"#utility.yul\":7980:7984   */\n      0x22\n        /* \"#utility.yul\":7977:7978   */\n      0x04\n        /* \"#utility.yul\":7970:7985   */\n      mstore\n        /* \"#utility.yul\":8004:8008   */\n      0x24\n        /* \"#utility.yul\":8001:8002   */\n      0x00\n        /* \"#utility.yul\":7994:8009   */\n      revert\n        /* \"#utility.yul\":8021:8341   */\n    tag_130:\n        /* \"#utility.yul\":8065:8071   */\n      0x00\n        /* \"#utility.yul\":8102:8103   */\n      0x02\n        /* \"#utility.yul\":8096:8100   */\n      dup3\n        /* \"#utility.yul\":8092:8104   */\n      div\n        /* \"#utility.yul\":8082:8104   */\n      swap1\n      pop\n        /* \"#utility.yul\":8149:8150   */\n      0x01\n        /* \"#utility.yul\":8143:8147   */\n      dup3\n        /* \"#utility.yul\":8139:8151   */\n      and\n        /* \"#utility.yul\":8170:8188   */\n      dup1\n        /* \"#utility.yul\":8160:8241   */\n      tag_457\n      jumpi\n        /* \"#utility.yul\":8226:8230   */\n      0x7f\n        /* \"#utility.yul\":8218:8224   */\n      dup3\n        /* \"#utility.yul\":8214:8231   */\n      and\n        /* \"#utility.yul\":8204:8231   */\n      swap2\n      pop\n        /* \"#utility.yul\":8160:8241   */\n    tag_457:\n        /* \"#utility.yul\":8288:8290   */\n      0x20\n        /* \"#utility.yul\":8280:8286   */\n      dup3\n        /* \"#utility.yul\":8277:8291   */\n      lt\n        /* \"#utility.yul\":8257:8275   */\n      dup2\n        /* \"#utility.yul\":8254:8292   */\n      sub\n        /* \"#utility.yul\":8251:8335   */\n      tag_458\n      jumpi\n        /* \"#utility.yul\":8307:8325   */\n      tag_459\n      tag_327\n      jump\t// in\n    tag_459:\n        /* \"#utility.yul\":8251:8335   */\n    tag_458:\n        /* \"#utility.yul\":8072:8341   */\n      pop\n        /* \"#utility.yul\":8021:8341   */\n      swap2\n      swap1\n      pop\n      jump\t// out\n        /* \"#utility.yul\":8347:8490   */\n    tag_328:\n        /* \"#utility.yul\":8404:8409   */\n      0x00\n        /* \"#utility.yul\":8435:8441   */\n      dup2\n        /* \"#utility.yul\":8429:8442   */\n      mload\n        /* \"#utility.yul\":8420:8442   */\n      swap1\n      pop\n        /* \"#utility.yul\":8451:8484   */\n      tag_461\n        /* \"#utility.yul\":8478:8483   */\n      dup2\n        /* \"#utility.yul\":8451:8484   */\n      tag_313\n      jump\t// in\n    tag_461:\n        /* \"#utility.yul\":8347:8490   */\n      swap3\n      swap2\n      pop\n      pop\n      jump\t// out\n        /* \"#utility.yul\":8496:8847   */\n    tag_145:\n        /* \"#utility.yul\":8566:8572   */\n      0x00\n        /* \"#utility.yul\":8615:8617   */\n      0x20\n        /* \"#utility.yul\":8603:8612   */\n      dup3\n        /* \"#utility.yul\":8594:8601   */\n      dup5\n        /* \"#utility.yul\":8590:8613   */\n      sub\n        /* \"#utility.yul\":8586:8618   */\n      slt\n        /* \"#utility.yul\":8583:8702   */\n      iszero\n      tag_463\n      jumpi\n        /* \"#utility.yul\":8621:8700   */\n      tag_464\n      tag_306\n      jump\t// in\n    tag_464:\n        /* \"#utility.yul\":8583:8702   */\n    tag_463:\n        /* \"#utility.yul\":8741:8742   */\n      0x00\n        /* \"#utility.yul\":8766:8830   */\n      tag_465\n        /* \"#utility.yul\":8822:8829   */\n      dup5\n        /* \"#utility.yul\":8813:8819   */\n      dup3\n        /* \"#utility.yul\":8802:8811   */\n      dup6\n        /* \"#utility.yul\":8798:8820   */\n      add\n        /* \"#utility.yul\":8766:8830   */\n      tag_328\n      jump\t// in\n    tag_465:\n        /* \"#utility.yul\":8756:8830   */\n      swap2\n      pop\n        /* \"#utility.yul\":8712:8840   */\n      pop\n        /* \"#utility.yul\":8496:8847   */\n      swap3\n      swap2\n      pop\n      pop\n      jump\t// out\n        /* \"#utility.yul\":8853:9022   */\n    tag_329:\n        /* \"#utility.yul\":8993:9014   */\n      0x4974656d20646f6573206e6f7420657869737400000000000000000000000000\n        /* \"#utility.yul\":8989:8990   */\n      0x00\n        /* \"#utility.yul\":8981:8987   */\n      dup3\n        /* \"#utility.yul\":8977:8991   */\n      add\n        /* \"#utility.yul\":8970:9015   */\n      mstore\n        /* \"#utility.yul\":8853:9022   */\n      pop\n      jump\t// out\n        /* \"#utility.yul\":9028:9394   */\n    tag_330:\n        /* \"#utility.yul\":9170:9173   */\n      0x00\n        /* \"#utility.yul\":9191:9258   */\n      tag_468\n        /* \"#utility.yul\":9255:9257   */\n      0x13\n        /* \"#utility.yul\":9250:9253   */\n      dup4\n        /* \"#utility.yul\":9191:9258   */\n      tag_301\n      jump\t// in\n    tag_468:\n        /* \"#utility.yul\":9184:9258   */\n      swap2\n      pop\n        /* \"#utility.yul\":9267:9360   */\n      tag_469\n        /* \"#utility.yul\":9356:9359   */\n      dup3\n        /* \"#utility.yul\":9267:9360   */\n      tag_329\n      jump\t// in\n    tag_469:\n        /* \"#utility.yul\":9385:9387   */\n      0x20\n        /* \"#utility.yul\":9380:9383   */\n      dup3\n        /* \"#utility.yul\":9376:9388   */\n      add\n        /* \"#utility.yul\":9369:9388   */\n      swap1\n      pop\n        /* \"#utility.yul\":9028:9394   */\n      swap2\n      swap1\n      pop\n      jump\t// out\n        /* \"#utility.yul\":9400:9819   */\n    tag_163:\n        /* \"#utility.yul\":9566:9570   */\n      0x00\n        /* \"#utility.yul\":9604:9606   */\n      0x20\n        /* \"#utility.yul\":9593:9602   */\n      dup3\n        /* \"#utility.yul\":9589:9607   */\n      add\n        /* \"#utility.yul\":9581:9607   */\n      swap1\n      pop\n        /* \"#utility.yul\":9653:9662   */\n      dup2\n        /* \"#utility.yul\":9647:9651   */\n      dup2\n        /* \"#utility.yul\":9643:9663   */\n      sub\n        /* \"#utility.yul\":9639:9640   */\n      0x00\n        /* \"#utility.yul\":9628:9637   */\n      dup4\n        /* \"#utility.yul\":9624:9641   */\n      add\n        /* \"#utility.yul\":9617:9664   */\n      mstore\n        /* \"#utility.yul\":9681:9812   */\n      tag_471\n        /* \"#utility.yul\":9807:9811   */\n      dup2\n        /* \"#utility.yul\":9681:9812   */\n      tag_330\n      jump\t// in\n    tag_471:\n        /* \"#utility.yul\":9673:9812   */\n      swap1\n      pop\n        /* \"#utility.yul\":9400:9819   */\n      swap2\n      swap1\n      pop\n      jump\t// out\n        /* \"#utility.yul\":9825:10052   */\n    tag_331:\n        /* \"#utility.yul\":9965:9999   */\n      0x496e73756666696369656e742062616c616e636520746f2072656465656d2074\n        /* \"#utility.yul\":9961:9962   */\n      0x00\n        /* \"#utility.yul\":9953:9959   */\n      dup3\n        /* \"#utility.yul\":9949:9963   */\n      add\n        /* \"#utility.yul\":9942:10000   */\n      mstore\n        /* \"#utility.yul\":10034:10044   */\n      0x686973206974656d000000000000000000000000000000000000000000000000\n        /* \"#utility.yul\":10029:10031   */\n      0x20\n        /* \"#utility.yul\":10021:10027   */\n      dup3\n        /* \"#utility.yul\":10017:10032   */\n      add\n        /* \"#utility.yul\":10010:10045   */\n      mstore\n        /* \"#utility.yul\":9825:10052   */\n      pop\n      jump\t// out\n        /* \"#utility.yul\":10058:10424   */\n    tag_332:\n        /* \"#utility.yul\":10200:10203   */\n      0x00\n        /* \"#utility.yul\":10221:10288   */\n      tag_474\n        /* \"#utility.yul\":10285:10287   */\n      0x28\n        /* \"#utility.yul\":10280:10283   */\n      dup4\n        /* \"#utility.yul\":10221:10288   */\n      tag_301\n      jump\t// in\n    tag_474:\n        /* \"#utility.yul\":10214:10288   */\n      swap2\n      pop\n        /* \"#utility.yul\":10297:10390   */\n      tag_475\n        /* \"#utility.yul\":10386:10389   */\n      dup3\n        /* \"#utility.yul\":10297:10390   */\n      tag_331\n      jump\t// in\n    tag_475:\n        /* \"#utility.yul\":10415:10417   */\n      0x40\n        /* \"#utility.yul\":10410:10413   */\n      dup3\n        /* \"#utility.yul\":10406:10418   */\n      add\n        /* \"#utility.yul\":10399:10418   */\n      swap1\n      pop\n        /* \"#utility.yul\":10058:10424   */\n      swap2\n      swap1\n      pop\n      jump\t// out\n        /* \"#utility.yul\":10430:10849   */\n    tag_167:\n        /* \"#utility.yul\":10596:10600   */\n      0x00\n        /* \"#utility.yul\":10634:10636   */\n      0x20\n        /* \"#utility.yul\":10623:10632   */\n      dup3\n        /* \"#utility.yul\":10619:10637   */\n      add\n        /* \"#utility.yul\":10611:10637   */\n      swap1\n      pop\n        /* \"#utility.yul\":10683:10692   */\n      dup2\n        /* \"#utility.yul\":10677:10681   */\n      dup2\n        /* \"#utility.yul\":10673:10693   */\n      sub\n        /* \"#utility.yul\":10669:10670   */\n      0x00\n        /* \"#utility.yul\":10658:10667   */\n      dup4\n        /* \"#utility.yul\":10654:10671   */\n      add\n        /* \"#utility.yul\":10647:10694   */\n      mstore\n        /* \"#utility.yul\":10711:10842   */\n      tag_477\n        /* \"#utility.yul\":10837:10841   */\n      dup2\n        /* \"#utility.yul\":10711:10842   */\n      tag_332\n      jump\t// in\n    tag_477:\n        /* \"#utility.yul\":10703:10842   */\n      swap1\n      pop\n        /* \"#utility.yul\":10430:10849   */\n      swap2\n      swap1\n      pop\n      jump\t// out\n        /* \"#utility.yul\":10855:11199   */\n    tag_173:\n        /* \"#utility.yul\":10982:10986   */\n      0x00\n        /* \"#utility.yul\":11020:11022   */\n      0x40\n        /* \"#utility.yul\":11009:11018   */\n      dup3\n        /* \"#utility.yul\":11005:11023   */\n      add\n        /* \"#utility.yul\":10997:11023   */\n      swap1\n      pop\n        /* \"#utility.yul\":11033:11110   */\n      tag_479\n        /* \"#utility.yul\":11107:11108   */\n      0x00\n        /* \"#utility.yul\":11096:11105   */\n      dup4\n        /* \"#utility.yul\":11092:11109   */\n      add\n        /* \"#utility.yul\":11083:11089   */\n      dup6\n        /* \"#utility.yul\":11033:11110   */\n      tag_321\n      jump\t// in\n    tag_479:\n        /* \"#utility.yul\":11120:11192   */\n      tag_480\n        /* \"#utility.yul\":11188:11190   */\n      0x20\n        /* \"#utility.yul\":11177:11186   */\n      dup4\n        /* \"#utility.yul\":11173:11191   */\n      add\n        /* \"#utility.yul\":11164:11170   */\n      dup5\n        /* \"#utility.yul\":11120:11192   */\n      tag_317\n      jump\t// in\n    tag_480:\n        /* \"#utility.yul\":10855:11199   */\n      swap4\n      swap3\n      pop\n      pop\n      pop\n      jump\t// out\n        /* \"#utility.yul\":11205:11385   */\n    tag_333:\n        /* \"#utility.yul\":11253:11330   */\n      0x4e487b7100000000000000000000000000000000000000000000000000000000\n        /* \"#utility.yul\":11250:11251   */\n      0x00\n        /* \"#utility.yul\":11243:11331   */\n      mstore\n        /* \"#utility.yul\":11350:11354   */\n      0x11\n        /* \"#utility.yul\":11347:11348   */\n      0x04\n        /* \"#utility.yul\":11340:11355   */\n      mstore\n        /* \"#utility.yul\":11374:11378   */\n      0x24\n        /* \"#utility.yul\":11371:11372   */\n      0x00\n        /* \"#utility.yul\":11364:11379   */\n      revert\n        /* \"#utility.yul\":11391:11582   */\n    tag_179:\n        /* \"#utility.yul\":11431:11434   */\n      0x00\n        /* \"#utility.yul\":11450:11470   */\n      tag_483\n        /* \"#utility.yul\":11468:11469   */\n      dup3\n        /* \"#utility.yul\":11450:11470   */\n      tag_312\n      jump\t// in\n    tag_483:\n        /* \"#utility.yul\":11445:11470   */\n      swap2\n      pop\n        /* \"#utility.yul\":11484:11504   */\n      tag_484\n        /* \"#utility.yul\":11502:11503   */\n      dup4\n        /* \"#utility.yul\":11484:11504   */\n      tag_312\n      jump\t// in\n    tag_484:\n        /* \"#utility.yul\":11479:11504   */\n      swap3\n      pop\n        /* \"#utility.yul\":11527:11528   */\n      dup3\n        /* \"#utility.yul\":11524:11525   */\n      dup3\n        /* \"#utility.yul\":11520:11529   */\n      add\n        /* \"#utility.yul\":11513:11529   */\n      swap1\n      pop\n        /* \"#utility.yul\":11548:11551   */\n      dup1\n        /* \"#utility.yul\":11545:11546   */\n      dup3\n        /* \"#utility.yul\":11542:11552   */\n      gt\n        /* \"#utility.yul\":11539:11575   */\n      iszero\n      tag_485\n      jumpi\n        /* \"#utility.yul\":11555:11573   */\n      tag_486\n      tag_333\n      jump\t// in\n    tag_486:\n        /* \"#utility.yul\":11539:11575   */\n    tag_485:\n        /* \"#utility.yul\":11391:11582   */\n      swap3\n      swap2\n      pop\n      pop\n      jump\t// out\n        /* \"#utility.yul\":11588:11830   */\n    tag_334:\n        /* \"#utility.yul\":11728:11762   */\n      0x496e73756666696369656e7420446567656e20546f6b656e7320746f20627572\n        /* \"#utility.yul\":11724:11725   */\n      0x00\n        /* \"#utility.yul\":11716:11722   */\n      dup3\n        /* \"#utility.yul\":11712:11726   */\n      add\n        /* \"#utility.yul\":11705:11763   */\n      mstore\n        /* \"#utility.yul\":11797:11822   */\n      0x6e2e20436865636b2062616c616e63652066697273742e000000000000000000\n        /* \"#utility.yul\":11792:11794   */\n      0x20\n        /* \"#utility.yul\":11784:11790   */\n      dup3\n        /* \"#utility.yul\":11780:11795   */\n      add\n        /* \"#utility.yul\":11773:11823   */\n      mstore\n        /* \"#utility.yul\":11588:11830   */\n      pop\n      jump\t// out\n        /* \"#utility.yul\":11836:12202   */\n    tag_335:\n        /* \"#utility.yul\":11978:11981   */\n      0x00\n        /* \"#utility.yul\":11999:12066   */\n      tag_489\n        /* \"#utility.yul\":12063:12065   */\n      0x37\n        /* \"#utility.yul\":12058:12061   */\n      dup4\n        /* \"#utility.yul\":11999:12066   */\n      tag_301\n      jump\t// in\n    tag_489:\n        /* \"#utility.yul\":11992:12066   */\n      swap2\n      pop\n        /* \"#utility.yul\":12075:12168   */\n      tag_490\n        /* \"#utility.yul\":12164:12167   */\n      dup3\n        /* \"#utility.yul\":12075:12168   */\n      tag_334\n      jump\t// in\n    tag_490:\n        /* \"#utility.yul\":12193:12195   */\n      0x40\n        /* \"#utility.yul\":12188:12191   */\n      dup3\n        /* \"#utility.yul\":12184:12196   */\n      add\n        /* \"#utility.yul\":12177:12196   */\n      swap1\n      pop\n        /* \"#utility.yul\":11836:12202   */\n      swap2\n      swap1\n      pop\n      jump\t// out\n        /* \"#utility.yul\":12208:12627   */\n    tag_193:\n        /* \"#utility.yul\":12374:12378   */\n      0x00\n        /* \"#utility.yul\":12412:12414   */\n      0x20\n        /* \"#utility.yul\":12401:12410   */\n      dup3\n        /* \"#utility.yul\":12397:12415   */\n      add\n        /* \"#utility.yul\":12389:12415   */\n      swap1\n      pop\n        /* \"#utility.yul\":12461:12470   */\n      dup2\n        /* \"#utility.yul\":12455:12459   */\n      dup2\n        /* \"#utility.yul\":12451:12471   */\n      sub\n        /* \"#utility.yul\":12447:12448   */\n      0x00\n        /* \"#utility.yul\":12436:12445   */\n      dup4\n        /* \"#utility.yul\":12432:12449   */\n      add\n        /* \"#utility.yul\":12425:12472   */\n      mstore\n        /* \"#utility.yul\":12489:12620   */\n      tag_492\n        /* \"#utility.yul\":12615:12619   */\n      dup2\n        /* \"#utility.yul\":12489:12620   */\n      tag_335\n      jump\t// in\n    tag_492:\n        /* \"#utility.yul\":12481:12620   */\n      swap1\n      pop\n        /* \"#utility.yul\":12208:12627   */\n      swap2\n      swap1\n      pop\n      jump\t// out\n        /* \"#utility.yul\":12633:12857   */\n    tag_336:\n        /* \"#utility.yul\":12773:12807   */\n      0x45524332303a2064656372656173656420616c6c6f77616e63652062656c6f77\n        /* \"#utility.yul\":12769:12770   */\n      0x00\n        /* \"#utility.yul\":12761:12767   */\n      dup3\n        /* \"#utility.yul\":12757:12771   */\n      add\n        /* \"#utility.yul\":12750:12808   */\n      mstore\n        /* \"#utility.yul\":12842:12849   */\n      0x207a65726f000000000000000000000000000000000000000000000000000000\n        /* \"#utility.yul\":12837:12839   */\n      0x20\n        /* \"#utility.yul\":12829:12835   */\n      dup3\n        /* \"#utility.yul\":12825:12840   */\n      add\n        /* \"#utility.yul\":12818:12850   */\n      mstore\n        /* \"#utility.yul\":12633:12857   */\n      pop\n      jump\t// out\n        /* \"#utility.yul\":12863:13229   */\n    tag_337:\n        /* \"#utility.yul\":13005:13008   */\n      0x00\n        /* \"#utility.yul\":13026:13093   */\n      tag_495\n        /* \"#utility.yul\":13090:13092   */\n      0x25\n        /* \"#utility.yul\":13085:13088   */\n      dup4\n        /* \"#utility.yul\":13026:13093   */\n      tag_301\n      jump\t// in\n    tag_495:\n        /* \"#utility.yul\":13019:13093   */\n      swap2\n      pop\n        /* \"#utility.yul\":13102:13195   */\n      tag_496\n        /* \"#utility.yul\":13191:13194   */\n      dup3\n        /* \"#utility.yul\":13102:13195   */\n      tag_336\n      jump\t// in\n    tag_496:\n        /* \"#utility.yul\":13220:13222   */\n      0x40\n        /* \"#utility.yul\":13215:13218   */\n      dup3\n        /* \"#utility.yul\":13211:13223   */\n      add\n        /* \"#utility.yul\":13204:13223   */\n      swap1\n      pop\n        /* \"#utility.yul\":12863:13229   */\n      swap2\n      swap1\n      pop\n      jump\t// out\n        /* \"#utility.yul\":13235:13654   */\n    tag_217:\n        /* \"#utility.yul\":13401:13405   */\n      0x00\n        /* \"#utility.yul\":13439:13441   */\n      0x20\n        /* \"#utility.yul\":13428:13437   */\n      dup3\n        /* \"#utility.yul\":13424:13442   */\n      add\n        /* \"#utility.yul\":13416:13442   */\n      swap1\n      pop\n        /* \"#utility.yul\":13488:13497   */\n      dup2\n        /* \"#utility.yul\":13482:13486   */\n      dup2\n        /* \"#utility.yul\":13478:13498   */\n      sub\n        /* \"#utility.yul\":13474:13475   */\n      0x00\n        /* \"#utility.yul\":13463:13472   */\n      dup4\n        /* \"#utility.yul\":13459:13476   */\n      add\n        /* \"#utility.yul\":13452:13499   */\n      mstore\n        /* \"#utility.yul\":13516:13647   */\n      tag_498\n        /* \"#utility.yul\":13642:13646   */\n      dup2\n        /* \"#utility.yul\":13516:13647   */\n      tag_337\n      jump\t// in\n    tag_498:\n        /* \"#utility.yul\":13508:13647   */\n      swap1\n      pop\n        /* \"#utility.yul\":13235:13654   */\n      swap2\n      swap1\n      pop\n      jump\t// out\n        /* \"#utility.yul\":13660:13830   */\n    tag_338:\n        /* \"#utility.yul\":13800:13822   */\n      0x4e6f20746f6b656e7320746f2072656465656d2e000000000000000000000000\n        /* \"#utility.yul\":13796:13797   */\n      0x00\n        /* \"#utility.yul\":13788:13794   */\n      dup3\n        /* \"#utility.yul\":13784:13798   */\n      add\n        /* \"#utility.yul\":13777:13823   */\n      mstore\n        /* \"#utility.yul\":13660:13830   */\n      pop\n      jump\t// out\n        /* \"#utility.yul\":13836:14202   */\n    tag_339:\n        /* \"#utility.yul\":13978:13981   */\n      0x00\n        /* \"#utility.yul\":13999:14066   */\n      tag_501\n        /* \"#utility.yul\":14063:14065   */\n      0x14\n        /* \"#utility.yul\":14058:14061   */\n      dup4\n        /* \"#utility.yul\":13999:14066   */\n      tag_301\n      jump\t// in\n    tag_501:\n        /* \"#utility.yul\":13992:14066   */\n      swap2\n      pop\n        /* \"#utility.yul\":14075:14168   */\n      tag_502\n        /* \"#utility.yul\":14164:14167   */\n      dup3\n        /* \"#utility.yul\":14075:14168   */\n      tag_338\n      jump\t// in\n    tag_502:\n        /* \"#utility.yul\":14193:14195   */\n      0x20\n        /* \"#utility.yul\":14188:14191   */\n      dup3\n        /* \"#utility.yul\":14184:14196   */\n      add\n        /* \"#utility.yul\":14177:14196   */\n      swap1\n      pop\n        /* \"#utility.yul\":13836:14202   */\n      swap2\n      swap1\n      pop\n      jump\t// out\n        /* \"#utility.yul\":14208:14627   */\n    tag_223:\n        /* \"#utility.yul\":14374:14378   */\n      0x00\n        /* \"#utility.yul\":14412:14414   */\n      0x20\n        /* \"#utility.yul\":14401:14410   */\n      dup3\n        /* \"#utility.yul\":14397:14415   */\n      add\n        /* \"#utility.yul\":14389:14415   */\n      swap1\n      pop\n        /* \"#utility.yul\":14461:14470   */\n      dup2\n        /* \"#utility.yul\":14455:14459   */\n      dup2\n        /* \"#utility.yul\":14451:14471   */\n      sub\n        /* \"#utility.yul\":14447:14448   */\n      0x00\n        /* \"#utility.yul\":14436:14445   */\n      dup4\n        /* \"#utility.yul\":14432:14449   */\n      add\n        /* \"#utility.yul\":14425:14472   */\n      mstore\n        /* \"#utility.yul\":14489:14620   */\n      tag_504\n        /* \"#utility.yul\":14615:14619   */\n      dup2\n        /* \"#utility.yul\":14489:14620   */\n      tag_339\n      jump\t// in\n    tag_504:\n        /* \"#utility.yul\":14481:14620   */\n      swap1\n      pop\n        /* \"#utility.yul\":14208:14627   */\n      swap2\n      swap1\n      pop\n      jump\t// out\n        /* \"#utility.yul\":14633:14879   */\n    tag_340:\n        /* \"#utility.yul\":14773:14807   */\n      0x496e73756666696369656e7420446567656e20546f6b656e7320746f20747261\n        /* \"#utility.yul\":14769:14770   */\n      0x00\n        /* \"#utility.yul\":14761:14767   */\n      dup3\n        /* \"#utility.yul\":14757:14771   */\n      add\n        /* \"#utility.yul\":14750:14808   */\n      mstore\n        /* \"#utility.yul\":14842:14871   */\n      0x6e736665722e20436865636b2062616c616e63652066697273742e0000000000\n        /* \"#utility.yul\":14837:14839   */\n      0x20\n        /* \"#utility.yul\":14829:14835   */\n      dup3\n        /* \"#utility.yul\":14825:14840   */\n      add\n        /* \"#utility.yul\":14818:14872   */\n      mstore\n        /* \"#utility.yul\":14633:14879   */\n      pop\n      jump\t// out\n        /* \"#utility.yul\":14885:15251   */\n    tag_341:\n        /* \"#utility.yul\":15027:15030   */\n      0x00\n        /* \"#utility.yul\":15048:15115   */\n      tag_507\n        /* \"#utility.yul\":15112:15114   */\n      0x3b\n        /* \"#utility.yul\":15107:15110   */\n      dup4\n        /* \"#utility.yul\":15048:15115   */\n      tag_301\n      jump\t// in\n    tag_507:\n        /* \"#utility.yul\":15041:15115   */\n      swap2\n      pop\n        /* \"#utility.yul\":15124:15217   */\n      tag_508\n        /* \"#utility.yul\":15213:15216   */\n      dup3\n        /* \"#utility.yul\":15124:15217   */\n      tag_340\n      jump\t// in\n    tag_508:\n        /* \"#utility.yul\":15242:15244   */\n      0x40\n        /* \"#utility.yul\":15237:15240   */\n      dup3\n        /* \"#utility.yul\":15233:15245   */\n      add\n        /* \"#utility.yul\":15226:15245   */\n      swap1\n      pop\n        /* \"#utility.yul\":14885:15251   */\n      swap2\n      swap1\n      pop\n      jump\t// out\n        /* \"#utility.yul\":15257:15676   */\n    tag_232:\n        /* \"#utility.yul\":15423:15427   */\n      0x00\n        /* \"#utility.yul\":15461:15463   */\n      0x20\n        /* \"#utility.yul\":15450:15459   */\n      dup3\n        /* \"#utility.yul\":15446:15464   */\n      add\n        /* \"#utility.yul\":15438:15464   */\n      swap1\n      pop\n        /* \"#utility.yul\":15510:15519   */\n      dup2\n        /* \"#utility.yul\":15504:15508   */\n      dup2\n        /* \"#utility.yul\":15500:15520   */\n      sub\n        /* \"#utility.yul\":15496:15497   */\n      0x00\n        /* \"#utility.yul\":15485:15494   */\n      dup4\n        /* \"#utility.yul\":15481:15498   */\n      add\n        /* \"#utility.yul\":15474:15521   */\n      mstore\n        /* \"#utility.yul\":15538:15669   */\n      tag_510\n        /* \"#utility.yul\":15664:15668   */\n      dup2\n        /* \"#utility.yul\":15538:15669   */\n      tag_341\n      jump\t// in\n    tag_510:\n        /* \"#utility.yul\":15530:15669   */\n      swap1\n      pop\n        /* \"#utility.yul\":15257:15676   */\n      swap2\n      swap1\n      pop\n      jump\t// out\n        /* \"#utility.yul\":15682:15907   */\n    tag_342:\n        /* \"#utility.yul\":15822:15856   */\n      0x4f776e61626c653a206e6577206f776e657220697320746865207a65726f2061\n        /* \"#utility.yul\":15818:15819   */\n      0x00\n        /* \"#utility.yul\":15810:15816   */\n      dup3\n        /* \"#utility.yul\":15806:15820   */\n      add\n        /* \"#utility.yul\":15799:15857   */\n      mstore\n        /* \"#utility.yul\":15891:15899   */\n      0x6464726573730000000000000000000000000000000000000000000000000000\n        /* \"#utility.yul\":15886:15888   */\n      0x20\n        /* \"#utility.yul\":15878:15884   */\n      dup3\n        /* \"#utility.yul\":15874:15889   */\n      add\n        /* \"#utility.yul\":15867:15900   */\n      mstore\n        /* \"#utility.yul\":15682:15907   */\n      pop\n      jump\t// out\n        /* \"#utility.yul\":15913:16279   */\n    tag_343:\n        /* \"#utility.yul\":16055:16058   */\n      0x00\n        /* \"#utility.yul\":16076:16143   */\n      tag_513\n        /* \"#utility.yul\":16140:16142   */\n      0x26\n        /* \"#utility.yul\":16135:16138   */\n      dup4\n        /* \"#utility.yul\":16076:16143   */\n      tag_301\n      jump\t// in\n    tag_513:\n        /* \"#utility.yul\":16069:16143   */\n      swap2\n      pop\n        /* \"#utility.yul\":16152:16245   */\n      tag_514\n        /* \"#utility.yul\":16241:16244   */\n      dup3\n        /* \"#utility.yul\":16152:16245   */\n      tag_342\n      jump\t// in\n    tag_514:\n        /* \"#utility.yul\":16270:16272   */\n      0x40\n        /* \"#utility.yul\":16265:16268   */\n      dup3\n        /* \"#utility.yul\":16261:16273   */\n      add\n        /* \"#utility.yul\":16254:16273   */\n      swap1\n      pop\n        /* \"#utility.yul\":15913:16279   */\n      swap2\n      swap1\n      pop\n      jump\t// out\n        /* \"#utility.yul\":16285:16704   */\n    tag_240:\n        /* \"#utility.yul\":16451:16455   */\n      0x00\n        /* \"#utility.yul\":16489:16491   */\n      0x20\n        /* \"#utility.yul\":16478:16487   */\n      dup3\n        /* \"#utility.yul\":16474:16492   */\n      add\n        /* \"#utility.yul\":16466:16492   */\n      swap1\n      pop\n        /* \"#utility.yul\":16538:16547   */\n      dup2\n        /* \"#utility.yul\":16532:16536   */\n      dup2\n        /* \"#utility.yul\":16528:16548   */\n      sub\n        /* \"#utility.yul\":16524:16525   */\n      0x00\n        /* \"#utility.yul\":16513:16522   */\n      dup4\n        /* \"#utility.yul\":16509:16526   */\n      add\n        /* \"#utility.yul\":16502:16549   */\n      mstore\n        /* \"#utility.yul\":16566:16697   */\n      tag_516\n        /* \"#utility.yul\":16692:16696   */\n      dup2\n        /* \"#utility.yul\":16566:16697   */\n      tag_343\n      jump\t// in\n    tag_516:\n        /* \"#utility.yul\":16558:16697   */\n      swap1\n      pop\n        /* \"#utility.yul\":16285:16704   */\n      swap2\n      swap1\n      pop\n      jump\t// out\n        /* \"#utility.yul\":16710:16933   */\n    tag_344:\n        /* \"#utility.yul\":16850:16884   */\n      0x45524332303a20617070726f76652066726f6d20746865207a65726f20616464\n        /* \"#utility.yul\":16846:16847   */\n      0x00\n        /* \"#utility.yul\":16838:16844   */\n      dup3\n        /* \"#utility.yul\":16834:16848   */\n      add\n        /* \"#utility.yul\":16827:16885   */\n      mstore\n        /* \"#utility.yul\":16919:16925   */\n      0x7265737300000000000000000000000000000000000000000000000000000000\n        /* \"#utility.yul\":16914:16916   */\n      0x20\n        /* \"#utility.yul\":16906:16912   */\n      dup3\n        /* \"#utility.yul\":16902:16917   */\n      add\n        /* \"#utility.yul\":16895:16926   */\n      mstore\n        /* \"#utility.yul\":16710:16933   */\n      pop\n      jump\t// out\n        /* \"#utility.yul\":16939:17305   */\n    tag_345:\n        /* \"#utility.yul\":17081:17084   */\n      0x00\n        /* \"#utility.yul\":17102:17169   */\n      tag_519\n        /* \"#utility.yul\":17166:17168   */\n      0x24\n        /* \"#utility.yul\":17161:17164   */\n      dup4\n        /* \"#utility.yul\":17102:17169   */\n      tag_301\n      jump\t// in\n    tag_519:\n        /* \"#utility.yul\":17095:17169   */\n      swap2\n      pop\n        /* \"#utility.yul\":17178:17271   */\n      tag_520\n        /* \"#utility.yul\":17267:17270   */\n      dup3\n        /* \"#utility.yul\":17178:17271   */\n      tag_344\n      jump\t// in\n    tag_520:\n        /* \"#utility.yul\":17296:17298   */\n      0x40\n        /* \"#utility.yul\":17291:17294   */\n      dup3\n        /* \"#utility.yul\":17287:17299   */\n      add\n        /* \"#utility.yul\":17280:17299   */\n      swap1\n      pop\n        /* \"#utility.yul\":16939:17305   */\n      swap2\n      swap1\n      pop\n      jump\t// out\n        /* \"#utility.yul\":17311:17730   */\n    tag_246:\n        /* \"#utility.yul\":17477:17481   */\n      0x00\n        /* \"#utility.yul\":17515:17517   */\n      0x20\n        /* \"#utility.yul\":17504:17513   */\n      dup3\n        /* \"#utility.yul\":17500:17518   */\n      add\n        /* \"#utility.yul\":17492:17518   */\n      swap1\n      pop\n        /* \"#utility.yul\":17564:17573   */\n      dup2\n        /* \"#utility.yul\":17558:17562   */\n      dup2\n        /* \"#utility.yul\":17554:17574   */\n      sub\n        /* \"#utility.yul\":17550:17551   */\n      0x00\n        /* \"#utility.yul\":17539:17548   */\n      dup4\n        /* \"#utility.yul\":17535:17552   */\n      add\n        /* \"#utility.yul\":17528:17575   */\n      mstore\n        /* \"#utility.yul\":17592:17723   */\n      tag_522\n        /* \"#utility.yul\":17718:17722   */\n      dup2\n        /* \"#utility.yul\":17592:17723   */\n      tag_345\n      jump\t// in\n    tag_522:\n        /* \"#utility.yul\":17584:17723   */\n      swap1\n      pop\n        /* \"#utility.yul\":17311:17730   */\n      swap2\n      swap1\n      pop\n      jump\t// out\n        /* \"#utility.yul\":17736:17957   */\n    tag_346:\n        /* \"#utility.yul\":17876:17910   */\n      0x45524332303a20617070726f766520746f20746865207a65726f206164647265\n        /* \"#utility.yul\":17872:17873   */\n      0x00\n        /* \"#utility.yul\":17864:17870   */\n      dup3\n        /* \"#utility.yul\":17860:17874   */\n      add\n        /* \"#utility.yul\":17853:17911   */\n      mstore\n        /* \"#utility.yul\":17945:17949   */\n      0x7373000000000000000000000000000000000000000000000000000000000000\n        /* \"#utility.yul\":17940:17942   */\n      0x20\n        /* \"#utility.yul\":17932:17938   */\n      dup3\n        /* \"#utility.yul\":17928:17943   */\n      add\n        /* \"#utility.yul\":17921:17950   */\n      mstore\n        /* \"#utility.yul\":17736:17957   */\n      pop\n      jump\t// out\n        /* \"#utility.yul\":17963:18329   */\n    tag_347:\n        /* \"#utility.yul\":18105:18108   */\n      0x00\n        /* \"#utility.yul\":18126:18193   */\n      tag_525\n        /* \"#utility.yul\":18190:18192   */\n      0x22\n        /* \"#utility.yul\":18185:18188   */\n      dup4\n        /* \"#utility.yul\":18126:18193   */\n      tag_301\n      jump\t// in\n    tag_525:\n        /* \"#utility.yul\":18119:18193   */\n      swap2\n      pop\n        /* \"#utility.yul\":18202:18295   */\n      tag_526\n        /* \"#utility.yul\":18291:18294   */\n      dup3\n        /* \"#utility.yul\":18202:18295   */\n      tag_346\n      jump\t// in\n    tag_526:\n        /* \"#utility.yul\":18320:18322   */\n      0x40\n        /* \"#utility.yul\":18315:18318   */\n      dup3\n        /* \"#utility.yul\":18311:18323   */\n      add\n        /* \"#utility.yul\":18304:18323   */\n      swap1\n      pop\n        /* \"#utility.yul\":17963:18329   */\n      swap2\n      swap1\n      pop\n      jump\t// out\n        /* \"#utility.yul\":18335:18754   */\n    tag_249:\n        /* \"#utility.yul\":18501:18505   */\n      0x00\n        /* \"#utility.yul\":18539:18541   */\n      0x20\n        /* \"#utility.yul\":18528:18537   */\n      dup3\n        /* \"#utility.yul\":18524:18542   */\n      add\n        /* \"#utility.yul\":18516:18542   */\n      swap1\n      pop\n        /* \"#utility.yul\":18588:18597   */\n      dup2\n        /* \"#utility.yul\":18582:18586   */\n      dup2\n        /* \"#utility.yul\":18578:18598   */\n      sub\n        /* \"#utility.yul\":18574:18575   */\n      0x00\n        /* \"#utility.yul\":18563:18572   */\n      dup4\n        /* \"#utility.yul\":18559:18576   */\n      add\n        /* \"#utility.yul\":18552:18599   */\n      mstore\n        /* \"#utility.yul\":18616:18747   */\n      tag_528\n        /* \"#utility.yul\":18742:18746   */\n      dup2\n        /* \"#utility.yul\":18616:18747   */\n      tag_347\n      jump\t// in\n    tag_528:\n        /* \"#utility.yul\":18608:18747   */\n      swap1\n      pop\n        /* \"#utility.yul\":18335:18754   */\n      swap2\n      swap1\n      pop\n      jump\t// out\n        /* \"#utility.yul\":18760:18939   */\n    tag_348:\n        /* \"#utility.yul\":18900:18931   */\n      0x45524332303a20696e73756666696369656e7420616c6c6f77616e6365000000\n        /* \"#utility.yul\":18896:18897   */\n      0x00\n        /* \"#utility.yul\":18888:18894   */\n      dup3\n        /* \"#utility.yul\":18884:18898   */\n      add\n        /* \"#utility.yul\":18877:18932   */\n      mstore\n        /* \"#utility.yul\":18760:18939   */\n      pop\n      jump\t// out\n        /* \"#utility.yul\":18945:19311   */\n    tag_349:\n        /* \"#utility.yul\":19087:19090   */\n      0x00\n        /* \"#utility.yul\":19108:19175   */\n      tag_531\n        /* \"#utility.yul\":19172:19174   */\n      0x1d\n        /* \"#utility.yul\":19167:19170   */\n      dup4\n        /* \"#utility.yul\":19108:19175   */\n      tag_301\n      jump\t// in\n    tag_531:\n        /* \"#utility.yul\":19101:19175   */\n      swap2\n      pop\n        /* \"#utility.yul\":19184:19277   */\n      tag_532\n        /* \"#utility.yul\":19273:19276   */\n      dup3\n        /* \"#utility.yul\":19184:19277   */\n      tag_348\n      jump\t// in\n    tag_532:\n        /* \"#utility.yul\":19302:19304   */\n      0x20\n        /* \"#utility.yul\":19297:19300   */\n      dup3\n        /* \"#utility.yul\":19293:19305   */\n      add\n        /* \"#utility.yul\":19286:19305   */\n      swap1\n      pop\n        /* \"#utility.yul\":18945:19311   */\n      swap2\n      swap1\n      pop\n      jump\t// out\n        /* \"#utility.yul\":19317:19736   */\n    tag_256:\n        /* \"#utility.yul\":19483:19487   */\n      0x00\n        /* \"#utility.yul\":19521:19523   */\n      0x20\n        /* \"#utility.yul\":19510:19519   */\n      dup3\n        /* \"#utility.yul\":19506:19524   */\n      add\n        /* \"#utility.yul\":19498:19524   */\n      swap1\n      pop\n        /* \"#utility.yul\":19570:19579   */\n      dup2\n        /* \"#utility.yul\":19564:19568   */\n      dup2\n        /* \"#utility.yul\":19560:19580   */\n      sub\n        /* \"#utility.yul\":19556:19557   */\n      0x00\n        /* \"#utility.yul\":19545:19554   */\n      dup4\n        /* \"#utility.yul\":19541:19558   */\n      add\n        /* \"#utility.yul\":19534:19581   */\n      mstore\n        /* \"#utility.yul\":19598:19729   */\n      tag_534\n        /* \"#utility.yul\":19724:19728   */\n      dup2\n        /* \"#utility.yul\":19598:19729   */\n      tag_349\n      jump\t// in\n    tag_534:\n        /* \"#utility.yul\":19590:19729   */\n      swap1\n      pop\n        /* \"#utility.yul\":19317:19736   */\n      swap2\n      swap1\n      pop\n      jump\t// out\n        /* \"#utility.yul\":19742:19966   */\n    tag_350:\n        /* \"#utility.yul\":19882:19916   */\n      0x45524332303a207472616e736665722066726f6d20746865207a65726f206164\n        /* \"#utility.yul\":19878:19879   */\n      0x00\n        /* \"#utility.yul\":19870:19876   */\n      dup3\n        /* \"#utility.yul\":19866:19880   */\n      add\n        /* \"#utility.yul\":19859:19917   */\n      mstore\n        /* \"#utility.yul\":19951:19958   */\n      0x6472657373000000000000000000000000000000000000000000000000000000\n        /* \"#utility.yul\":19946:19948   */\n      0x20\n        /* \"#utility.yul\":19938:19944   */\n      dup3\n        /* \"#utility.yul\":19934:19949   */\n      add\n        /* \"#utility.yul\":19927:19959   */\n      mstore\n        /* \"#utility.yul\":19742:19966   */\n      pop\n      jump\t// out\n        /* \"#utility.yul\":19972:20338   */\n    tag_351:\n        /* \"#utility.yul\":20114:20117   */\n      0x00\n        /* \"#utility.yul\":20135:20202   */\n      tag_537\n        /* \"#utility.yul\":20199:20201   */\n      0x25\n        /* \"#utility.yul\":20194:20197   */\n      dup4\n        /* \"#utility.yul\":20135:20202   */\n      tag_301\n      jump\t// in\n    tag_537:\n        /* \"#utility.yul\":20128:20202   */\n      swap2\n      pop\n        /* \"#utility.yul\":20211:20304   */\n      tag_538\n        /* \"#utility.yul\":20300:20303   */\n      dup3\n        /* \"#utility.yul\":20211:20304   */\n      tag_350\n      jump\t// in\n    tag_538:\n        /* \"#utility.yul\":20329:20331   */\n      0x40\n        /* \"#utility.yul\":20324:20327   */\n      dup3\n        /* \"#utility.yul\":20320:20332   */\n      add\n        /* \"#utility.yul\":20313:20332   */\n      swap1\n      pop\n        /* \"#utility.yul\":19972:20338   */\n      swap2\n      swap1\n      pop\n      jump\t// out\n        /* \"#utility.yul\":20344:20763   */\n    tag_261:\n        /* \"#utility.yul\":20510:20514   */\n      0x00\n        /* \"#utility.yul\":20548:20550   */\n      0x20\n        /* \"#utility.yul\":20537:20546   */\n      dup3\n        /* \"#utility.yul\":20533:20551   */\n      add\n        /* \"#utility.yul\":20525:20551   */\n      swap1\n      pop\n        /* \"#utility.yul\":20597:20606   */\n      dup2\n        /* \"#utility.yul\":20591:20595   */\n      dup2\n        /* \"#utility.yul\":20587:20607   */\n      sub\n        /* \"#utility.yul\":20583:20584   */\n      0x00\n        /* \"#utility.yul\":20572:20581   */\n      dup4\n        /* \"#utility.yul\":20568:20585   */\n      add\n        /* \"#utility.yul\":20561:20608   */\n      mstore\n        /* \"#utility.yul\":20625:20756   */\n      tag_540\n        /* \"#utility.yul\":20751:20755   */\n      dup2\n        /* \"#utility.yul\":20625:20756   */\n      tag_351\n      jump\t// in\n    tag_540:\n        /* \"#utility.yul\":20617:20756   */\n      swap1\n      pop\n        /* \"#utility.yul\":20344:20763   */\n      swap2\n      swap1\n      pop\n      jump\t// out\n        /* \"#utility.yul\":20769:20991   */\n    tag_352:\n        /* \"#utility.yul\":20909:20943   */\n      0x45524332303a207472616e7366657220746f20746865207a65726f2061646472\n        /* \"#utility.yul\":20905:20906   */\n      0x00\n        /* \"#utility.yul\":20897:20903   */\n      dup3\n        /* \"#utility.yul\":20893:20907   */\n      add\n        /* \"#utility.yul\":20886:20944   */\n      mstore\n        /* \"#utility.yul\":20978:20983   */\n      0x6573730000000000000000000000000000000000000000000000000000000000\n        /* \"#utility.yul\":20973:20975   */\n      0x20\n        /* \"#utility.yul\":20965:20971   */\n      dup3\n        /* \"#utility.yul\":20961:20976   */\n      add\n        /* \"#utility.yul\":20954:20984   */\n      mstore\n        /* \"#utility.yul\":20769:20991   */\n      pop\n      jump\t// out\n        /* \"#utility.yul\":20997:21363   */\n    tag_353:\n        /* \"#utility.yul\":21139:21142   */\n      0x00\n        /* \"#utility.yul\":21160:21227   */\n      tag_543\n        /* \"#utility.yul\":21224:21226   */\n      0x23\n        /* \"#utility.yul\":21219:21222   */\n      dup4\n        /* \"#utility.yul\":21160:21227   */\n      tag_301\n      jump\t// in\n    tag_543:\n        /* \"#utility.yul\":21153:21227   */\n      swap2\n      pop\n        /* \"#utility.yul\":21236:21329   */\n      tag_544\n        /* \"#utility.yul\":21325:21328   */\n      dup3\n        /* \"#utility.yul\":21236:21329   */\n      tag_352\n      jump\t// in\n    tag_544:\n        /* \"#utility.yul\":21354:21356   */\n      0x40\n        /* \"#utility.yul\":21349:21352   */\n      dup3\n        /* \"#utility.yul\":21345:21357   */\n      add\n        /* \"#utility.yul\":21338:21357   */\n      swap1\n      pop\n        /* \"#utility.yul\":20997:21363   */\n      swap2\n      swap1\n      pop\n      jump\t// out\n        /* \"#utility.yul\":21369:21788   */\n    tag_264:\n        /* \"#utility.yul\":21535:21539   */\n      0x00\n        /* \"#utility.yul\":21573:21575   */\n      0x20\n        /* \"#utility.yul\":21562:21571   */\n      dup3\n        /* \"#utility.yul\":21558:21576   */\n      add\n        /* \"#utility.yul\":21550:21576   */\n      swap1\n      pop\n        /* \"#utility.yul\":21622:21631   */\n      dup2\n        /* \"#utility.yul\":21616:21620   */\n      dup2\n        /* \"#utility.yul\":21612:21632   */\n      sub\n        /* \"#utility.yul\":21608:21609   */\n      0x00\n        /* \"#utility.yul\":21597:21606   */\n      dup4\n        /* \"#utility.yul\":21593:21610   */\n      add\n        /* \"#utility.yul\":21586:21633   */\n      mstore\n        /* \"#utility.yul\":21650:21781   */\n      tag_546\n        /* \"#utility.yul\":21776:21780   */\n      dup2\n        /* \"#utility.yul\":21650:21781   */\n      tag_353\n      jump\t// in\n    tag_546:\n        /* \"#utility.yul\":21642:21781   */\n      swap1\n      pop\n        /* \"#utility.yul\":21369:21788   */\n      swap2\n      swap1\n      pop\n      jump\t// out\n        /* \"#utility.yul\":21794:22019   */\n    tag_354:\n        /* \"#utility.yul\":21934:21968   */\n      0x45524332303a207472616e7366657220616d6f756e7420657863656564732062\n        /* \"#utility.yul\":21930:21931   */\n      0x00\n        /* \"#utility.yul\":21922:21928   */\n      dup3\n        /* \"#utility.yul\":21918:21932   */\n      add\n        /* \"#utility.yul\":21911:21969   */\n      mstore\n        /* \"#utility.yul\":22003:22011   */\n      0x616c616e63650000000000000000000000000000000000000000000000000000\n        /* \"#utility.yul\":21998:22000   */\n      0x20\n        /* \"#utility.yul\":21990:21996   */\n      dup3\n        /* \"#utility.yul\":21986:22001   */\n      add\n        /* \"#utility.yul\":21979:22012   */\n      mstore\n        /* \"#utility.yul\":21794:22019   */\n      pop\n      jump\t// out\n        /* \"#utility.yul\":22025:22391   */\n    tag_355:\n        /* \"#utility.yul\":22167:22170   */\n      0x00\n        /* \"#utility.yul\":22188:22255   */\n      tag_549\n        /* \"#utility.yul\":22252:22254   */\n      0x26\n        /* \"#utility.yul\":22247:22250   */\n      dup4\n        /* \"#utility.yul\":22188:22255   */\n      tag_301\n      jump\t// in\n    tag_549:\n        /* \"#utility.yul\":22181:22255   */\n      swap2\n      pop\n        /* \"#utility.yul\":22264:22357   */\n      tag_550\n        /* \"#utility.yul\":22353:22356   */\n      dup3\n        /* \"#utility.yul\":22264:22357   */\n      tag_354\n      jump\t// in\n    tag_550:\n        /* \"#utility.yul\":22382:22384   */\n      0x40\n        /* \"#utility.yul\":22377:22380   */\n      dup3\n        /* \"#utility.yul\":22373:22385   */\n      add\n        /* \"#utility.yul\":22366:22385   */\n      swap1\n      pop\n        /* \"#utility.yul\":22025:22391   */\n      swap2\n      swap1\n      pop\n      jump\t// out\n        /* \"#utility.yul\":22397:22816   */\n    tag_269:\n        /* \"#utility.yul\":22563:22567   */\n      0x00\n        /* \"#utility.yul\":22601:22603   */\n      0x20\n        /* \"#utility.yul\":22590:22599   */\n      dup3\n        /* \"#utility.yul\":22586:22604   */\n      add\n        /* \"#utility.yul\":22578:22604   */\n      swap1\n      pop\n        /* \"#utility.yul\":22650:22659   */\n      dup2\n        /* \"#utility.yul\":22644:22648   */\n      dup2\n        /* \"#utility.yul\":22640:22660   */\n      sub\n        /* \"#utility.yul\":22636:22637   */\n      0x00\n        /* \"#utility.yul\":22625:22634   */\n      dup4\n        /* \"#utility.yul\":22621:22638   */\n      add\n        /* \"#utility.yul\":22614:22661   */\n      mstore\n        /* \"#utility.yul\":22678:22809   */\n      tag_552\n        /* \"#utility.yul\":22804:22808   */\n      dup2\n        /* \"#utility.yul\":22678:22809   */\n      tag_355\n      jump\t// in\n    tag_552:\n        /* \"#utility.yul\":22670:22809   */\n      swap1\n      pop\n        /* \"#utility.yul\":22397:22816   */\n      swap2\n      swap1\n      pop\n      jump\t// out\n        /* \"#utility.yul\":22822:23042   */\n    tag_356:\n        /* \"#utility.yul\":22962:22996   */\n      0x45524332303a206275726e2066726f6d20746865207a65726f20616464726573\n        /* \"#utility.yul\":22958:22959   */\n      0x00\n        /* \"#utility.yul\":22950:22956   */\n      dup3\n        /* \"#utility.yul\":22946:22960   */\n      add\n        /* \"#utility.yul\":22939:22997   */\n      mstore\n        /* \"#utility.yul\":23031:23034   */\n      0x7300000000000000000000000000000000000000000000000000000000000000\n        /* \"#utility.yul\":23026:23028   */\n      0x20\n        /* \"#utility.yul\":23018:23024   */\n      dup3\n        /* \"#utility.yul\":23014:23029   */\n      add\n        /* \"#utility.yul\":23007:23035   */\n      mstore\n        /* \"#utility.yul\":22822:23042   */\n      pop\n      jump\t// out\n        /* \"#utility.yul\":23048:23414   */\n    tag_357:\n        /* \"#utility.yul\":23190:23193   */\n      0x00\n        /* \"#utility.yul\":23211:23278   */\n      tag_555\n        /* \"#utility.yul\":23275:23277   */\n      0x21\n        /* \"#utility.yul\":23270:23273   */\n      dup4\n        /* \"#utility.yul\":23211:23278   */\n      tag_301\n      jump\t// in\n    tag_555:\n        /* \"#utility.yul\":23204:23278   */\n      swap2\n      pop\n        /* \"#utility.yul\":23287:23380   */\n      tag_556\n        /* \"#utility.yul\":23376:23379   */\n      dup3\n        /* \"#utility.yul\":23287:23380   */\n      tag_356\n      jump\t// in\n    tag_556:\n        /* \"#utility.yul\":23405:23407   */\n      0x40\n        /* \"#utility.yul\":23400:23403   */\n      dup3\n        /* \"#utility.yul\":23396:23408   */\n      add\n        /* \"#utility.yul\":23389:23408   */\n      swap1\n      pop\n        /* \"#utility.yul\":23048:23414   */\n      swap2\n      swap1\n      pop\n      jump\t// out\n        /* \"#utility.yul\":23420:23839   */\n    tag_276:\n        /* \"#utility.yul\":23586:23590   */\n      0x00\n        /* \"#utility.yul\":23624:23626   */\n      0x20\n        /* \"#utility.yul\":23613:23622   */\n      dup3\n        /* \"#utility.yul\":23609:23627   */\n      add\n        /* \"#utility.yul\":23601:23627   */\n      swap1\n      pop\n        /* \"#utility.yul\":23673:23682   */\n      dup2\n        /* \"#utility.yul\":23667:23671   */\n      dup2\n        /* \"#utility.yul\":23663:23683   */\n      sub\n        /* \"#utility.yul\":23659:23660   */\n      0x00\n        /* \"#utility.yul\":23648:23657   */\n      dup4\n        /* \"#utility.yul\":23644:23661   */\n      add\n        /* \"#utility.yul\":23637:23684   */\n      mstore\n        /* \"#utility.yul\":23701:23832   */\n      tag_558\n        /* \"#utility.yul\":23827:23831   */\n      dup2\n        /* \"#utility.yul\":23701:23832   */\n      tag_357\n      jump\t// in\n    tag_558:\n        /* \"#utility.yul\":23693:23832   */\n      swap1\n      pop\n        /* \"#utility.yul\":23420:23839   */\n      swap2\n      swap1\n      pop\n      jump\t// out\n        /* \"#utility.yul\":23845:24066   */\n    tag_358:\n        /* \"#utility.yul\":23985:24019   */\n      0x45524332303a206275726e20616d6f756e7420657863656564732062616c616e\n        /* \"#utility.yul\":23981:23982   */\n      0x00\n        /* \"#utility.yul\":23973:23979   */\n      dup3\n        /* \"#utility.yul\":23969:23983   */\n      add\n        /* \"#utility.yul\":23962:24020   */\n      mstore\n        /* \"#utility.yul\":24054:24058   */\n      0x6365000000000000000000000000000000000000000000000000000000000000\n        /* \"#utility.yul\":24049:24051   */\n      0x20\n        /* \"#utility.yul\":24041:24047   */\n      dup3\n        /* \"#utility.yul\":24037:24052   */\n      add\n        /* \"#utility.yul\":24030:24059   */\n      mstore\n        /* \"#utility.yul\":23845:24066   */\n      pop\n      jump\t// out\n        /* \"#utility.yul\":24072:24438   */\n    tag_359:\n        /* \"#utility.yul\":24214:24217   */\n      0x00\n        /* \"#utility.yul\":24235:24302   */\n      tag_561\n        /* \"#utility.yul\":24299:24301   */\n      0x22\n        /* \"#utility.yul\":24294:24297   */\n      dup4\n        /* \"#utility.yul\":24235:24302   */\n      tag_301\n      jump\t// in\n    tag_561:\n        /* \"#utility.yul\":24228:24302   */\n      swap2\n      pop\n        /* \"#utility.yul\":24311:24404   */\n      tag_562\n        /* \"#utility.yul\":24400:24403   */\n      dup3\n        /* \"#utility.yul\":24311:24404   */\n      tag_358\n      jump\t// in\n    tag_562:\n        /* \"#utility.yul\":24429:24431   */\n      0x40\n        /* \"#utility.yul\":24424:24427   */\n      dup3\n        /* \"#utility.yul\":24420:24432   */\n      add\n        /* \"#utility.yul\":24413:24432   */\n      swap1\n      pop\n        /* \"#utility.yul\":24072:24438   */\n      swap2\n      swap1\n      pop\n      jump\t// out\n        /* \"#utility.yul\":24444:24863   */\n    tag_280:\n        /* \"#utility.yul\":24610:24614   */\n      0x00\n        /* \"#utility.yul\":24648:24650   */\n      0x20\n        /* \"#utility.yul\":24637:24646   */\n      dup3\n        /* \"#utility.yul\":24633:24651   */\n      add\n        /* \"#utility.yul\":24625:24651   */\n      swap1\n      pop\n        /* \"#utility.yul\":24697:24706   */\n      dup2\n        /* \"#utility.yul\":24691:24695   */\n      dup2\n        /* \"#utility.yul\":24687:24707   */\n      sub\n        /* \"#utility.yul\":24683:24684   */\n      0x00\n        /* \"#utility.yul\":24672:24681   */\n      dup4\n        /* \"#utility.yul\":24668:24685   */\n      add\n        /* \"#utility.yul\":24661:24708   */\n      mstore\n        /* \"#utility.yul\":24725:24856   */\n      tag_564\n        /* \"#utility.yul\":24851:24855   */\n      dup2\n        /* \"#utility.yul\":24725:24856   */\n      tag_359\n      jump\t// in\n    tag_564:\n        /* \"#utility.yul\":24717:24856   */\n      swap1\n      pop\n        /* \"#utility.yul\":24444:24863   */\n      swap2\n      swap1\n      pop\n      jump\t// out\n        /* \"#utility.yul\":24869:25051   */\n    tag_360:\n        /* \"#utility.yul\":25009:25043   */\n      0x4f776e61626c653a2063616c6c6572206973206e6f7420746865206f776e6572\n        /* \"#utility.yul\":25005:25006   */\n      0x00\n        /* \"#utility.yul\":24997:25003   */\n      dup3\n        /* \"#utility.yul\":24993:25007   */\n      add\n        /* \"#utility.yul\":24986:25044   */\n      mstore\n        /* \"#utility.yul\":24869:25051   */\n      pop\n      jump\t// out\n        /* \"#utility.yul\":25057:25423   */\n    tag_361:\n        /* \"#utility.yul\":25199:25202   */\n      0x00\n        /* \"#utility.yul\":25220:25287   */\n      tag_567\n        /* \"#utility.yul\":25284:25286   */\n      0x20\n        /* \"#utility.yul\":25279:25282   */\n      dup4\n        /* \"#utility.yul\":25220:25287   */\n      tag_301\n      jump\t// in\n    tag_567:\n        /* \"#utility.yul\":25213:25287   */\n      swap2\n      pop\n        /* \"#utility.yul\":25296:25389   */\n      tag_568\n        /* \"#utility.yul\":25385:25388   */\n      dup3\n        /* \"#utility.yul\":25296:25389   */\n      tag_360\n      jump\t// in\n    tag_568:\n        /* \"#utility.yul\":25414:25416   */\n      0x20\n        /* \"#utility.yul\":25409:25412   */\n      dup3\n        /* \"#utility.yul\":25405:25417   */\n      add\n        /* \"#utility.yul\":25398:25417   */\n      swap1\n      pop\n        /* \"#utility.yul\":25057:25423   */\n      swap2\n      swap1\n      pop\n      jump\t// out\n        /* \"#utility.yul\":25429:25848   */\n    tag_288:\n        /* \"#utility.yul\":25595:25599   */\n      0x00\n        /* \"#utility.yul\":25633:25635   */\n      0x20\n        /* \"#utility.yul\":25622:25631   */\n      dup3\n        /* \"#utility.yul\":25618:25636   */\n      add\n        /* \"#utility.yul\":25610:25636   */\n      swap1\n      pop\n        /* \"#utility.yul\":25682:25691   */\n      dup2\n        /* \"#utility.yul\":25676:25680   */\n      dup2\n        /* \"#utility.yul\":25672:25692   */\n      sub\n        /* \"#utility.yul\":25668:25669   */\n      0x00\n        /* \"#utility.yul\":25657:25666   */\n      dup4\n        /* \"#utility.yul\":25653:25670   */\n      add\n        /* \"#utility.yul\":25646:25693   */\n      mstore\n        /* \"#utility.yul\":25710:25841   */\n      tag_570\n        /* \"#utility.yul\":25836:25840   */\n      dup2\n        /* \"#utility.yul\":25710:25841   */\n      tag_361\n      jump\t// in\n    tag_570:\n        /* \"#utility.yul\":25702:25841   */\n      swap1\n      pop\n        /* \"#utility.yul\":25429:25848   */\n      swap2\n      swap1\n      pop\n      jump\t// out\n        /* \"#utility.yul\":25854:26035   */\n    tag_362:\n        /* \"#utility.yul\":25994:26027   */\n      0x45524332303a206d696e7420746f20746865207a65726f206164647265737300\n        /* \"#utility.yul\":25990:25991   */\n      0x00\n        /* \"#utility.yul\":25982:25988   */\n      dup3\n        /* \"#utility.yul\":25978:25992   */\n      add\n        /* \"#utility.yul\":25971:26028   */\n      mstore\n        /* \"#utility.yul\":25854:26035   */\n      pop\n      jump\t// out\n        /* \"#utility.yul\":26041:26407   */\n    tag_363:\n        /* \"#utility.yul\":26183:26186   */\n      0x00\n        /* \"#utility.yul\":26204:26271   */\n      tag_573\n        /* \"#utility.yul\":26268:26270   */\n      0x1f\n        /* \"#utility.yul\":26263:26266   */\n      dup4\n        /* \"#utility.yul\":26204:26271   */\n      tag_301\n      jump\t// in\n    tag_573:\n        /* \"#utility.yul\":26197:26271   */\n      swap2\n      pop\n        /* \"#utility.yul\":26280:26373   */\n      tag_574\n        /* \"#utility.yul\":26369:26372   */\n      dup3\n        /* \"#utility.yul\":26280:26373   */\n      tag_362\n      jump\t// in\n    tag_574:\n        /* \"#utility.yul\":26398:26400   */\n      0x20\n        /* \"#utility.yul\":26393:26396   */\n      dup3\n        /* \"#utility.yul\":26389:26401   */\n      add\n        /* \"#utility.yul\":26382:26401   */\n      swap1\n      pop\n        /* \"#utility.yul\":26041:26407   */\n      swap2\n      swap1\n      pop\n      jump\t// out\n        /* \"#utility.yul\":26413:26832   */\n    tag_292:\n        /* \"#utility.yul\":26579:26583   */\n      0x00\n        /* \"#utility.yul\":26617:26619   */\n      0x20\n        /* \"#utility.yul\":26606:26615   */\n      dup3\n        /* \"#utility.yul\":26602:26620   */\n      add\n        /* \"#utility.yul\":26594:26620   */\n      swap1\n      pop\n        /* \"#utility.yul\":26666:26675   */\n      dup2\n        /* \"#utility.yul\":26660:26664   */\n      dup2\n        /* \"#utility.yul\":26656:26676   */\n      sub\n        /* \"#utility.yul\":26652:26653   */\n      0x00\n        /* \"#utility.yul\":26641:26650   */\n      dup4\n        /* \"#utility.yul\":26637:26654   */\n      add\n        /* \"#utility.yul\":26630:26677   */\n      mstore\n        /* \"#utility.yul\":26694:26825   */\n      tag_576\n        /* \"#utility.yul\":26820:26824   */\n      dup2\n        /* \"#utility.yul\":26694:26825   */\n      tag_363\n      jump\t// in\n    tag_576:\n        /* \"#utility.yul\":26686:26825   */\n      swap1\n      pop\n        /* \"#utility.yul\":26413:26832   */\n      swap2\n      swap1\n      pop\n      jump\t// out\n\n    auxdata: 0xa2646970667358221220000ac58bbdf4588b63aac3d22a29cf011e21e16ac7205971019a13566a206aaf64736f6c634300081a0033\n}\n",
				"bytecode": {
					"linkReferences": {},
					"object": "608060405234801561000f575f80fd5b506040518060400160405280600581526020017f446567656e0000000000000000000000000000000000000000000000000000008152506040518060400160405280600381526020017f44474e0000000000000000000000000000000000000000000000000000000000815250816003908161008b9190610790565b50806004908161009b9190610790565b5050506100ba6100af61032860201b60201c565b61032f60201b60201c565b6100cd33620f42406103f260201b60201c565b606460065f8060098111156100e5576100e461085f565b5b60098111156100f7576100f661085f565b5b81526020019081526020015f208190555060c860065f600160098111156101215761012061085f565b5b60098111156101335761013261085f565b5b81526020019081526020015f2081905550609660065f6002600981111561015d5761015c61085f565b5b600981111561016f5761016e61085f565b5b81526020019081526020015f208190555060b460065f600360098111156101995761019861085f565b5b60098111156101ab576101aa61085f565b5b81526020019081526020015f2081905550608260065f600460098111156101d5576101d461085f565b5b60098111156101e7576101e661085f565b5b81526020019081526020015f208190555060d260065f600560098111156102115761021061085f565b5b60098111156102235761022261085f565b5b81526020019081526020015f208190555060aa60065f6006600981111561024d5761024c61085f565b5b600981111561025f5761025e61085f565b5b81526020019081526020015f208190555060a060065f600760098111156102895761028861085f565b5b600981111561029b5761029a61085f565b5b81526020019081526020015f2081905550605a60065f600860098111156102c5576102c461085f565b5b60098111156102d7576102d661085f565b5b81526020019081526020015f208190555060dc60065f600980811115610300576102ff61085f565b5b60098111156103125761031161085f565b5b81526020019081526020015f208190555061098c565b5f33905090565b5f60055f9054906101000a900473ffffffffffffffffffffffffffffffffffffffff1690508160055f6101000a81548173ffffffffffffffffffffffffffffffffffffffff021916908373ffffffffffffffffffffffffffffffffffffffff1602179055508173ffffffffffffffffffffffffffffffffffffffff168173ffffffffffffffffffffffffffffffffffffffff167f8be0079c531659141344cd1fd0a4f28419497f9722a3daafe3b4186f6b6457e060405160405180910390a35050565b5f73ffffffffffffffffffffffffffffffffffffffff168273ffffffffffffffffffffffffffffffffffffffff1603610460576040517f08c379a0000000000000000000000000000000000000000000000000000000008152600401610457906108e6565b60405180910390fd5b6104715f838361054c60201b60201c565b8060025f8282546104829190610931565b92505081905550805f808473ffffffffffffffffffffffffffffffffffffffff1673ffffffffffffffffffffffffffffffffffffffff1681526020019081526020015f205f82825401925050819055508173ffffffffffffffffffffffffffffffffffffffff165f73ffffffffffffffffffffffffffffffffffffffff167fddf252ad1be2c89b69c2b068fc378daa952ba7f163c4a11628f55a4df523b3ef8360405161052f9190610973565b60405180910390a36105485f838361055160201b60201c565b5050565b505050565b505050565b5f81519050919050565b7f4e487b71000000000000000000000000000000000000000000000000000000005f52604160045260245ffd5b7f4e487b71000000000000000000000000000000000000000000000000000000005f52602260045260245ffd5b5f60028204905060018216806105d157607f821691505b6020821081036105e4576105e361058d565b5b50919050565b5f819050815f5260205f209050919050565b5f6020601f8301049050919050565b5f82821b905092915050565b5f600883026106467fffffffffffffffffffffffffffffffffffffffffffffffffffffffffffffffff8261060b565b610650868361060b565b95508019841693508086168417925050509392505050565b5f819050919050565b5f819050919050565b5f61069461068f61068a84610668565b610671565b610668565b9050919050565b5f819050919050565b6106ad8361067a565b6106c16106b98261069b565b848454610617565b825550505050565b5f90565b6106d56106c9565b6106e08184846106a4565b505050565b5b81811015610703576106f85f826106cd565b6001810190506106e6565b5050565b601f82111561074857610719816105ea565b610722846105fc565b81016020851015610731578190505b61074561073d856105fc565b8301826106e5565b50505b505050565b5f82821c905092915050565b5f6107685f198460080261074d565b1980831691505092915050565b5f6107808383610759565b9150826002028217905092915050565b61079982610556565b67ffffffffffffffff8111156107b2576107b1610560565b5b6107bc82546105ba565b6107c7828285610707565b5f60209050601f8311600181146107f8575f84156107e6578287015190505b6107f08582610775565b865550610857565b601f198416610806866105ea565b5f5b8281101561082d57848901518255600182019150602085019450602081019050610808565b8683101561084a5784890151610846601f891682610759565b8355505b6001600288020188555050505b505050505050565b7f4e487b71000000000000000000000000000000000000000000000000000000005f52602160045260245ffd5b5f82825260208201905092915050565b7f45524332303a206d696e7420746f20746865207a65726f2061646472657373005f82015250565b5f6108d0601f8361088c565b91506108db8261089c565b602082019050919050565b5f6020820190508181035f8301526108fd816108c4565b9050919050565b7f4e487b71000000000000000000000000000000000000000000000000000000005f52601160045260245ffd5b5f61093b82610668565b915061094683610668565b925082820190508082111561095e5761095d610904565b5b92915050565b61096d81610668565b82525050565b5f6020820190506109865f830184610964565b92915050565b612399806109995f395ff3fe608060405234801561000f575f80fd5b5060043610610171575f3560e01c806354ef0753116100dc57806395d89b4111610095578063a9059cbb1161006f578063a9059cbb1461045b578063bec3fa171461048b578063dd62ed3e146104a7578063f2fde38b146104d757610171565b806395d89b41146103f1578063a457c2d71461040f578063a6e158f81461043f57610171565b806354ef0753146103315780636d1b229d1461036157806370a082311461037d578063715018a6146103ad57806379cc6790146103b75780638da5cb5b146103d357610171565b8063313ce5671161012e578063313ce5671461025f57806332271faf1461027d57806339509351146102995780633e8d40f9146102c957806340c10f19146102f957806342966c681461031557610171565b806306fdde0314610175578063095ea7b31461019357806312065fe0146101c357806318160ddd146101e157806323b872dd146101ff5780632d80d2561461022f575b5f80fd5b61017d6104f3565b60405161018a919061162c565b60405180910390f35b6101ad60048036038101906101a891906116dd565b610583565b6040516101ba9190611735565b60405180910390f35b6101cb6105a5565b6040516101d8919061175d565b60405180910390f35b6101e9610623565b6040516101f6919061175d565b60405180910390f35b61021960048036038101906102149190611776565b61062c565b6040516102269190611735565b60405180910390f35b610249600480360381019061024491906117c6565b61065a565b6040516102569190611864565b60405180910390f35b6102676106ac565b6040516102749190611898565b60405180910390f35b610297600480360381019061029291906118d4565b6106b0565b005b6102b360048036038101906102ae91906116dd565b610838565b6040516102c09190611735565b60405180910390f35b6102e360048036038101906102de91906117c6565b61086e565b6040516102f09190611864565b60405180910390f35b610313600480360381019061030e91906116dd565b61088b565b005b61032f600480360381019061032a91906118ff565b6108a1565b005b61034b600480360381019061034691906118d4565b6108b5565b604051610358919061175d565b60405180910390f35b61037b600480360381019061037691906118ff565b6108ca565b005b610397600480360381019061039291906117c6565b610922565b6040516103a4919061175d565b60405180910390f35b6103b5610967565b005b6103d160048036038101906103cc91906116dd565b61097a565b005b6103db61099a565b6040516103e89190611939565b60405180910390f35b6103f96109c2565b604051610406919061162c565b60405180910390f35b610429600480360381019061042491906116dd565b610a52565b6040516104369190611735565b60405180910390f35b610459600480360381019061045491906118ff565b610ac7565b005b610475600480360381019061047091906116dd565b610b1f565b6040516104829190611735565b60405180910390f35b6104a560048036038101906104a091906116dd565b610b41565b005b6104c160048036038101906104bc9190611952565b610b9b565b6040516104ce919061175d565b60405180910390f35b6104f160048036038101906104ec91906117c6565b610c1d565b005b606060038054610502906119bd565b80601f016020809104026020016040519081016040528092919081815260200182805461052e906119bd565b80156105795780601f1061055057610100808354040283529160200191610579565b820191905f5260205f20905b81548152906001019060200180831161055c57829003601f168201915b5050505050905090565b5f8061058d610c9f565b905061059a818585610ca6565b600191505092915050565b5f3073ffffffffffffffffffffffffffffffffffffffff166370a08231336040518263ffffffff1660e01b81526004016105df9190611939565b602060405180830381865afa1580156105fa573d5f803e3d5ffd5b505050506040513d601f19601f8201168201806040525081019061061e9190611a01565b905090565b5f600254905090565b5f80610636610c9f565b9050610643858285610e69565b61064e858585610ef4565b60019150509392505050565b5f60075f8373ffffffffffffffffffffffffffffffffffffffff1673ffffffffffffffffffffffffffffffffffffffff1681526020019081526020015f205f9054906101000a900460ff169050919050565b5f90565b5f60065f8360098111156106c7576106c66117f1565b5b60098111156106d9576106d86117f1565b5b81526020019081526020015f205490505f811161072b576040517f08c379a000000000000000000000000000000000000000000000000000000000815260040161072290611a76565b60405180910390fd5b8061073533610922565b1015610776576040517f08c379a000000000000000000000000000000000000000000000000000000000815260040161076d90611b04565b60405180910390fd5b6107803382611160565b8160075f3373ffffffffffffffffffffffffffffffffffffffff1673ffffffffffffffffffffffffffffffffffffffff1681526020019081526020015f205f6101000a81548160ff021916908360098111156107df576107de6117f1565b5b02179055503373ffffffffffffffffffffffffffffffffffffffff167f99ef01c28d0d4019f42daadbeadc50847417cd453d622e1918f62830fab3a8c2838360405161082c929190611b22565b60405180910390a25050565b5f80610842610c9f565b90506108638185856108548589610b9b565b61085e9190611b76565b610ca6565b600191505092915050565b6007602052805f5260405f205f915054906101000a900460ff1681565b610893611323565b61089d82826113a1565b5050565b6108b26108ac610c9f565b82611160565b50565b6006602052805f5260405f205f915090505481565b806108d433610922565b1015610915576040517f08c379a000000000000000000000000000000000000000000000000000000000815260040161090c90611c19565b60405180910390fd5b61091f3382611160565b50565b5f805f8373ffffffffffffffffffffffffffffffffffffffff1673ffffffffffffffffffffffffffffffffffffffff1681526020019081526020015f20549050919050565b61096f611323565b6109785f6114ef565b565b61098c82610986610c9f565b83610e69565b6109968282611160565b5050565b5f60055f9054906101000a900473ffffffffffffffffffffffffffffffffffffffff16905090565b6060600480546109d1906119bd565b80601f01602080910402602001604051908101604052809291908181526020018280546109fd906119bd565b8015610a485780601f10610a1f57610100808354040283529160200191610a48565b820191905f5260205f20905b815481529060010190602001808311610a2b57829003601f168201915b5050505050905090565b5f80610a5c610c9f565b90505f610a698286610b9b565b905083811015610aae576040517f08c379a0000000000000000000000000000000000000000000000000000000008152600401610aa590611ca7565b60405180910390fd5b610abb8286868403610ca6565b60019250505092915050565b80610ad133610922565b1015610b12576040517f08c379a0000000000000000000000000000000000000000000000000000000008152600401610b0990611d0f565b60405180910390fd5b610b1c3382611160565b50565b5f80610b29610c9f565b9050610b36818585610ef4565b600191505092915050565b80610b4b33610922565b1015610b8c576040517f08c379a0000000000000000000000000000000000000000000000000000000008152600401610b8390611d9d565b60405180910390fd5b610b97338383610ef4565b5050565b5f60015f8473ffffffffffffffffffffffffffffffffffffffff1673ffffffffffffffffffffffffffffffffffffffff1681526020019081526020015f205f8373ffffffffffffffffffffffffffffffffffffffff1673ffffffffffffffffffffffffffffffffffffffff1681526020019081526020015f2054905092915050565b610c25611323565b5f73ffffffffffffffffffffffffffffffffffffffff168173ffffffffffffffffffffffffffffffffffffffff1603610c93576040517f08c379a0000000000000000000000000000000000000000000000000000000008152600401610c8a90611e2b565b60405180910390fd5b610c9c816114ef565b50565b5f33905090565b5f73ffffffffffffffffffffffffffffffffffffffff168373ffffffffffffffffffffffffffffffffffffffff1603610d14576040517f08c379a0000000000000000000000000000000000000000000000000000000008152600401610d0b90611eb9565b60405180910390fd5b5f73ffffffffffffffffffffffffffffffffffffffff168273ffffffffffffffffffffffffffffffffffffffff1603610d82576040517f08c379a0000000000000000000000000000000000000000000000000000000008152600401610d7990611f47565b60405180910390fd5b8060015f8573ffffffffffffffffffffffffffffffffffffffff1673ffffffffffffffffffffffffffffffffffffffff1681526020019081526020015f205f8473ffffffffffffffffffffffffffffffffffffffff1673ffffffffffffffffffffffffffffffffffffffff1681526020019081526020015f20819055508173ffffffffffffffffffffffffffffffffffffffff168373ffffffffffffffffffffffffffffffffffffffff167f8c5be1e5ebec7d5bd14f71427d1e84f3dd0314c0f7b2291e5b200ac8c7c3b92583604051610e5c919061175d565b60405180910390a3505050565b5f610e748484610b9b565b90507fffffffffffffffffffffffffffffffffffffffffffffffffffffffffffffffff8114610eee5781811015610ee0576040517f08c379a0000000000000000000000000000000000000000000000000000000008152600401610ed790611faf565b60405180910390fd5b610eed8484848403610ca6565b5b50505050565b5f73ffffffffffffffffffffffffffffffffffffffff168373ffffffffffffffffffffffffffffffffffffffff1603610f62576040517f08c379a0000000000000000000000000000000000000000000000000000000008152600401610f599061203d565b60405180910390fd5b5f73ffffffffffffffffffffffffffffffffffffffff168273ffffffffffffffffffffffffffffffffffffffff1603610fd0576040517f08c379a0000000000000000000000000000000000000000000000000000000008152600401610fc7906120cb565b60405180910390fd5b610fdb8383836115b2565b5f805f8573ffffffffffffffffffffffffffffffffffffffff1673ffffffffffffffffffffffffffffffffffffffff1681526020019081526020015f205490508181101561105e576040517f08c379a000000000000000000000000000000000000000000000000000000000815260040161105590612159565b60405180910390fd5b8181035f808673ffffffffffffffffffffffffffffffffffffffff1673ffffffffffffffffffffffffffffffffffffffff1681526020019081526020015f2081905550815f808573ffffffffffffffffffffffffffffffffffffffff1673ffffffffffffffffffffffffffffffffffffffff1681526020019081526020015f205f82825401925050819055508273ffffffffffffffffffffffffffffffffffffffff168473ffffffffffffffffffffffffffffffffffffffff167fddf252ad1be2c89b69c2b068fc378daa952ba7f163c4a11628f55a4df523b3ef84604051611147919061175d565b60405180910390a361115a8484846115b7565b50505050565b5f73ffffffffffffffffffffffffffffffffffffffff168273ffffffffffffffffffffffffffffffffffffffff16036111ce576040517f08c379a00000000000000000000000000000000000000000000000000000000081526004016111c5906121e7565b60405180910390fd5b6111d9825f836115b2565b5f805f8473ffffffffffffffffffffffffffffffffffffffff1673ffffffffffffffffffffffffffffffffffffffff1681526020019081526020015f205490508181101561125c576040517f08c379a000000000000000000000000000000000000000000000000000000000815260040161125390612275565b60405180910390fd5b8181035f808573ffffffffffffffffffffffffffffffffffffffff1673ffffffffffffffffffffffffffffffffffffffff1681526020019081526020015f20819055508160025f82825403925050819055505f73ffffffffffffffffffffffffffffffffffffffff168373ffffffffffffffffffffffffffffffffffffffff167fddf252ad1be2c89b69c2b068fc378daa952ba7f163c4a11628f55a4df523b3ef8460405161130b919061175d565b60405180910390a361131e835f846115b7565b505050565b61132b610c9f565b73ffffffffffffffffffffffffffffffffffffffff1661134961099a565b73ffffffffffffffffffffffffffffffffffffffff161461139f576040517f08c379a0000000000000000000000000000000000000000000000000000000008152600401611396906122dd565b60405180910390fd5b565b5f73ffffffffffffffffffffffffffffffffffffffff168273ffffffffffffffffffffffffffffffffffffffff160361140f576040517f08c379a000000000000000000000000000000000000000000000000000000000815260040161140690612345565b60405180910390fd5b61141a5f83836115b2565b8060025f82825461142b9190611b76565b92505081905550805f808473ffffffffffffffffffffffffffffffffffffffff1673ffffffffffffffffffffffffffffffffffffffff1681526020019081526020015f205f82825401925050819055508173ffffffffffffffffffffffffffffffffffffffff165f73ffffffffffffffffffffffffffffffffffffffff167fddf252ad1be2c89b69c2b068fc378daa952ba7f163c4a11628f55a4df523b3ef836040516114d8919061175d565b60405180910390a36114eb5f83836115b7565b5050565b5f60055f9054906101000a900473ffffffffffffffffffffffffffffffffffffffff1690508160055f6101000a81548173ffffffffffffffffffffffffffffffffffffffff021916908373ffffffffffffffffffffffffffffffffffffffff1602179055508173ffffffffffffffffffffffffffffffffffffffff168173ffffffffffffffffffffffffffffffffffffffff167f8be0079c531659141344cd1fd0a4f28419497f9722a3daafe3b4186f6b6457e060405160405180910390a35050565b505050565b505050565b5f81519050919050565b5f82825260208201905092915050565b8281835e5f83830152505050565b5f601f19601f8301169050919050565b5f6115fe826115bc565b61160881856115c6565b93506116188185602086016115d6565b611621816115e4565b840191505092915050565b5f6020820190508181035f83015261164481846115f4565b905092915050565b5f80fd5b5f73ffffffffffffffffffffffffffffffffffffffff82169050919050565b5f61167982611650565b9050919050565b6116898161166f565b8114611693575f80fd5b50565b5f813590506116a481611680565b92915050565b5f819050919050565b6116bc816116aa565b81146116c6575f80fd5b50565b5f813590506116d7816116b3565b92915050565b5f80604083850312156116f3576116f261164c565b5b5f61170085828601611696565b9250506020611711858286016116c9565b9150509250929050565b5f8115159050919050565b61172f8161171b565b82525050565b5f6020820190506117485f830184611726565b92915050565b611757816116aa565b82525050565b5f6020820190506117705f83018461174e565b92915050565b5f805f6060848603121561178d5761178c61164c565b5b5f61179a86828701611696565b93505060206117ab86828701611696565b92505060406117bc868287016116c9565b9150509250925092565b5f602082840312156117db576117da61164c565b5b5f6117e884828501611696565b91505092915050565b7f4e487b71000000000000000000000000000000000000000000000000000000005f52602160045260245ffd5b600a811061182f5761182e6117f1565b5b50565b5f81905061183f8261181e565b919050565b5f61184e82611832565b9050919050565b61185e81611844565b82525050565b5f6020820190506118775f830184611855565b92915050565b5f60ff82169050919050565b6118928161187d565b82525050565b5f6020820190506118ab5f830184611889565b92915050565b600a81106118bd575f80fd5b50565b5f813590506118ce816118b1565b92915050565b5f602082840312156118e9576118e861164c565b5b5f6118f6848285016118c0565b91505092915050565b5f602082840312156119145761191361164c565b5b5f611921848285016116c9565b91505092915050565b6119338161166f565b82525050565b5f60208201905061194c5f83018461192a565b92915050565b5f80604083850312156119685761196761164c565b5b5f61197585828601611696565b925050602061198685828601611696565b9150509250929050565b7f4e487b71000000000000000000000000000000000000000000000000000000005f52602260045260245ffd5b5f60028204905060018216806119d457607f821691505b6020821081036119e7576119e6611990565b5b50919050565b5f815190506119fb816116b3565b92915050565b5f60208284031215611a1657611a1561164c565b5b5f611a23848285016119ed565b91505092915050565b7f4974656d20646f6573206e6f74206578697374000000000000000000000000005f82015250565b5f611a606013836115c6565b9150611a6b82611a2c565b602082019050919050565b5f6020820190508181035f830152611a8d81611a54565b9050919050565b7f496e73756666696369656e742062616c616e636520746f2072656465656d20745f8201527f686973206974656d000000000000000000000000000000000000000000000000602082015250565b5f611aee6028836115c6565b9150611af982611a94565b604082019050919050565b5f6020820190508181035f830152611b1b81611ae2565b9050919050565b5f604082019050611b355f830185611855565b611b42602083018461174e565b9392505050565b7f4e487b71000000000000000000000000000000000000000000000000000000005f52601160045260245ffd5b5f611b80826116aa565b9150611b8b836116aa565b9250828201905080821115611ba357611ba2611b49565b5b92915050565b7f496e73756666696369656e7420446567656e20546f6b656e7320746f206275725f8201527f6e2e20436865636b2062616c616e63652066697273742e000000000000000000602082015250565b5f611c036037836115c6565b9150611c0e82611ba9565b604082019050919050565b5f6020820190508181035f830152611c3081611bf7565b9050919050565b7f45524332303a2064656372656173656420616c6c6f77616e63652062656c6f775f8201527f207a65726f000000000000000000000000000000000000000000000000000000602082015250565b5f611c916025836115c6565b9150611c9c82611c37565b604082019050919050565b5f6020820190508181035f830152611cbe81611c85565b9050919050565b7f4e6f20746f6b656e7320746f2072656465656d2e0000000000000000000000005f82015250565b5f611cf96014836115c6565b9150611d0482611cc5565b602082019050919050565b5f6020820190508181035f830152611d2681611ced565b9050919050565b7f496e73756666696369656e7420446567656e20546f6b656e7320746f207472615f8201527f6e736665722e20436865636b2062616c616e63652066697273742e0000000000602082015250565b5f611d87603b836115c6565b9150611d9282611d2d565b604082019050919050565b5f6020820190508181035f830152611db481611d7b565b9050919050565b7f4f776e61626c653a206e6577206f776e657220697320746865207a65726f20615f8201527f6464726573730000000000000000000000000000000000000000000000000000602082015250565b5f611e156026836115c6565b9150611e2082611dbb565b604082019050919050565b5f6020820190508181035f830152611e4281611e09565b9050919050565b7f45524332303a20617070726f76652066726f6d20746865207a65726f206164645f8201527f7265737300000000000000000000000000000000000000000000000000000000602082015250565b5f611ea36024836115c6565b9150611eae82611e49565b604082019050919050565b5f6020820190508181035f830152611ed081611e97565b9050919050565b7f45524332303a20617070726f766520746f20746865207a65726f2061646472655f8201527f7373000000000000000000000000000000000000000000000000000000000000602082015250565b5f611f316022836115c6565b9150611f3c82611ed7565b604082019050919050565b5f6020820190508181035f830152611f5e81611f25565b9050919050565b7f45524332303a20696e73756666696369656e7420616c6c6f77616e63650000005f82015250565b5f611f99601d836115c6565b9150611fa482611f65565b602082019050919050565b5f6020820190508181035f830152611fc681611f8d565b9050919050565b7f45524332303a207472616e736665722066726f6d20746865207a65726f2061645f8201527f6472657373000000000000000000000000000000000000000000000000000000602082015250565b5f6120276025836115c6565b915061203282611fcd565b604082019050919050565b5f6020820190508181035f8301526120548161201b565b9050919050565b7f45524332303a207472616e7366657220746f20746865207a65726f20616464725f8201527f6573730000000000000000000000000000000000000000000000000000000000602082015250565b5f6120b56023836115c6565b91506120c08261205b565b604082019050919050565b5f6020820190508181035f8301526120e2816120a9565b9050919050565b7f45524332303a207472616e7366657220616d6f756e74206578636565647320625f8201527f616c616e63650000000000000000000000000000000000000000000000000000602082015250565b5f6121436026836115c6565b915061214e826120e9565b604082019050919050565b5f6020820190508181035f83015261217081612137565b9050919050565b7f45524332303a206275726e2066726f6d20746865207a65726f206164647265735f8201527f7300000000000000000000000000000000000000000000000000000000000000602082015250565b5f6121d16021836115c6565b91506121dc82612177565b604082019050919050565b5f6020820190508181035f8301526121fe816121c5565b9050919050565b7f45524332303a206275726e20616d6f756e7420657863656564732062616c616e5f8201527f6365000000000000000000000000000000000000000000000000000000000000602082015250565b5f61225f6022836115c6565b915061226a82612205565b604082019050919050565b5f6020820190508181035f83015261228c81612253565b9050919050565b7f4f776e61626c653a2063616c6c6572206973206e6f7420746865206f776e65725f82015250565b5f6122c76020836115c6565b91506122d282612293565b602082019050919050565b5f6020820190508181035f8301526122f4816122bb565b9050919050565b7f45524332303a206d696e7420746f20746865207a65726f2061646472657373005f82015250565b5f61232f601f836115c6565b915061233a826122fb565b602082019050919050565b5f6020820190508181035f83015261235c81612323565b905091905056fea2646970667358221220000ac58bbdf4588b63aac3d22a29cf011e21e16ac7205971019a13566a206aaf64736f6c634300081a0033",
					"opcodes": "PUSH1 0x80 PUSH1 0x40 MSTORE CALLVALUE DUP1 ISZERO PUSH2 0xF JUMPI PUSH0 DUP1 REVERT JUMPDEST POP PUSH1 0x40 MLOAD DUP1 PUSH1 0x40 ADD PUSH1 0x40 MSTORE DUP1 PUSH1 0x5 DUP2 MSTORE PUSH1 0x20 ADD PUSH32 0x446567656E000000000000000000000000000000000000000000000000000000 DUP2 MSTORE POP PUSH1 0x40 MLOAD DUP1 PUSH1 0x40 ADD PUSH1 0x40 MSTORE DUP1 PUSH1 0x3 DUP2 MSTORE PUSH1 0x20 ADD PUSH32 0x44474E0000000000000000000000000000000000000000000000000000000000 DUP2 MSTORE POP DUP2 PUSH1 0x3 SWAP1 DUP2 PUSH2 0x8B SWAP2 SWAP1 PUSH2 0x790 JUMP JUMPDEST POP DUP1 PUSH1 0x4 SWAP1 DUP2 PUSH2 0x9B SWAP2 SWAP1 PUSH2 0x790 JUMP JUMPDEST POP POP POP PUSH2 0xBA PUSH2 0xAF PUSH2 0x328 PUSH1 0x20 SHL PUSH1 0x20 SHR JUMP JUMPDEST PUSH2 0x32F PUSH1 0x20 SHL PUSH1 0x20 SHR JUMP JUMPDEST PUSH2 0xCD CALLER PUSH3 0xF4240 PUSH2 0x3F2 PUSH1 0x20 SHL PUSH1 0x20 SHR JUMP JUMPDEST PUSH1 0x64 PUSH1 0x6 PUSH0 DUP1 PUSH1 0x9 DUP2 GT ISZERO PUSH2 0xE5 JUMPI PUSH2 0xE4 PUSH2 0x85F JUMP JUMPDEST JUMPDEST PUSH1 0x9 DUP2 GT ISZERO PUSH2 0xF7 JUMPI PUSH2 0xF6 PUSH2 0x85F JUMP JUMPDEST JUMPDEST DUP2 MSTORE PUSH1 0x20 ADD SWAP1 DUP2 MSTORE PUSH1 0x20 ADD PUSH0 KECCAK256 DUP2 SWAP1 SSTORE POP PUSH1 0xC8 PUSH1 0x6 PUSH0 PUSH1 0x1 PUSH1 0x9 DUP2 GT ISZERO PUSH2 0x121 JUMPI PUSH2 0x120 PUSH2 0x85F JUMP JUMPDEST JUMPDEST PUSH1 0x9 DUP2 GT ISZERO PUSH2 0x133 JUMPI PUSH2 0x132 PUSH2 0x85F JUMP JUMPDEST JUMPDEST DUP2 MSTORE PUSH1 0x20 ADD SWAP1 DUP2 MSTORE PUSH1 0x20 ADD PUSH0 KECCAK256 DUP2 SWAP1 SSTORE POP PUSH1 0x96 PUSH1 0x6 PUSH0 PUSH1 0x2 PUSH1 0x9 DUP2 GT ISZERO PUSH2 0x15D JUMPI PUSH2 0x15C PUSH2 0x85F JUMP JUMPDEST JUMPDEST PUSH1 0x9 DUP2 GT ISZERO PUSH2 0x16F JUMPI PUSH2 0x16E PUSH2 0x85F JUMP JUMPDEST JUMPDEST DUP2 MSTORE PUSH1 0x20 ADD SWAP1 DUP2 MSTORE PUSH1 0x20 ADD PUSH0 KECCAK256 DUP2 SWAP1 SSTORE POP PUSH1 0xB4 PUSH1 0x6 PUSH0 PUSH1 0x3 PUSH1 0x9 DUP2 GT ISZERO PUSH2 0x199 JUMPI PUSH2 0x198 PUSH2 0x85F JUMP JUMPDEST JUMPDEST PUSH1 0x9 DUP2 GT ISZERO PUSH2 0x1AB JUMPI PUSH2 0x1AA PUSH2 0x85F JUMP JUMPDEST JUMPDEST DUP2 MSTORE PUSH1 0x20 ADD SWAP1 DUP2 MSTORE PUSH1 0x20 ADD PUSH0 KECCAK256 DUP2 SWAP1 SSTORE POP PUSH1 0x82 PUSH1 0x6 PUSH0 PUSH1 0x4 PUSH1 0x9 DUP2 GT ISZERO PUSH2 0x1D5 JUMPI PUSH2 0x1D4 PUSH2 0x85F JUMP JUMPDEST JUMPDEST PUSH1 0x9 DUP2 GT ISZERO PUSH2 0x1E7 JUMPI PUSH2 0x1E6 PUSH2 0x85F JUMP JUMPDEST JUMPDEST DUP2 MSTORE PUSH1 0x20 ADD SWAP1 DUP2 MSTORE PUSH1 0x20 ADD PUSH0 KECCAK256 DUP2 SWAP1 SSTORE POP PUSH1 0xD2 PUSH1 0x6 PUSH0 PUSH1 0x5 PUSH1 0x9 DUP2 GT ISZERO PUSH2 0x211 JUMPI PUSH2 0x210 PUSH2 0x85F JUMP JUMPDEST JUMPDEST PUSH1 0x9 DUP2 GT ISZERO PUSH2 0x223 JUMPI PUSH2 0x222 PUSH2 0x85F JUMP JUMPDEST JUMPDEST DUP2 MSTORE PUSH1 0x20 ADD SWAP1 DUP2 MSTORE PUSH1 0x20 ADD PUSH0 KECCAK256 DUP2 SWAP1 SSTORE POP PUSH1 0xAA PUSH1 0x6 PUSH0 PUSH1 0x6 PUSH1 0x9 DUP2 GT ISZERO PUSH2 0x24D JUMPI PUSH2 0x24C PUSH2 0x85F JUMP JUMPDEST JUMPDEST PUSH1 0x9 DUP2 GT ISZERO PUSH2 0x25F JUMPI PUSH2 0x25E PUSH2 0x85F JUMP JUMPDEST JUMPDEST DUP2 MSTORE PUSH1 0x20 ADD SWAP1 DUP2 MSTORE PUSH1 0x20 ADD PUSH0 KECCAK256 DUP2 SWAP1 SSTORE POP PUSH1 0xA0 PUSH1 0x6 PUSH0 PUSH1 0x7 PUSH1 0x9 DUP2 GT ISZERO PUSH2 0x289 JUMPI PUSH2 0x288 PUSH2 0x85F JUMP JUMPDEST JUMPDEST PUSH1 0x9 DUP2 GT ISZERO PUSH2 0x29B JUMPI PUSH2 0x29A PUSH2 0x85F JUMP JUMPDEST JUMPDEST DUP2 MSTORE PUSH1 0x20 ADD SWAP1 DUP2 MSTORE PUSH1 0x20 ADD PUSH0 KECCAK256 DUP2 SWAP1 SSTORE POP PUSH1 0x5A PUSH1 0x6 PUSH0 PUSH1 0x8 PUSH1 0x9 DUP2 GT ISZERO PUSH2 0x2C5 JUMPI PUSH2 0x2C4 PUSH2 0x85F JUMP JUMPDEST JUMPDEST PUSH1 0x9 DUP2 GT ISZERO PUSH2 0x2D7 JUMPI PUSH2 0x2D6 PUSH2 0x85F JUMP JUMPDEST JUMPDEST DUP2 MSTORE PUSH1 0x20 ADD SWAP1 DUP2 MSTORE PUSH1 0x20 ADD PUSH0 KECCAK256 DUP2 SWAP1 SSTORE POP PUSH1 0xDC PUSH1 0x6 PUSH0 PUSH1 0x9 DUP1 DUP2 GT ISZERO PUSH2 0x300 JUMPI PUSH2 0x2FF PUSH2 0x85F JUMP JUMPDEST JUMPDEST PUSH1 0x9 DUP2 GT ISZERO PUSH2 0x312 JUMPI PUSH2 0x311 PUSH2 0x85F JUMP JUMPDEST JUMPDEST DUP2 MSTORE PUSH1 0x20 ADD SWAP1 DUP2 MSTORE PUSH1 0x20 ADD PUSH0 KECCAK256 DUP2 SWAP1 SSTORE POP PUSH2 0x98C JUMP JUMPDEST PUSH0 CALLER SWAP1 POP SWAP1 JUMP JUMPDEST PUSH0 PUSH1 0x5 PUSH0 SWAP1 SLOAD SWAP1 PUSH2 0x100 EXP SWAP1 DIV PUSH20 0xFFFFFFFFFFFFFFFFFFFFFFFFFFFFFFFFFFFFFFFF AND SWAP1 POP DUP2 PUSH1 0x5 PUSH0 PUSH2 0x100 EXP DUP2 SLOAD DUP2 PUSH20 0xFFFFFFFFFFFFFFFFFFFFFFFFFFFFFFFFFFFFFFFF MUL NOT AND SWAP1 DUP4 PUSH20 0xFFFFFFFFFFFFFFFFFFFFFFFFFFFFFFFFFFFFFFFF AND MUL OR SWAP1 SSTORE POP DUP2 PUSH20 0xFFFFFFFFFFFFFFFFFFFFFFFFFFFFFFFFFFFFFFFF AND DUP2 PUSH20 0xFFFFFFFFFFFFFFFFFFFFFFFFFFFFFFFFFFFFFFFF AND PUSH32 0x8BE0079C531659141344CD1FD0A4F28419497F9722A3DAAFE3B4186F6B6457E0 PUSH1 0x40 MLOAD PUSH1 0x40 MLOAD DUP1 SWAP2 SUB SWAP1 LOG3 POP POP JUMP JUMPDEST PUSH0 PUSH20 0xFFFFFFFFFFFFFFFFFFFFFFFFFFFFFFFFFFFFFFFF AND DUP3 PUSH20 0xFFFFFFFFFFFFFFFFFFFFFFFFFFFFFFFFFFFFFFFF AND SUB PUSH2 0x460 JUMPI PUSH1 0x40 MLOAD PUSH32 0x8C379A000000000000000000000000000000000000000000000000000000000 DUP2 MSTORE PUSH1 0x4 ADD PUSH2 0x457 SWAP1 PUSH2 0x8E6 JUMP JUMPDEST PUSH1 0x40 MLOAD DUP1 SWAP2 SUB SWAP1 REVERT JUMPDEST PUSH2 0x471 PUSH0 DUP4 DUP4 PUSH2 0x54C PUSH1 0x20 SHL PUSH1 0x20 SHR JUMP JUMPDEST DUP1 PUSH1 0x2 PUSH0 DUP3 DUP3 SLOAD PUSH2 0x482 SWAP2 SWAP1 PUSH2 0x931 JUMP JUMPDEST SWAP3 POP POP DUP2 SWAP1 SSTORE POP DUP1 PUSH0 DUP1 DUP5 PUSH20 0xFFFFFFFFFFFFFFFFFFFFFFFFFFFFFFFFFFFFFFFF AND PUSH20 0xFFFFFFFFFFFFFFFFFFFFFFFFFFFFFFFFFFFFFFFF AND DUP2 MSTORE PUSH1 0x20 ADD SWAP1 DUP2 MSTORE PUSH1 0x20 ADD PUSH0 KECCAK256 PUSH0 DUP3 DUP3 SLOAD ADD SWAP3 POP POP DUP2 SWAP1 SSTORE POP DUP2 PUSH20 0xFFFFFFFFFFFFFFFFFFFFFFFFFFFFFFFFFFFFFFFF AND PUSH0 PUSH20 0xFFFFFFFFFFFFFFFFFFFFFFFFFFFFFFFFFFFFFFFF AND PUSH32 0xDDF252AD1BE2C89B69C2B068FC378DAA952BA7F163C4A11628F55A4DF523B3EF DUP4 PUSH1 0x40 MLOAD PUSH2 0x52F SWAP2 SWAP1 PUSH2 0x973 JUMP JUMPDEST PUSH1 0x40 MLOAD DUP1 SWAP2 SUB SWAP1 LOG3 PUSH2 0x548 PUSH0 DUP4 DUP4 PUSH2 0x551 PUSH1 0x20 SHL PUSH1 0x20 SHR JUMP JUMPDEST POP POP JUMP JUMPDEST POP POP POP JUMP JUMPDEST POP POP POP JUMP JUMPDEST PUSH0 DUP2 MLOAD SWAP1 POP SWAP2 SWAP1 POP JUMP JUMPDEST PUSH32 0x4E487B7100000000000000000000000000000000000000000000000000000000 PUSH0 MSTORE PUSH1 0x41 PUSH1 0x4 MSTORE PUSH1 0x24 PUSH0 REVERT JUMPDEST PUSH32 0x4E487B7100000000000000000000000000000000000000000000000000000000 PUSH0 MSTORE PUSH1 0x22 PUSH1 0x4 MSTORE PUSH1 0x24 PUSH0 REVERT JUMPDEST PUSH0 PUSH1 0x2 DUP3 DIV SWAP1 POP PUSH1 0x1 DUP3 AND DUP1 PUSH2 0x5D1 JUMPI PUSH1 0x7F DUP3 AND SWAP2 POP JUMPDEST PUSH1 0x20 DUP3 LT DUP2 SUB PUSH2 0x5E4 JUMPI PUSH2 0x5E3 PUSH2 0x58D JUMP JUMPDEST JUMPDEST POP SWAP2 SWAP1 POP JUMP JUMPDEST PUSH0 DUP2 SWAP1 POP DUP2 PUSH0 MSTORE PUSH1 0x20 PUSH0 KECCAK256 SWAP1 POP SWAP2 SWAP1 POP JUMP JUMPDEST PUSH0 PUSH1 0x20 PUSH1 0x1F DUP4 ADD DIV SWAP1 POP SWAP2 SWAP1 POP JUMP JUMPDEST PUSH0 DUP3 DUP3 SHL SWAP1 POP SWAP3 SWAP2 POP POP JUMP JUMPDEST PUSH0 PUSH1 0x8 DUP4 MUL PUSH2 0x646 PUSH32 0xFFFFFFFFFFFFFFFFFFFFFFFFFFFFFFFFFFFFFFFFFFFFFFFFFFFFFFFFFFFFFFFF DUP3 PUSH2 0x60B JUMP JUMPDEST PUSH2 0x650 DUP7 DUP4 PUSH2 0x60B JUMP JUMPDEST SWAP6 POP DUP1 NOT DUP5 AND SWAP4 POP DUP1 DUP7 AND DUP5 OR SWAP3 POP POP POP SWAP4 SWAP3 POP POP POP JUMP JUMPDEST PUSH0 DUP2 SWAP1 POP SWAP2 SWAP1 POP JUMP JUMPDEST PUSH0 DUP2 SWAP1 POP SWAP2 SWAP1 POP JUMP JUMPDEST PUSH0 PUSH2 0x694 PUSH2 0x68F PUSH2 0x68A DUP5 PUSH2 0x668 JUMP JUMPDEST PUSH2 0x671 JUMP JUMPDEST PUSH2 0x668 JUMP JUMPDEST SWAP1 POP SWAP2 SWAP1 POP JUMP JUMPDEST PUSH0 DUP2 SWAP1 POP SWAP2 SWAP1 POP JUMP JUMPDEST PUSH2 0x6AD DUP4 PUSH2 0x67A JUMP JUMPDEST PUSH2 0x6C1 PUSH2 0x6B9 DUP3 PUSH2 0x69B JUMP JUMPDEST DUP5 DUP5 SLOAD PUSH2 0x617 JUMP JUMPDEST DUP3 SSTORE POP POP POP POP JUMP JUMPDEST PUSH0 SWAP1 JUMP JUMPDEST PUSH2 0x6D5 PUSH2 0x6C9 JUMP JUMPDEST PUSH2 0x6E0 DUP2 DUP5 DUP5 PUSH2 0x6A4 JUMP JUMPDEST POP POP POP JUMP JUMPDEST JUMPDEST DUP2 DUP2 LT ISZERO PUSH2 0x703 JUMPI PUSH2 0x6F8 PUSH0 DUP3 PUSH2 0x6CD JUMP JUMPDEST PUSH1 0x1 DUP2 ADD SWAP1 POP PUSH2 0x6E6 JUMP JUMPDEST POP POP JUMP JUMPDEST PUSH1 0x1F DUP3 GT ISZERO PUSH2 0x748 JUMPI PUSH2 0x719 DUP2 PUSH2 0x5EA JUMP JUMPDEST PUSH2 0x722 DUP5 PUSH2 0x5FC JUMP JUMPDEST DUP2 ADD PUSH1 0x20 DUP6 LT ISZERO PUSH2 0x731 JUMPI DUP2 SWAP1 POP JUMPDEST PUSH2 0x745 PUSH2 0x73D DUP6 PUSH2 0x5FC JUMP JUMPDEST DUP4 ADD DUP3 PUSH2 0x6E5 JUMP JUMPDEST POP POP JUMPDEST POP POP POP JUMP JUMPDEST PUSH0 DUP3 DUP3 SHR SWAP1 POP SWAP3 SWAP2 POP POP JUMP JUMPDEST PUSH0 PUSH2 0x768 PUSH0 NOT DUP5 PUSH1 0x8 MUL PUSH2 0x74D JUMP JUMPDEST NOT DUP1 DUP4 AND SWAP2 POP POP SWAP3 SWAP2 POP POP JUMP JUMPDEST PUSH0 PUSH2 0x780 DUP4 DUP4 PUSH2 0x759 JUMP JUMPDEST SWAP2 POP DUP3 PUSH1 0x2 MUL DUP3 OR SWAP1 POP SWAP3 SWAP2 POP POP JUMP JUMPDEST PUSH2 0x799 DUP3 PUSH2 0x556 JUMP JUMPDEST PUSH8 0xFFFFFFFFFFFFFFFF DUP2 GT ISZERO PUSH2 0x7B2 JUMPI PUSH2 0x7B1 PUSH2 0x560 JUMP JUMPDEST JUMPDEST PUSH2 0x7BC DUP3 SLOAD PUSH2 0x5BA JUMP JUMPDEST PUSH2 0x7C7 DUP3 DUP3 DUP6 PUSH2 0x707 JUMP JUMPDEST PUSH0 PUSH1 0x20 SWAP1 POP PUSH1 0x1F DUP4 GT PUSH1 0x1 DUP2 EQ PUSH2 0x7F8 JUMPI PUSH0 DUP5 ISZERO PUSH2 0x7E6 JUMPI DUP3 DUP8 ADD MLOAD SWAP1 POP JUMPDEST PUSH2 0x7F0 DUP6 DUP3 PUSH2 0x775 JUMP JUMPDEST DUP7 SSTORE POP PUSH2 0x857 JUMP JUMPDEST PUSH1 0x1F NOT DUP5 AND PUSH2 0x806 DUP7 PUSH2 0x5EA JUMP JUMPDEST PUSH0 JUMPDEST DUP3 DUP2 LT ISZERO PUSH2 0x82D JUMPI DUP5 DUP10 ADD MLOAD DUP3 SSTORE PUSH1 0x1 DUP3 ADD SWAP2 POP PUSH1 0x20 DUP6 ADD SWAP5 POP PUSH1 0x20 DUP2 ADD SWAP1 POP PUSH2 0x808 JUMP JUMPDEST DUP7 DUP4 LT ISZERO PUSH2 0x84A JUMPI DUP5 DUP10 ADD MLOAD PUSH2 0x846 PUSH1 0x1F DUP10 AND DUP3 PUSH2 0x759 JUMP JUMPDEST DUP4 SSTORE POP JUMPDEST PUSH1 0x1 PUSH1 0x2 DUP9 MUL ADD DUP9 SSTORE POP POP POP JUMPDEST POP POP POP POP POP POP JUMP JUMPDEST PUSH32 0x4E487B7100000000000000000000000000000000000000000000000000000000 PUSH0 MSTORE PUSH1 0x21 PUSH1 0x4 MSTORE PUSH1 0x24 PUSH0 REVERT JUMPDEST PUSH0 DUP3 DUP3 MSTORE PUSH1 0x20 DUP3 ADD SWAP1 POP SWAP3 SWAP2 POP POP JUMP JUMPDEST PUSH32 0x45524332303A206D696E7420746F20746865207A65726F206164647265737300 PUSH0 DUP3 ADD MSTORE POP JUMP JUMPDEST PUSH0 PUSH2 0x8D0 PUSH1 0x1F DUP4 PUSH2 0x88C JUMP JUMPDEST SWAP2 POP PUSH2 0x8DB DUP3 PUSH2 0x89C JUMP JUMPDEST PUSH1 0x20 DUP3 ADD SWAP1 POP SWAP2 SWAP1 POP JUMP JUMPDEST PUSH0 PUSH1 0x20 DUP3 ADD SWAP1 POP DUP2 DUP2 SUB PUSH0 DUP4 ADD MSTORE PUSH2 0x8FD DUP2 PUSH2 0x8C4 JUMP JUMPDEST SWAP1 POP SWAP2 SWAP1 POP JUMP JUMPDEST PUSH32 0x4E487B7100000000000000000000000000000000000000000000000000000000 PUSH0 MSTORE PUSH1 0x11 PUSH1 0x4 MSTORE PUSH1 0x24 PUSH0 REVERT JUMPDEST PUSH0 PUSH2 0x93B DUP3 PUSH2 0x668 JUMP JUMPDEST SWAP2 POP PUSH2 0x946 DUP4 PUSH2 0x668 JUMP JUMPDEST SWAP3 POP DUP3 DUP3 ADD SWAP1 POP DUP1 DUP3 GT ISZERO PUSH2 0x95E JUMPI PUSH2 0x95D PUSH2 0x904 JUMP JUMPDEST JUMPDEST SWAP3 SWAP2 POP POP JUMP JUMPDEST PUSH2 0x96D DUP2 PUSH2 0x668 JUMP JUMPDEST DUP3 MSTORE POP POP JUMP JUMPDEST PUSH0 PUSH1 0x20 DUP3 ADD SWAP1 POP PUSH2 0x986 PUSH0 DUP4 ADD DUP5 PUSH2 0x964 JUMP JUMPDEST SWAP3 SWAP2 POP POP JUMP JUMPDEST PUSH2 0x2399 DUP1 PUSH2 0x999 PUSH0 CODECOPY PUSH0 RETURN INVALID PUSH1 0x80 PUSH1 0x40 MSTORE CALLVALUE DUP1 ISZERO PUSH2 0xF JUMPI PUSH0 DUP1 REVERT JUMPDEST POP PUSH1 0x4 CALLDATASIZE LT PUSH2 0x171 JUMPI PUSH0 CALLDATALOAD PUSH1 0xE0 SHR DUP1 PUSH4 0x54EF0753 GT PUSH2 0xDC JUMPI DUP1 PUSH4 0x95D89B41 GT PUSH2 0x95 JUMPI DUP1 PUSH4 0xA9059CBB GT PUSH2 0x6F JUMPI DUP1 PUSH4 0xA9059CBB EQ PUSH2 0x45B JUMPI DUP1 PUSH4 0xBEC3FA17 EQ PUSH2 0x48B JUMPI DUP1 PUSH4 0xDD62ED3E EQ PUSH2 0x4A7 JUMPI DUP1 PUSH4 0xF2FDE38B EQ PUSH2 0x4D7 JUMPI PUSH2 0x171 JUMP JUMPDEST DUP1 PUSH4 0x95D89B41 EQ PUSH2 0x3F1 JUMPI DUP1 PUSH4 0xA457C2D7 EQ PUSH2 0x40F JUMPI DUP1 PUSH4 0xA6E158F8 EQ PUSH2 0x43F JUMPI PUSH2 0x171 JUMP JUMPDEST DUP1 PUSH4 0x54EF0753 EQ PUSH2 0x331 JUMPI DUP1 PUSH4 0x6D1B229D EQ PUSH2 0x361 JUMPI DUP1 PUSH4 0x70A08231 EQ PUSH2 0x37D JUMPI DUP1 PUSH4 0x715018A6 EQ PUSH2 0x3AD JUMPI DUP1 PUSH4 0x79CC6790 EQ PUSH2 0x3B7 JUMPI DUP1 PUSH4 0x8DA5CB5B EQ PUSH2 0x3D3 JUMPI PUSH2 0x171 JUMP JUMPDEST DUP1 PUSH4 0x313CE567 GT PUSH2 0x12E JUMPI DUP1 PUSH4 0x313CE567 EQ PUSH2 0x25F JUMPI DUP1 PUSH4 0x32271FAF EQ PUSH2 0x27D JUMPI DUP1 PUSH4 0x39509351 EQ PUSH2 0x299 JUMPI DUP1 PUSH4 0x3E8D40F9 EQ PUSH2 0x2C9 JUMPI DUP1 PUSH4 0x40C10F19 EQ PUSH2 0x2F9 JUMPI DUP1 PUSH4 0x42966C68 EQ PUSH2 0x315 JUMPI PUSH2 0x171 JUMP JUMPDEST DUP1 PUSH4 0x6FDDE03 EQ PUSH2 0x175 JUMPI DUP1 PUSH4 0x95EA7B3 EQ PUSH2 0x193 JUMPI DUP1 PUSH4 0x12065FE0 EQ PUSH2 0x1C3 JUMPI DUP1 PUSH4 0x18160DDD EQ PUSH2 0x1E1 JUMPI DUP1 PUSH4 0x23B872DD EQ PUSH2 0x1FF JUMPI DUP1 PUSH4 0x2D80D256 EQ PUSH2 0x22F JUMPI JUMPDEST PUSH0 DUP1 REVERT JUMPDEST PUSH2 0x17D PUSH2 0x4F3 JUMP JUMPDEST PUSH1 0x40 MLOAD PUSH2 0x18A SWAP2 SWAP1 PUSH2 0x162C JUMP JUMPDEST PUSH1 0x40 MLOAD DUP1 SWAP2 SUB SWAP1 RETURN JUMPDEST PUSH2 0x1AD PUSH1 0x4 DUP1 CALLDATASIZE SUB DUP2 ADD SWAP1 PUSH2 0x1A8 SWAP2 SWAP1 PUSH2 0x16DD JUMP JUMPDEST PUSH2 0x583 JUMP JUMPDEST PUSH1 0x40 MLOAD PUSH2 0x1BA SWAP2 SWAP1 PUSH2 0x1735 JUMP JUMPDEST PUSH1 0x40 MLOAD DUP1 SWAP2 SUB SWAP1 RETURN JUMPDEST PUSH2 0x1CB PUSH2 0x5A5 JUMP JUMPDEST PUSH1 0x40 MLOAD PUSH2 0x1D8 SWAP2 SWAP1 PUSH2 0x175D JUMP JUMPDEST PUSH1 0x40 MLOAD DUP1 SWAP2 SUB SWAP1 RETURN JUMPDEST PUSH2 0x1E9 PUSH2 0x623 JUMP JUMPDEST PUSH1 0x40 MLOAD PUSH2 0x1F6 SWAP2 SWAP1 PUSH2 0x175D JUMP JUMPDEST PUSH1 0x40 MLOAD DUP1 SWAP2 SUB SWAP1 RETURN JUMPDEST PUSH2 0x219 PUSH1 0x4 DUP1 CALLDATASIZE SUB DUP2 ADD SWAP1 PUSH2 0x214 SWAP2 SWAP1 PUSH2 0x1776 JUMP JUMPDEST PUSH2 0x62C JUMP JUMPDEST PUSH1 0x40 MLOAD PUSH2 0x226 SWAP2 SWAP1 PUSH2 0x1735 JUMP JUMPDEST PUSH1 0x40 MLOAD DUP1 SWAP2 SUB SWAP1 RETURN JUMPDEST PUSH2 0x249 PUSH1 0x4 DUP1 CALLDATASIZE SUB DUP2 ADD SWAP1 PUSH2 0x244 SWAP2 SWAP1 PUSH2 0x17C6 JUMP JUMPDEST PUSH2 0x65A JUMP JUMPDEST PUSH1 0x40 MLOAD PUSH2 0x256 SWAP2 SWAP1 PUSH2 0x1864 JUMP JUMPDEST PUSH1 0x40 MLOAD DUP1 SWAP2 SUB SWAP1 RETURN JUMPDEST PUSH2 0x267 PUSH2 0x6AC JUMP JUMPDEST PUSH1 0x40 MLOAD PUSH2 0x274 SWAP2 SWAP1 PUSH2 0x1898 JUMP JUMPDEST PUSH1 0x40 MLOAD DUP1 SWAP2 SUB SWAP1 RETURN JUMPDEST PUSH2 0x297 PUSH1 0x4 DUP1 CALLDATASIZE SUB DUP2 ADD SWAP1 PUSH2 0x292 SWAP2 SWAP1 PUSH2 0x18D4 JUMP JUMPDEST PUSH2 0x6B0 JUMP JUMPDEST STOP JUMPDEST PUSH2 0x2B3 PUSH1 0x4 DUP1 CALLDATASIZE SUB DUP2 ADD SWAP1 PUSH2 0x2AE SWAP2 SWAP1 PUSH2 0x16DD JUMP JUMPDEST PUSH2 0x838 JUMP JUMPDEST PUSH1 0x40 MLOAD PUSH2 0x2C0 SWAP2 SWAP1 PUSH2 0x1735 JUMP JUMPDEST PUSH1 0x40 MLOAD DUP1 SWAP2 SUB SWAP1 RETURN JUMPDEST PUSH2 0x2E3 PUSH1 0x4 DUP1 CALLDATASIZE SUB DUP2 ADD SWAP1 PUSH2 0x2DE SWAP2 SWAP1 PUSH2 0x17C6 JUMP JUMPDEST PUSH2 0x86E JUMP JUMPDEST PUSH1 0x40 MLOAD PUSH2 0x2F0 SWAP2 SWAP1 PUSH2 0x1864 JUMP JUMPDEST PUSH1 0x40 MLOAD DUP1 SWAP2 SUB SWAP1 RETURN JUMPDEST PUSH2 0x313 PUSH1 0x4 DUP1 CALLDATASIZE SUB DUP2 ADD SWAP1 PUSH2 0x30E SWAP2 SWAP1 PUSH2 0x16DD JUMP JUMPDEST PUSH2 0x88B JUMP JUMPDEST STOP JUMPDEST PUSH2 0x32F PUSH1 0x4 DUP1 CALLDATASIZE SUB DUP2 ADD SWAP1 PUSH2 0x32A SWAP2 SWAP1 PUSH2 0x18FF JUMP JUMPDEST PUSH2 0x8A1 JUMP JUMPDEST STOP JUMPDEST PUSH2 0x34B PUSH1 0x4 DUP1 CALLDATASIZE SUB DUP2 ADD SWAP1 PUSH2 0x346 SWAP2 SWAP1 PUSH2 0x18D4 JUMP JUMPDEST PUSH2 0x8B5 JUMP JUMPDEST PUSH1 0x40 MLOAD PUSH2 0x358 SWAP2 SWAP1 PUSH2 0x175D JUMP JUMPDEST PUSH1 0x40 MLOAD DUP1 SWAP2 SUB SWAP1 RETURN JUMPDEST PUSH2 0x37B PUSH1 0x4 DUP1 CALLDATASIZE SUB DUP2 ADD SWAP1 PUSH2 0x376 SWAP2 SWAP1 PUSH2 0x18FF JUMP JUMPDEST PUSH2 0x8CA JUMP JUMPDEST STOP JUMPDEST PUSH2 0x397 PUSH1 0x4 DUP1 CALLDATASIZE SUB DUP2 ADD SWAP1 PUSH2 0x392 SWAP2 SWAP1 PUSH2 0x17C6 JUMP JUMPDEST PUSH2 0x922 JUMP JUMPDEST PUSH1 0x40 MLOAD PUSH2 0x3A4 SWAP2 SWAP1 PUSH2 0x175D JUMP JUMPDEST PUSH1 0x40 MLOAD DUP1 SWAP2 SUB SWAP1 RETURN JUMPDEST PUSH2 0x3B5 PUSH2 0x967 JUMP JUMPDEST STOP JUMPDEST PUSH2 0x3D1 PUSH1 0x4 DUP1 CALLDATASIZE SUB DUP2 ADD SWAP1 PUSH2 0x3CC SWAP2 SWAP1 PUSH2 0x16DD JUMP JUMPDEST PUSH2 0x97A JUMP JUMPDEST STOP JUMPDEST PUSH2 0x3DB PUSH2 0x99A JUMP JUMPDEST PUSH1 0x40 MLOAD PUSH2 0x3E8 SWAP2 SWAP1 PUSH2 0x1939 JUMP JUMPDEST PUSH1 0x40 MLOAD DUP1 SWAP2 SUB SWAP1 RETURN JUMPDEST PUSH2 0x3F9 PUSH2 0x9C2 JUMP JUMPDEST PUSH1 0x40 MLOAD PUSH2 0x406 SWAP2 SWAP1 PUSH2 0x162C JUMP JUMPDEST PUSH1 0x40 MLOAD DUP1 SWAP2 SUB SWAP1 RETURN JUMPDEST PUSH2 0x429 PUSH1 0x4 DUP1 CALLDATASIZE SUB DUP2 ADD SWAP1 PUSH2 0x424 SWAP2 SWAP1 PUSH2 0x16DD JUMP JUMPDEST PUSH2 0xA52 JUMP JUMPDEST PUSH1 0x40 MLOAD PUSH2 0x436 SWAP2 SWAP1 PUSH2 0x1735 JUMP JUMPDEST PUSH1 0x40 MLOAD DUP1 SWAP2 SUB SWAP1 RETURN JUMPDEST PUSH2 0x459 PUSH1 0x4 DUP1 CALLDATASIZE SUB DUP2 ADD SWAP1 PUSH2 0x454 SWAP2 SWAP1 PUSH2 0x18FF JUMP JUMPDEST PUSH2 0xAC7 JUMP JUMPDEST STOP JUMPDEST PUSH2 0x475 PUSH1 0x4 DUP1 CALLDATASIZE SUB DUP2 ADD SWAP1 PUSH2 0x470 SWAP2 SWAP1 PUSH2 0x16DD JUMP JUMPDEST PUSH2 0xB1F JUMP JUMPDEST PUSH1 0x40 MLOAD PUSH2 0x482 SWAP2 SWAP1 PUSH2 0x1735 JUMP JUMPDEST PUSH1 0x40 MLOAD DUP1 SWAP2 SUB SWAP1 RETURN JUMPDEST PUSH2 0x4A5 PUSH1 0x4 DUP1 CALLDATASIZE SUB DUP2 ADD SWAP1 PUSH2 0x4A0 SWAP2 SWAP1 PUSH2 0x16DD JUMP JUMPDEST PUSH2 0xB41 JUMP JUMPDEST STOP JUMPDEST PUSH2 0x4C1 PUSH1 0x4 DUP1 CALLDATASIZE SUB DUP2 ADD SWAP1 PUSH2 0x4BC SWAP2 SWAP1 PUSH2 0x1952 JUMP JUMPDEST PUSH2 0xB9B JUMP JUMPDEST PUSH1 0x40 MLOAD PUSH2 0x4CE SWAP2 SWAP1 PUSH2 0x175D JUMP JUMPDEST PUSH1 0x40 MLOAD DUP1 SWAP2 SUB SWAP1 RETURN JUMPDEST PUSH2 0x4F1 PUSH1 0x4 DUP1 CALLDATASIZE SUB DUP2 ADD SWAP1 PUSH2 0x4EC SWAP2 SWAP1 PUSH2 0x17C6 JUMP JUMPDEST PUSH2 0xC1D JUMP JUMPDEST STOP JUMPDEST PUSH1 0x60 PUSH1 0x3 DUP1 SLOAD PUSH2 0x502 SWAP1 PUSH2 0x19BD JUMP JUMPDEST DUP1 PUSH1 0x1F ADD PUSH1 0x20 DUP1 SWAP2 DIV MUL PUSH1 0x20 ADD PUSH1 0x40 MLOAD SWAP1 DUP2 ADD PUSH1 0x40 MSTORE DUP1 SWAP3 SWAP2 SWAP1 DUP2 DUP2 MSTORE PUSH1 0x20 ADD DUP3 DUP1 SLOAD PUSH2 0x52E SWAP1 PUSH2 0x19BD JUMP JUMPDEST DUP1 ISZERO PUSH2 0x579 JUMPI DUP1 PUSH1 0x1F LT PUSH2 0x550 JUMPI PUSH2 0x100 DUP1 DUP4 SLOAD DIV MUL DUP4 MSTORE SWAP2 PUSH1 0x20 ADD SWAP2 PUSH2 0x579 JUMP JUMPDEST DUP3 ADD SWAP2 SWAP1 PUSH0 MSTORE PUSH1 0x20 PUSH0 KECCAK256 SWAP1 JUMPDEST DUP2 SLOAD DUP2 MSTORE SWAP1 PUSH1 0x1 ADD SWAP1 PUSH1 0x20 ADD DUP1 DUP4 GT PUSH2 0x55C JUMPI DUP3 SWAP1 SUB PUSH1 0x1F AND DUP3 ADD SWAP2 JUMPDEST POP POP POP POP POP SWAP1 POP SWAP1 JUMP JUMPDEST PUSH0 DUP1 PUSH2 0x58D PUSH2 0xC9F JUMP JUMPDEST SWAP1 POP PUSH2 0x59A DUP2 DUP6 DUP6 PUSH2 0xCA6 JUMP JUMPDEST PUSH1 0x1 SWAP2 POP POP SWAP3 SWAP2 POP POP JUMP JUMPDEST PUSH0 ADDRESS PUSH20 0xFFFFFFFFFFFFFFFFFFFFFFFFFFFFFFFFFFFFFFFF AND PUSH4 0x70A08231 CALLER PUSH1 0x40 MLOAD DUP3 PUSH4 0xFFFFFFFF AND PUSH1 0xE0 SHL DUP2 MSTORE PUSH1 0x4 ADD PUSH2 0x5DF SWAP2 SWAP1 PUSH2 0x1939 JUMP JUMPDEST PUSH1 0x20 PUSH1 0x40 MLOAD DUP1 DUP4 SUB DUP2 DUP7 GAS STATICCALL ISZERO DUP1 ISZERO PUSH2 0x5FA JUMPI RETURNDATASIZE PUSH0 DUP1 RETURNDATACOPY RETURNDATASIZE PUSH0 REVERT JUMPDEST POP POP POP POP PUSH1 0x40 MLOAD RETURNDATASIZE PUSH1 0x1F NOT PUSH1 0x1F DUP3 ADD AND DUP3 ADD DUP1 PUSH1 0x40 MSTORE POP DUP2 ADD SWAP1 PUSH2 0x61E SWAP2 SWAP1 PUSH2 0x1A01 JUMP JUMPDEST SWAP1 POP SWAP1 JUMP JUMPDEST PUSH0 PUSH1 0x2 SLOAD SWAP1 POP SWAP1 JUMP JUMPDEST PUSH0 DUP1 PUSH2 0x636 PUSH2 0xC9F JUMP JUMPDEST SWAP1 POP PUSH2 0x643 DUP6 DUP3 DUP6 PUSH2 0xE69 JUMP JUMPDEST PUSH2 0x64E DUP6 DUP6 DUP6 PUSH2 0xEF4 JUMP JUMPDEST PUSH1 0x1 SWAP2 POP POP SWAP4 SWAP3 POP POP POP JUMP JUMPDEST PUSH0 PUSH1 0x7 PUSH0 DUP4 PUSH20 0xFFFFFFFFFFFFFFFFFFFFFFFFFFFFFFFFFFFFFFFF AND PUSH20 0xFFFFFFFFFFFFFFFFFFFFFFFFFFFFFFFFFFFFFFFF AND DUP2 MSTORE PUSH1 0x20 ADD SWAP1 DUP2 MSTORE PUSH1 0x20 ADD PUSH0 KECCAK256 PUSH0 SWAP1 SLOAD SWAP1 PUSH2 0x100 EXP SWAP1 DIV PUSH1 0xFF AND SWAP1 POP SWAP2 SWAP1 POP JUMP JUMPDEST PUSH0 SWAP1 JUMP JUMPDEST PUSH0 PUSH1 0x6 PUSH0 DUP4 PUSH1 0x9 DUP2 GT ISZERO PUSH2 0x6C7 JUMPI PUSH2 0x6C6 PUSH2 0x17F1 JUMP JUMPDEST JUMPDEST PUSH1 0x9 DUP2 GT ISZERO PUSH2 0x6D9 JUMPI PUSH2 0x6D8 PUSH2 0x17F1 JUMP JUMPDEST JUMPDEST DUP2 MSTORE PUSH1 0x20 ADD SWAP1 DUP2 MSTORE PUSH1 0x20 ADD PUSH0 KECCAK256 SLOAD SWAP1 POP PUSH0 DUP2 GT PUSH2 0x72B JUMPI PUSH1 0x40 MLOAD PUSH32 0x8C379A000000000000000000000000000000000000000000000000000000000 DUP2 MSTORE PUSH1 0x4 ADD PUSH2 0x722 SWAP1 PUSH2 0x1A76 JUMP JUMPDEST PUSH1 0x40 MLOAD DUP1 SWAP2 SUB SWAP1 REVERT JUMPDEST DUP1 PUSH2 0x735 CALLER PUSH2 0x922 JUMP JUMPDEST LT ISZERO PUSH2 0x776 JUMPI PUSH1 0x40 MLOAD PUSH32 0x8C379A000000000000000000000000000000000000000000000000000000000 DUP2 MSTORE PUSH1 0x4 ADD PUSH2 0x76D SWAP1 PUSH2 0x1B04 JUMP JUMPDEST PUSH1 0x40 MLOAD DUP1 SWAP2 SUB SWAP1 REVERT JUMPDEST PUSH2 0x780 CALLER DUP3 PUSH2 0x1160 JUMP JUMPDEST DUP2 PUSH1 0x7 PUSH0 CALLER PUSH20 0xFFFFFFFFFFFFFFFFFFFFFFFFFFFFFFFFFFFFFFFF AND PUSH20 0xFFFFFFFFFFFFFFFFFFFFFFFFFFFFFFFFFFFFFFFF AND DUP2 MSTORE PUSH1 0x20 ADD SWAP1 DUP2 MSTORE PUSH1 0x20 ADD PUSH0 KECCAK256 PUSH0 PUSH2 0x100 EXP DUP2 SLOAD DUP2 PUSH1 0xFF MUL NOT AND SWAP1 DUP4 PUSH1 0x9 DUP2 GT ISZERO PUSH2 0x7DF JUMPI PUSH2 0x7DE PUSH2 0x17F1 JUMP JUMPDEST JUMPDEST MUL OR SWAP1 SSTORE POP CALLER PUSH20 0xFFFFFFFFFFFFFFFFFFFFFFFFFFFFFFFFFFFFFFFF AND PUSH32 0x99EF01C28D0D4019F42DAADBEADC50847417CD453D622E1918F62830FAB3A8C2 DUP4 DUP4 PUSH1 0x40 MLOAD PUSH2 0x82C SWAP3 SWAP2 SWAP1 PUSH2 0x1B22 JUMP JUMPDEST PUSH1 0x40 MLOAD DUP1 SWAP2 SUB SWAP1 LOG2 POP POP JUMP JUMPDEST PUSH0 DUP1 PUSH2 0x842 PUSH2 0xC9F JUMP JUMPDEST SWAP1 POP PUSH2 0x863 DUP2 DUP6 DUP6 PUSH2 0x854 DUP6 DUP10 PUSH2 0xB9B JUMP JUMPDEST PUSH2 0x85E SWAP2 SWAP1 PUSH2 0x1B76 JUMP JUMPDEST PUSH2 0xCA6 JUMP JUMPDEST PUSH1 0x1 SWAP2 POP POP SWAP3 SWAP2 POP POP JUMP JUMPDEST PUSH1 0x7 PUSH1 0x20 MSTORE DUP1 PUSH0 MSTORE PUSH1 0x40 PUSH0 KECCAK256 PUSH0 SWAP2 POP SLOAD SWAP1 PUSH2 0x100 EXP SWAP1 DIV PUSH1 0xFF AND DUP2 JUMP JUMPDEST PUSH2 0x893 PUSH2 0x1323 JUMP JUMPDEST PUSH2 0x89D DUP3 DUP3 PUSH2 0x13A1 JUMP JUMPDEST POP POP JUMP JUMPDEST PUSH2 0x8B2 PUSH2 0x8AC PUSH2 0xC9F JUMP JUMPDEST DUP3 PUSH2 0x1160 JUMP JUMPDEST POP JUMP JUMPDEST PUSH1 0x6 PUSH1 0x20 MSTORE DUP1 PUSH0 MSTORE PUSH1 0x40 PUSH0 KECCAK256 PUSH0 SWAP2 POP SWAP1 POP SLOAD DUP2 JUMP JUMPDEST DUP1 PUSH2 0x8D4 CALLER PUSH2 0x922 JUMP JUMPDEST LT ISZERO PUSH2 0x915 JUMPI PUSH1 0x40 MLOAD PUSH32 0x8C379A000000000000000000000000000000000000000000000000000000000 DUP2 MSTORE PUSH1 0x4 ADD PUSH2 0x90C SWAP1 PUSH2 0x1C19 JUMP JUMPDEST PUSH1 0x40 MLOAD DUP1 SWAP2 SUB SWAP1 REVERT JUMPDEST PUSH2 0x91F CALLER DUP3 PUSH2 0x1160 JUMP JUMPDEST POP JUMP JUMPDEST PUSH0 DUP1 PUSH0 DUP4 PUSH20 0xFFFFFFFFFFFFFFFFFFFFFFFFFFFFFFFFFFFFFFFF AND PUSH20 0xFFFFFFFFFFFFFFFFFFFFFFFFFFFFFFFFFFFFFFFF AND DUP2 MSTORE PUSH1 0x20 ADD SWAP1 DUP2 MSTORE PUSH1 0x20 ADD PUSH0 KECCAK256 SLOAD SWAP1 POP SWAP2 SWAP1 POP JUMP JUMPDEST PUSH2 0x96F PUSH2 0x1323 JUMP JUMPDEST PUSH2 0x978 PUSH0 PUSH2 0x14EF JUMP JUMPDEST JUMP JUMPDEST PUSH2 0x98C DUP3 PUSH2 0x986 PUSH2 0xC9F JUMP JUMPDEST DUP4 PUSH2 0xE69 JUMP JUMPDEST PUSH2 0x996 DUP3 DUP3 PUSH2 0x1160 JUMP JUMPDEST POP POP JUMP JUMPDEST PUSH0 PUSH1 0x5 PUSH0 SWAP1 SLOAD SWAP1 PUSH2 0x100 EXP SWAP1 DIV PUSH20 0xFFFFFFFFFFFFFFFFFFFFFFFFFFFFFFFFFFFFFFFF AND SWAP1 POP SWAP1 JUMP JUMPDEST PUSH1 0x60 PUSH1 0x4 DUP1 SLOAD PUSH2 0x9D1 SWAP1 PUSH2 0x19BD JUMP JUMPDEST DUP1 PUSH1 0x1F ADD PUSH1 0x20 DUP1 SWAP2 DIV MUL PUSH1 0x20 ADD PUSH1 0x40 MLOAD SWAP1 DUP2 ADD PUSH1 0x40 MSTORE DUP1 SWAP3 SWAP2 SWAP1 DUP2 DUP2 MSTORE PUSH1 0x20 ADD DUP3 DUP1 SLOAD PUSH2 0x9FD SWAP1 PUSH2 0x19BD JUMP JUMPDEST DUP1 ISZERO PUSH2 0xA48 JUMPI DUP1 PUSH1 0x1F LT PUSH2 0xA1F JUMPI PUSH2 0x100 DUP1 DUP4 SLOAD DIV MUL DUP4 MSTORE SWAP2 PUSH1 0x20 ADD SWAP2 PUSH2 0xA48 JUMP JUMPDEST DUP3 ADD SWAP2 SWAP1 PUSH0 MSTORE PUSH1 0x20 PUSH0 KECCAK256 SWAP1 JUMPDEST DUP2 SLOAD DUP2 MSTORE SWAP1 PUSH1 0x1 ADD SWAP1 PUSH1 0x20 ADD DUP1 DUP4 GT PUSH2 0xA2B JUMPI DUP3 SWAP1 SUB PUSH1 0x1F AND DUP3 ADD SWAP2 JUMPDEST POP POP POP POP POP SWAP1 POP SWAP1 JUMP JUMPDEST PUSH0 DUP1 PUSH2 0xA5C PUSH2 0xC9F JUMP JUMPDEST SWAP1 POP PUSH0 PUSH2 0xA69 DUP3 DUP7 PUSH2 0xB9B JUMP JUMPDEST SWAP1 POP DUP4 DUP2 LT ISZERO PUSH2 0xAAE JUMPI PUSH1 0x40 MLOAD PUSH32 0x8C379A000000000000000000000000000000000000000000000000000000000 DUP2 MSTORE PUSH1 0x4 ADD PUSH2 0xAA5 SWAP1 PUSH2 0x1CA7 JUMP JUMPDEST PUSH1 0x40 MLOAD DUP1 SWAP2 SUB SWAP1 REVERT JUMPDEST PUSH2 0xABB DUP3 DUP7 DUP7 DUP5 SUB PUSH2 0xCA6 JUMP JUMPDEST PUSH1 0x1 SWAP3 POP POP POP SWAP3 SWAP2 POP POP JUMP JUMPDEST DUP1 PUSH2 0xAD1 CALLER PUSH2 0x922 JUMP JUMPDEST LT ISZERO PUSH2 0xB12 JUMPI PUSH1 0x40 MLOAD PUSH32 0x8C379A000000000000000000000000000000000000000000000000000000000 DUP2 MSTORE PUSH1 0x4 ADD PUSH2 0xB09 SWAP1 PUSH2 0x1D0F JUMP JUMPDEST PUSH1 0x40 MLOAD DUP1 SWAP2 SUB SWAP1 REVERT JUMPDEST PUSH2 0xB1C CALLER DUP3 PUSH2 0x1160 JUMP JUMPDEST POP JUMP JUMPDEST PUSH0 DUP1 PUSH2 0xB29 PUSH2 0xC9F JUMP JUMPDEST SWAP1 POP PUSH2 0xB36 DUP2 DUP6 DUP6 PUSH2 0xEF4 JUMP JUMPDEST PUSH1 0x1 SWAP2 POP POP SWAP3 SWAP2 POP POP JUMP JUMPDEST DUP1 PUSH2 0xB4B CALLER PUSH2 0x922 JUMP JUMPDEST LT ISZERO PUSH2 0xB8C JUMPI PUSH1 0x40 MLOAD PUSH32 0x8C379A000000000000000000000000000000000000000000000000000000000 DUP2 MSTORE PUSH1 0x4 ADD PUSH2 0xB83 SWAP1 PUSH2 0x1D9D JUMP JUMPDEST PUSH1 0x40 MLOAD DUP1 SWAP2 SUB SWAP1 REVERT JUMPDEST PUSH2 0xB97 CALLER DUP4 DUP4 PUSH2 0xEF4 JUMP JUMPDEST POP POP JUMP JUMPDEST PUSH0 PUSH1 0x1 PUSH0 DUP5 PUSH20 0xFFFFFFFFFFFFFFFFFFFFFFFFFFFFFFFFFFFFFFFF AND PUSH20 0xFFFFFFFFFFFFFFFFFFFFFFFFFFFFFFFFFFFFFFFF AND DUP2 MSTORE PUSH1 0x20 ADD SWAP1 DUP2 MSTORE PUSH1 0x20 ADD PUSH0 KECCAK256 PUSH0 DUP4 PUSH20 0xFFFFFFFFFFFFFFFFFFFFFFFFFFFFFFFFFFFFFFFF AND PUSH20 0xFFFFFFFFFFFFFFFFFFFFFFFFFFFFFFFFFFFFFFFF AND DUP2 MSTORE PUSH1 0x20 ADD SWAP1 DUP2 MSTORE PUSH1 0x20 ADD PUSH0 KECCAK256 SLOAD SWAP1 POP SWAP3 SWAP2 POP POP JUMP JUMPDEST PUSH2 0xC25 PUSH2 0x1323 JUMP JUMPDEST PUSH0 PUSH20 0xFFFFFFFFFFFFFFFFFFFFFFFFFFFFFFFFFFFFFFFF AND DUP2 PUSH20 0xFFFFFFFFFFFFFFFFFFFFFFFFFFFFFFFFFFFFFFFF AND SUB PUSH2 0xC93 JUMPI PUSH1 0x40 MLOAD PUSH32 0x8C379A000000000000000000000000000000000000000000000000000000000 DUP2 MSTORE PUSH1 0x4 ADD PUSH2 0xC8A SWAP1 PUSH2 0x1E2B JUMP JUMPDEST PUSH1 0x40 MLOAD DUP1 SWAP2 SUB SWAP1 REVERT JUMPDEST PUSH2 0xC9C DUP2 PUSH2 0x14EF JUMP JUMPDEST POP JUMP JUMPDEST PUSH0 CALLER SWAP1 POP SWAP1 JUMP JUMPDEST PUSH0 PUSH20 0xFFFFFFFFFFFFFFFFFFFFFFFFFFFFFFFFFFFFFFFF AND DUP4 PUSH20 0xFFFFFFFFFFFFFFFFFFFFFFFFFFFFFFFFFFFFFFFF AND SUB PUSH2 0xD14 JUMPI PUSH1 0x40 MLOAD PUSH32 0x8C379A000000000000000000000000000000000000000000000000000000000 DUP2 MSTORE PUSH1 0x4 ADD PUSH2 0xD0B SWAP1 PUSH2 0x1EB9 JUMP JUMPDEST PUSH1 0x40 MLOAD DUP1 SWAP2 SUB SWAP1 REVERT JUMPDEST PUSH0 PUSH20 0xFFFFFFFFFFFFFFFFFFFFFFFFFFFFFFFFFFFFFFFF AND DUP3 PUSH20 0xFFFFFFFFFFFFFFFFFFFFFFFFFFFFFFFFFFFFFFFF AND SUB PUSH2 0xD82 JUMPI PUSH1 0x40 MLOAD PUSH32 0x8C379A000000000000000000000000000000000000000000000000000000000 DUP2 MSTORE PUSH1 0x4 ADD PUSH2 0xD79 SWAP1 PUSH2 0x1F47 JUMP JUMPDEST PUSH1 0x40 MLOAD DUP1 SWAP2 SUB SWAP1 REVERT JUMPDEST DUP1 PUSH1 0x1 PUSH0 DUP6 PUSH20 0xFFFFFFFFFFFFFFFFFFFFFFFFFFFFFFFFFFFFFFFF AND PUSH20 0xFFFFFFFFFFFFFFFFFFFFFFFFFFFFFFFFFFFFFFFF AND DUP2 MSTORE PUSH1 0x20 ADD SWAP1 DUP2 MSTORE PUSH1 0x20 ADD PUSH0 KECCAK256 PUSH0 DUP5 PUSH20 0xFFFFFFFFFFFFFFFFFFFFFFFFFFFFFFFFFFFFFFFF AND PUSH20 0xFFFFFFFFFFFFFFFFFFFFFFFFFFFFFFFFFFFFFFFF AND DUP2 MSTORE PUSH1 0x20 ADD SWAP1 DUP2 MSTORE PUSH1 0x20 ADD PUSH0 KECCAK256 DUP2 SWAP1 SSTORE POP DUP2 PUSH20 0xFFFFFFFFFFFFFFFFFFFFFFFFFFFFFFFFFFFFFFFF AND DUP4 PUSH20 0xFFFFFFFFFFFFFFFFFFFFFFFFFFFFFFFFFFFFFFFF AND PUSH32 0x8C5BE1E5EBEC7D5BD14F71427D1E84F3DD0314C0F7B2291E5B200AC8C7C3B925 DUP4 PUSH1 0x40 MLOAD PUSH2 0xE5C SWAP2 SWAP1 PUSH2 0x175D JUMP JUMPDEST PUSH1 0x40 MLOAD DUP1 SWAP2 SUB SWAP1 LOG3 POP POP POP JUMP JUMPDEST PUSH0 PUSH2 0xE74 DUP5 DUP5 PUSH2 0xB9B JUMP JUMPDEST SWAP1 POP PUSH32 0xFFFFFFFFFFFFFFFFFFFFFFFFFFFFFFFFFFFFFFFFFFFFFFFFFFFFFFFFFFFFFFFF DUP2 EQ PUSH2 0xEEE JUMPI DUP2 DUP2 LT ISZERO PUSH2 0xEE0 JUMPI PUSH1 0x40 MLOAD PUSH32 0x8C379A000000000000000000000000000000000000000000000000000000000 DUP2 MSTORE PUSH1 0x4 ADD PUSH2 0xED7 SWAP1 PUSH2 0x1FAF JUMP JUMPDEST PUSH1 0x40 MLOAD DUP1 SWAP2 SUB SWAP1 REVERT JUMPDEST PUSH2 0xEED DUP5 DUP5 DUP5 DUP5 SUB PUSH2 0xCA6 JUMP JUMPDEST JUMPDEST POP POP POP POP JUMP JUMPDEST PUSH0 PUSH20 0xFFFFFFFFFFFFFFFFFFFFFFFFFFFFFFFFFFFFFFFF AND DUP4 PUSH20 0xFFFFFFFFFFFFFFFFFFFFFFFFFFFFFFFFFFFFFFFF AND SUB PUSH2 0xF62 JUMPI PUSH1 0x40 MLOAD PUSH32 0x8C379A000000000000000000000000000000000000000000000000000000000 DUP2 MSTORE PUSH1 0x4 ADD PUSH2 0xF59 SWAP1 PUSH2 0x203D JUMP JUMPDEST PUSH1 0x40 MLOAD DUP1 SWAP2 SUB SWAP1 REVERT JUMPDEST PUSH0 PUSH20 0xFFFFFFFFFFFFFFFFFFFFFFFFFFFFFFFFFFFFFFFF AND DUP3 PUSH20 0xFFFFFFFFFFFFFFFFFFFFFFFFFFFFFFFFFFFFFFFF AND SUB PUSH2 0xFD0 JUMPI PUSH1 0x40 MLOAD PUSH32 0x8C379A000000000000000000000000000000000000000000000000000000000 DUP2 MSTORE PUSH1 0x4 ADD PUSH2 0xFC7 SWAP1 PUSH2 0x20CB JUMP JUMPDEST PUSH1 0x40 MLOAD DUP1 SWAP2 SUB SWAP1 REVERT JUMPDEST PUSH2 0xFDB DUP4 DUP4 DUP4 PUSH2 0x15B2 JUMP JUMPDEST PUSH0 DUP1 PUSH0 DUP6 PUSH20 0xFFFFFFFFFFFFFFFFFFFFFFFFFFFFFFFFFFFFFFFF AND PUSH20 0xFFFFFFFFFFFFFFFFFFFFFFFFFFFFFFFFFFFFFFFF AND DUP2 MSTORE PUSH1 0x20 ADD SWAP1 DUP2 MSTORE PUSH1 0x20 ADD PUSH0 KECCAK256 SLOAD SWAP1 POP DUP2 DUP2 LT ISZERO PUSH2 0x105E JUMPI PUSH1 0x40 MLOAD PUSH32 0x8C379A000000000000000000000000000000000000000000000000000000000 DUP2 MSTORE PUSH1 0x4 ADD PUSH2 0x1055 SWAP1 PUSH2 0x2159 JUMP JUMPDEST PUSH1 0x40 MLOAD DUP1 SWAP2 SUB SWAP1 REVERT JUMPDEST DUP2 DUP2 SUB PUSH0 DUP1 DUP7 PUSH20 0xFFFFFFFFFFFFFFFFFFFFFFFFFFFFFFFFFFFFFFFF AND PUSH20 0xFFFFFFFFFFFFFFFFFFFFFFFFFFFFFFFFFFFFFFFF AND DUP2 MSTORE PUSH1 0x20 ADD SWAP1 DUP2 MSTORE PUSH1 0x20 ADD PUSH0 KECCAK256 DUP2 SWAP1 SSTORE POP DUP2 PUSH0 DUP1 DUP6 PUSH20 0xFFFFFFFFFFFFFFFFFFFFFFFFFFFFFFFFFFFFFFFF AND PUSH20 0xFFFFFFFFFFFFFFFFFFFFFFFFFFFFFFFFFFFFFFFF AND DUP2 MSTORE PUSH1 0x20 ADD SWAP1 DUP2 MSTORE PUSH1 0x20 ADD PUSH0 KECCAK256 PUSH0 DUP3 DUP3 SLOAD ADD SWAP3 POP POP DUP2 SWAP1 SSTORE POP DUP3 PUSH20 0xFFFFFFFFFFFFFFFFFFFFFFFFFFFFFFFFFFFFFFFF AND DUP5 PUSH20 0xFFFFFFFFFFFFFFFFFFFFFFFFFFFFFFFFFFFFFFFF AND PUSH32 0xDDF252AD1BE2C89B69C2B068FC378DAA952BA7F163C4A11628F55A4DF523B3EF DUP5 PUSH1 0x40 MLOAD PUSH2 0x1147 SWAP2 SWAP1 PUSH2 0x175D JUMP JUMPDEST PUSH1 0x40 MLOAD DUP1 SWAP2 SUB SWAP1 LOG3 PUSH2 0x115A DUP5 DUP5 DUP5 PUSH2 0x15B7 JUMP JUMPDEST POP POP POP POP JUMP JUMPDEST PUSH0 PUSH20 0xFFFFFFFFFFFFFFFFFFFFFFFFFFFFFFFFFFFFFFFF AND DUP3 PUSH20 0xFFFFFFFFFFFFFFFFFFFFFFFFFFFFFFFFFFFFFFFF AND SUB PUSH2 0x11CE JUMPI PUSH1 0x40 MLOAD PUSH32 0x8C379A000000000000000000000000000000000000000000000000000000000 DUP2 MSTORE PUSH1 0x4 ADD PUSH2 0x11C5 SWAP1 PUSH2 0x21E7 JUMP JUMPDEST PUSH1 0x40 MLOAD DUP1 SWAP2 SUB SWAP1 REVERT JUMPDEST PUSH2 0x11D9 DUP3 PUSH0 DUP4 PUSH2 0x15B2 JUMP JUMPDEST PUSH0 DUP1 PUSH0 DUP5 PUSH20 0xFFFFFFFFFFFFFFFFFFFFFFFFFFFFFFFFFFFFFFFF AND PUSH20 0xFFFFFFFFFFFFFFFFFFFFFFFFFFFFFFFFFFFFFFFF AND DUP2 MSTORE PUSH1 0x20 ADD SWAP1 DUP2 MSTORE PUSH1 0x20 ADD PUSH0 KECCAK256 SLOAD SWAP1 POP DUP2 DUP2 LT ISZERO PUSH2 0x125C JUMPI PUSH1 0x40 MLOAD PUSH32 0x8C379A000000000000000000000000000000000000000000000000000000000 DUP2 MSTORE PUSH1 0x4 ADD PUSH2 0x1253 SWAP1 PUSH2 0x2275 JUMP JUMPDEST PUSH1 0x40 MLOAD DUP1 SWAP2 SUB SWAP1 REVERT JUMPDEST DUP2 DUP2 SUB PUSH0 DUP1 DUP6 PUSH20 0xFFFFFFFFFFFFFFFFFFFFFFFFFFFFFFFFFFFFFFFF AND PUSH20 0xFFFFFFFFFFFFFFFFFFFFFFFFFFFFFFFFFFFFFFFF AND DUP2 MSTORE PUSH1 0x20 ADD SWAP1 DUP2 MSTORE PUSH1 0x20 ADD PUSH0 KECCAK256 DUP2 SWAP1 SSTORE POP DUP2 PUSH1 0x2 PUSH0 DUP3 DUP3 SLOAD SUB SWAP3 POP POP DUP2 SWAP1 SSTORE POP PUSH0 PUSH20 0xFFFFFFFFFFFFFFFFFFFFFFFFFFFFFFFFFFFFFFFF AND DUP4 PUSH20 0xFFFFFFFFFFFFFFFFFFFFFFFFFFFFFFFFFFFFFFFF AND PUSH32 0xDDF252AD1BE2C89B69C2B068FC378DAA952BA7F163C4A11628F55A4DF523B3EF DUP5 PUSH1 0x40 MLOAD PUSH2 0x130B SWAP2 SWAP1 PUSH2 0x175D JUMP JUMPDEST PUSH1 0x40 MLOAD DUP1 SWAP2 SUB SWAP1 LOG3 PUSH2 0x131E DUP4 PUSH0 DUP5 PUSH2 0x15B7 JUMP JUMPDEST POP POP POP JUMP JUMPDEST PUSH2 0x132B PUSH2 0xC9F JUMP JUMPDEST PUSH20 0xFFFFFFFFFFFFFFFFFFFFFFFFFFFFFFFFFFFFFFFF AND PUSH2 0x1349 PUSH2 0x99A JUMP JUMPDEST PUSH20 0xFFFFFFFFFFFFFFFFFFFFFFFFFFFFFFFFFFFFFFFF AND EQ PUSH2 0x139F JUMPI PUSH1 0x40 MLOAD PUSH32 0x8C379A000000000000000000000000000000000000000000000000000000000 DUP2 MSTORE PUSH1 0x4 ADD PUSH2 0x1396 SWAP1 PUSH2 0x22DD JUMP JUMPDEST PUSH1 0x40 MLOAD DUP1 SWAP2 SUB SWAP1 REVERT JUMPDEST JUMP JUMPDEST PUSH0 PUSH20 0xFFFFFFFFFFFFFFFFFFFFFFFFFFFFFFFFFFFFFFFF AND DUP3 PUSH20 0xFFFFFFFFFFFFFFFFFFFFFFFFFFFFFFFFFFFFFFFF AND SUB PUSH2 0x140F JUMPI PUSH1 0x40 MLOAD PUSH32 0x8C379A000000000000000000000000000000000000000000000000000000000 DUP2 MSTORE PUSH1 0x4 ADD PUSH2 0x1406 SWAP1 PUSH2 0x2345 JUMP JUMPDEST PUSH1 0x40 MLOAD DUP1 SWAP2 SUB SWAP1 REVERT JUMPDEST PUSH2 0x141A PUSH0 DUP4 DUP4 PUSH2 0x15B2 JUMP JUMPDEST DUP1 PUSH1 0x2 PUSH0 DUP3 DUP3 SLOAD PUSH2 0x142B SWAP2 SWAP1 PUSH2 0x1B76 JUMP JUMPDEST SWAP3 POP POP DUP2 SWAP1 SSTORE POP DUP1 PUSH0 DUP1 DUP5 PUSH20 0xFFFFFFFFFFFFFFFFFFFFFFFFFFFFFFFFFFFFFFFF AND PUSH20 0xFFFFFFFFFFFFFFFFFFFFFFFFFFFFFFFFFFFFFFFF AND DUP2 MSTORE PUSH1 0x20 ADD SWAP1 DUP2 MSTORE PUSH1 0x20 ADD PUSH0 KECCAK256 PUSH0 DUP3 DUP3 SLOAD ADD SWAP3 POP POP DUP2 SWAP1 SSTORE POP DUP2 PUSH20 0xFFFFFFFFFFFFFFFFFFFFFFFFFFFFFFFFFFFFFFFF AND PUSH0 PUSH20 0xFFFFFFFFFFFFFFFFFFFFFFFFFFFFFFFFFFFFFFFF AND PUSH32 0xDDF252AD1BE2C89B69C2B068FC378DAA952BA7F163C4A11628F55A4DF523B3EF DUP4 PUSH1 0x40 MLOAD PUSH2 0x14D8 SWAP2 SWAP1 PUSH2 0x175D JUMP JUMPDEST PUSH1 0x40 MLOAD DUP1 SWAP2 SUB SWAP1 LOG3 PUSH2 0x14EB PUSH0 DUP4 DUP4 PUSH2 0x15B7 JUMP JUMPDEST POP POP JUMP JUMPDEST PUSH0 PUSH1 0x5 PUSH0 SWAP1 SLOAD SWAP1 PUSH2 0x100 EXP SWAP1 DIV PUSH20 0xFFFFFFFFFFFFFFFFFFFFFFFFFFFFFFFFFFFFFFFF AND SWAP1 POP DUP2 PUSH1 0x5 PUSH0 PUSH2 0x100 EXP DUP2 SLOAD DUP2 PUSH20 0xFFFFFFFFFFFFFFFFFFFFFFFFFFFFFFFFFFFFFFFF MUL NOT AND SWAP1 DUP4 PUSH20 0xFFFFFFFFFFFFFFFFFFFFFFFFFFFFFFFFFFFFFFFF AND MUL OR SWAP1 SSTORE POP DUP2 PUSH20 0xFFFFFFFFFFFFFFFFFFFFFFFFFFFFFFFFFFFFFFFF AND DUP2 PUSH20 0xFFFFFFFFFFFFFFFFFFFFFFFFFFFFFFFFFFFFFFFF AND PUSH32 0x8BE0079C531659141344CD1FD0A4F28419497F9722A3DAAFE3B4186F6B6457E0 PUSH1 0x40 MLOAD PUSH1 0x40 MLOAD DUP1 SWAP2 SUB SWAP1 LOG3 POP POP JUMP JUMPDEST POP POP POP JUMP JUMPDEST POP POP POP JUMP JUMPDEST PUSH0 DUP2 MLOAD SWAP1 POP SWAP2 SWAP1 POP JUMP JUMPDEST PUSH0 DUP3 DUP3 MSTORE PUSH1 0x20 DUP3 ADD SWAP1 POP SWAP3 SWAP2 POP POP JUMP JUMPDEST DUP3 DUP2 DUP4 MCOPY PUSH0 DUP4 DUP4 ADD MSTORE POP POP POP JUMP JUMPDEST PUSH0 PUSH1 0x1F NOT PUSH1 0x1F DUP4 ADD AND SWAP1 POP SWAP2 SWAP1 POP JUMP JUMPDEST PUSH0 PUSH2 0x15FE DUP3 PUSH2 0x15BC JUMP JUMPDEST PUSH2 0x1608 DUP2 DUP6 PUSH2 0x15C6 JUMP JUMPDEST SWAP4 POP PUSH2 0x1618 DUP2 DUP6 PUSH1 0x20 DUP7 ADD PUSH2 0x15D6 JUMP JUMPDEST PUSH2 0x1621 DUP2 PUSH2 0x15E4 JUMP JUMPDEST DUP5 ADD SWAP2 POP POP SWAP3 SWAP2 POP POP JUMP JUMPDEST PUSH0 PUSH1 0x20 DUP3 ADD SWAP1 POP DUP2 DUP2 SUB PUSH0 DUP4 ADD MSTORE PUSH2 0x1644 DUP2 DUP5 PUSH2 0x15F4 JUMP JUMPDEST SWAP1 POP SWAP3 SWAP2 POP POP JUMP JUMPDEST PUSH0 DUP1 REVERT JUMPDEST PUSH0 PUSH20 0xFFFFFFFFFFFFFFFFFFFFFFFFFFFFFFFFFFFFFFFF DUP3 AND SWAP1 POP SWAP2 SWAP1 POP JUMP JUMPDEST PUSH0 PUSH2 0x1679 DUP3 PUSH2 0x1650 JUMP JUMPDEST SWAP1 POP SWAP2 SWAP1 POP JUMP JUMPDEST PUSH2 0x1689 DUP2 PUSH2 0x166F JUMP JUMPDEST DUP2 EQ PUSH2 0x1693 JUMPI PUSH0 DUP1 REVERT JUMPDEST POP JUMP JUMPDEST PUSH0 DUP2 CALLDATALOAD SWAP1 POP PUSH2 0x16A4 DUP2 PUSH2 0x1680 JUMP JUMPDEST SWAP3 SWAP2 POP POP JUMP JUMPDEST PUSH0 DUP2 SWAP1 POP SWAP2 SWAP1 POP JUMP JUMPDEST PUSH2 0x16BC DUP2 PUSH2 0x16AA JUMP JUMPDEST DUP2 EQ PUSH2 0x16C6 JUMPI PUSH0 DUP1 REVERT JUMPDEST POP JUMP JUMPDEST PUSH0 DUP2 CALLDATALOAD SWAP1 POP PUSH2 0x16D7 DUP2 PUSH2 0x16B3 JUMP JUMPDEST SWAP3 SWAP2 POP POP JUMP JUMPDEST PUSH0 DUP1 PUSH1 0x40 DUP4 DUP6 SUB SLT ISZERO PUSH2 0x16F3 JUMPI PUSH2 0x16F2 PUSH2 0x164C JUMP JUMPDEST JUMPDEST PUSH0 PUSH2 0x1700 DUP6 DUP3 DUP7 ADD PUSH2 0x1696 JUMP JUMPDEST SWAP3 POP POP PUSH1 0x20 PUSH2 0x1711 DUP6 DUP3 DUP7 ADD PUSH2 0x16C9 JUMP JUMPDEST SWAP2 POP POP SWAP3 POP SWAP3 SWAP1 POP JUMP JUMPDEST PUSH0 DUP2 ISZERO ISZERO SWAP1 POP SWAP2 SWAP1 POP JUMP JUMPDEST PUSH2 0x172F DUP2 PUSH2 0x171B JUMP JUMPDEST DUP3 MSTORE POP POP JUMP JUMPDEST PUSH0 PUSH1 0x20 DUP3 ADD SWAP1 POP PUSH2 0x1748 PUSH0 DUP4 ADD DUP5 PUSH2 0x1726 JUMP JUMPDEST SWAP3 SWAP2 POP POP JUMP JUMPDEST PUSH2 0x1757 DUP2 PUSH2 0x16AA JUMP JUMPDEST DUP3 MSTORE POP POP JUMP JUMPDEST PUSH0 PUSH1 0x20 DUP3 ADD SWAP1 POP PUSH2 0x1770 PUSH0 DUP4 ADD DUP5 PUSH2 0x174E JUMP JUMPDEST SWAP3 SWAP2 POP POP JUMP JUMPDEST PUSH0 DUP1 PUSH0 PUSH1 0x60 DUP5 DUP7 SUB SLT ISZERO PUSH2 0x178D JUMPI PUSH2 0x178C PUSH2 0x164C JUMP JUMPDEST JUMPDEST PUSH0 PUSH2 0x179A DUP7 DUP3 DUP8 ADD PUSH2 0x1696 JUMP JUMPDEST SWAP4 POP POP PUSH1 0x20 PUSH2 0x17AB DUP7 DUP3 DUP8 ADD PUSH2 0x1696 JUMP JUMPDEST SWAP3 POP POP PUSH1 0x40 PUSH2 0x17BC DUP7 DUP3 DUP8 ADD PUSH2 0x16C9 JUMP JUMPDEST SWAP2 POP POP SWAP3 POP SWAP3 POP SWAP3 JUMP JUMPDEST PUSH0 PUSH1 0x20 DUP3 DUP5 SUB SLT ISZERO PUSH2 0x17DB JUMPI PUSH2 0x17DA PUSH2 0x164C JUMP JUMPDEST JUMPDEST PUSH0 PUSH2 0x17E8 DUP5 DUP3 DUP6 ADD PUSH2 0x1696 JUMP JUMPDEST SWAP2 POP POP SWAP3 SWAP2 POP POP JUMP JUMPDEST PUSH32 0x4E487B7100000000000000000000000000000000000000000000000000000000 PUSH0 MSTORE PUSH1 0x21 PUSH1 0x4 MSTORE PUSH1 0x24 PUSH0 REVERT JUMPDEST PUSH1 0xA DUP2 LT PUSH2 0x182F JUMPI PUSH2 0x182E PUSH2 0x17F1 JUMP JUMPDEST JUMPDEST POP JUMP JUMPDEST PUSH0 DUP2 SWAP1 POP PUSH2 0x183F DUP3 PUSH2 0x181E JUMP JUMPDEST SWAP2 SWAP1 POP JUMP JUMPDEST PUSH0 PUSH2 0x184E DUP3 PUSH2 0x1832 JUMP JUMPDEST SWAP1 POP SWAP2 SWAP1 POP JUMP JUMPDEST PUSH2 0x185E DUP2 PUSH2 0x1844 JUMP JUMPDEST DUP3 MSTORE POP POP JUMP JUMPDEST PUSH0 PUSH1 0x20 DUP3 ADD SWAP1 POP PUSH2 0x1877 PUSH0 DUP4 ADD DUP5 PUSH2 0x1855 JUMP JUMPDEST SWAP3 SWAP2 POP POP JUMP JUMPDEST PUSH0 PUSH1 0xFF DUP3 AND SWAP1 POP SWAP2 SWAP1 POP JUMP JUMPDEST PUSH2 0x1892 DUP2 PUSH2 0x187D JUMP JUMPDEST DUP3 MSTORE POP POP JUMP JUMPDEST PUSH0 PUSH1 0x20 DUP3 ADD SWAP1 POP PUSH2 0x18AB PUSH0 DUP4 ADD DUP5 PUSH2 0x1889 JUMP JUMPDEST SWAP3 SWAP2 POP POP JUMP JUMPDEST PUSH1 0xA DUP2 LT PUSH2 0x18BD JUMPI PUSH0 DUP1 REVERT JUMPDEST POP JUMP JUMPDEST PUSH0 DUP2 CALLDATALOAD SWAP1 POP PUSH2 0x18CE DUP2 PUSH2 0x18B1 JUMP JUMPDEST SWAP3 SWAP2 POP POP JUMP JUMPDEST PUSH0 PUSH1 0x20 DUP3 DUP5 SUB SLT ISZERO PUSH2 0x18E9 JUMPI PUSH2 0x18E8 PUSH2 0x164C JUMP JUMPDEST JUMPDEST PUSH0 PUSH2 0x18F6 DUP5 DUP3 DUP6 ADD PUSH2 0x18C0 JUMP JUMPDEST SWAP2 POP POP SWAP3 SWAP2 POP POP JUMP JUMPDEST PUSH0 PUSH1 0x20 DUP3 DUP5 SUB SLT ISZERO PUSH2 0x1914 JUMPI PUSH2 0x1913 PUSH2 0x164C JUMP JUMPDEST JUMPDEST PUSH0 PUSH2 0x1921 DUP5 DUP3 DUP6 ADD PUSH2 0x16C9 JUMP JUMPDEST SWAP2 POP POP SWAP3 SWAP2 POP POP JUMP JUMPDEST PUSH2 0x1933 DUP2 PUSH2 0x166F JUMP JUMPDEST DUP3 MSTORE POP POP JUMP JUMPDEST PUSH0 PUSH1 0x20 DUP3 ADD SWAP1 POP PUSH2 0x194C PUSH0 DUP4 ADD DUP5 PUSH2 0x192A JUMP JUMPDEST SWAP3 SWAP2 POP POP JUMP JUMPDEST PUSH0 DUP1 PUSH1 0x40 DUP4 DUP6 SUB SLT ISZERO PUSH2 0x1968 JUMPI PUSH2 0x1967 PUSH2 0x164C JUMP JUMPDEST JUMPDEST PUSH0 PUSH2 0x1975 DUP6 DUP3 DUP7 ADD PUSH2 0x1696 JUMP JUMPDEST SWAP3 POP POP PUSH1 0x20 PUSH2 0x1986 DUP6 DUP3 DUP7 ADD PUSH2 0x1696 JUMP JUMPDEST SWAP2 POP POP SWAP3 POP SWAP3 SWAP1 POP JUMP JUMPDEST PUSH32 0x4E487B7100000000000000000000000000000000000000000000000000000000 PUSH0 MSTORE PUSH1 0x22 PUSH1 0x4 MSTORE PUSH1 0x24 PUSH0 REVERT JUMPDEST PUSH0 PUSH1 0x2 DUP3 DIV SWAP1 POP PUSH1 0x1 DUP3 AND DUP1 PUSH2 0x19D4 JUMPI PUSH1 0x7F DUP3 AND SWAP2 POP JUMPDEST PUSH1 0x20 DUP3 LT DUP2 SUB PUSH2 0x19E7 JUMPI PUSH2 0x19E6 PUSH2 0x1990 JUMP JUMPDEST JUMPDEST POP SWAP2 SWAP1 POP JUMP JUMPDEST PUSH0 DUP2 MLOAD SWAP1 POP PUSH2 0x19FB DUP2 PUSH2 0x16B3 JUMP JUMPDEST SWAP3 SWAP2 POP POP JUMP JUMPDEST PUSH0 PUSH1 0x20 DUP3 DUP5 SUB SLT ISZERO PUSH2 0x1A16 JUMPI PUSH2 0x1A15 PUSH2 0x164C JUMP JUMPDEST JUMPDEST PUSH0 PUSH2 0x1A23 DUP5 DUP3 DUP6 ADD PUSH2 0x19ED JUMP JUMPDEST SWAP2 POP POP SWAP3 SWAP2 POP POP JUMP JUMPDEST PUSH32 0x4974656D20646F6573206E6F7420657869737400000000000000000000000000 PUSH0 DUP3 ADD MSTORE POP JUMP JUMPDEST PUSH0 PUSH2 0x1A60 PUSH1 0x13 DUP4 PUSH2 0x15C6 JUMP JUMPDEST SWAP2 POP PUSH2 0x1A6B DUP3 PUSH2 0x1A2C JUMP JUMPDEST PUSH1 0x20 DUP3 ADD SWAP1 POP SWAP2 SWAP1 POP JUMP JUMPDEST PUSH0 PUSH1 0x20 DUP3 ADD SWAP1 POP DUP2 DUP2 SUB PUSH0 DUP4 ADD MSTORE PUSH2 0x1A8D DUP2 PUSH2 0x1A54 JUMP JUMPDEST SWAP1 POP SWAP2 SWAP1 POP JUMP JUMPDEST PUSH32 0x496E73756666696369656E742062616C616E636520746F2072656465656D2074 PUSH0 DUP3 ADD MSTORE PUSH32 0x686973206974656D000000000000000000000000000000000000000000000000 PUSH1 0x20 DUP3 ADD MSTORE POP JUMP JUMPDEST PUSH0 PUSH2 0x1AEE PUSH1 0x28 DUP4 PUSH2 0x15C6 JUMP JUMPDEST SWAP2 POP PUSH2 0x1AF9 DUP3 PUSH2 0x1A94 JUMP JUMPDEST PUSH1 0x40 DUP3 ADD SWAP1 POP SWAP2 SWAP1 POP JUMP JUMPDEST PUSH0 PUSH1 0x20 DUP3 ADD SWAP1 POP DUP2 DUP2 SUB PUSH0 DUP4 ADD MSTORE PUSH2 0x1B1B DUP2 PUSH2 0x1AE2 JUMP JUMPDEST SWAP1 POP SWAP2 SWAP1 POP JUMP JUMPDEST PUSH0 PUSH1 0x40 DUP3 ADD SWAP1 POP PUSH2 0x1B35 PUSH0 DUP4 ADD DUP6 PUSH2 0x1855 JUMP JUMPDEST PUSH2 0x1B42 PUSH1 0x20 DUP4 ADD DUP5 PUSH2 0x174E JUMP JUMPDEST SWAP4 SWAP3 POP POP POP JUMP JUMPDEST PUSH32 0x4E487B7100000000000000000000000000000000000000000000000000000000 PUSH0 MSTORE PUSH1 0x11 PUSH1 0x4 MSTORE PUSH1 0x24 PUSH0 REVERT JUMPDEST PUSH0 PUSH2 0x1B80 DUP3 PUSH2 0x16AA JUMP JUMPDEST SWAP2 POP PUSH2 0x1B8B DUP4 PUSH2 0x16AA JUMP JUMPDEST SWAP3 POP DUP3 DUP3 ADD SWAP1 POP DUP1 DUP3 GT ISZERO PUSH2 0x1BA3 JUMPI PUSH2 0x1BA2 PUSH2 0x1B49 JUMP JUMPDEST JUMPDEST SWAP3 SWAP2 POP POP JUMP JUMPDEST PUSH32 0x496E73756666696369656E7420446567656E20546F6B656E7320746F20627572 PUSH0 DUP3 ADD MSTORE PUSH32 0x6E2E20436865636B2062616C616E63652066697273742E000000000000000000 PUSH1 0x20 DUP3 ADD MSTORE POP JUMP JUMPDEST PUSH0 PUSH2 0x1C03 PUSH1 0x37 DUP4 PUSH2 0x15C6 JUMP JUMPDEST SWAP2 POP PUSH2 0x1C0E DUP3 PUSH2 0x1BA9 JUMP JUMPDEST PUSH1 0x40 DUP3 ADD SWAP1 POP SWAP2 SWAP1 POP JUMP JUMPDEST PUSH0 PUSH1 0x20 DUP3 ADD SWAP1 POP DUP2 DUP2 SUB PUSH0 DUP4 ADD MSTORE PUSH2 0x1C30 DUP2 PUSH2 0x1BF7 JUMP JUMPDEST SWAP1 POP SWAP2 SWAP1 POP JUMP JUMPDEST PUSH32 0x45524332303A2064656372656173656420616C6C6F77616E63652062656C6F77 PUSH0 DUP3 ADD MSTORE PUSH32 0x207A65726F000000000000000000000000000000000000000000000000000000 PUSH1 0x20 DUP3 ADD MSTORE POP JUMP JUMPDEST PUSH0 PUSH2 0x1C91 PUSH1 0x25 DUP4 PUSH2 0x15C6 JUMP JUMPDEST SWAP2 POP PUSH2 0x1C9C DUP3 PUSH2 0x1C37 JUMP JUMPDEST PUSH1 0x40 DUP3 ADD SWAP1 POP SWAP2 SWAP1 POP JUMP JUMPDEST PUSH0 PUSH1 0x20 DUP3 ADD SWAP1 POP DUP2 DUP2 SUB PUSH0 DUP4 ADD MSTORE PUSH2 0x1CBE DUP2 PUSH2 0x1C85 JUMP JUMPDEST SWAP1 POP SWAP2 SWAP1 POP JUMP JUMPDEST PUSH32 0x4E6F20746F6B656E7320746F2072656465656D2E000000000000000000000000 PUSH0 DUP3 ADD MSTORE POP JUMP JUMPDEST PUSH0 PUSH2 0x1CF9 PUSH1 0x14 DUP4 PUSH2 0x15C6 JUMP JUMPDEST SWAP2 POP PUSH2 0x1D04 DUP3 PUSH2 0x1CC5 JUMP JUMPDEST PUSH1 0x20 DUP3 ADD SWAP1 POP SWAP2 SWAP1 POP JUMP JUMPDEST PUSH0 PUSH1 0x20 DUP3 ADD SWAP1 POP DUP2 DUP2 SUB PUSH0 DUP4 ADD MSTORE PUSH2 0x1D26 DUP2 PUSH2 0x1CED JUMP JUMPDEST SWAP1 POP SWAP2 SWAP1 POP JUMP JUMPDEST PUSH32 0x496E73756666696369656E7420446567656E20546F6B656E7320746F20747261 PUSH0 DUP3 ADD MSTORE PUSH32 0x6E736665722E20436865636B2062616C616E63652066697273742E0000000000 PUSH1 0x20 DUP3 ADD MSTORE POP JUMP JUMPDEST PUSH0 PUSH2 0x1D87 PUSH1 0x3B DUP4 PUSH2 0x15C6 JUMP JUMPDEST SWAP2 POP PUSH2 0x1D92 DUP3 PUSH2 0x1D2D JUMP JUMPDEST PUSH1 0x40 DUP3 ADD SWAP1 POP SWAP2 SWAP1 POP JUMP JUMPDEST PUSH0 PUSH1 0x20 DUP3 ADD SWAP1 POP DUP2 DUP2 SUB PUSH0 DUP4 ADD MSTORE PUSH2 0x1DB4 DUP2 PUSH2 0x1D7B JUMP JUMPDEST SWAP1 POP SWAP2 SWAP1 POP JUMP JUMPDEST PUSH32 0x4F776E61626C653A206E6577206F776E657220697320746865207A65726F2061 PUSH0 DUP3 ADD MSTORE PUSH32 0x6464726573730000000000000000000000000000000000000000000000000000 PUSH1 0x20 DUP3 ADD MSTORE POP JUMP JUMPDEST PUSH0 PUSH2 0x1E15 PUSH1 0x26 DUP4 PUSH2 0x15C6 JUMP JUMPDEST SWAP2 POP PUSH2 0x1E20 DUP3 PUSH2 0x1DBB JUMP JUMPDEST PUSH1 0x40 DUP3 ADD SWAP1 POP SWAP2 SWAP1 POP JUMP JUMPDEST PUSH0 PUSH1 0x20 DUP3 ADD SWAP1 POP DUP2 DUP2 SUB PUSH0 DUP4 ADD MSTORE PUSH2 0x1E42 DUP2 PUSH2 0x1E09 JUMP JUMPDEST SWAP1 POP SWAP2 SWAP1 POP JUMP JUMPDEST PUSH32 0x45524332303A20617070726F76652066726F6D20746865207A65726F20616464 PUSH0 DUP3 ADD MSTORE PUSH32 0x7265737300000000000000000000000000000000000000000000000000000000 PUSH1 0x20 DUP3 ADD MSTORE POP JUMP JUMPDEST PUSH0 PUSH2 0x1EA3 PUSH1 0x24 DUP4 PUSH2 0x15C6 JUMP JUMPDEST SWAP2 POP PUSH2 0x1EAE DUP3 PUSH2 0x1E49 JUMP JUMPDEST PUSH1 0x40 DUP3 ADD SWAP1 POP SWAP2 SWAP1 POP JUMP JUMPDEST PUSH0 PUSH1 0x20 DUP3 ADD SWAP1 POP DUP2 DUP2 SUB PUSH0 DUP4 ADD MSTORE PUSH2 0x1ED0 DUP2 PUSH2 0x1E97 JUMP JUMPDEST SWAP1 POP SWAP2 SWAP1 POP JUMP JUMPDEST PUSH32 0x45524332303A20617070726F766520746F20746865207A65726F206164647265 PUSH0 DUP3 ADD MSTORE PUSH32 0x7373000000000000000000000000000000000000000000000000000000000000 PUSH1 0x20 DUP3 ADD MSTORE POP JUMP JUMPDEST PUSH0 PUSH2 0x1F31 PUSH1 0x22 DUP4 PUSH2 0x15C6 JUMP JUMPDEST SWAP2 POP PUSH2 0x1F3C DUP3 PUSH2 0x1ED7 JUMP JUMPDEST PUSH1 0x40 DUP3 ADD SWAP1 POP SWAP2 SWAP1 POP JUMP JUMPDEST PUSH0 PUSH1 0x20 DUP3 ADD SWAP1 POP DUP2 DUP2 SUB PUSH0 DUP4 ADD MSTORE PUSH2 0x1F5E DUP2 PUSH2 0x1F25 JUMP JUMPDEST SWAP1 POP SWAP2 SWAP1 POP JUMP JUMPDEST PUSH32 0x45524332303A20696E73756666696369656E7420616C6C6F77616E6365000000 PUSH0 DUP3 ADD MSTORE POP JUMP JUMPDEST PUSH0 PUSH2 0x1F99 PUSH1 0x1D DUP4 PUSH2 0x15C6 JUMP JUMPDEST SWAP2 POP PUSH2 0x1FA4 DUP3 PUSH2 0x1F65 JUMP JUMPDEST PUSH1 0x20 DUP3 ADD SWAP1 POP SWAP2 SWAP1 POP JUMP JUMPDEST PUSH0 PUSH1 0x20 DUP3 ADD SWAP1 POP DUP2 DUP2 SUB PUSH0 DUP4 ADD MSTORE PUSH2 0x1FC6 DUP2 PUSH2 0x1F8D JUMP JUMPDEST SWAP1 POP SWAP2 SWAP1 POP JUMP JUMPDEST PUSH32 0x45524332303A207472616E736665722066726F6D20746865207A65726F206164 PUSH0 DUP3 ADD MSTORE PUSH32 0x6472657373000000000000000000000000000000000000000000000000000000 PUSH1 0x20 DUP3 ADD MSTORE POP JUMP JUMPDEST PUSH0 PUSH2 0x2027 PUSH1 0x25 DUP4 PUSH2 0x15C6 JUMP JUMPDEST SWAP2 POP PUSH2 0x2032 DUP3 PUSH2 0x1FCD JUMP JUMPDEST PUSH1 0x40 DUP3 ADD SWAP1 POP SWAP2 SWAP1 POP JUMP JUMPDEST PUSH0 PUSH1 0x20 DUP3 ADD SWAP1 POP DUP2 DUP2 SUB PUSH0 DUP4 ADD MSTORE PUSH2 0x2054 DUP2 PUSH2 0x201B JUMP JUMPDEST SWAP1 POP SWAP2 SWAP1 POP JUMP JUMPDEST PUSH32 0x45524332303A207472616E7366657220746F20746865207A65726F2061646472 PUSH0 DUP3 ADD MSTORE PUSH32 0x6573730000000000000000000000000000000000000000000000000000000000 PUSH1 0x20 DUP3 ADD MSTORE POP JUMP JUMPDEST PUSH0 PUSH2 0x20B5 PUSH1 0x23 DUP4 PUSH2 0x15C6 JUMP JUMPDEST SWAP2 POP PUSH2 0x20C0 DUP3 PUSH2 0x205B JUMP JUMPDEST PUSH1 0x40 DUP3 ADD SWAP1 POP SWAP2 SWAP1 POP JUMP JUMPDEST PUSH0 PUSH1 0x20 DUP3 ADD SWAP1 POP DUP2 DUP2 SUB PUSH0 DUP4 ADD MSTORE PUSH2 0x20E2 DUP2 PUSH2 0x20A9 JUMP JUMPDEST SWAP1 POP SWAP2 SWAP1 POP JUMP JUMPDEST PUSH32 0x45524332303A207472616E7366657220616D6F756E7420657863656564732062 PUSH0 DUP3 ADD MSTORE PUSH32 0x616C616E63650000000000000000000000000000000000000000000000000000 PUSH1 0x20 DUP3 ADD MSTORE POP JUMP JUMPDEST PUSH0 PUSH2 0x2143 PUSH1 0x26 DUP4 PUSH2 0x15C6 JUMP JUMPDEST SWAP2 POP PUSH2 0x214E DUP3 PUSH2 0x20E9 JUMP JUMPDEST PUSH1 0x40 DUP3 ADD SWAP1 POP SWAP2 SWAP1 POP JUMP JUMPDEST PUSH0 PUSH1 0x20 DUP3 ADD SWAP1 POP DUP2 DUP2 SUB PUSH0 DUP4 ADD MSTORE PUSH2 0x2170 DUP2 PUSH2 0x2137 JUMP JUMPDEST SWAP1 POP SWAP2 SWAP1 POP JUMP JUMPDEST PUSH32 0x45524332303A206275726E2066726F6D20746865207A65726F20616464726573 PUSH0 DUP3 ADD MSTORE PUSH32 0x7300000000000000000000000000000000000000000000000000000000000000 PUSH1 0x20 DUP3 ADD MSTORE POP JUMP JUMPDEST PUSH0 PUSH2 0x21D1 PUSH1 0x21 DUP4 PUSH2 0x15C6 JUMP JUMPDEST SWAP2 POP PUSH2 0x21DC DUP3 PUSH2 0x2177 JUMP JUMPDEST PUSH1 0x40 DUP3 ADD SWAP1 POP SWAP2 SWAP1 POP JUMP JUMPDEST PUSH0 PUSH1 0x20 DUP3 ADD SWAP1 POP DUP2 DUP2 SUB PUSH0 DUP4 ADD MSTORE PUSH2 0x21FE DUP2 PUSH2 0x21C5 JUMP JUMPDEST SWAP1 POP SWAP2 SWAP1 POP JUMP JUMPDEST PUSH32 0x45524332303A206275726E20616D6F756E7420657863656564732062616C616E PUSH0 DUP3 ADD MSTORE PUSH32 0x6365000000000000000000000000000000000000000000000000000000000000 PUSH1 0x20 DUP3 ADD MSTORE POP JUMP JUMPDEST PUSH0 PUSH2 0x225F PUSH1 0x22 DUP4 PUSH2 0x15C6 JUMP JUMPDEST SWAP2 POP PUSH2 0x226A DUP3 PUSH2 0x2205 JUMP JUMPDEST PUSH1 0x40 DUP3 ADD SWAP1 POP SWAP2 SWAP1 POP JUMP JUMPDEST PUSH0 PUSH1 0x20 DUP3 ADD SWAP1 POP DUP2 DUP2 SUB PUSH0 DUP4 ADD MSTORE PUSH2 0x228C DUP2 PUSH2 0x2253 JUMP JUMPDEST SWAP1 POP SWAP2 SWAP1 POP JUMP JUMPDEST PUSH32 0x4F776E61626C653A2063616C6C6572206973206E6F7420746865206F776E6572 PUSH0 DUP3 ADD MSTORE POP JUMP JUMPDEST PUSH0 PUSH2 0x22C7 PUSH1 0x20 DUP4 PUSH2 0x15C6 JUMP JUMPDEST SWAP2 POP PUSH2 0x22D2 DUP3 PUSH2 0x2293 JUMP JUMPDEST PUSH1 0x20 DUP3 ADD SWAP1 POP SWAP2 SWAP1 POP JUMP JUMPDEST PUSH0 PUSH1 0x20 DUP3 ADD SWAP1 POP DUP2 DUP2 SUB PUSH0 DUP4 ADD MSTORE PUSH2 0x22F4 DUP2 PUSH2 0x22BB JUMP JUMPDEST SWAP1 POP SWAP2 SWAP1 POP JUMP JUMPDEST PUSH32 0x45524332303A206D696E7420746F20746865207A65726F206164647265737300 PUSH0 DUP3 ADD MSTORE POP JUMP JUMPDEST PUSH0 PUSH2 0x232F PUSH1 0x1F DUP4 PUSH2 0x15C6 JUMP JUMPDEST SWAP2 POP PUSH2 0x233A DUP3 PUSH2 0x22FB JUMP JUMPDEST PUSH1 0x20 DUP3 ADD SWAP1 POP SWAP2 SWAP1 POP JUMP JUMPDEST PUSH0 PUSH1 0x20 DUP3 ADD SWAP1 POP DUP2 DUP2 SUB PUSH0 DUP4 ADD MSTORE PUSH2 0x235C DUP2 PUSH2 0x2323 JUMP JUMPDEST SWAP1 POP SWAP2 SWAP1 POP JUMP INVALID LOG2 PUSH5 0x6970667358 0x22 SLT KECCAK256 STOP EXP 0xC5 DUP12 0xBD DELEGATECALL PC DUP12 PUSH4 0xAAC3D22A 0x29 0xCF ADD 0x1E 0x21 0xE1 PUSH11 0xC7205971019A13566A206A 0xAF PUSH5 0x736F6C6343 STOP ADDMOD BYTE STOP CALLER "
				},
				"gasEstimates": {
					"creation": {
						"codeDepositCost": "1822600",
						"executionCost": "infinite",
						"totalCost": "infinite"
					},
					"external": {
						"allowance(address,address)": "infinite",
						"approve(address,uint256)": "infinite",
						"balanceOf(address)": "2896",
						"burn(uint256)": "infinite",
						"burnFrom(address,uint256)": "infinite",
						"burnTokens(uint256)": "infinite",
						"decimals()": "353",
						"decreaseAllowance(address,uint256)": "infinite",
						"getBalance()": "infinite",
						"getRedeemedItem(address)": "3092",
						"increaseAllowance(address,uint256)": "infinite",
						"itemPrices(uint8)": "2735",
						"mint(address,uint256)": "infinite",
						"name()": "infinite",
						"owner()": "2648",
						"redeem(uint8)": "infinite",
						"redeemTokens(uint256)": "infinite",
						"redeemedItems(address)": "3010",
						"renounceOwnership()": "30479",
						"symbol()": "infinite",
						"totalSupply()": "2522",
						"transfer(address,uint256)": "infinite",
						"transferFrom(address,address,uint256)": "infinite",
						"transferOwnership(address)": "30841",
						"transferTokens(address,uint256)": "infinite"
					}
				},
				"methodIdentifiers": {
					"allowance(address,address)": "dd62ed3e",
					"approve(address,uint256)": "095ea7b3",
					"balanceOf(address)": "70a08231",
					"burn(uint256)": "42966c68",
					"burnFrom(address,uint256)": "79cc6790",
					"burnTokens(uint256)": "6d1b229d",
					"decimals()": "313ce567",
					"decreaseAllowance(address,uint256)": "a457c2d7",
					"getBalance()": "12065fe0",
					"getRedeemedItem(address)": "2d80d256",
					"increaseAllowance(address,uint256)": "39509351",
					"itemPrices(uint8)": "54ef0753",
					"mint(address,uint256)": "40c10f19",
					"name()": "06fdde03",
					"owner()": "8da5cb5b",
					"redeem(uint8)": "32271faf",
					"redeemTokens(uint256)": "a6e158f8",
					"redeemedItems(address)": "3e8d40f9",
					"renounceOwnership()": "715018a6",
					"symbol()": "95d89b41",
					"totalSupply()": "18160ddd",
					"transfer(address,uint256)": "a9059cbb",
					"transferFrom(address,address,uint256)": "23b872dd",
					"transferOwnership(address)": "f2fde38b",
					"transferTokens(address,uint256)": "bec3fa17"
				}
			},
			"storageLayout": {
				"storage": [
					{
						"astId": 128,
						"contract": "ZUNIEGA - ETH+AVAX MOD 4/DegenToken.sol:DegenToken",
						"label": "_balances",
						"offset": 0,
						"slot": "0",
						"type": "t_mapping(t_address,t_uint256)"
					},
					{
						"astId": 134,
						"contract": "ZUNIEGA - ETH+AVAX MOD 4/DegenToken.sol:DegenToken",
						"label": "_allowances",
						"offset": 0,
						"slot": "1",
						"type": "t_mapping(t_address,t_mapping(t_address,t_uint256))"
					},
					{
						"astId": 136,
						"contract": "ZUNIEGA - ETH+AVAX MOD 4/DegenToken.sol:DegenToken",
						"label": "_totalSupply",
						"offset": 0,
						"slot": "2",
						"type": "t_uint256"
					},
					{
						"astId": 138,
						"contract": "ZUNIEGA - ETH+AVAX MOD 4/DegenToken.sol:DegenToken",
						"label": "_name",
						"offset": 0,
						"slot": "3",
						"type": "t_string_storage"
					},
					{
						"astId": 140,
						"contract": "ZUNIEGA - ETH+AVAX MOD 4/DegenToken.sol:DegenToken",
						"label": "_symbol",
						"offset": 0,
						"slot": "4",
						"type": "t_string_storage"
					},
					{
						"astId": 7,
						"contract": "ZUNIEGA - ETH+AVAX MOD 4/DegenToken.sol:DegenToken",
						"label": "_owner",
						"offset": 0,
						"slot": "5",
						"type": "t_address"
					},
					{
						"astId": 895,
						"contract": "ZUNIEGA - ETH+AVAX MOD 4/DegenToken.sol:DegenToken",
						"label": "itemPrices",
						"offset": 0,
						"slot": "6",
						"type": "t_mapping(t_enum(Item)890,t_uint256)"
					},
					{
						"astId": 900,
						"contract": "ZUNIEGA - ETH+AVAX MOD 4/DegenToken.sol:DegenToken",
						"label": "redeemedItems",
						"offset": 0,
						"slot": "7",
						"type": "t_mapping(t_address,t_enum(Item)890)"
					}
				],
				"types": {
					"t_address": {
						"encoding": "inplace",
						"label": "address",
						"numberOfBytes": "20"
					},
					"t_enum(Item)890": {
						"encoding": "inplace",
						"label": "enum DegenToken.Item",
						"numberOfBytes": "1"
					},
					"t_mapping(t_address,t_enum(Item)890)": {
						"encoding": "mapping",
						"key": "t_address",
						"label": "mapping(address => enum DegenToken.Item)",
						"numberOfBytes": "32",
						"value": "t_enum(Item)890"
					},
					"t_mapping(t_address,t_mapping(t_address,t_uint256))": {
						"encoding": "mapping",
						"key": "t_address",
						"label": "mapping(address => mapping(address => uint256))",
						"numberOfBytes": "32",
						"value": "t_mapping(t_address,t_uint256)"
					},
					"t_mapping(t_address,t_uint256)": {
						"encoding": "mapping",
						"key": "t_address",
						"label": "mapping(address => uint256)",
						"numberOfBytes": "32",
						"value": "t_uint256"
					},
					"t_mapping(t_enum(Item)890,t_uint256)": {
						"encoding": "mapping",
						"key": "t_enum(Item)890",
						"label": "mapping(enum DegenToken.Item => uint256)",
						"numberOfBytes": "32",
						"value": "t_uint256"
					},
					"t_string_storage": {
						"encoding": "bytes",
						"label": "string",
						"numberOfBytes": "32"
					},
					"t_uint256": {
						"encoding": "inplace",
						"label": "uint256",
						"numberOfBytes": "32"
					}
				}
			},
			"userdoc": {
				"kind": "user",
				"methods": {},
				"version": 1
			}
		}
	}
}